:02000004B0004A
:100000009721000083B101419D45631EB5087350DF
:10001000401073504014996273B00210896273A04B
:100020000210B702040073A0021017210000033170
:10003000614073100114172500000335A541972571
:10004000000083B52540172600000336264063FADA
:10005000C5008332050023B055002105A105E3EA60
:10006000C5FE172500000335653D9725000083B5C3
:10007000E53A6377B500233005002105E36DB5FE51
:10008000172500000335053AEF103024EF10302417
:10009000014581450146EF10703773005010F5BFE0
:0C00A00073005010F5BF73005010F5BF46
:10010000930705011CE57D5718E91CED1CF1233010
:10011000050082802330050282801C659CE5986B77
:1001200098E90CE78CEB88F11C6185071CE1828063
:100130009061FD576303F60293070501BE869C6735
:100140009863E37DE6FE9C669CE58CEB94E98CE687
:1001500088F11C6185071CE182801471EDB71C7168
:100160001465186998EA146514E798676308A7008E
:100170002330050288637D1588E38280186998E73B
:10018000C5BF411106E422E02A84EF0030383C78F4
:1001900089EB0544EF0030392285A26002644101F9
:1001A00082800144C5BF011106EC22E826E44AE042
:1001B0002A84B2840339050750611DE21C6199CB82
:1001C0000145930719003CF8E2604264A2640269A9
:1001D000056182800869EF00302923380400D5B713
:1001E00099EC0865EF1030101C645860BA971CE455
:1001F000186863EFE7021C601CE42685D9B7086D18
:10020000EF10700E1C6C5860B306E040998F1CEC28
:10021000186063F5E7001C68B6971CEC8947638497
:10022000F400014579BF630709007D19014551BFFD
:10023000268541BF014571B7AA87506115C241119A
:1002400006E42E85986F329798EF946B6364D7001D
:10025000986398EF8C6FEF101009A26041018280C3
:100260008280011106EC22E826E4AA84EF00102A1D
:1002700003C494081B1484011B54844131A07D34B1
:100280001B1484011B548441635C8000BC6489CBD3
:1002900013858404EF00F00E7DD1EF00701CC5B70C
:1002A000FD57A384F408EF001028EF00302603C4A4
:1002B00084081B1484011B54844131A07D341B1419
:1002C00084011B548441635C80009C7089CB13853E
:1002D0000402EF00100B7DD1EF009018C5B7FD5759
:1002E0002384F408EF003024E2604264A2640561D4
:1002F000828049C5797106F422F026EC2A84AE8406
:100300003C7DBDCF54610147B3B7D70281E709C730
:10031000014585A80547E5BFEF00501F1C60347CF0
:1003200058603386E6023E9610E8233804061CE443
:10033000FD163307D702BA971CECFD572304F408C7
:10034000A304F4089DE01C7089E7EF00D01D05456B
:100350000DA813050402EF00D00265D99307000829
:100360003EE42800EF10E07ACDB713050402EFF069
:100370003FD913058404EFF0BFD8C1BF0145828087
:100380000145A2700274E26445618280011106ECAD
:1003900022E826E4B6843A8499ED18E028FC4CE083
:1003A00085452285EFF0FFF4230C9408E260426457
:1003B000A2640561828010E3D5B7797106F44EE43A
:1003C00031C522F026EC4AE82A84AE84328981477E
:1003D0003337B50215EBA9E3330594029307F0F523
:1003E00063E1A7041305050AEF100028AA891DCDB3
:1003F0002A87CA861306050AA6852285EFF01FF90B
:100400000274E264426921A08547F1B781494E85B3
:10041000A270A2694561828081490274E2644269E6
:10042000FDB781490274E2644269D5B70274E2649F
:100430004269F1BF011106EC22E84AE02A843289C0
:10044000368638793C7D636BF70089476388F60010
:100450000145E260426402690561828026E48344CA
:1004600094089B9484019BD484413C782285EFF0CE
:100470009FD3FD576393F4023C6481E70545A26472
:10048000C9BF13058404EF00C06F15C563080902D6
:1004900005452330A900A2646DBFEF00604963F2F7
:1004A000A40285249B9484019BD48441A3049408D2
:1004B0000545A26479BF0545A26461BF0545A264F4
:1004C00049BF0545A26471B71D7186ECA2E8A6E498
:1004D000CAE04EFC2A84AE8932E40149ADA8CE853B
:1004E0002285EFF07FD5FD1424F81C7099EBEF0006
:1004F00090030545E6604664A6640669E2792561D5
:10050000828013050402EF00C06775D193070008CD
:100510003EEC2808EF10E05FD9BFEF00D0000145A6
:10052000D1BF0810EF00E072054935A82304040884
:1005300091A8A304040885A02285EFF09FD2EF00C4
:10054000B02C11A82285EFF0DFD1EF00F02B22852F
:10055000EFF03FC335EDEF00607B2478C9F0A26770
:10056000CDDFE30009FCEF00007CEF00403BEF0033
:10057000E079834784089B9787019BD787417D5704
:10058000E386E7FA834794089B9787019BD78741C7
:100590007D57E380E7FAEF0000792C000810EF00A8
:1005A000703C4DF12285EFF0DFBD59D5A2651305F2
:1005B0008404EF0040562285EFF0BFCAEF00D0243C
:1005C00059F9930700083EEC2808EF10805461B7F2
:1005D00001450DB781C50146814739A08280138648
:1005E000819436961DA885071D476367F702939689
:1005F00047001387819436971867E302A7FE65F6D4
:1006000093964700138781943697186369FF138781
:1006100081943386E600C1BF19C20CE208E68280ED
:10062000011106EC22E826E44AE02A84AE843289ED
:10063000EF00C06D834784089B9787019BD7874154
:100640007D576388E702834794089B9787019BD770
:1006500087417D576382E702EF00E06C3C7885C3F9
:100660002285EFF01FC0E2604264A2640269056166
:10067000828023040408C1BFA3040408F1BF4A8692
:10068000A68513058404EF00404BD9BF83B7818D45
:100690009C6389E7FD5723B0F188828083B7818D01
:1006A0009C6F9C6323B0F1888280411106E422E0B4
:1006B0002A842871EF1000092285EF10A008A2609B
:1006C000026441018280397106FC22F826F44AF066
:1006D0004EEC52E856E45AE0AA8AAE84368B3A8948
:1006E0003E8A4284931936004E869305500A03359C
:1006F0000806EF10003E3C70E119BE9993F909FF1E
:100700009DC081483D48636E180133881401030879
:100710000800330314012304030763040800850859
:10072000D5B7A30B0406994763F327013E89233C01
:1007300024052338240913058400EFF0BF9D130519
:100740000403EFF03F9D00F09D47B38727411CF85D
:1007500020E45A86D6854E85EF10902A08E063047F
:100760000A0023308A00E2704274A2740279E269BE
:10077000426AA26A026B216182805D7186E4A2E016
:1007800026FC4AF84EF452F056EC5AE85EE4AA8988
:100790002E8A3289B68A3A8BBE8B13153600EF004B
:1007A000B06CAA8439C51305800AEF00F06B2A8467
:1007B0000DCD1306800A8145EF10A03124F0814849
:1007C0002288DE875A87D6864A86D2854E85EFF004
:1007D0009FEF2285A6600664E2744279A279027ACC
:1007E000E26A426BA26B616182802685EF009075A0
:1007F000CDB72A84F9BF411106E422E0014421A8C3
:1008000093172400A29713973700138501A93A95EF
:10081000EFF01F8F05049947E3F487FE138581A647
:10082000EFF01F8E138501A4EFF09F8D138581A13A
:10083000EFF01F8D1385019FEFF09F8C1385819C36
:10084000EFF01F8C938781A623BCF18C938701A4C2
:1008500023B8F18CA260026441018280797106F4B0
:1008600022F026EC4AE84EE452E02A84AE8403B932
:10087000818B83B9818D03BA018D9387018E986333
:10088000A302070A88632105EFF07F8D11ED83B77E
:10089000018EB86F8547B397E70093C7F7FF93863C
:1008A000018B9862F98F9CE2FD576306F4024A942B
:1008B00083B7018E80E76377240583B5018EA10598
:1008C0005285EFF0FF86A2700274E2644269A26969
:1008D000026A45618280E1DC1387819C14679387FB
:1008E000018E906314EA90638C6A0CEE906321068B
:1008F00090E59063210690EA9C6398F71C63850756
:100900001CE3D1B783B5018EA1054E85EFF05F8260
:1009100083B70188E379F4FA23B081886DB7138730
:1009200001871C6385071CE3828003B5818B82806D
:1009300003B5018C828083B701876392071441114C
:1009400006E422E09387818B8063050480E315CC65
:1009500083B70188637BF404014583B7018EB86FC8
:1009600093172700BA9713973700938701A9BA976F
:100970009863854763F3E7003E8583B78189639772
:100980000710A2600264410182801387818D146385
:100990009387018D906310E394E3138701891C63AF
:1009A00085071CE3EFF09FCE65B70145BDA8FD5755
:1009B00023B0F1885DB723B0E18845B7946F14E7A1
:1009C00059A823B807041463FD1614E3B46F054750
:1009D0003317D7001386018B0338060033670701EE
:1009E00018E2138701A9139626003696931636004F
:1009F000BA96946694EB906A90EF0CE68CEAAC6F32
:100A0000939625003388B600131638003A9690F76F
:100A100010620506931538002E9710E3B86F83B760
:100A2000018EBC6F63F3E700054583B7818D9C633E
:100A3000BDDF83B7818D9C6F9C6F9867E36DE4F693
:100A40009877906B946F14EA906B90E61467938597
:100A50008700E385B6F623B407021463FD1614E39A
:100A6000B86B2DD7907FB46314EA907F90E610673F
:100A700093860703E317D6F4B46314E799B7138793
:100A8000018A1C6385071CE3014582800545D5BDAD
:100A900083B7018789C7854723BCF188828023BC3F
:100AA000018883B7018B8127B1CF014721A005279A
:100AB0009B971700E3DD07FE02170193FD47998F0F
:100AC000938501A9939627003386F6001317360005
:100AD0002E971067106610E7BE96139736004107F1
:100AE0002E976304E60213972700BA9713973700EF
:100AF000938701A9BA979C67986F9387018E98E3B3
:100B00009C6382801307000245BF8E063387D500A1
:100B1000146F14E7C9BF411106E422E02E8483B5A7
:100B2000018E93850503EFF0AFE085452285EFF058
:100B3000FFD2A260026441018280411106E4AA87CB
:100B40002E85B28594671387018E106314FE10639F
:100B500003B8060123300605106313060603233489
:100B6000C80010631306060390EA18633CEB986311
:100B7000050798E391C17D55EFF05FCEA26041017A
:100B800082801C6D9C6FB86B907FB46314EA907F79
:100B900090E61467138607036388C60823B8070422
:100BA0001463FD1614E303B7018749E79877906B48
:100BB000946F14EA906B90E6106793868700630841
:100BC000D60623B4070210637D1610E3AC6F054709
:100BD0003317B7001386018B0862498F18E213861A
:100BE00001A9139725002E970E073297186798EBE7
:100BF0000C6B8CEF94E514EBAC6F13972500B306E8
:100C0000B7008E06B29694F7946285062E970E076B
:100C10003A9614E2B86F83B7018EBC6F63F9E702AE
:100C2000054523BCA1888280B46314E785BF906F1B
:100C300010E741BF138781A1146794FF8C6AACE36E
:100C400090E590EAB8EB1463850614E3E1B701453B
:100C5000828083B701891CE183B7818B1CE5828088
:100C6000854723BCF188828051CD011106EC22E832
:100C70002A845C6DFD175CED346D58696386E60867
:100C800091C70145E26042640561828026E49304D5
:100C900085002685EFF0AFCC01ED386C8547B39722
:100CA000E70093C7F7FF1387018B1463F58F1CE3ED
:100CB000586838EC9D47998F1CF80545B317E50037
:100CC0009386018B9062D18F9CE2938601A9931742
:100CD0002700BA978E07B6979C671CE8986B18ECAC
:100CE00004E784EB306C931726003387C7000E07A8
:100CF000369718F418632A97B2978E07BE9698E233
:100D0000A26449B7014582800145ADBF73700110EF
:100D100083B7818A81CB1387018E1463BC7E8507DC
:100D2000BCFE1C63828083B7818A85C383B7018E32
:100D3000BC7F81CF1387018E1463BC7EFD17BCFE80
:100D40001C63BC7F99E3736001108280011106EC83
:100D500022E82A84EFF09FFB1387018C1C63850730
:100D60001CE383B7018E89CF83B7818A8DE383B774
:100D7000018EB86F3C6C63ECE70023B0818E01A854
:100D800023B0818E03B7018C8547630DF706138767
:100D900081881C6385071CE35CE0386C8547B3974A
:100DA000E7009386018B9062D18F9CE2938601A924
:100DB00093172700BA978E07B6979C671CE8906B2D
:100DC00010EC1307840018E698EB306C931726009C
:100DD0003387C7000E07369718F418630507B297D4
:100DE0008E07BE9698E2EFF01FF483B7818A99C709
:100DF00083B7018EB86F3C6C6369F700E2604264B0
:100E000005618280EFF03F9F59B7930700083EE4E9
:100E10002800EF001050DDB7411106E4EFF0FF9518
:100E200019C5EFF0BFF20545A260410182807D55F2
:100E3000E5BF011106EC22E802E002E481473947F0
:100E40006361F70217170000130747453E97030732
:100E50000700938607018A962388E6FE19C3850753
:100E6000F9BFC1078A97238807FE014405456356E9
:100E70008000E2604264056182809317340013872A
:100E80008187BA9701478146130600208A85170596
:100E9000000013050517EFF03FF88547E31BF5FC4D
:100EA0003E94F1B7411106E4EFF0BFF885476309BE
:100EB000F5009717000083B7E753A26041018280D5
:100EC000EF00C0658547E316F5FE73700110FD570E
:100ED00023B0F188854723B4F18A23BC018AEF004F
:100EE000C06AC1BF797106F422F026EC2A84EFF0C3
:100EF000FFE159C4930484002685EFF04FA60DE569
:100F0000346C93972600B6978E07138701A9BA977A
:100F10009C6399EB8547B397D70093C7F7FF138777
:100F2000018B1463F58F1CE33C6889C71305040328
:100F3000EFF0EFA2138781881C6385071CE383B75A
:100F4000018E63828704014783B7818A91C315EFBD
:100F50001387018C1C63FD171CE3EFF02FF3EFF0F8
:100F60009FDC2285EFF06FF483B7818A89C783B74E
:100F7000018E63898702A2700274E26445618280F7
:100F800003B4018E85BF0547C1B7A6851385019FB0
:100F9000EFF0AF981387818C1C6385071CE3EFF09B
:100FA0009FD8D9B7930700083EE42800EF007036B9
:100FB000D9B783B7818CB9C3411106E422E0EFF0C1
:100FC000FFD483B781A0806F13058400EFF02F99C1
:100FD0001387018C1C63FD171CE31387818C1C6332
:100FE000FD171CE3EFF03FD42285EFF00FEC83B741
:100FF000818CF1F7A26002644101828082804111FC
:1010000006E4EFF01FFBF5BF011106EC22E8EFF05C
:10101000FFCF9387018798637D1798E39C63639163
:10102000071083B7018C89EB0144E5A8B46314E78A
:1010300035A0906F10E799A0814703B781A155C3F0
:1010400083B701A39C6FB86B907FB46314EA907F61
:1010500090E6106793860703E30AD6FC23B80704DB
:101060001463FD1614E39877906B946F14EA906BF9
:1010700090E6106793868700E30DD6FA23B4070243
:1010800010637D1610E3AC6F05473317B700138666
:10109000018B0862498F18E2138601A91397250076
:1010A0002E970E073297186798EB0C6B8CEF94E530
:1010B00014EBAC6F13972500B306B7008E06B296FB
:1010C00094F7946285062E970E073A9614E2B46F51
:1010D00003B7018E386FE372D7F6054723BCE1886A
:1010E000A9BF99C3EFF08FDA03B4018A05E003B416
:1010F000818905C883B7018E930700083EE4280064
:10110000EF003021054431A87D1401C8EFF0BF8203
:1011100065DD854723BCF188C5BF23B0018AC1BF07
:101120000144EFF05FC02285E26042640561828085
:10113000011106EC09CD22E82A84EFF04FFE81452B
:101140002285EFF0AFF1EFF03FEC19E9426493072D
:1011500000083EE42800EF00D01BE26005618280B9
:101160004264E5BF011106EC22E826E42A84AE843D
:10117000EFF0DFB903B7818B1C643306F74083B609
:10118000018E83C6560A91CE83B7018EA382070AC9
:101190000544EFF05FB92285E2604264A264056114
:1011A00082809460FD55638BB602086083B5018927
:1011B0006308B5006366F70023B004000544D1BF9F
:1011C0006366D60023B004000544E1B7998FB69753
:1011D0009CE02285EFF0FFA7014465BF014455BFA5
:1011E00003B781901C6399E785471CE191E71C6F69
:1011F000886382808147D5BF01458280411106E422
:101200000CE508F16362B602158E1C796366F60080
:101210000545A260410182809305850003B50190D8
:10122000EFE01FF10145F5B76374D60063FAD5000E
:101230009305850003B58190EFE09FEF0145D1BF95
:101240000545C1BF011106EC22E826E44AE02A84E4
:10125000AE84328931A01C78BE943C60228582978E
:101260000C78A6864A86A6952285EFF03FF965F5AB
:10127000E2604264A264026905618280011106ECA9
:1012800022E826E44AE0AA842E8983B781909C6FE5
:10129000806F13058400EFE09FEC8347040513F78C
:1012A000470009EFF99B2308F4043C6022858297EC
:1012B000E2604264A2640269056182804A86A68572
:1012C0002285EFF03FF8D5B783B7819098630DC7BB
:1012D000411106E49C6FFD558863EFF03FFA83B738
:1012E0008190986365FB13870190146323B4D190B8
:1012F0001CE3A2604101828013870190146323B430
:10130000D1901CE38280011106EC22E826E4AA8435
:10131000EFF0AFE12A8483B7818E636CF50023B0D0
:10132000040023B4818E2285E2604264A2640561D8
:101330008280EFF07FF985479CE0E5B7797106F48C
:1013400022F04AE82A892E84EFF06FDD2800EFF0C2
:101350009FFBA267B1EF26ECAA841DE86372250308
:101360002286B305994003B5818FEFF06FABEFF0A4
:10137000BFC91DC5E264A2700274426945618280E2
:10138000EFF09FC8A6854A85EFF05FEFE264E5B70E
:1013900003B70190186319E30544D9B73E84C9B770
:1013A000930700083EE00A85EF00A076E264E1B70B
:1013B000EFF09FC5C9B75D7186E4A2E026FC02E8A4
:1013C00002EC02F002F401460C0803B5818FEFF045
:1013D000AF8F69C9C26763CE0702C267E3C507FE64
:1013E000027475D01C7489C713058400EFE03FD7E1
:1013F0002800EFF05FF1AA84C2672547E365F7FC98
:101400008A0717170000130727F5BA979C43BA9766
:101410008287A2550275E2678297C1B783470405A8
:1014200093E717002308F404E2660C782A86B69541
:101430002285EFF0BFDC41D98347040513F747004D
:1014400001EBF99B2308F4043C6022858297A5BF39
:101450001C782686E265BE952285EFF0BFDEEDB7EB
:1014600083470405F99B2308F404B1BF83470405AF
:1014700093E717002308F404E2650CF8AA862A868D
:10148000AA952285EFF09FD73DBF8347040513F748
:10149000270009C7F99B2308F40435B72285EF001C
:1014A000602A15B7A6600664E2746161828001114A
:1014B00006EC2800EFF0DFD2A265EFF03FE8EFF096
:1014C0009FEFC5BF411106E4EFF05F8483B7818FC2
:1014D00091C7EFF05F85A26041018280138501BD55
:1014E000EFE01FC2138581BAEFE09FC1938701BD72
:1014F00023B4F190938781BA23B0F190014693050C
:1015000000021945EFE07FEB23BCA18E79D197153E
:101510000000938525D9EFF0EF8B65BF411106E4FC
:10152000EFF05FFA83B7818F85C79387018F1947E3
:1015300081461306E00697150000938525D7170509
:101540000000130505F7EFF03F8DA2604101828096
:101550000145E5BF732710C09387019198E3886325
:101560008280411106E4EFF0FFFE896793870771DF
:101570003E95EF00E058A26041018280411106E4EF
:10158000EF008058A26041018280411106E4EFF033
:101590005FFD9307000273A047107360411093072B
:1015A000002073A04710EF00B0350145A260410153
:1015B00082807370011001A0175700001307872560
:1015C0009377F700A9C79756000093869625C19A8E
:1015D000C167938747BF958FBA97368797560000A4
:1015E0009386462298E223B40600BA97C117C19B9E
:1015F00023BCF19223B4070023B00700B386E74071
:1016000014E71CE323B4D19223B8D1928280C1673E
:10161000938747BFE1B7975700009387A71E3E8780
:101620009C63E3EEA7FE14673306D700630CA600A5
:1016300014653306D500638CC7001CE16303E50025
:1016400008E382801065B29614E73A85D5B703B6F1
:1016500081936389C7009C67BE9614E51C639C63F5
:101660001CE1E9BF10E1D9BF011106EC22E826E434
:101670002A840DC1BD5763EEA700130405019377BB
:10168000F40089CB41471D8FBD1763E787023A9469
:1016900011A00144EFF0AFA883B7819385C3634BDA
:1016A000040859C803B60193636A86089756000078
:1016B000938646159C6201A80144E9BFEFF0DFEF75
:1016C000F9BFBE86BA87986763748700986375FB15
:1016D00003B781936306F7068462C104986398E2B6
:1016E0009867018F9305000263F9E500B3858700D1
:1016F00098E580E7986298E18CE29867198E23B8A4
:10170000C19283B681926374D60023B4C192FD5610
:10171000FE16558F98E723B00700138701921C63CC
:1017200085071CE3EFF05F8E2685E2604264A264C9
:10173000056182808144FDB78144EDB78144DDB706
:101740008144CDB729CD011106EC22E826E42A8494
:10175000930405FF833785FF63C70700E260426497
:10176000A26405618280033705FF6DFB7D57058309
:10177000F98F233CF5FEEFF08F9A833684FF1387B1
:1017800001931C63B6971CE32685EFF0DFE813870F
:1017900081911C6385071CE3EFF01F87C1B782802E
:1017A000797106F422F02A8463430504014437D793
:1017B000CCCC1307D7CC93170702BA97B337F502EF
:1017C00013D7370093162700369706073307E540EF
:1017D0001B070703930604028A9605242384E6FE6A
:1017E0002A8713D53700A547E3E3E7FC15A01305C7
:1017F000D002EF000023330580404DBF9B07F4FF6C
:101800003E84938707028A97038587FEEF00602155
:10181000E34680FEA270027445618280011106ECED
:1018200022E826E42A8401A8930414000305040096
:10183000EF00201F26848307040081CB2947E3950E
:10184000E7FE3545EF00E01DC5B7E2604264A264E3
:1018500005618280011106EC22E826E4AA841715AE
:101860000000130525A5EFF07FFB1304C00301471B
:1018700021A817170000130767B6BA97038507005A
:10188000EF00201A0547713463490400B3D7840080
:10189000BD8BE5F379FF65F8E9BFE2604264A264BD
:1018A00005618280411106E4EF004016A26041010B
:1018B0008280597106F422F026EC2A842EFCB2E0D4
:1018C000B6E4BAE8BEECC2F0C6F43C183EE419A88F
:1018D00029476383E7069304140003050400EF001F
:1018E0004014268483070400CDCF13075002E391F0
:1018F000E7FE930424008307140013075002638655
:10190000E70863CAE708130780076346F708130769
:10191000300663C2E7089B87D7F993F6F70F554760
:10192000636BD7069397260017170000130747A588
:10193000BA979C43BA9782873545EF00800E61BF06
:10194000A267138787003AE48863EFF0BFF026842C
:1019500051BFA267138787003AE48843EFF05FE442
:10196000268449B7A267138787003AE48863EFF0BB
:10197000FFEA268485BFA267138787003AE40385C0
:101980000700EF00000A2684B1BF13055002EF00E4
:101990004009268481BF1305F003EF0080082684E8
:1019A00091B7A2700274E26465618280011106EC55
:1019B000EF00601029C522E82A8402E4B1476313CE
:1019C000F502EF00E0086346050283B70194F5DBFA
:1019D000A303A10081463000930571003E85EFE02E
:1019E0007FA5C5B7AA85171500001305258DEFF053
:1019F0005FEC2285EF00A00CA26789E74264E260F9
:101A000005618280EFF0CF884264D5BFB727001010
:101A1000A38007000D47A381E7001D472381E7004E
:101A20008280B727001083C7570093F70702F5DBC2
:101A30001375F50FB72700102380A7008280B72702
:101A4000001003C7170013671700A380E700828008
:101A5000B727001083C75700858B91C7B7270010A1
:101A600003C5070082807D5582806357A0000A0568
:101A7000B707000C3E950CC18280411106E4B7F710
:101A8000200C23A0070085453145EFF01FFEA26022
:101A9000410182806350A002935755008A0737277F
:101AA000000C13070778BA978546BB96A6009843A3
:101AB000558F98C38280B7F7200CC8438280635546
:101AC000A000B7F7200CC8C38280014582808280C5
:101AD0008280AA8729A02380B70085073A8613074A
:101AE000F6FF75FA8280AA8701A883C605002380C5
:101AF000D700850585073A861307F6FF7DF68280B5
:101B0000814873000000828001458D487300000009
:101B100082809148730000008280411106E417051D
:101B200000001305257BEFF0DFD881471147814680
:101B3000056613060680970500009385A57A1705AC
:101B400000001305A50AEFF02FAD8147114781462C
:101B5000056613060680970500009385257917050D
:101B6000000013056506EFF02FAB8147154781464E
:101B7000056613060680970500009385A57717056F
:101B8000000013058501EFF02FA90145EFF08FB597
:101B9000A26041018280011106EC7D569305F1009F
:101BA00003B50194EFE05F928547E318F5FE030665
:101BB000F1009375F60F170500001305A574EFF0FB
:101BC0005FCFE1BF411106E422E081451B8415008F
:101BD0001705000013050574EFF0BFCD1305803E17
:101BE000EFF00FD5A285DDB7411106E422E0814573
:101BF0001B841500170500001305C572EFF07FCB9D
:101C00001305803EEFF0CFD2A285DDB7411106E487
:101C1000EFF05FC9170500001305C571EFF07FC92C
:101C2000EFF0BFE53145EFF0FFE6014685451305CE
:101C30000004EFE08FF823B0A194EFF05FE081475C
:101C40001147814613060010970500009385057023
:101C5000170500001305A5ECEFF00F9CEFF08FA423
:101C60000145A260410182800000000000000000E8
:101C70000000000000000000000000000000000064
:101C80000000000000000000000000000000000054
:101C90000000000000000000000000000000000044
:101CA0000000000000000000000000000000000034
:101CB0000000000000000000000000000000000024
:101CC0000000000000000000000000000000000014
:101CD0000000000000000000000000000000000004
:101CE00000000000000000000000000000000000F4
:101CF00000000000000000000000000000000000E4
:101D0000417106E416E81AEC1EF022F426F82AFCCB
:101D1000AEE0B2E4B6E8BAECBEF0C2F4C6F8CAFC73
:101D20004EE152E556E95AED5EF162F566F96AFD5B
:101D3000EEE1F2E5F6E9FAEDFEF1F322001096F598
:101D4000F3230010996233F353006312530482B9F2
:101D500086BD0AA20EA612AA16AE1AB21EB622BAE4
:101D600026BEAAA2AEA6B2AAB6AEBAB2BEB6C2BAD3
:101D7000C6BE4AA34EA752AB56AF5AB35EB762BBBC
:101D800066BFEAA3EEA7F2ABF6AFFAB3FEB7916275
:101D900073A00210896273B00210F322101416E0CF
:101DA00083B2018E23B0220073252014F325101472
:101DB0001356F50331CA2EE08542FE12138312003A
:101DC000631B65001701000003314163EFF00FFB57
:101DD000EFE01FCC91A81103631E650017010000FE
:101DE0000331C161EFF0EFF7EFE0FFB415CDEFE0A5
:101DF0003FCA1DA81103631B6500170100000331D2
:101E0000E15FEFF0BFBA0DA091052EE0732520141D
:101E1000F3251014732630140A87170100000331CC
:101E2000E15DEF00E00D09A003B3018E0331030073
:101E3000826273901214F3230010AE72739002103A
:101E4000996233F35300631253044E30EE30122183
:101E5000B2215222F2221233B2335234F234162516
:101E6000B6255626F6261637B6375638F6381A29C6
:101E7000BA295A2AFA2A1A3BBA3B5A3CFA3C1E2D76
:101E8000BE2D5E2EFE2E1E3FBE3FA260C26262636A
:101E900082732274C274627586652666C66666673A
:101EA00086772678C67866798A692A6ACA6A6A6BEA
:101EB0008A7B2A7CCA7C6A7D8E6D2E6ECE6E6E6F9A
:101EC0008E7F7D617300201013000000130000005E
:101ED00013000000130000001300000013000000B6
:101EE00013000000130000001300000013000000A6
:101EF0001300000013000000130000001300000096
:101F00006F00000013000000130000001300000029
:101F10001300000013000000130000001300000075
:101F20001300000013000000130000001300000065
:101F30001300000013000000130000001300000055
:101F40001300000013000000130000001300000045
:101F50001300000013000000130000001300000035
:101F60001300000013000000130000001300000025
:101F70001300000013000000130000001300000015
:101F80001300000013000000130000001300000005
:101F900013000000130000001300000013000000F5
:101FA00013000000130000001300000013000000E5
:101FB00013000000130000001300000013000000D5
:101FC00013000000130000001300000013000000C5
:101FD00013000000130000001300000013000000B5
:101FE00013000000130000001300000013000000A5
:101FF0001300000013000000130000001300000095
:102000006FF0DF9A828013000000130000001300BD
:102010000000130000001300000013000000130074
:102020000000130000001300000013000000130064
:102030000000130000001300000013000000130054
:102040000000130000001300000013000000130044
:102050000000130000001300000013000000130034
:102060000000130000001300000013000000130024
:102070000000130000001300000013000000130014
:102080000000130000001300000013000000130004
:1020900000001300000013000000130000001300F4
:1020A00000001300000013000000130000001300E4
:1020B00000001300000013000000130000001300D4
:1020C00000001300000013000000130000001300C4
:1020D00000001300000013000000130000001300B4
:1020E00000001300000013000000130000001300A4
:1020F00000001300000013000000130000000100A6
:102100009702000083B282327390521003B1018EA5
:10211000026182604E30EE301221B2215222F22250
:102120001233B2335234F2341625B6255626F6262B
:102130001637B6375638F6381A29BA295A2AFA2ADB
:102140001A3BBA3B5A3CFA3C1E2DBE2D5E2EFE2E8B
:102150001E3FBE3F626382732274C27462758665DD
:102160002666C666666786772678C67866798A693F
:102170002A6ACA6A6A6B8A7B2A7CCA7C6A7D8E6DEF
:102180002E6ECE6E6E6F8E7FAE7293E222007390D3
:102190000210C2627D618280130000001300000003
:1021A00013000000130000001300000013000000E3
:1021B00013000000130000001300000013000000D3
:1021C00013000000130000001300000013000000C3
:1021D00013000000130000001300000013000000B3
:1021E00013000000130000001300000013000000A3
:1021F0001300000013000000130000001300000093
:10220000F32200101703000003334320832303004D
:10221000B3E2720083234300B3F2720093F2D2FF61
:1022200013030012B3E26200130505F061152330B9
:102230005500130505F510E1130505FD9702000093
:1022400083B2C2212330550061150CE18280FF9FCB
:10225000FFFF002000000000000000000000000060
:10226000000000000000000000000000000000006E
:10227000000000000000000000000000000000005E
:10228000000000000000000000000000000000004E
:04229000000000004A
:1022980049444C4500000000546D72510000000094
:1022A800546D7220537663003078000000000000FF
:1022B800706C69633A20756E6B6E6F776E20697209
:1022C800712025640A000000765461736B437265BF
:1022D8006174650A000000007461736B31000000CE
:1022E8007461736B320000007655617274527854D1
:1022F80061736B000000000072783A20257820276F
:102308002563270A000000007461736B322025786A
:102318000A000000000000007461736B312025780A
:102328000A0000000000000048656C6C6F204672CF
:10233800656552544F53210A000000000000000058
:102348007461736B206372656174000072F0FFFF43
:10235800C8F0FFFFC8F0FFFF0CF1FFFF18F1FFFF07
:1023680036F1FFFFC8F0FFFFC8F0FFFF0CF1FFFFD9
:1023780018F1FFFFFAF5FFFFD6F5FFFF1AF6FFFF8A
:102388001AF6FFFF1AF6FFFF1AF6FFFF1AF6FFFF0D
:102398001AF6FFFF1AF6FFFF1AF6FFFF1AF6FFFFFD
:1023A8001AF6FFFF1AF6FFFFC4F5FFFF1AF6FFFF44
:1023B8001AF6FFFFE8F5FFFF1AF6FFFF1AF6FFFF10
:1023C8001AF6FFFF1AF6FFFFC4F5FFFF0000000032
:1023D8003031323334353637383961626364656693
:1023E80000000000000000000600000000000000DF
:0823F800006800B000000000C5
:1024000000000000000000004E2200B000000000AC
:10241000002C00B000000000086401B000000000C3
:10242000D01A00B000000000001D00B00000000045
:10243000000040B000000000702400B00000000068
:10244000002400B000000000702400B00000000074
:10245000002400B000000000B21500B00000000031
:10246000FFFFFFFFFFFFFFFF000000000000000074
:04000005B000000047
:00000001FF
