:02000004B0004A
:100000009741000083B181699D45631EB508735017
:10001000401073504014996273B00210896273A04B
:100020000210B702040073A0021017410000033150
:10003000E16873100114174500000335256A9745E0
:10004000000083B5A568174600000336A66863FA6A
:10005000C5008332050023B055002105A105E3EA60
:10006000C5FE174500000335E5659745000083B5DB
:1000700065636377B500233005002105E36DB5FEA8
:100080001745000003358562EF30A05AEF30A05AC3
:10009000014581450146EF30C07D73005010F5BF2A
:0C00A00073005010F5BF73005010F5BF46
:10010000930705011CE57D5718E91CED1CF1233010
:10011000050082802330050282801C659CE5986B77
:1001200098E90CE78CEB88F11C6185071CE1828063
:100130009061FD576303F60293070501BE869C6735
:100140009863E37DE6FE9C669CE58CEB94E98CE687
:1001500088F11C6185071CE182801471EDB71C7168
:100160001465186998EA146514E798676308A7008E
:100170002330050288637D1588E38280186998E73B
:10018000C5BFAA87286509C5BC739C631D451D8D25
:100190008280411106E422E02A84EF10400E387874
:1001A0003C7C630AF7000144EF10800F2285A260B7
:1001B0000264410182800544C5BF411106E422E08A
:1001C0002A84EF10C00B3C7889EB0544EF10400DFA
:1001D0002285A2600264410182800144C5BF0111F1
:1001E00006EC22E826E44AE02A84B28403390507B3
:1001F00050611DE21C6199CB0145930719003CF841
:10020000E2604264A2640269056182800869EF00CD
:10021000506F23380400D5B799EC0865EF302043C0
:100220001C645860BA971CE4186863EFE7021C600E
:100230001CE42685D9B7086DEF3060411C6C58600E
:10024000B306E040998F1CEC186063F5E7001C686A
:10025000B6971CEC89476384F400014579BF6307B6
:1002600009007D19014551BF268541BF014571B780
:10027000AA87506115C2411106E42E85986F329706
:1002800098EF946B6364D700986398EF8C6FEF30AE
:10029000003CA260410182808280011106EC22E8CC
:1002A00026E4AA84EF00B07D03C494081B148401E3
:1002B0001B54844131A07D341B1484011B548441A0
:1002C000635C8000BC6489CB13858404EF007043B9
:1002D0007DD1EF007052C5B7FD57A384F408EF003D
:1002E000307CEF00D07903C484081B1484011B54B4
:1002F000844131A07D341B1484011B548441635C10
:1003000080009C7089CB13850402EF00903F7DD163
:10031000EF00904EC5B7FD572384F408EF005078E6
:10032000E2604264A2640561828049C5797106F485
:1003300022F026EC2A84AE843C7DBDCF5461014777
:10034000B3B7D70281E709C7014585A80547E5BFCF
:10035000EF00F0721C60347C58603386E6023E96F3
:1003600010E8233804061CE4FD163307D702BA97B9
:100370001CECFD572304F408A304F4089DE01C7052
:1003800089E7EF00F07105450DA813050402EF00A1
:10039000503765D9930700083EE42800EF30E02D80
:1003A000CDB713050402EFF0BFD513058404EFF0B9
:1003B0003FD5C1BF014582800145A2700274E2644D
:1003C00045618280011106EC22E826E4B6843A8475
:1003D00099ED18E028FC4CE085452285EFF0FFF40C
:1003E000230C9408E2604264A2640561828010E3F9
:1003F000D5B7797106F44EE431C522F026EC4AE80F
:100400002A84AE84328981473337B50215EBA9E3DC
:10041000330594029307F0F563E1A7041305050A79
:10042000EF10900AAA891DCD2A87CA861306050AED
:10043000A6852285EFF01FF90274E264426921A0CB
:100440008547F1B781494E85A270A26945618280D6
:1004500081490274E2644269FDB781490274E26431
:100460004269D5B70274E2644269F1BF1D7186EC3E
:10047000A2E8A6E4CAE04EFC2A84AE8932E4B6843F
:10048000014995A82686CE852285EFF05FD53C648C
:1004900081EF1DE5EF00D0600545E6604664A66487
:1004A0000669E2792561828013058404EF007025D6
:1004B00075D1930700083EEC2808EF30001CD9BF27
:1004C000930700083EEC2808EF30201BE1B7EF004F
:1004D000305D0145D9B70810EF00B03005490DA8CF
:1004E00023040408A9A0A304040899A82285EFF016
:1004F000DFDAEF10C010EF00905838783C7CE363EF
:10050000F7F88947E380F4F8A267F1D3E30509FC23
:10051000EF001059EF006072EF00705683478408B7
:100520009B9787019BD787417D57E38BE7FA8347EA
:1005300094089B9787019BD787417D57E385E7FA0E
:10054000EF0010562C000810EF10A0231DE52285A7
:10055000EFF03FC441DDA26513050402EF00301344
:100560002285EFF09FD3EF10800951F59307000823
:100570003EEC2808EF306010BDBF2285EFF0FFD1C0
:10058000EF10E007014511BF0DC1411106E423380A
:10059000050023300500233C0500814601468145C6
:1005A000EFF0DFECA260410182808280411106E41D
:1005B00022E02A8681450545EFF0BFE32A84EFF06B
:1005C000BFFC2285A260026441018280011106EC19
:1005D00022E84AE02A843289368638793C7D636B8A
:1005E000F70089476388F6000145E26042640269CA
:1005F0000561828026E4834494089B9484019BD403
:1006000084413C782285EFF09FBDFD576393F4024F
:100610003C6481E70545A264C9BF13058404EF006B
:10062000500E15C56308090205452330A900A264D0
:100630006DBFEF00206263F2A40285249B948401C5
:100640009BD48441A30494080545A26479BF054561
:10065000A26461BF0545A26449BF0545A26471B7A4
:100660001D7186ECA2E8A6E4CAE04EFC2A84AE899D
:1006700032E40149ADA8CE852285EFF07FBFFD149D
:1006800024F81C7099EBEF00B0410545E660466424
:10069000A6640669E2792561828013050402EF00F1
:1006A000500675D1930700083EEC2808EF20F07C37
:1006B000D9BFEF00F03E0145D1BF0810EF00701226
:1006C000054935A82304040891A8A304040885A0BB
:1006D0002285EFF09FBCEF00907211A82285EFF009
:1006E000DFBBEF00D0712285EFF03FAD35EDEF00BD
:1006F00010392478C9F0A267CDDFE30009FCEF00D0
:10070000303AEF008053EF009037834784089B977F
:1007100087019BD787417D57E386E7FA8347940893
:100720009B9787019BD787417D57E380E7FAEF00CE
:1007300030372C000810EF10C0044DF12285EFF087
:10074000DFA759D5A26513058404EF004074228504
:10075000EFF0BFB4EF00B06A59F9930700083EEC20
:100760002808EF20907161B701450DB75D7186E4EF
:10077000A2E026FC4AF82A842EE40149814479A0AB
:10078000FD173CF81C6081CF1C7091EFEF005031D9
:100790000545A6600664E274427961618280EF10CB
:1007A000000708E8D5B713050402EF00807579DD6E
:1007B000930700083EEC2808EF20306CC1BFEF0023
:1007C000302E0145F9B70810EF00B0018544B1A003
:1007D0002304040895A0A304040885A8EF00302A88
:1007E0000868EF0030022A89EF00902BA5A8228527
:1007F000EFF0BFAAEF00B06011A82285EFF0FFA9CB
:10080000EF00F05F2285EFF05F9B3DEDEF003027BA
:100810003C78BDF7A267C5D7DDD4EF007028EF00A4
:10082000C041EF00D025834784089B9787019BD761
:1008300087417D57E38EE7F8834794089B978701AC
:100840009BD787417D57E388E7F8EF0070252C00A0
:100850000810EF00107355F12285EFF01F9641D973
:100860001C60ADDFA26513058404EF0040622285A1
:10087000EFF0BFA2EF00B05851F9930700083EEC2B
:100880002808EF20905F59B763140900014511B79C
:10089000EF00F01E2285EFF0DF8EAA850868EF00DA
:1008A0001011EF00F01FDDB781C50146814739A067
:1008B00082801386019836961DA885071D476367B9
:1008C000F702939647001387019836971867E3025B
:1008D000A7FE65F69396470013870198369718632D
:1008E00069FF138701983386E600C1BF19C20CE285
:1008F00008E68280011106EC22E826E44AE02A8418
:10090000AE843289EF00B017834784089B97870134
:100910009BD787417D576388E702834794089B975D
:1009200087019BD787417D576382E702EF0050170D
:100930003C7885C32285EFF05F96E2604264A26452
:1009400002690561828023040408C1BFA30404086E
:10095000F1BF4A86A68513058404EF00C055D9BFB0
:100960009747000083B787E09C6399E7FD571747D7
:1009700000002331F7DA82809747000083B707DF52
:100980009C6F9C63174700002336F7D88280411183
:1009900006E422E02A842871EF10C0402285EF107F
:1009A0006040A260026441018280397106FC22F835
:1009B00026F44AF04EEC52E856E45AE0AA8AAE8495
:1009C000368B3A893E8A4284931936004E869305C7
:1009D000500A03350806EF2050463C70E119BE99D5
:1009E00093F909FF9DC081483D48636E1801338823
:1009F00014010308080033031401230403076304EC
:100A000008008508D5B7A30B0406994763F32701AF
:100A10003E89233C24052338240913058400EFF084
:100A20006FEF13050403EFF0EFEE00F09D47B3877F
:100A300027411CF820E45A86D6854E85EF30404C7D
:100A400008E063040A0023308A00E2704274A27452
:100A50000279E269426AA26A026B216182805D7159
:100A600086E4A2E026FC4AF84EF452F056EC5AE82E
:100A70005EE4AA892E8A3289B68A3A8BBE8B131518
:100A80003600EF106024AA8439C51305800AEF10E0
:100A9000A0232A840DCD1306800A8145EF20F0396A
:100AA00024F081482288DE875A87D6864A86D285F6
:100AB0004E85EFF09FEF2285A6600664E2744279CE
:100AC000A279027AE26A426BA26B6161828026851A
:100AD000EF10402DCDB72A84F9BF411106E422E082
:100AE000014421A893172400A29713973700138578
:100AF00081AC3A95EFF0CFE005049947E3F487FE27
:100B0000138501AAEFF0CFDF138581A7EFF04FDF48
:100B1000138501A5EFF0CFDE138581A2EFF04FDE44
:100B2000138501A0EFF0CFDD938701AA17470000DE
:100B3000233EF7C2938781A7174700002334F7C2EB
:100B4000A260026441018280797106F422F026ECF1
:100B50004AE84EE452E02A84AE8417490000033983
:100B6000E9BE9749000083B969C0174A0000033AFB
:100B70006ABF974700009387E7BF9863A302070AFD
:100B800088632105EFF0AFDD15E19747000083B7DB
:100B900067BEB86F8547B397E70093C7F7FF9746DF
:100BA0000000938626BA9862F98F9CE2FD57630A8B
:100BB000F4024A949747000083B7C7BB80E7637B82
:100BC00024059745000083B5E5BAA1055285EFF0ED
:100BD0002FD6A2700274E2644269A269026A45617A
:100BE0008280E1D8138701A014679747000093879C
:100BF00067B8906314EA90638C6A0CEE90632106E8
:100C000090E59063210690EA9C6398F71C63850742
:100C10001CE3C1B79745000083B5C5B5A1054E8556
:100C2000EFF00FD19747000083B7C7AEE373F4FA34
:100C30009747000023B087AE69BF1747000013072E
:100C400067AC1C6385071CE38280174500000335F1
:100C5000E5AF8280174500000335C5AF8280974716
:100C6000000083B727AA639C0716411106E422E01F
:100C700097470000938787AD8063050480E321C414
:100C80009747000083B707A96375F40601459747A6
:100C9000000083B727AEB86F93172700BA97139752
:100CA0003700938781ACBA979863854763F3E70071
:100CB0003E859747000083B767A7639B0712A26032
:100CC00002644101828017470000130727AA1463BA
:100CD00097470000938707A9906310E394E31747B1
:100CE0000000130727A41C6385071CE3EFF05FC710
:100CF00041BF014579A0FD5717470000233CF7A0ED
:100D000079B79747000023B7E7A051B7946F14E76E
:100D10005DA023B807041463FD1614E3B46F054700
:100D20003317D700174600001306C6A10338060084
:100D30003367070118E2138781AC139626003696B5
:100D400093163600BA96946694EB906A90EF0CE690
:100D50008CEAAC6F939625003388B60013163800E2
:100D60003A9690F710620506931538002E9710E317
:100D7000B86F9747000083B7E79FBC6F63F3E70046
:100D800005459747000083B7679E9C63ADD797479B
:100D9000000083B7A79D9C6F9C6F9867E363E4F6A0
:100DA0009877906B946F14EA906B90E61467938534
:100DB0008700E38DB6F423B407021463FD1614E331
:100DC000B86B29DF907FB46314EA907F90E61067D8
:100DD00093860703E31FD6F2B46314E71DBF1747DA
:100DE0000000130727951C6385071CE301458280DB
:100DF0000545F1B59747000083B7C79099C7854768
:100E0000174700002334F79282809747000023BFE2
:100E100007909747000083B7E7928127A5C3014752
:100E200021A005279B971700E3DD07FE021701931A
:100E3000FD47998F938581AC939627003386F60002
:100E4000131736002E971067106610E7BE9613979B
:100E5000360041072E976306E60213972700BA97DC
:100E600013973700938781ACBA979C67986F974721
:100E700000009387279098E39C6382801307000209
:100E800075B78E063387D500146F14E7F9B7411193
:100E900006E422E02E849745000083B5A58D938556
:100EA0000503EFF0EFA885452285EFF0FFC9A260AA
:100EB000026441018280411106E4AA872E85B28531
:100EC0009467174700001307E78A106314FE106346
:100ED00003B8060123300605106313060603233406
:100EE000C80010631306060390EA18633CEB98638E
:100EF000050798E391C17D55EFF01FC5A260410140
:100F000082801C6D9C6FB86B907FB46314EA907FF5
:100F100090E61467138607036380C60A23B80704A4
:100F20001463FD1614E3173700000337A77D59EB50
:100F30009877906B946F14EA906B90E610679386A5
:100F40008700630ED60623B4070210637D1610E3F4
:100F5000AC6F05473317B700173600001306867EBF
:100F60000862498F18E2138681AC139725002E97EB
:100F70000E073297186798EB0C6B8CEF94E514EB27
:100F8000AC6F13972500B306B7008E06B29694F7A0
:100F9000946285062E970E073A9614E2B86F97373B
:100FA000000083B7277DBC6F63FBE70205459737D9
:100FB000000023BDA7768280B46314E785B7906FE5
:100FC00010E751B7138701A5146794FF8C6AACE34F
:100FD00090E590EAB8EB1463850614E3C1B70145C8
:100FE00082809737000083B7E7731CE197370000D2
:100FF00083B7C7751CE58280854717370000233704
:10100000F7728280630B050E011106EC22E82A8438
:10101000386D9737000083B7E775BC6F6375F70CC1
:101020001C799396070263CA06009737000083B7BE
:101030006774B46F9D47958F1CF91474931727003C
:10104000BA978E07138781ACBA97638DF6009737EE
:10105000000083B72772BC6F3CEC0545E260426438
:101060000561828026E4930484002685EFF02F8FAB
:1010700011ED386C8547B397E70093C7F7FF173733
:1010800000001307276C1463F58F1CE397370000EB
:1010900083B7476EB86F38EC0545B317E500973650
:1010A00000009386266A9062D18F9CE2938681AC81
:1010B00093172700BA978E07B6979C671CE8986B22
:1010C00018EC04E784EB306C931726003387C700D5
:1010D0000E07369718F418632A97B2978E07BE96B4
:1010E00098E2A264A5BF58699737000083B7876864
:1010F000BC6F6366F700014595B7014582800545E1
:10110000B1BF55C1011106EC22E82A845C6DFD17C0
:101110005CED346D5869638AE60891C70145E26069
:1011200042640561828026E4930485002685EFF001
:101130000F8311ED386C8547B397E70093C7F7FF2E
:1011400017370000130707601463F58F1CE3586816
:1011500038EC9D47998F1CF80545B317E500973685
:1011600000009386265E9062D18F9CE2938681ACCC
:1011700093172700BA978E07B6979C671CE8986B61
:1011800018EC04E784EB306C931726003387C70014
:101190000E07369718F418632A97B2978E07BE96F3
:1011A00098E2A264ADBF0145828001458DBF79C53B
:1011B000011106EC22E826E42A845C6963F3B70097
:1011C000AE87246C6386F400546C05476387E600A1
:1011D000E2604264A264056182803CEC1878931658
:1011E000070263C606001D47B307F7401CF81874D2
:1011F00093972400A6978E07938681ACB697E31940
:10120000F7FC4AE0130984004A85EFE05FF509ED39
:101210008547B397970093C7F7FF17370000130769
:1012200067521463F58F1CE3386C8547B397E7006A
:1012300097360000938606519062D18F9CE2938688
:1012400081AC93172700BA978E07B6979C671CE866
:10125000986B18EC2334270123B82701306C9317BF
:1012600026003387C7000E07369718F41863050762
:10127000B2978E07BE9698E2026999BF828073701A
:1012800001109737000083B7674B91CB17370000E9
:101290001307474E1463BC7E8507BCFE1C63828027
:1012A0009737000083B7874985C79737000083B712
:1012B000674CBC7F91CF173700001307A74B14630F
:1012C000BC7EFD17BCFE1C63BC7F99E373600110FC
:1012D0008280011106EC22E82A84EFF05FFA1737CA
:1012E0000000130727471C6385071CE3973700009E
:1012F00083B747489DC39737000083B727448DEBDA
:101300009737000083B70747B86F3C6C63E2E7028A
:101310009737000023B0874621A89737000023BBEA
:101320008744173700000337E74285476305F7080E
:10133000173700001307873E1C6385071CE35CE03A
:10134000386C8547B397E700973600009386863F51
:101350009062D18F9CE2938681AC93172700BA9755
:101360008E07B6979C671CE8906B10EC13078400FF
:1013700018E698EB306C931726003387C7000E07EA
:10138000369718F418630507B2978E07BE9698E251
:10139000EFF01FF19737000083B7473A89CB9737B3
:1013A000000083B7273DB86F3C6C6369F700E260CB
:1013B000426405618280EFF04FF29DBF9307000801
:1013C0003EE42800EF20602BDDB7411106E4EFF08A
:1013D0000FE919C5EFF0FFEF0545A26041018280DA
:1013E0007D55E5BF011106EC22E802E002E48147E9
:1013F00039476361F70217370000130727BA3E9792
:1014000003070700938607018A962388E6FE19C31F
:101410008507F9BFC1078A97238807FE0144054560
:1014200063568000E2604264056182809317340055
:10143000173700001307872DBA9701478146130617
:1014400000208A85170500001305051BEFF0FFF744
:101450008547E319F5FC3E94E1B7411106E4EFF04E
:101460007FF885476309F5009737000083B7872029
:10147000A26041018280EF00E06F8547E316F5FE30
:1014800073700110FD57173700002335F728854783
:10149000173700002334F72A9737000023B8072AAC
:1014A000EF00A074D1B7797106F422F026EC2A84FB
:1014B000EFF0FFDC4DC4930484002685EFE03FCAC3
:1014C0001DE5346C93972600B6978E07138781AC81
:1014D000BA979C6389EF8547B397D70093C7F7FF07
:1014E00017370000130707261463F58F1CE33C68C9
:1014F00089C713050403EFE09FC6173700001307E1
:10150000E7211C6385071CE39737000083B7872614
:10151000638C870401479737000083B7272291C364
:1015200031E7173700001307E7221C63FD171CE3A0
:10153000EFF00FC3EFF0DFD62285EFF04FC59737FE
:10154000000083B7A71F99C79737000083B787228A
:10155000638D8702A2700274E26445618280173451
:1015600000000334242181BF054775B7A685138584
:1015700081A2EFE09FBA173700001307271E1C63F4
:1015800085071CE3EFF0DFD15DBF930700083EE461
:101590002800EF20800E7DBF9737000083B7071C1F
:1015A000A9CB411106E422E0EFF07FCD83B701A47F
:1015B000806F13058400EFE09FBA17370000130710
:1015C00067191C63FD171CE3173700001307071981
:1015D0001C63FD171CE3EFF0BFCC2285EFF02FBB9F
:1015E0009737000083B78717E1F3A26002644101D7
:1015F00082808280411106E4EFF01FFAF5BF0111ED
:1016000006EC22E8EFF0BFC7973700009387870FFB
:1016100098637D1798E39C636393071297370000E4
:1016200083B7471389EB014421AAB46314E735A0BB
:10163000906F10E799A0814703B701A545CB83B709
:1016400081A69C6FB86B907FB46314EA907F90E69C
:10165000106793860703E30AD6FC23B807041463D4
:10166000FD1614E39877906B946F14EA906B90E6F4
:10167000106793868700E30DD6FA23B40702106340
:101680007D1610E3AC6F05473317B700173600001F
:101690001306460B0862498F18E2138681AC139734
:1016A00025002E970E073297186798EB0C6B8CEF7E
:1016B00094E514EBAC6F13972500B306B7008E06C4
:1016C000B29694F7946285062E970E073A9614E226
:1016D000B46F173700000337E709386FE37ED7F49C
:1016E00005479736000023B3E604B9B799C3EFF076
:1016F0002FA7173400000334E40305E41734000077
:101700000334C40215CC9737000083B7A7069307AC
:1017100000083EE42800EF105076054415A07D1423
:1017200011C8EFF0CFD365DD854717370000233FA1
:10173000F7FEF5B79737000023BE07FEC1B7014497
:10174000EFF01FB62285E2604264056182800111DC
:1017500006EC09CD22E82A84EFF02FCE81452285C0
:10176000EFF08FBEEFF0BFE919E94264930700087C
:101770003EE42800EF107070E260056182804264F0
:10178000E5BF011106EC22E826E42A84AE84EFF0DE
:101790001FAF17370000033767FB1C643306F740A1
:1017A0009736000083B606FD83C6560A85C2973772
:1017B000000083B727FCA382070A0544EFF05FAE61
:1017C0002285E2604264A264056182809460FD55D6
:1017D000638DB60208609735000083B5A5F46308F1
:1017E000B5006366F70023B004000544C1BF63661B
:1017F000D60023B004000544D1B7998FB6979CE07A
:101800002285EFF00FFE014455BF014445BF173557
:101810000000033525F601C55C6D85075CED82800F
:1018200003B701911C6399E785471CE191E71C6FA1
:10183000886382808147D5BF01458280411106E4DB
:101840000CE508F16362B602158E1C796366F6003A
:101850000545A260410182809305850003B5819012
:10186000EFE01F8D0145F5B76374D60063FAD5002C
:101870009305850003B50191EFE09F8B0145D1BF32
:101880000545C1BF011106EC22E826E44AE02A849E
:10189000AE84328931A01C78BE943C602285829748
:1018A0000C78A6864A86A6952285EFF03FF965F565
:1018B000E2604264A264026905618280011106EC63
:1018C00022E826E44AE0AA842E8983B701919C6F1E
:1018D000806F13058400EFE09F888347040513F7AA
:1018E000470009EFF99B2308F4043C6022858297A6
:1018F000E2604264A2640269056182804A86A6852C
:101900002285EFF03FF8D5B783B7019198630DC7F3
:10191000411106E49C6FFD558863EFF03FFA83B7F1
:101920000191986365FB13878190146323B8D1906C
:101930001CE3A2604101828013878190146323B865
:10194000D1901CE38280011106EC22E826E4AA84EF
:10195000EFF0AFAF2A849737000083B727E2636EBA
:10196000F50023B004009737000023B987E02285F3
:10197000E2604264A26405618280EFF0FFF885476F
:101980009CE0D5B7797106F422F04AE82A892E84C2
:10199000EFF0AFAA2800EFF01FFBA267A5E326EC4B
:1019A000AA840DEC637425032286B305994017358C
:1019B00000000335A5DDEFE0FFF3EFF05FC41DC5C8
:1019C000E264A2700274426945618280EFF03FC315
:1019D000A6854A85EFF09FEEE264E5B703B78190F4
:1019E000186319E30544C9B73E847DBF9307000817
:1019F0003EE00A85EF107048E264E1B7EFF03FC0C7
:101A0000C9B75D7186E4A2E026FC02E802EC02F0B0
:101A100002F401460C0817350000033525D7EFE026
:101A20003FC469C9C26763CE0702C267E3C307FE4A
:101A3000027465D01C7489C713058400EFE02FF28F
:101A40002800EFF05FF0AA84C2672547E363F7FC44
:101A50008A07172700001307E754BA979C43BA97E1
:101A60008287A2550275E2678297C1B78347040552
:101A700093E717002308F404E2660C782A86B695EB
:101A80002285EFF0BFDB51D58347040513F74700EC
:101A900001EBF99B2308F4043C602285829795BFF3
:101AA0001C782686E265BE952285EFF0BFDDEDB796
:101AB00083470405F99B2308F404A1BF8347040569
:101AC00093E717002308F404E2650CF8AA862A8637
:101AD000AA952285EFF09FD62DBF8347040513F703
:101AE000270009C7F99B2308F40425B72285EF00D6
:101AF000602B05B7A6600664E27461618280011103
:101B000006EC2800EFF0DFD1A265EFF0BFE7EFF0C1
:101B10005FEFC5BF411106E4EFF06FF697370000A5
:101B200083B7C7C691C7EFF0AFF7A26041018280CB
:101B3000138581C0EFE0CFDC138501BEEFE04FDC01
:101B4000938781C023B8F190938701BE23B4F190AD
:101B50000146930500021945EFE0BF899737000061
:101B600023B6A7C269D19725000093852546EFE0EB
:101B7000BFD355BF411106E4EFF0DFF997370000FE
:101B800083B7C7C095C7973700009387A7BF19478A
:101B900081461306E006972500009385A5431705A7
:101BA0000000130505F6EFF05F82A260410182801C
:101BB0000145E5BF732710C09387819198E388633F
:101BC0008280411106E4EFF0FFFE89679387077179
:101BD0003E95EF107029A26041018280411106E418
:101BE000EF101029A26041018280411106E4EFF05C
:101BF0005FFD9307000273A04710736041109307C5
:101C0000002073A04710EF20A01F0145A2604101F2
:101C100082807370011001A017770000130787EB13
:101C20009377F700A9C797760000938696EBC19A41
:101C3000D16793870788958FBA9736879776000084
:101C4000938646E898E223B40600BA97C117C19B71
:101C500023B0F19423B4070023B00700B386E74014
:101C600014E71CE323B8D19223BCD1928280D167C0
:101C700093870788E1B7977700009387A7E43E87AB
:101C80009C63E3EEA7FE14673306D700630CA6003F
:101C900014653306D500638CC7001CE16303E500BF
:101CA00008E382801065B29614E73A85D5B703B68B
:101CB00001946389C7009C67BE9614E51C639C630E
:101CC0001CE1E9BF10E1D9BF011106EC22E826E4CE
:101CD0002A840DC1BD5763EEA70013040501937755
:101CE000F40089CB41471D8FBD1763E787023A9403
:101CF00011A00144EFE07FF483B7019485C3634BE7
:101D0000040859C803B68193636A86089776000071
:101D1000938646DB9C6201A80144E9BFEFF0DFEF48
:101D2000F9BFBE86BA87986763748700986375FBAE
:101D300003B701946306F7068462C104986398E2CE
:101D40009867018F9305000263F9E500B38587006A
:101D500098E580E7986298E18CE29867198E23BC39
:101D6000C19283B601936374D60023B8C192FD5625
:101D7000FE16558F98E723B00700138781921C63E6
:101D800085071CE3EFF0BF872685E2604264A2640A
:101D9000056182808144FDB78144EDB78144DDB7A0
:101DA0008144CDB729CD011106EC22E826E42A842E
:101DB000930405FF833785FF63C70700E260426431
:101DC000A26405618280033705FF6DFB7D570583A3
:101DD000F98F233CF5FEEFE05FE6833684FF13873F
:101DE00081931C63B6971CE32685EFF0DFE8138729
:101DF00001921C6385071CE3EFF07F80C1B78280EE
:101E0000797106F422F02A8463430504014437D72C
:101E1000CCCC1307D7CC93170702BA97B337F50288
:101E200013D7370093162700369706073307E54088
:101E30001B070703930604028A9605242384E6FE03
:101E40002A8713D53700A547E3E3E7FC15A0130560
:101E5000D002EF10006D330580404DBF9B07F4FFAB
:101E60003E84938707028A97038587FEEF10606B95
:101E7000E34680FEA270027445618280011106EC87
:101E800022E826E42A8401A8930414000305040030
:101E9000EF10206926848307040081CB2947E3954E
:101EA000E7FE3545EF10E067C5B7E2604264A26423
:101EB00005618280011106EC22E826E4AA84172538
:101EC00000001305A511EFF07FFB1304C0030147C9
:101ED00021A81727000013076716BA970385070084
:101EE000EF1020640547713463490400B3D78400C0
:101EF000BD8BE5F379FF65F8E9BFE2604264A26457
:101F000005618280411106E4EF104060A26041014A
:101F10008280597106F422F026EC2A842EFCB2E06D
:101F2000B6E4BAE8BEECC2F0C6F43C183EE419A828
:101F300029476383E7069304140003050400EF10A8
:101F4000405E268483070400CDCF13075002E3913F
:101F5000E7FE9304240083071400130750026386EE
:101F6000E70863CAE708130780076346F708130703
:101F7000300663C2E7089B87D7F993F6F70F5547FA
:101F8000636BD706939726001727000013074705B2
:101F9000BA979C43BA9782873545EF10805861BF46
:101FA000A267138787003AE48863EFF0BFF02684C6
:101FB00051BFA267138787003AE48843EFF05FE4DC
:101FC000268449B7A267138787003AE48863EFF055
:101FD000FFEA268485BFA267138787003AE403855A
:101FE0000700EF1000542684B1BF13055002EF1014
:101FF0004053268481BF1305F003EF1080522684DE
:1020000091B7A2700274E26465618280B7470F00E5
:10201000938707243305F502B797980093870768DD
:102020003355F50201258280054825A01387170046
:102030000E072A9714E3FD3763C80700139737008C
:102040002A971463E364D6FE85078E07AA9790E368
:102050000528637BB800131708029357D701AA9786
:1020600090639B07F8FFC9BF82802A87014511A0B2
:102070000525931705028193BA9783870700EDFB27
:102080008280814701A81397070201932A972300B2
:1020900007008527E3E9B7FE828037170059060756
:1020A0008357270093960703C19293F7F7038E0790
:1020B000BA97C8C38CC70F0030038526C216C192D9
:1020C0002311D7000F0030038280239201969307DB
:1020D00000042391F196814729A89396170017A72A
:1020E00001001307276F36972310F7008527C217C3
:1020F000C1931B8707009306F003E3F0E6FE82809E
:1021000021A085272392F196B717802C8A0783D6C2
:10211000270083D741961B8707006387E60493F661
:10212000F7038E063717802C0A0736975843421755
:1021300041931B0607009306F003E3E4C6FC83D635
:1021400021969B8506001306F003E36CB6FA1B8606
:1021500016002391C196860617A60100130686670E
:10216000B2962390E60071BF82801B07050093079B
:10217000F00363E6E70283D721969B8607001307E7
:10218000F003636ED7001B8717002391E196860743
:1021900017A7010013070764BA972390A70082804E
:1021A0009727000083B7074E63F2A702B7E7F4FF53
:1021B000CD17B2073E95A167637CF5009377F51FB5
:1021C00091EB25812390A500014582807D55828079
:1021D0007D5582807D55828054469DCD63E4B60056
:1021E0009B86F5FF9307401E63F4D7009306401EBD
:1021F000014721A8931707028193B305F500B29711
:10220000838787012380F5000527E365D7FE8216C3
:1022100081923695230005008280AA873D47637826
:10222000B70E0347C5000345D50022053368A70054
:102230002D456370050F1B070800410863ED050D70
:102240009B0547FF1307401E6374B7009305401EAC
:1022500003C7070003C517002205498F03C52700E0
:102260004205598D03C737006207498F18C203C75B
:10227000470003C557002205498F03C56700420583
:10228000598D03C777006207498F58C203C70701FA
:1022900003C517012205498F03C527014205598D42
:1022A00003C737016207498F18C603C7470103C533
:1022B00057012205498F03C567014205598D03C7A0
:1022C00077016207498F18CA03C7870103C59701C1
:1022D0002205498F03C5A7014205598D03C7B701E0
:1022E0006207498F58CA4CC68DCAF107814621A89A
:1022F0001397060201933385E700034505003297E3
:10230000230CA7008526E3E5B6FE014582807D55B6
:1023100082807D5582807D558280368582807105E0
:102320008280797106F422F026EC4AE84EE42A8491
:10233000AE8932892E85EFF05FD39B040500FD47FF
:1023400063F39700FD44930500202285EFF07FD3CF
:102350009377F90F034704002300F4009B5789008B
:1023600093F7F70F03471400A300F4009B570901EC
:1023700093F7F70F034724002301F4009B578901CB
:1023800003473400A301F40083474400930750033C
:102390002302F40083475400A3020400834764002F
:1023A0002303040083477400A303040083478400CD
:1023B0002304040083479400A30404008347A4007B
:1023C000230504008347B400A30504008347E40009
:1023D000230704008347F400A30704008347C400D5
:1023E000930780022306F4008347D400A306040069
:1023F000014721A8931707028193B386F9008386CA
:102400000600A2972388D7000527E36597FE82146C
:102410008190A294238804009377F90F0347040363
:102420002308F4029B57890093F7F70F034714031F
:10243000A308F4029B57090193F7F70F03472403FE
:102440002309F4021B59890183473403A309240398
:1024500083474403230A040283475403A30A040264
:1024600083476403230B040283477403A30B040212
:10247000A2700274E2644269A269456182805D7162
:1024800086E4A2E026FC4AF84EF452F056EC5AE8F4
:102490005EE462E0AA89AE843289B2852685EFF0D7
:1024A000BFB88147014409A89396070213D7D60104
:1024B000269718633A948527E3E827FF03BB0400B7
:1024C0005A85EFF0BFB41B0A05009B07F9FF13976D
:1024D00007029357D701A69783BB07005E85EFF0ED
:1024E000FFB29B0A05001315090201913355A4029E
:1024F000EFF0DFB11B0405009B5719008E07A6976C
:102500008863EFF0BFB01B0C05001B1819003B08D7
:1025100028019B1758003B08F800930740063B58DA
:10252000F8029317080213D8D701C2948860EFF01D
:10253000FFAD9B04050033856B41EFF03FAD9B0879
:1025400005002688E2872287D6865286CE85172503
:102550000000130525B0EFF0DF9BA6600664E2746F
:102560004279A279027AE26A426BA26B026C6161E3
:10257000828023B8019423BC019423A4019423A650
:10258000019482805D7186E4A2E026FC4AF84EF454
:1025900052F056EC5AE85EE42A84AE8B328BB68A4F
:1025A0003A8ABE894289C6849307401E63F41701A4
:1025B0009304401E930500202285EFF09FAC93F713
:1025C000FB0F034704002300F4009BD78B0093F715
:1025D000F70F03471400A300F4009BD70B0193F7F8
:1025E000F70F034724002301F4009BDB8B01834793
:1025F0003400A30174019377FB0F034744002302C7
:10260000F4009B578B0093F7F70F03475400A30286
:10261000F4009B570B0193F7F70F03476400230364
:10262000F4001B5B8B0183477400A30364018347A1
:1026300084002304040083479400A3040400834718
:10264000A400230504008347B400A30504008347C6
:10265000E400230704008347F400A30704009B87DA
:10266000C40013970703419393F7F70F8346C40001
:102670002306F400935787000347D400A306F40011
:1026800093F7FA0F034704012308F4009BD78A004D
:1026900093F7F70F03471401A308F4009BD70A012F
:1026A00093F7F70F034724012309F4009BDA8A010B
:1026B00083473401A30954019377FA0F0347440178
:1026C000230AF4009B578A0093F7F70F034754013E
:1026D000A30AF4009B570A0193F7F70F034764011D
:1026E000230BF4001B5A8A0183477401A30B440196
:1026F00093F7F90F03478401230CF4009BD789005B
:1027000093F7F70F03479401A30CF4009BD709013B
:1027100093F7F70F0347A401230DF4009BD9890118
:102720008347B401A30D34017104014721A8931715
:1027300007028193B306F900A29783C6060023809F
:10274000D7000527E36597FEA6600664E274427928
:10275000A279027AE26A426BA26B616182804111C6
:1027600006E40146930500212145EFD09FC823B41C
:10277000A1960545EFD09FE323B8A196239001963B
:10278000EFF0BF94014729A89316470097A70100CF
:10279000938747FCB69723A0070023B407000527BB
:1027A0009D47E3D3E7FE83B581969DC183B701972B
:1027B00085C31307401E930600202146A145172517
:1027C00000001305A58FEFF0CFF4A26041018280D5
:1027D00003B60197172500001305C58BEFF06FF3C3
:1027E000EDB7C9C9814711A085271D47634CF70282
:1027F0009396470017A701001307C7F53697186788
:1028000065D717A701001307E7F436971843E31DB0
:10281000A7FC17A701001307E7F3B307D7008CE75E
:102820000145828081471D476347F7029396470021
:1028300017A70100130707F23697186719C38527F2
:10284000DDB717A701001307E7F0B307D70088C368
:102850008CE701458280411106E4931505028191C0
:102860001725000013058589EFF0AFEA7D55A260BA
:10287000410182807D558280130101DC233C1122BD
:10288000233881222334912223302123233C012029
:1028900083B7819685C793079005E607984301277C
:1028A000B7574151938707D5631AF70093079005EF
:1028B000E607DC43812709476380E70283308123F1
:1028C00003340123833481220339012213010124BB
:1028D000828005272390E196B7872C009507AA07E9
:1028E00083D7270003D701969B0607006386F6105F
:1028F000B7872C009376F70386069507AA07B69745
:1029000083D7470013990703135909039306F0036C
:10291000E3E1F6FC9317490037270B000507320760
:10292000BA9783C6870003C797002207D98E03C7CB
:10293000A7004207558F03C4B7006204598C0124D5
:1029400013070020637487001304002083C6070068
:1029500003C717002207D98E03C727004207558FE8
:1029600083C63700E206D98E03C747000217558F8A
:1029700083C65700A216D98E03C767004217558F2A
:1029800083C47700E214D98C0F00300313870196BB
:102990008357070085272310F70081463008A2855A
:1029A0002685EFF09F87634D05022314210122C67F
:1029B00026E88146300C2C0003B58196EFD01FC16C
:1029C0008547E30BF5F083658102171500001305B9
:1029D000E577EFF00FD4A2854A85EFF00FECEDBD5F
:1029E000A2851715000013056574EFF08FD2A2853C
:1029F0004A85EFF08FEACDB583378121E38007EC7C
:102A0000EFE04FBF65BD011106EC22E826E403B4F8
:102A1000019763070414AA8493079005E607984377
:102A20000127B7574151938707D56318F7129307CA
:102A30009005E607DC43812709476392E712FD55BD
:102A40002285EFD0BFD285476312F512EFF04FEB2E
:102A5000B7872C00B507AA0783D52700C215C191F7
:102A600083D72196F9C7FD37C217C1932391F196F9
:102A7000860717A701001307E7D5BA9703D4070005
:102A80002604B7270B00B507B2073E949305002034
:102A90002285EFF00FDF8347040023000400834703
:102AA00014008547A300F400034724002301F40029
:102AB00083473400A301040093F7F40F0347440055
:102AC0002302F4009BD7840093F7F70F03475400C9
:102AD000A302F4009BD7040193F7F70F03476400A8
:102AE0002303F4001BD5840183477400A303A400CF
:102AF000834784002304040083479400A304040054
:102B00008347A400230504008347B400A305040001
:102B10008347E400230704008347F400A30704006D
:102B20008347C400230604008347D400A30604009F
:102B300005A8B717802C8A0703D6270017150000B1
:102B40001305C563EFF0EFBC81460146814503B52F
:102B50000197EFD0BF91014421A0014411A001448D
:102B60002285E2604264A264056182800144CDBF97
:102B7000797106F422F026ECB7872C00B507AA0776
:102B800083D42700630B05182A84C214C1909305CF
:102B9000E100EFF0EFE0634505148347C40003470D
:102BA000D40022075D8F41279B0607009307002072
:102BB00063E8D7148357E1009207B7260B008D0610
:102BC000B206B6971376F40F83C507002380C700BB
:102BD000135684001376F60F83C51700A380C70031
:102BE000135604011376F60F83C527002381C7000F
:102BF0001B56840183C53700A381C7001356040206
:102C00001376F60F83C547002382C700135684024C
:102C10001376F60F83C55700A382C700135604032B
:102C20001376F60F83C567002383C700619003C640
:102C30007700A38387000356E10093174600B697F9
:102C40009376F70F83C587002384D7009B568700B0
:102C500093F6F60F83C59700A384D7009B56070110
:102C6000858A83C5A7002385D7001B5787010217D4
:102C7000019383C6B700A385E70003C7C700238677
:102C8000070003C7D700A386070003C7E700238711
:102C9000070003C7F700A3870700B7872C00B50715
:102CA000AA0713F7F40306073E972312C7000F0085
:102CB00030038524C214C190239197000F00300384
:102CC0000945EF00300481460146814503B501976F
:102CD000EFD0CFF90145A2700274E26445618280B1
:102CE000A285171500001305654DEFF08FA28146F0
:102CF0000146814503B50197EFD04FF77D55E1BF00
:102D00000355E100EFF06FC681460146814503B5EA
:102D10000197EFD0AFF57D557DBF7D556DBF01119A
:102D200006EC22E826E44AE0AA842E891305500323
:102D3000EFF07FCD19CD2A844A86A685EFF06FDEAD
:102D40002285EFF0FFE2E2604264A264026905615D
:102D50008280A6851715000013054549EFF06F9B8B
:102D6000DDB7411106E422E01305007DEFE03F9E50
:102D70004164930504101715000013052549EFF071
:102D80001FFA930504201715000013052549EFF0DD
:102D90001FF9930504301715000013052549EFF0BE
:102DA0001FF8930504401715000013052549EFF09F
:102DB0001FF70145EFE02FEFA2600264410182801E
:102DC000130101DE233C1120ADA893170702819364
:102DD000B306F50083C60600938707218A97238CE4
:102DE000D7E00527F247E362F7FE814711A0852768
:102DF0001D476349F7029396470017A70100130781
:102E0000679536971467E5D61396470017A7010014
:102E100013074794329710435247E31AE6FC080819
:102E2000829619A803660102836541011715000007
:102E300013054542EFF0EF8D924503550100EFF089
:102E4000CFA57D568A8503B58196EFD07F818547D2
:102E5000E319F5FE2265EFF08FCC014761B713014E
:102E600001DF2334112023308120A6FF2A842A8603
:102E70009305501E2800EFF02FB60840EFF0BFB8C2
:102E800039C1AA841715000013054542EFF0EF9DE4
:102E90009B0805001718000013084841814718488F
:102EA00014441040C165938505102685EFF08FED21
:102EB0002685EFF0FFCB8330812003340120FE74A0
:102EC000130101218280171500001305253CEFF046
:102ED0004F84D5B7130101DF233411202330812023
:102EE000A6FFCAFBAA840329C5002A869305501EA3
:102EF0002800EFF06FAE8840EFF0FFB0630B0510D5
:102F00002A849307401E63F427011309401E93058A
:102F100000202285EFF0EF96230004008947A300EC
:102F2000F40085472301F400A30104009C40230220
:102F3000F4001BD78700A302E4001BD7070123037B
:102F4000E4009BD78701A303F40023040400A30437
:102F5000040023050400A305040023070400A307BD
:102F600004001B07C90093170703C1932306E4005D
:102F7000A183A306F4009C4413F7F70F83460401D2
:102F80002308E4001BD787001377F70F834614014B
:102F9000A308E4001BD707011377F70F834624012A
:102FA0002309E4009BD7870103473401A309F400F8
:102FB0009C4813F7F70F83464401230AE4001BD70C
:102FC00087001377F70F83465401A30AE4001BD749
:102FD00007011377F70F83466401230BE4009BD7A7
:102FE000870103477401A30BF40083478401230C7A
:102FF000040083479401A30C04008347A401230D1C
:1030000004008347B401A30D04009305C401814764
:1030100039A8171500001305E52AEFE09FEF35A842
:10302000939607028192AE962380E600852763F38C
:1030300027031397070201932697034787019B06EF
:10304000F7F993F6F60F6546E36CD6FC0137137774
:10305000F70FF9B72285EFF0BFB183308120033439
:103060000120FE745E79130101218280797106F4DA
:1030700022F026EC4AE84EE42A898329C500F3248D
:1030800010C09307401D63F437019309401D0325C9
:103090000900EFF05F972A8463060510930500206E
:1030A000EFE03FFE230004008D47A300F4008547B6
:1030B0002301F400A3010400832709002302F40084
:1030C0001BD78700A302E4001BD707012303E400FA
:1030D0009BD78701A303F40023040400A304040086
:1030E00023050400A305040023070400A30704002C
:1030F0001B87C90193170703C1932306E400A1832B
:10310000A306F4008327890013F7F70F8346040111
:103110002308E4001BD787001377F70F83461401B9
:10312000A308E4001BD707011377F70F8346240198
:103130002309E4009BD7870103473401A309F40066
:103140008327090113F7F70F83464401230AE4009C
:103150001BD787001377F70F83465401A30AE400B7
:103160001BD707011377F70F83466401230BE40095
:103170009BD7870103477401A30BF40083478401A5
:10318000230C040083479401A30C04008347A4018B
:10319000230D04008347B401A30D04009305C4016B
:1031A000014735A0171500001305C513EFE07FD6C2
:1031B0009DA0931607028192CA969B07070182176A
:1031C0008193AE9783C686012380D7000527E362EB
:1031D00037FF732510C001470DA89B17370033D662
:1031E000F400931607028192AE961376F60F2380B1
:1031F000C600B357F5009B06870082168192AE96F3
:1032000093F7F70F2380F60005279D47E3F7E7FCC8
:103210002285EFF0FF95A2700274E2644269A26910
:1032200045618280717106F522F126ED4AE94EE58D
:1032300052E1D6FCDAF8DEF4E2F02A86732810C0F8
:103240004C45930780036394F500814705A8836686
:10325000050103668500171500001305A50AEFE0B8
:103260005FCB65AA139707020193B306E6002C1003
:103270002E9783C686012300D70085271307700386
:10328000E372F7FEA66791C76365F81A3305F84045
:1032900011A03E8546676360F71A3309F7406664FC
:1032A000636DE418198C03B7019519C363F4E70043
:1032B00023B8F19423BC0195938581949841937729
:1032C000F7018E07979601009386C628BE9688E27E
:1032D0009796010093860618BE9623B0260197960E
:1032E000010093862637BE9680E2066A9796010013
:1032F00093864606B69723B04701052798C1D25951
:10330000638709001387C1941C4385271CC3B25AE5
:10331000032B8600C25B625CEFE05FCF9B0405007D
:103320004A85EFE0BFCE1B0905002285EFE01FCEE6
:103330001B0405005285EFE07FCDF2573EE80125E2
:103340002AE422E0CA882688E2874E87DE861316A2
:103350000B02019293950A02819117150000130543
:10336000E5FDEFE01FBB83A78194FD8BDDE783B70D
:10337000819503B7019563E4E70C998FE2561396A4
:1033800006020192DDCF37D712133357F70299C7E0
:10339000B7D512133306B602B357F6021384C1949D
:1033A000812701271040930500021715000013051F
:1033B00065FFEFE01FB613060002979501009385A5
:1033C00065191715000013056502EFF04F8B130602
:1033D0000002979501009385E50717150000130576
:1033E000E501EFF0CF891306000297950100938560
:1033F0006526171500001305E501EFF04F88130649
:103400000002979501009385E5F417150000130558
:103410006501EFF0CF8623200400AA700A74EA64E5
:103420004A69AA690A6AE67A467BA67B067C4D61F0
:103430008280014585B501499DB50144ADB58147FF
:1034400035BF3E87A9B7797106F422F026ECEF006C
:10345000201C0DC52A8402E4B1476306F502B54776
:103460006304F504AA8517150000130525FFEFE096
:103470005FAA2285EF00801AA267A9EFA2700274EA
:10348000E26445618280EF00A00CE34405FE83B74F
:103490008197F5DBA303A1008146300093057100FD
:1034A0003E85EFD0AF92C5B7EF00A0049B040500A6
:1034B000EF00A0048547638CF4009395040281918A
:1034C00017150000130505F7EFE0BFA45DB7EFF097
:1034D000AFBA45B7EFD01F9255B7411106E4854505
:1034E0003545EF00C0133545EF008010A260410163
:1034F0008280B747001088478280B7470010054791
:1035000098C78280B7470010C8C38280B7270010D1
:10351000A38007000D47A381E7001D472381E70033
:103520008280B727001083C7570093F70702F5DBA7
:103530001375F50FB72700102380A7008280B727E7
:10354000001003C7170013671700A380E7008280ED
:10355000B727001083C75700858B91C7B727001086
:1035600003C5070082807D55828073100515739016
:103570001515828073100515732510158280411171
:1035800006E422E005443314A4001305000CEFF018
:103590007FFEB36585001305000CEFF01FFDA260F0
:1035A000026441018280931725003707000D3E9782
:1035B000994614C33737000DBA9737071C00498F57
:1035C00098C3B727000D23AEA7EC8280411106E413
:1035D000814513052007EFF05FF9854513050007C6
:1035E000EFF0BFF83145EFF01FFCA260410182808F
:1035F000635FA000411106E422E02A84EFF0BFFAE5
:103600002285EFF0DFF7A2600264410182808280B0
:103610007315C01541811375F57F828082806343E5
:10362000A0008280411106E4EFF0FFF7A2604101A3
:1036300082800145828082808280AA8729A023809F
:10364000B70085073A861307F6FF75FA8280AA87C6
:1036500001A883C605002380D700850585073A8623
:103660001307F6FF7DF68280814873000000828098
:1036700001458D487300000082809148730000006E
:103680008280732510C08280411106E41715000066
:10369000130545DEEFE0FF87814715478146056644
:1036A00013060680971500009385C5DD17050000F9
:1036B00013058519EFD07FD1814715478146130641
:1036C0000020971500009385E5DC17F5FFFF130533
:1036D000656FEFD09FCF81471147814613060020C9
:1036E00097150000938585DC17F5FFFF1305A56787
:1036F000EFD0BFCD814711478146130600209715B3
:1037000000009385A5DB170500001305850BEFD09E
:10371000DFCB0145EFD03FD9A260410182805D71CE
:1037200086E4A2E026FC2A84930700603EC42AC6F1
:1037300032C82ECA02EC02F0EFF0BFF42AF41305EF
:103740000011EFF04FAC31C5AA8493088002130832
:103750008100814722879306006013060011C1652E
:1037600093850540EFE01FE22685EFF06FC0AA8445
:1037700005ED5246931504028191171500001305BB
:1037800065DAEFE00FF92685A6600664E2746161F0
:10379000828093150402819117150000130585D3CB
:1037A000EFE02FF7FD54C5B793150402819117156B
:1037B00000001305A5D4EFE0CFF5FD54E9B70111E2
:1037C00006EC22E826E40965130585B5EFD03FF83D
:1037D000854499A813054006EFD07FF70524FD47DF
:1037E00063EB87000546930500082685EFF03FF35D
:1037F00075F18524C5B71305401FEFD05FF593958C
:1038000004028191171500001305C5D6EFE06FF093
:10381000054681452685EFF09FF011E18524096575
:1038200013050571EFD0BFF2EFE0BFD41306000817
:103830009305000217150000130545D1EFE06FED69
:10384000014471BF011106EC7D569305F10003B5EB
:103850008197EFC0FFE08547E318F5FE0306F1000E
:103860009375F60F17150000130545D3EFE06FEAC7
:10387000E1BF411106E4EFE0EFE817150000130582
:10388000E5D2EFE00FE9EFF07FD43145EFF05FD6FE
:10389000EFF0BFC4EFE0BFEC97F5FFFF9385655CE9
:1038A000416513050510EFE0DFF335ED97F5FFFFF8
:1038B00093858562416513050520EFE09FF23DE9A0
:1038C00097F5FFFF9385C57A416513050530EFE055
:1038D0005FF125E99705000093850595416513057E
:1038E0000540EFE01FF02DE5014685451305000476
:1038F000EFC03FB023BCA196EFF07FC481471147D2
:10390000814613060010971500009385A5D517056D
:1039100000001305A5D7EFD05FABEFD01FB4014572
:10392000A26041018280171500001305A5C9EFE0D0
:103930004FDEADBF17150000130545CBEFE06FDD7F
:1039400041B7171500001305E5CCEFE08FDC59B740
:1039500017150000130585CEEFE0AFDB71B700004F
:103960000000000000000000000000000000000057
:103970000000000000000000000000000000000047
:103980000000000000000000000000000000000037
:103990000000000000000000000000000000000027
:1039A0000000000000000000000000000000000017
:1039B0000000000000000000000000000000000007
:1039C00000000000000000000000000000000000F7
:1039D00000000000000000000000000000000000E7
:1039E00000000000000000000000000000000000D7
:1039F00000000000000000000000000000000000C7
:103A0000417106E416E81AEC1EF022F426F82AFCAE
:103A1000AEE0B2E4B6E8BAECBEF0C2F4C6F8CAFC56
:103A20004EE152E556E95AED5EF162F566F96AFD3E
:103A3000EEE1F2E5F6E9FAEDFEF1F322001096F57B
:103A4000F3230010996233F353006312530482B9D5
:103A500086BD0AA20EA612AA16AE1AB21EB622BAC7
:103A600026BEAAA2AEA6B2AAB6AEBAB2BEB6C2BAB6
:103A7000C6BE4AA34EA752AB56AF5AB35EB762BB9F
:103A800066BFEAA3EEA7F2ABF6AFFAB3FEB7916258
:103A900073A00210896273B00210F322101416E0B2
:103AA0009712000083B202CD23B0220073252014A8
:103AB000F32510141356F50331CA2EE08542FE1289
:103AC00013831200631B650017110000033101BB53
:103AD000EFE0CF90EFD00FB291A81103631E650005
:103AE00017110000033181B9EFE0AF8DEFD02F97B0
:103AF00015CDEFD02FB01DA81103631B6500171162
:103B000000000331A1B7EFF01F940DA091052EE046
:103B100073252014F3251014732630140A87171107
:103B200000000331A1B5EF00A00D09A0171300009C
:103B3000033343C403310300826273901214F323EE
:103B40000010AE7273900210996233F35300631247
:103B500053044E30EE301221B2215222F22212339F
:103B6000B2335234F2341625B6255626F6261637C9
:103B7000B6375638F6381A29BA295A2AFA2A1A3B79
:103B8000BA3B5A3CFA3C1E2DBE2D5E2EFE2E1E3F29
:103B9000BE3FA260C262626382732274C2746275A5
:103BA00086652666C666666786772678C6786679ED
:103BB0008A692A6ACA6A6A6B8A7B2A7CCA7C6A7D9D
:103BC0008E6D2E6ECE6E6E6F8E7F7D6173002010B7
:103BD0001300000013000000130000001300000099
:103BE0001300000013000000130000001300000089
:103BF0001300000013000000130000001300000079
:103C00006F0000001300000013000000130000000C
:103C10001300000013000000130000001300000058
:103C20001300000013000000130000001300000048
:103C30001300000013000000130000001300000038
:103C40001300000013000000130000001300000028
:103C50001300000013000000130000001300000018
:103C60001300000013000000130000001300000008
:103C700013000000130000001300000013000000F8
:103C800013000000130000001300000013000000E8
:103C900013000000130000001300000013000000D8
:103CA00013000000130000001300000013000000C8
:103CB00013000000130000001300000013000000B8
:103CC00013000000130000001300000013000000A8
:103CD0001300000013000000130000001300000098
:103CE0001300000013000000130000001300000088
:103CF0001300000013000000130000001300000078
:103D00006FF06FF4828013000000130000001300B6
:103D10000000130000001300000013000000130057
:103D20000000130000001300000013000000130047
:103D30000000130000001300000013000000130037
:103D40000000130000001300000013000000130027
:103D50000000130000001300000013000000130017
:103D60000000130000001300000013000000130007
:103D700000001300000013000000130000001300F7
:103D800000001300000013000000130000001300E7
:103D900000001300000013000000130000001300D7
:103DA00000001300000013000000130000001300C7
:103DB00000001300000013000000130000001300B7
:103DC00000001300000013000000130000001300A7
:103DD0000000130000001300000013000000130097
:103DE0000000130000001300000013000000130087
:103DF0000000130000001300000013000000010089
:103E00009712000083B2028B7390521017110000BA
:103E100003314196026182604E30EE301221B221B0
:103E20005222F2221233B2335234F2341625B6251E
:103E30005626F6261637B6375638F6381A29BA29CE
:103E40005A2AFA2A1A3BBA3B5A3CFA3C1E2DBE2D7E
:103E50005E2EFE2E1E3FBE3F626382732274C274CA
:103E6000627586652666C666666786772678C67832
:103E700066798A692A6ACA6A6A6B8A7B2A7CCA7CE2
:103E80006A7D8E6D2E6ECE6E6E6F8E7FAE7293E2F9
:103E9000220073900210C2627D61828013000000D4
:103EA00013000000130000001300000013000000C6
:103EB00013000000130000001300000013000000B6
:103EC00013000000130000001300000013000000A6
:103ED0001300000013000000130000001300000096
:103EE0001300000013000000130000001300000086
:103EF0001300000013000000130000001300000076
:103F0000F3220010170300000333C3788323030058
:103F1000B3E2720083234300B3F2720093F2D2FF44
:103F200013030012B3E26200130505F0611523309C
:103F30005500130505F510E1130505FD9702000076
:103F400083B2427A2330550061150CE18280FF9FD5
:103F5000FFFF002000000000000000000000000043
:103F60000000000000000000000000000000000051
:103F70000000000000000000000000000000000041
:103F80000000000000000000000000000000000031
:043F9000000000002D
:103F980049444C450000000072DAFFFFCCDAFFFF0D
:103FA800CCDAFFFF10DBFFFF1CDBFFFF3ADBFFFF74
:103FB800CCDAFFFFCCDAFFFF10DBFFFF1CDBFFFFD3
:103FC800546D725100000000546D722053766300E6
:103FD80030780000FADFFFFFD6DFFFFF1AE0FFFFAF
:103FE8001AE0FFFF1AE0FFFF1AE0FFFF1AE0FFFFE9
:103FF8001AE0FFFF1AE0FFFF1AE0FFFF1AE0FFFFD9
:104008001AE0FFFF1AE0FFFFC4DFFFFF1AE0FFFF1F
:104018001AE0FFFFE8DFFFFF1AE0FFFF1AE0FFFFEB
:104028001AE0FFFF1AE0FFFFC4DFFFFF00000000F7
:104038003031323334353637383961626364656616
:104048000000000000000000202025733A206D6960
:104058006E3D25647573206D61783D256475732008
:104068006176673D25647573207035303D2564752C
:1040780073207039393D25647573206A69747465D5
:10408800723D256475730A0072706D736720696EDE
:104098006974206661696C65643A20717565756537
:1040A8003D2570206D757465783D25700A00000007
:1040B80072706D736720696E69743A2071756575E1
:1040C800652064657074683D25642068616E646C61
:1040D8006572733D2564206275663D2564207061B4
:1040E800796C6F61643D25640A00000000000000DF
:1040F80072706D7367207265676973746572206684
:1041080061696C65643A207461626C652066756CDF
:104118006C2065703D25780A000000000000000052
:1041280072706D7367206973723A206261642062ED
:104138007566666572206C656E3D25640A00000030
:1041480072706D7367206973723A20646973706165
:104158007463682071756575652066756C6C2C20B4
:1041680064726F7020636F6F6B69653D25780A0014
:1041780072706D7367206C6F616E206661696C6523
:10418800643A20746F5F7876362066726565206CB5
:1041980069737420656D70747920617661696C3D0E
:1041A800256420757365643D25640A0000000000DD
:1041B80072706D73672073656E64206661696C65E3
:1041C800643A206D73673D2570206F757473696458
:1041D8006520746F5F78763620706F6F6C0A000008
:1041E80072706D7367206E733A206C6F616E206613
:1041F80061696C656420666F722025730A0000008F
:1042080072706D73672D6563686F000000000000B1
:104218007175617264616D702D72706300000000C9
:104228007175617264616D702D62656E63680000FE
:104238007175617264616D702D616363656C2D6366
:104248006C69656E7400000072706D736720646934
:104258007370617463683A206E6F2068616E646C75
:10426800657220666F72206473743D257820636FD1
:104278006F6B69653D25780A0000000000000000AA
:1042880072706D7367206563686F3A206C6F616E3A
:10429800206661696C65640A000000000000000087
:1042A80072746F732D3E7876362072706D73672046
:1042B80061636B000000000072706D736720757099
:1042C8007065723A206C6F616E206661696C656416
:1042D8000A0000000000000072706D7367206265BC
:1042E8006E63683A206C6F616E206661696C656404
:1042F8000A00000000000000616363656C20636CC5
:1043080069656E743A2062616420726573706F6EBD
:104318007365206C656E3D256420636D643D25786A
:1043280020636F6F6B69653D25780A000000000007
:10433800616363656C20636C69656E743A206A6FAB
:10434800623D257820636D643D257820737461741F
:10435800653D2564207374617475733D2564206C14
:10436800656E3D2564207274743D256475732072F2
:1043780065713D2564757320736572766963653D63
:104388002564757320616363656C3D2564757320CE
:104398006972713D25640A00616363656C2062651A
:1043A8006E63683A2073616D706C65733D25642097
:1043B8006572726F72733D2564206C656E3D25646D
:1043C800207468726F7567687075743D2564206A1B
:1043D8006F62732F7320256420422F730A00000038
:1043E800726F756E645F747269700000000000007F
:1043F800726571756573745F746F5F7365727669E2
:1044080063650000000000007876365F7365727699
:104418006963650000000000706369655F646D6131
:104428005F6D7369780000006D61696C626F782058
:104438006972712072656365697665642C2072659E
:1044480061736F6E3D25780A0000000000000000CF
:10445800706C69633A20756E6B6E6F776E20697247
:10446800712025640A000000765461736B437265FD
:104478006174650A000000007655617274527854C0
:1044880061736B00000000007649636344697370D0
:10449800617463685461736B0000000000000000E1
:1044A800764963634E735461736B0000000000002B
:1044B80076416363656C436C69656E745461736BB4
:1044C8000000000000000000616363656C20636CFD
:1044D80069656E743A206C6F616E206661696C65FF
:1044E80064206A6F623D25780A0000000000000021
:1044F800616363656C20636C69656E743A207365EB
:104508006E64206661696C6564206A6F623D257817
:104518000A00000000000000616363656C20636CA2
:1045280069656E743A207375626D6974206A6F628A
:104538003D2578206C656E3D25640A00000000006A
:10454800616363656C2062656E63683A20737461A9
:1045580072742069746572733D2564206C656E3DC4
:1045680025640A0000000000616363656C206265D1
:104578006E63683A206661756C742070726F62654C
:10458800206A6F623D25780A0000000000000000E4
:1045980072783A20257820272563270A0000000032
:1045A80048656C6C6F204672656552544F53210AFA
:1045B80000000000000000006963633A207265672C
:1045C8006973746572206563686F2068616E646CD6
:1045D8006572206661696C65640A0000000000006D
:1045E8006963633A207265676973746572207570D0
:1045F8007065722068616E646C6572206661696CB2
:1046080065640A00000000006963633A2072656708
:1046180069737465722062656E63682068616E6490
:104628006C6572206661696C65640A0000000000B0
:104638006963633A207265676973746572206163A0
:1046480063656C2068616E646C6572206661696C74
:1046580065640A00000000007461736B2063726572
:104668006174000000000000060000000000000067
:10467800C08A00B000000000FFCF00B200000000B8
:1046880000000000000000004E3F00B000000000E5
:10469800884E00B00000000050C801B000000000C3
:1046A800383600B000000000003A00B000000000FA
:1046B800000040B000000000F84600B00000000014
:1046C800884600B000000000F84600B00000000076
:1046D800884600B000000000121C00B00000000076
:1046E800FFFFFFFFFFFFFFFF0000000000000000CA
:04000005B000000047
:00000001FF
