:02000004B0004A
:100000009721000083B1010B9D45631EB508735015
:10001000401073504014996273B00210896273A04B
:100020000210B702040073A0021017210000033170
:10003000610A73100114172500000335A50B9725DD
:10004000000083B5250A172600000336260A63FA46
:10005000C5008332050023B055002105A105E3EA60
:10006000C5FE17250000033565079725000083B5F9
:10007000E5046377B500233005002105E36DB5FE87
:100080001725000003350504EF105003EF1050034F
:10009000014581450146EF10B01173005010F5BFC6
:0C00A00073005010F5BF73005010F5BF46
:10010000930705011CE57D5718E91CED1CF1233010
:10011000050082802330050282801C659CE5986B77
:1001200098E90CE78CEB88F11C6185071CE1828063
:100130009061FD576303F60293070501BE869C6735
:100140009863E37DE6FE9C669CE58CEB94E98CE687
:1001500088F11C6185071CE182801471EDB71C7168
:100160001465186998EA146514E798676308A7008E
:100170002330050288637D1588E38280186998E73B
:10018000C5BF411106E422E02A84EF00301B3C7811
:1001900089EB0544EF00301C2285A2600264410116
:1001A00082800144C5BFAA87506115C2411106E48F
:1001B0002E85986F329798EF946B6364D70098639D
:1001C00098EF8C6FEF104071A260410182808280B5
:1001D000011106EC22E826E4AA84EF00301603C4DD
:1001E00094081B1484011B54844131A07D341B14DA
:1001F00084011B548441635C8000BC6489CB1385FB
:100200008404EF0050057DD1EF00D012C5B7FD5733
:10021000A384F408EF003014EF00501203C48408E4
:100220001B1484011B54844131A07D341B148401B0
:100230001B548441635C80009C7089CB138504024D
:10024000EF0070017DD1EF00F00EC5B7FD5723849C
:10025000F408EF005010E2604264A26405618280FD
:1002600049C5797106F422F026EC2A84AE843C7DDF
:10027000BDCF54610147B3B7D70281E709C7014534
:1002800085A80547E5BFEF00700B1C60347C586003
:100290003386E6023E9610E8233804061CE4FD1679
:1002A0003307D702BA971CECFD572304F408A304C4
:1002B000F4089DE01C7089E7EF00F00905450DA8E2
:1002C00013050402EF00207965D9930700083EE486
:1002D0002800EF102063CDB713050402EFF05FE2B2
:1002E00013058404EFF0DFE1C1BF014582800145C1
:1002F000A2700274E26445618280011106EC22E87A
:1003000026E4B6843A8499ED18E028FC4CE0854553
:100310002285EFF0FFF4230C9408E2604264A264AB
:100320000561828010E3D5B7797106F44EE431C5DA
:1003300022F026EC4AE82A84AE843289814733379A
:10034000B50215EBA9E3330594029307F0F563E1D9
:10035000A7041305050AEF102014AA891DCD2A87CA
:10036000CA861306050AA6852285EFF01FF90274D6
:10037000E264426921A08547F1B781494E85A270A8
:10038000A2694561828081490274E2644269FDB7D5
:1003900081490274E2644269D5B70274E264426939
:1003A000F1BF1D7186ECA2E8A6E4CAE04EFC2A84E7
:1003B000AE8932E40149ADA8CE852285EFF0BFDEDB
:1003C000FD1424F81C7099EBEF00E0780545E66019
:1003D0004664A6640669E2792561828013050402F9
:1003E000EF00606775D1930700083EEC2808EF1016
:1003F0006051D9BFEF0020760145D1BF0810EF0052
:100400008072054935A82304040891A8A3040408B0
:1004100085A02285EFF0DFDBEF00102211A82285F6
:10042000EFF01FDBEF0050212285EFF09FD535ED77
:10043000EF00C0702478C9F0A267CDDFE30009FCAB
:10044000EF006071EF00403BEF00406F834784088E
:100450009B9787019BD787417D57E386E7FA8347C0
:1004600094089B9787019BD787417D57E380E7FAE4
:10047000EF00606E2C000810EF00D0314DF12285A6
:10048000EFF03FD059D5A26513058404EF00E05585
:100490002285EFF0FFD3EF00301A59F993070008D7
:1004A0003EEC2808EF10004661B701450DB781C545
:1004B0000146814739A082801386019436961DA893
:1004C00085071D476367F7029396470013870194DA
:1004D00036971867E302A7FE65F6939647001387E1
:1004E00001943697186369FF138701943386E600F9
:1004F000C1BF19C20CE208E68280011106EC22E8B5
:1005000026E44AE02A84AE843289EF0020638347E0
:1005100084089B9787019BD787417D576388E702B3
:10052000834794089B9787019BD787417D576382B8
:10053000E702EF0040623C7885C32285EFF05FC997
:10054000E2604264A26402690561828023040408B7
:10055000C1BFA3040408F1BF4A86A685130584041D
:10056000EF00E04AD9BF83B7818D9C6389E7FD57CF
:1005700023B0F188828083B7818D9C6F9C6323B008
:10058000F1888280411106E422E02A842871EF007C
:10059000707E2285EF00107EA2600264410182809D
:1005A000397106FC22F826F44AF04EEC52E856E483
:1005B0005AE0AA8AAE84368B3A893E8A42849319DD
:1005C00036004E869305500A03350806EF10802F3B
:1005D0003C70E119BE9993F909FF9DC081483D48DF
:1005E000636E1801338814010308080033031401F3
:1005F00023040307630408008508D5B7A30B04068A
:10060000994763F327013E89233C240523382409B5
:1006100013058400EFF01FB013050403EFF09FAF44
:1006200000F09D47B38727411CF820E45A86D68501
:100630004E85EF10F00C08E063040A0023308A00B6
:10064000E2704274A2740279E269426AA26A026BA1
:10065000216182805D7186E4A2E026FC4AF84EF4B6
:1006600052F056EC5AE85EE4AA892E8A3289B68A9C
:100670003A8BBE8B13153600EF001062AA8439C581
:100680001305800AEF0050612A840DCD1306800AFD
:100690008145EF10202324F081482288DE875A8785
:1006A000D6864A86D2854E85EFF09FEF2285A660DA
:1006B0000664E2744279A279027AE26A426BA26B22
:1006C000616182802685EF00F06ACDB72A84F9BF88
:1006D000411106E422E0014421A893172400A297C7
:1006E00013973700138581A83A95EFF07FA1050491
:1006F0009947E3F487FE138501A6EFF07FA01385E9
:1007000081A3EFF0FF9F138501A1EFF07F9F138579
:10071000819EEFF0FF9E1385019CEFF07F9E9387F3
:1007200001A623BCF18C938781A323B8F18CA2602E
:10073000026441018280797106F422F026EC4AE8D5
:100740004EE452E02A84AE8403B9818B83B9818D53
:1007500003BA018D9387018E9863A302070A886309
:100760002105EFF0DF9F11ED83B7018EB86F85474C
:10077000B397E70093C7F7FF9386018B9862F98FD1
:100780009CE2FD576306F4024A9483B7018E80E72A
:100790006377240583B5018EA1055285EFF05F993B
:1007A000A2700274E2644269A269026A45618280B1
:1007B000E1DC1387019C14679387018E906314EA30
:1007C00090638C6A0CEE9063210690E5906321069D
:1007D00090EA9C6398F71C6385071CE3D1B783B547
:1007E000018EA1054E85EFF0BF9483B70188E379B0
:1007F000F4FA23B081886DB7138701871C638507DE
:100800001CE3828003B5818B828083B7018763926A
:100810000714411106E422E09387818B806305046D
:1008200080E315CC83B70188637BF404014583B76B
:10083000018EB86F93172700BA97139737009387E5
:1008400081A8BA979863854763F3E7003E8583B72D
:10085000818963970710A260026441018280138737
:10086000818D14639387018D906310E394E3138764
:1008700001891C6385071CE3EFF0FFCE65B70145D6
:10088000BDA8FD5723B0F1885DB723B0E18845B717
:10089000946F14E759A823B807041463FD1614E3F2
:1008A000B46F05473317D7001386018B0338060052
:1008B0003367070118E2138781A81396260036963E
:1008C00093163600BA96946694EB906A90EF0CE615
:1008D0008CEAAC6F939625003388B6001316380067
:1008E0003A9690F710620506931538002E9710E39C
:1008F000B86F83B7018EBC6F63F3E700054583B71C
:10090000818D9C63BDDF83B7818D9C6F9C6F9867E1
:10091000E36DE4F69877906B946F14EA906B90E631
:10092000146793858700E385B6F623B40702146342
:10093000FD1614E3B86B2DD7907FB46314EA907F53
:1009400090E6106793860703E317D6F4B46314E7C1
:1009500099B71387018A1C6385071CE301458280D0
:100960000545D5BD83B7018789C7854723BCF18875
:10097000828023BC018883B7018B8127B1CF0147D7
:1009800021A005279B971700E3DD07FE02170193BF
:10099000FD47998F938581A8939627003386F600AB
:1009A000131736002E971067106610E7BE96139740
:1009B000360041072E976304E60213972700BA9783
:1009C00013973700938781A8BA979C67986F93878E
:1009D000018E98E39C6382801307000245BF8E0658
:1009E0003387D500146F14E7C9BF411106E422E034
:1009F0002E8483B5018E93850503EFF06FF3854553
:100A00002285EFF05FD3A260026441018280411130
:100A100006E4AA872E85B28594671387018E10633A
:100A200014FE106303B80601233006051063130695
:100A300006032334C80010631306060390EA186304
:100A40003CEB9863050798E391C17D55EFF0BFCE6D
:100A5000A260410182801C6D9C6FB86B907FB46373
:100A600014EA907F90E61467138607036388C6082C
:100A700023B807041463FD1614E303B7018749E79D
:100A80009877906B946F14EA906B90E6106793865A
:100A900087006308D60623B4070210637D1610E3AF
:100AA000AC6F05473317B7001386018B0862498F77
:100AB00018E2138681A8139725002E970E07329708
:100AC000186798EB0C6B8CEF94E514EBAC6F1397F5
:100AD0002500B306B7008E06B29694F79462850699
:100AE0002E970E073A9614E2B86F83B7018EBC6F4B
:100AF00063F9E702054523BCA1888280B46314E74B
:100B000085BF906F10E741BF138701A1146794FF61
:100B10008C6AACE390E590EAB8EB1463850614E3C5
:100B2000E1B70145828083B701891CE183B7818BDE
:100B30001CE58280854723BCF18882807370011098
:100B400083B7818A81CB1387018E1463BC7E8507AE
:100B5000BCFE1C63828083B7818A85C383B7018E04
:100B6000BC7F81CF1387018E1463BC7EFD17BCFE52
:100B70001C63BC7F99E3736001108280011106EC55
:100B800022E82A84EFF09FFB1387018C1C63850702
:100B90001CE383B7018E89CF83B7818A8DE383B746
:100BA000018EB86F3C6C63ECE70023B0818E01A826
:100BB00023B0818E03B7018C8547630DF706138739
:100BC00081881C6385071CE35CE0386C8547B3971C
:100BD000E7009386018B9062D18F9CE2938681A877
:100BE00093172700BA978E07B6979C671CE8906BFF
:100BF00010EC1307840018E698EB306C931726006E
:100C00003387C7000E07369718F418630507B297A5
:100C10008E07BE9698E2EFF01FF483B7818A99C7DA
:100C200083B7018EB86F3C6C6369F700E260426481
:100C300005618280EFF0DFA959B7930700083EE411
:100C40002800EF00304CDDB7411106E4EFF09FA023
:100C500019C5EFF0BFF20545A260410182807D55C4
:100C6000E5BF011106EC22E802E002E481473947C2
:100C70006361F70217170000130747323E97030717
:100C80000700938607018A962388E6FE19C3850725
:100C9000F9BFC1078A97238807FE014405456356BB
:100CA0008000E260426405618280931734001387FC
:100CB0008187BA9701478146130600208A85170568
:100CC000000013050517EFF03FF88547E31BF5FC1F
:100CD0003E94F1B7411106E4EFF0BFF88547630990
:100CE000F5009717000083B7E73AA26041018280C0
:100CF000EF00C0658547E316F5FE73700110FD57E0
:100D000023B0F188854723B4F18A23BC018AEF0020
:100D1000C06AC1BF797106F422F026EC2A84EFF094
:100D2000FFE159C4930484002685EFF04FC30DE51D
:100D3000346C93972600B6978E07138781A8BA97CD
:100D40009C6399EB8547B397D70093C7F7FF138749
:100D5000018B1463F58F1CE33C6889C713050403FA
:100D6000EFF0EFBF138781881C6385071CE383B70F
:100D7000018E63828704014783B7818A91C315EF8F
:100D80001387018C1C63FD171CE3EFF0CFFDEFF020
:100D90009FDC2285EFF00FFF83B7818A89C783B775
:100DA000018E63898702A2700274E26445618280C9
:100DB00003B4018E85BF0547C1B7A6851385819E03
:100DC000EFF0AFB51387818C1C6385071CE3EFF050
:100DD0009FD8D9B7930700083EE42800EF0090326F
:100DE000D9B783B7818CB9C3411106E422E0EFF093
:100DF000FFD483B701A0806F13058400EFF02FB6F6
:100E00001387018C1C63FD171CE31387818C1C6303
:100E1000FD171CE3EFF03FD42285EFF0AFF683B768
:100E2000818CF1F7A26002644101828082804111CD
:100E300006E4EFF01FFBF5BF011106EC22E8EFF02E
:100E4000FFCF9387018798637D1798E39C63639135
:100E5000071083B7018C89EB0144E5A8B46314E75C
:100E600035A0906F10E799A0814703B701A155C342
:100E700083B781A29C6FB86B907FB46314EA907FB4
:100E800090E6106793860703E30AD6FC23B80704AD
:100E90001463FD1614E39877906B946F14EA906BCB
:100EA00090E6106793868700E30DD6FA23B4070215
:100EB00010637D1610E3AC6F05473317B700138638
:100EC000018B0862498F18E2138681A813972500C9
:100ED0002E970E073297186798EB0C6B8CEF94E502
:100EE00014EBAC6F13972500B306B7008E06B296CD
:100EF00094F7946285062E970E073A9614E2B46F23
:100F000003B7018E386FE372D7F6054723BCE1883B
:100F1000A9BF99C3EFF02FE503B4018A05E003B43C
:100F2000818905C883B7018E930700083EE4280035
:100F3000EF00501D054431A87D1401C8EFF0FF8C6F
:100F400065DD854723BCF188C5BF23B0018AC1BFD9
:100F50000144EFF05FC02285E26042640561828057
:100F6000011106EC09CD22E82A84EFF0FF888145C3
:100F70002285EFF04FFCEFF03FEC19E94264930754
:100F800000083EE42800EF00F017E260056182806F
:100F90004264E5BF011106EC22E826E42A84AE840F
:100FA000EFF0DFB903B7818B1C643306F74083B6DB
:100FB000018E83C6560A91CE83B7018EA382070A9B
:100FC0000544EFF05FB92285E2604264A2640561E6
:100FD00082809460FD55638BB602086083B50189F9
:100FE0006308B5006366F70023B004000544D1BF71
:100FF0006366D60023B004000544E1B7998FB69725
:101000009CE02285EFF03FB2014465BF014455BF2B
:1010100003B781901C6399E785471CE191E71C6F3A
:10102000886382808147D5BF01458280411106E4F3
:101030000CE508F16362B602158E1C796366F60052
:101040000545A260410182809305850003B50190AA
:10105000EFF00F8E0145F5B76374D60063FAD50043
:101060009305850003B58190EFF08F8C0145D1BFCA
:101070000545C1BF011106EC22E826E44AE02A84B6
:10108000AE84328931A01C78BE943C602285829760
:101090000C78A6864A86A6952285EFF03FF965F57D
:1010A000E2604264A264026905618280011106EC7B
:1010B00022E826E44AE0AA842E8983B781909C6FB7
:1010C000806F13058400EFF08F898347040513F7C1
:1010D000470009EFF99B2308F4043C6022858297BE
:1010E000E2604264A2640269056182804A86A68544
:1010F0002285EFF03FF8D5B783B7819098630DC78D
:10110000411106E49C6FFD558863EFF03FFA83B709
:101110008190986365FB13870190146323B4D19089
:101120001CE3A2604101828013870190146323B401
:10113000D1901CE38280011106EC22E826E4AA8407
:10114000EFF04FEC2A8483B7818E636CF50023B0F7
:10115000040023B4818E2285E2604264A2640561AA
:101160008280EFF07FF985479CE0E5B7797106F45E
:1011700022F04AE82A892E84EFF00FE82800EFF0E9
:101180009FFBA267B1EF26ECAA841DE863722503DA
:101190002286B305994003B5818FEFF00FB6EFF0CB
:1011A000BFC91DC5E264A2700274426945618280B4
:1011B000EFF09FC8A6854A85EFF05FEFE264E5B7E0
:1011C00003B70190186319E30544D9B73E84C9B742
:1011D000930700083EE00A85EF00C072E264E1B7C1
:1011E000EFF09FC5C9B75D7186E4A2E026FC02E876
:1011F00002EC02F002F401460C0803B5818FEFF017
:101200004F9A69C9C26763CE0702C267E3C507FE8A
:10121000027475D01C7489C713058400EFE03FF495
:101220002800EFF05FF1AA84C2672547E365F7FC69
:101230008A07171700001307A7E1BA979C43BA97CC
:101240008287A2550275E2678297C1B7834704057A
:1012500093E717002308F404E2660C782A86B69513
:101260002285EFF0BFDC41D98347040513F747001F
:1012700001EBF99B2308F4043C6022858297A5BF0B
:101280001C782686E265BE952285EFF0BFDEEDB7BD
:1012900083470405F99B2308F404B1BF8347040581
:1012A00093E717002308F404E2650CF8AA862A865F
:1012B000AA952285EFF09FD73DBF8347040513F71A
:1012C000270009C7F99B2308F40435B72285EF00EE
:1012D000602A15B7A6600664E2746161828001111C
:1012E00006EC2800EFF0DFD2A265EFF03FE8EFF068
:1012F0009FEFC5BF411106E4EFF05F8483B7818F94
:1013000091C7EFF05F85A26041018280138581BCA7
:10131000EFE01FDF138501BAEFE09FDE938781BC0A
:1013200023B4F190938701BA23B0F190014693055D
:1013300000021945EFE05FFF23BCA18E79D197151C
:101340000000938525C6EFF08F9665BF411106E436
:10135000EFF05FFA83B7818F85C79387018F1947B5
:1013600081461306E00697150000938525C41705EE
:101370000000130505F7EFF03F8DA2604101828068
:101380000145E5BF732710C09387019198E38863F7
:101390008280411106E4EFF0FFFE896793870771B1
:1013A0003E95EF000055A26041018280411106E4A4
:1013B000EF00A054A26041018280411106E4EFF0E9
:1013C0005FFD9307000273A04710736041109307FD
:1013D000002073A04710EF00B0220145A260410138
:1013E00082807370011001A0175700001307870B4C
:1013F0009377F700A9C7975600009386960BC19A7A
:10140000C167938747BF958FBA9736879756000075
:101410009386460898E223B40600BA97C117C19B89
:1014200023BCF19223B4070023B00700B386E74042
:1014300014E71CE323B4D19223B8D1928280C16710
:10144000938747BFE1B7975700009387A7043E876C
:101450009C63E3EEA7FE14673306D700630CA60077
:1014600014653306D500638CC7001CE16303E500F7
:1014700008E382801065B29614E73A85D5B703B6C3
:1014800081936389C7009C67BE9614E51C639C63C7
:101490001CE1E9BF10E1D9BF011106EC22E826E406
:1014A0002A840DC1BD5763EEA7001304050193778D
:1014B000F40089CB41471D8FBD1763E787023A943B
:1014C00011A00144EFF04FB383B7819385C3634B01
:1014D000040859C803B60193636A8608975600004A
:1014E000938646FB9C6201A80144E9BFEFF0DFEF61
:1014F000F9BFBE86BA87986763748700986375FBE7
:1015000003B781936306F7068462C104986398E287
:101510009867018F9305000263F9E500B3858700A2
:1015200098E580E7986298E18CE29867198E23B875
:10153000C19283B681926374D60023B4C192FD56E2
:10154000FE16558F98E723B00700138701921C639E
:1015500085071CE3EFF05F8E2685E2604264A2649B
:10156000056182808144FDB78144EDB78144DDB7D8
:101570008144CDB729CD011106EC22E826E42A8466
:10158000930405FF833785FF63C70700E260426469
:10159000A26405618280033705FF6DFB7D570583DB
:1015A000F98F233CF5FEEFF02FA5833684FF1387D8
:1015B00001931C63B6971CE32685EFF0DFE81387E1
:1015C00081911C6385071CE3EFF01F87C1B7828000
:1015D000797106F422F02A8463430504014437D765
:1015E000CCCC1307D7CC93170702BA97B337F502C1
:1015F00013D7370093162700369706073307E540C1
:101600001B070703930604028A9605242384E6FE3B
:101610002A8713D53700A547E3E3E7FC15A0130598
:10162000D002EF00201F330580404DBF9B07F4FF21
:101630003E84938707028A97038587FEEF00801D0B
:10164000E34680FEA270027445618280011106ECBF
:1016500022E826E42A8401A8930414000305040068
:10166000EF00401B26848307040081CB2947E395C4
:10167000E7FE3545EF00001AC5B7E2604264A26498
:1016800005618280011106EC22E826E4AA84171580
:10169000000013052592EFF07FFB1304C003014700
:1016A00021A8171700001307679DBA970385070045
:1016B000EF0040160547713463490400B3D7840036
:1016C000BD8BE5F379FF65F8E9BFE2604264A2648F
:1016D00005618280411106E4EF006012A2604101C1
:1016E0008280597106F422F026EC2A842EFCB2E0A6
:1016F000B6E4BAE8BEECC2F0C6F43C183EE419A861
:101700002947638BE7049304140003050400EF00EA
:101710006010268483070400D1CB13075002E391A5
:10172000E7FE930424008307140013070007638176
:10173000E7046347F70213075002638DE7041307BA
:101740004006639FE704A267138787003AE4884353
:10175000EFF01FE826847DBF3545EF00A00B65B78D
:1017600013073007638FE70013078007639AE702C8
:10177000A267138787003AE48863EFF0BFF02684FE
:1017800051BFA267138787003AE48863EFF01FEC2C
:10179000268449B713055002EF00C00726849DBF79
:1017A0001305F003EF0000072684ADB7A2700274A2
:1017B000E26465618280411106E4EF00E00E0DC134
:1017C00022E02A84B1476300F502AA8517150000BC
:1017D00013054580EFF0FFF02285EF00600D0264F5
:1017E000A26041018280AA85170500001305057DCE
:1017F000EFF03FEFEF00E004E35E05FEF1BFB72737
:101800000010A38007000D47A381E7001D47238137
:10181000E7008280B727001083C7570093F70702BD
:10182000F5DB1375F50FB72700102380A700828022
:10183000B727001003C7170013671700A380E7003E
:101840008280B727001083C75700858B91C7B727C1
:10185000001003C5070082807D5582806357A00079
:101860000A05B707000C3E950CC18280411106E4C1
:10187000B7F7200C23A0070085453145EFF01FFE88
:10188000A260410182806350A002935755008A07ED
:101890003727000C13070778BA978546BB96A60032
:1018A0009843558F98C38280B7F7200CC843828035
:1018B0006355A000B7F7200CC8C382800145828021
:1018C00082808280AA8729A02380B70085073A8674
:1018D0001307F6FF75FA8280AA8701A883C6050060
:1018E0002380D700850585073A861307F6FF7DF626
:1018F0008280814873000000828001458D4873001A
:10190000000082809148730000008280411106E44B
:10191000170500001305856DEFF0BFDC8147114707
:101920008146056613060680970500009385056DC0
:10193000170500001305C505EFF00FB181471147EA
:101940008146056613060680970500009385856B22
:101950001705000013058501EFF00FAF0145EFF00B
:101960006FBBA26041018280411106E422E0814503
:101970001B8415001705000013054569EFF07FD69D
:101980001305803EEFF0CFDDA285DDB7411106E4FF
:1019900022E081451B84150017050000130505682A
:1019A000EFF03FD41305803EEFF08FDBA285DDB76B
:1019B000411106E4EFF01FD217050000130505677B
:1019C000EFF03FD2EFF09FEA3145EFF0DFEBEFF0C1
:1019D0003FE6814711478146130600109705000036
:1019E0009385456617050000130585F2EFF0CFA536
:1019F000EFF04FAE0145A26041018280000000007F
:101A0000417106E416E81AEC1EF022F426F82AFCCE
:101A1000AEE0B2E4B6E8BAECBEF0C2F4C6F8CAFC76
:101A20004EE152E556E95AED5EF162F566F96AFD5E
:101A3000EEE1F2E5F6E9FAEDFEF1F322001096F59B
:101A4000F3230010996233F353006312530482B9F5
:101A500086BD0AA20EA612AA16AE1AB21EB622BAE7
:101A600026BEAAA2AEA6B2AAB6AEBAB2BEB6C2BAD6
:101A7000C6BE4AA34EA752AB56AF5AB35EB762BBBF
:101A800066BFEAA3EEA7F2ABF6AFFAB3FEB7916278
:101A900073A00210896273B00210F322101416E0D2
:101AA00083B2018E23B0220073252014F325101475
:101AB0001356F50331CA2EE08542FE12138312003D
:101AC000631B6500170100000331415DEFF01F8EBD
:101AD000EFE05FE991A81103631E650017010000A4
:101AE0000331C15BEFF0FF8AEFE03FD215CDEFE0AD
:101AF0007FE71DA81103631B650017010000033178
:101B0000E159EFF05FCB0DA091052EE07325201475
:101B1000F3251014732630140A87170100000331CF
:101B2000E157EF00E00D09A003B3018E033103007C
:101B3000826273901214F3230010AE72739002103D
:101B4000996233F35300631253044E30EE30122186
:101B5000B2215222F2221233B2335234F234162519
:101B6000B6255626F6261637B6375638F6381A29C9
:101B7000BA295A2AFA2A1A3BBA3B5A3CFA3C1E2D79
:101B8000BE2D5E2EFE2E1E3FBE3FA260C26262636D
:101B900082732274C274627586652666C66666673D
:101BA00086772678C67866798A692A6ACA6A6A6BED
:101BB0008A7B2A7CCA7C6A7D8E6D2E6ECE6E6E6F9D
:101BC0008E7F7D6173002010130000001300000061
:101BD00013000000130000001300000013000000B9
:101BE00013000000130000001300000013000000A9
:101BF0001300000013000000130000001300000099
:101C00006F0000001300000013000000130000002C
:101C10001300000013000000130000001300000078
:101C20001300000013000000130000001300000068
:101C30001300000013000000130000001300000058
:101C40001300000013000000130000001300000048
:101C50001300000013000000130000001300000038
:101C60001300000013000000130000001300000028
:101C70001300000013000000130000001300000018
:101C80001300000013000000130000001300000008
:101C900013000000130000001300000013000000F8
:101CA00013000000130000001300000013000000E8
:101CB00013000000130000001300000013000000D8
:101CC00013000000130000001300000013000000C8
:101CD00013000000130000001300000013000000B8
:101CE00013000000130000001300000013000000A8
:101CF0001300000013000000130000001300000098
:101D00006FF07FAB8280130000001300000013000F
:101D10000000130000001300000013000000130077
:101D20000000130000001300000013000000130067
:101D30000000130000001300000013000000130057
:101D40000000130000001300000013000000130047
:101D50000000130000001300000013000000130037
:101D60000000130000001300000013000000130027
:101D70000000130000001300000013000000130017
:101D80000000130000001300000013000000130007
:101D900000001300000013000000130000001300F7
:101DA00000001300000013000000130000001300E7
:101DB00000001300000013000000130000001300D7
:101DC00000001300000013000000130000001300C7
:101DD00000001300000013000000130000001300B7
:101DE00000001300000013000000130000001300A7
:101DF00000001300000013000000130000000100A9
:101E00009702000083B2822C7390521003B1018EAE
:101E1000026182604E30EE301221B2215222F22253
:101E20001233B2335234F2341625B6255626F6262E
:101E30001637B6375638F6381A29BA295A2AFA2ADE
:101E40001A3BBA3B5A3CFA3C1E2DBE2D5E2EFE2E8E
:101E50001E3FBE3F626382732274C27462758665E0
:101E60002666C666666786772678C67866798A6942
:101E70002A6ACA6A6A6B8A7B2A7CCA7C6A7D8E6DF2
:101E80002E6ECE6E6E6F8E7FAE7293E222007390D6
:101E90000210C2627D618280130000001300000006
:101EA00013000000130000001300000013000000E6
:101EB00013000000130000001300000013000000D6
:101EC00013000000130000001300000013000000C6
:101ED00013000000130000001300000013000000B6
:101EE00013000000130000001300000013000000A6
:101EF0001300000013000000130000001300000096
:101F0000F3220010170300000333431A8323030056
:101F1000B3E2720083234300B3F2720093F2D2FF64
:101F200013030012B3E26200130505F061152330BC
:101F30005500130505F510E1130505FD9702000096
:101F400083B2C21B2330550061150CE18280FF9FD4
:101F5000FFFF002000000000000000000000000063
:101F60000000000000000000000000000000000071
:101F70000000000000000000000000000000000061
:101F80000000000000000000000000000000000051
:041F9000000000004D
:101F980049444C4500000000546D72510000000097
:101FA800546D722053766300307800000000000002
:101FB800706C69633A20756172743220697271209D
:101FC80025640A0000000000706C69633A20756E91
:101FD8006B6E6F776E206972712025640A000000AD
:101FE800765461736B4372656174650A0000000082
:101FF8007461736B310000007461736B3200000010
:102008007461736B322025780A000000000000001C
:102018007461736B312025780A000000000000000D
:1020280048656C6C6F204672656552544F53210A9F
:1020380000000000000000007461736B206372658B
:1020480061740000AAF1FFFF00F2FFFF00F2FFFF3A
:1020580044F2FFFF50F2FFFF6EF2FFFF00F2FFFFB6
:1020680000F2FFFF44F2FFFF50F2FFFF0000000004
:1020780030313233343536373839616263646566F6
:102088000000000000000000060000000000000042
:08209800906400B0000000009C
:1020A00000000000000000004E1F00B00000000013
:1020B000A02800B000000000986001B000000000FF
:1020C000C21800B000000000001A00B000000000BC
:1020D000000040B000000000102100B0000000002F
:1020E000A02000B000000000102100B0000000009F
:1020F000A02000B000000000E21300B000000000CB
:10210000FFFFFFFFFFFFFFFF0000000000000000D7
:04000005B000000047
:00000001FF
