:02000004B0004A
:100000009741000083B181159D45631EB50873506B
:10001000401073504014996273B00210896273A04B
:100020000210B702040073A0021017410000033150
:10003000E114731001141745000003352516974588
:10004000000083B5A514174600000336A61463FA12
:10005000C5008332050023B055002105A105E3EA60
:10006000C5FE174500000335E5119745000083B52F
:10007000650F6377B500233005002105E36DB5FEFC
:10008000174500000335850EEF30C029EF30C02939
:10009000014581450146EF30604473005010F5BFC3
:0C00A00073005010F5BF73005010F5BF46
:10010000930705011CE57D5718E91CED1CF1233010
:10011000050082802330050282801C659CE5986B77
:1001200098E90CE78CEB88F11C6185071CE1828063
:100130009061FD576303F60293070501BE869C6735
:100140009863E37DE6FE9C669CE58CEB94E98CE687
:1001500088F11C6185071CE182801471EDB71C7168
:100160001465186998EA146514E798676308A7008E
:100170002330050288637D1588E38280186998E73B
:10018000C5BFAA87286509C5BC739C631D451D8D25
:100190008280411106E422E02A84EF10400F387873
:1001A0003C7C630AF7000144EF1080102285A260B6
:1001B0000264410182800544C5BF411106E422E08A
:1001C0002A84EF10C00C3C7889EB0544EF10400EF8
:1001D0002285A2600264410182800144C5BF0111F1
:1001E00006EC22E826E44AE02A84B28403390507B3
:1001F00050611DE21C6199CB0145930719003CF841
:10020000E2604264A2640269056182800869EF00CD
:10021000507023380400D5B799EC0865EF304012D0
:100220001C645860BA971CE4186863EFE7021C600E
:100230001CE42685D9B7086DEF3080101C6C58601F
:10024000B306E040998F1CEC186063F5E7001C686A
:10025000B6971CEC89476384F400014579BF6307B6
:1002600009007D19014551BF268541BF014571B780
:10027000AA87506115C2411106E42E85986F329706
:1002800098EF946B6364D700986398EF8C6FEF30AE
:10029000200BA260410182808280011106EC22E8DD
:1002A00026E4AA84EF00B07E03C494081B148401E2
:1002B0001B54844131A07D341B1484011B548441A0
:1002C000635C8000BC6489CB13858404EF007044B8
:1002D0007DD1EF007053C5B7FD57A384F408EF003C
:1002E000307DEF00D07A03C484081B1484011B54B2
:1002F000844131A07D341B1484011B548441635C10
:1003000080009C7089CB13850402EF0090407DD162
:10031000EF00904FC5B7FD572384F408EF005079E4
:10032000E2604264A2640561828049C5797106F485
:1003300022F026EC2A84AE843C7DBDCF5461014777
:10034000B3B7D70281E709C7014585A80547E5BFCF
:10035000EF00F0731C60347C58603386E6023E96F2
:1003600010E8233804061CE4FD163307D702BA97B9
:100370001CECFD572304F408A304F4089DE01C7052
:1003800089E7EF00F07205450DA813050402EF00A0
:10039000503865D9930700083EE42800EF20107D0F
:1003A000CDB713050402EFF0BFD513058404EFF0B9
:1003B0003FD5C1BF014582800145A2700274E2644D
:1003C00045618280011106EC22E826E4B6843A8475
:1003D00099ED18E028FC4CE085452285EFF0FFF40C
:1003E000230C9408E2604264A2640561828010E3F9
:1003F000D5B7797106F44EE431C522F026EC4AE80F
:100400002A84AE84328981473337B50215EBA9E3DC
:10041000330594029307F0F563E1A7041305050A79
:10042000EF10900BAA891DCD2A87CA861306050AEC
:10043000A6852285EFF01FF90274E264426921A0CB
:100440008547F1B781494E85A270A26945618280D6
:1004500081490274E2644269FDB781490274E26431
:100460004269D5B70274E2644269F1BF1D7186EC3E
:10047000A2E8A6E4CAE04EFC2A84AE8932E4B6843F
:10048000014995A82686CE852285EFF05FD53C648C
:1004900081EF1DE5EF00D0610545E6604664A66486
:1004A0000669E2792561828013058404EF007026D5
:1004B00075D1930700083EEC2808EF20306BD9BFB8
:1004C000930700083EEC2808EF20506AE1B7EF00E0
:1004D000305E0145D9B70810EF00B03105490DA8CD
:1004E00023040408A9A0A304040899A82285EFF016
:1004F000DFDAEF10C011EF00905938783C7CE363ED
:10050000F7F88947E380F4F8A267F1D3E30509FC23
:10051000EF00105AEF006073EF00705783478408B4
:100520009B9787019BD787417D57E38BE7FA8347EA
:1005300094089B9787019BD787417D57E385E7FA0E
:10054000EF0010572C000810EF10A0241DE52285A5
:10055000EFF03FC441DDA26513050402EF00301443
:100560002285EFF09FD3EF10800A51F59307000822
:100570003EEC2808EF20905FBDBF2285EFF0FFD151
:10058000EF10E008014511BF0DC1411106E4233809
:10059000050023300500233C0500814601468145C6
:1005A000EFF0DFECA260410182808280411106E41D
:1005B00022E02A8681450545EFF0BFE32A84EFF06B
:1005C000BFFC2285A260026441018280011106EC19
:1005D00022E84AE02A843289368638793C7D636B8A
:1005E000F70089476388F6000145E26042640269CA
:1005F0000561828026E4834494089B9484019BD403
:1006000084413C782285EFF09FBDFD576393F4024F
:100610003C6481E70545A264C9BF13058404EF006B
:10062000500F15C56308090205452330A900A264CF
:100630006DBFEF00206363F2A40285249B948401C4
:100640009BD48441A30494080545A26479BF054561
:10065000A26461BF0545A26449BF0545A26471B7A4
:100660001D7186ECA2E8A6E4CAE04EFC2A84AE899D
:1006700032E40149ADA8CE852285EFF07FBFFD149D
:1006800024F81C7099EBEF00B0420545E660466423
:10069000A6640669E2792561828013050402EF00F1
:1006A000500775D1930700083EEC2808EF20104C46
:1006B000D9BFEF00F03F0145D1BF0810EF00701324
:1006C000054935A82304040891A8A304040885A0BB
:1006D0002285EFF09FBCEF00907311A82285EFF008
:1006E000DFBBEF00D0722285EFF03FAD35EDEF00BC
:1006F000103A2478C9F0A267CDDFE30009FCEF00CF
:10070000303BEF008054EF009038834784089B977C
:1007100087019BD787417D57E386E7FA8347940893
:100720009B9787019BD787417D57E380E7FAEF00CE
:1007300030382C000810EF10C0054DF12285EFF085
:10074000DFA759D5A26513058404EF004075228503
:10075000EFF0BFB4EF00B06B59F9930700083EEC1F
:100760002808EF20B04061B701450DB75D7186E400
:10077000A2E026FC4AF82A842EE40149814479A0AB
:10078000FD173CF81C6081CF1C7091EFEF005032D8
:100790000545A6600664E274427961618280EF10CB
:1007A000000808E8D5B713050402EF00807679DD6C
:1007B000930700083EEC2808EF20503BC1BFEF0034
:1007C000302F0145F9B70810EF00B0028544B1A001
:1007D0002304040895A0A304040885A8EF00302B87
:1007E0000868EF0030032A89EF00902CA5A8228525
:1007F000EFF0BFAAEF00B06111A82285EFF0FFA9CA
:10080000EF00F0602285EFF05F9B3DEDEF003028B8
:100810003C78BDF7A267C5D7DDD4EF007029EF00A3
:10082000C042EF00D026834784089B9787019BD75F
:1008300087417D57E38EE7F8834794089B978701AC
:100840009BD787417D57E388E7F8EF0070262C009F
:100850000810EF00107455F12285EFF01F9641D972
:100860001C60ADDFA26513058404EF0040632285A0
:10087000EFF0BFA2EF00B05951F9930700083EEC2A
:100880002808EF20B02E59B763140900014511B7AD
:10089000EF00F01F2285EFF0DF8EAA850868EF00D9
:1008A0001012EF00F020DDB781C50146814709A88D
:1008B0008280174600001306E69F369689A08507BA
:1008C0001D47636DF7029396470017470000130713
:1008D000679E36971867E30EA7FC75F2939647005C
:1008E000174700001307079D3697186369FB1747E2
:1008F00000001307279C3386E600D1B719C20CE22B
:1009000008E68280011106EC22E826E44AE02A8407
:10091000AE843289EF00B017834784089B97870124
:100920009BD787417D576388E702834794089B974D
:1009300087019BD787417D576382E702EF005017FD
:100940003C7885C32285EFF05F95E2604264A26443
:1009500002690561828023040408C1BFA30404085E
:10096000F1BF4A86A68513058404EF00C055D9BFA0
:100970009747000083B7878B9C6399E7FD5717471C
:1009800000002339F78482809747000083B7078AE5
:100990009C6F9C6317470000233EF78282804111C1
:1009A00006E422E02A842871EF10C0402285EF106F
:1009B0006040A260026441018280397106FC22F825
:1009C00026F44AF04EEC52E856E45AE0AA8AAE8485
:1009D000368B3A893E8A4284931936004E869305B7
:1009E000500A03350806EF2070143C70E119BE99D7
:1009F00093F909FF9DC081483D48636E1801338813
:100A000014010308080033031401230403076304DB
:100A100008008508D5B7A30B0406994763F327019F
:100A20003E89233C24052338240913058400EFF074
:100A30006FEE13050403EFF0EFED00F09D47B38771
:100A400027411CF820E45A86D6854E85EF30400BAE
:100A500008E063040A0023308A00E2704274A27442
:100A60000279E269426AA26A026B216182805D7149
:100A700086E4A2E026FC4AF84EF452F056EC5AE81E
:100A80005EE4AA892E8A3289B68A3A8BBE8B131508
:100A90003600EF106024AA8439C51305800AEF10D0
:100AA000A0232A840DCD1306800A8145EF2010086B
:100AB00024F081482288DE875A87D6864A86D285E6
:100AC0004E85EFF09FEF2285A6600664E2744279BE
:100AD000A279027AE26A426BA26B6161828026850A
:100AE000EF10402DCDB72A84F9BF411106E422E072
:100AF000014421A893172400A29713973700138568
:100B000001AB3A95EFF0CFDF05049947E3F487FE98
:100B1000138581A8EFF0CFDE138501A6EFF04FDE3D
:100B2000138581A3EFF0CFDD138501A1EFF04FDD39
:100B30001385819EEFF0CFDC938781A817370000E3
:100B40002336F76E938701A617370000233CF76C16
:100B5000A260026441018280797106F422F026ECE1
:100B60004AE84EE452E02A84AE8417390000033983
:100B7000E9699739000083B9696B173A0000033AB5
:100B80006A6A973700009387E76A9863A302070AA7
:100B900088632105EFF0AFDC15E19737000083B7DC
:100BA0006769B86F8547B397E70093C7F7FF973634
:100BB0000000938626659862F98F9CE2FD57630AD0
:100BC000F4024A949737000083B7C76680E7637BD7
:100BD00024059735000083B5E565A1055285EFF042
:100BE0002FD5A2700274E2644269A269026A45616B
:100BF0008280E1D81387819E14679737000093871E
:100C00006763906314EA90638C6A0CEE906321062C
:100C100090E59063210690EA9C6398F71C63850732
:100C20001CE3C1B79735000083B5C560A1054E85AB
:100C3000EFF00FD09737000083B7C759E373F4FA8A
:100C40009737000023B8875869BF1737000013078C
:100C500067571C6385071CE3828017350000033546
:100C6000E55A8280173500000335C55A82809737D0
:100C7000000083B72755639C0716411106E422E064
:100C800097370000938787588063050480E321C469
:100C90009737000083B707546375F406014597370B
:100CA000000083B72759B86F93172700BA97139797
:100CB0003700938701ABBA979863854763F3E700E2
:100CC0003E859737000083B76752639B0712A26087
:100CD000026441018280173700001307275514630F
:100CE0009737000093870754906310E394E3173716
:100CF00000001307274F1C6385071CE3EFF05FC755
:100D000041BF014579A0FD57173700002334F74C48
:100D100079B79737000023BFE74A51B7946F14E7BC
:100D20005DA023B807041463FD1614E3B46F0547F0
:100D30003317D700173600001306C64C03380600D9
:100D40003367070118E2138701AB13962600369626
:100D500093163600BA96946694EB906A90EF0CE680
:100D60008CEAAC6F939625003388B60013163800D2
:100D70003A9690F710620506931538002E9710E307
:100D8000B86F9737000083B7E74ABC6F63F3E7009B
:100D900005459737000083B767499C63ADD7973700
:100DA000000083B7A7489C6F9C6F9867E363E4F6E5
:100DB0009877906B946F14EA906B90E61467938524
:100DC0008700E38DB6F423B407021463FD1614E321
:100DD000B86B29DF907FB46314EA907F90E61067C8
:100DE00093860703E31FD6F2B46314E71DBF1737DA
:100DF0000000130727401C6385071CE30145828020
:100E00000545F1B59737000083B7C73B99C78547BC
:100E100017370000233CF73C82809737000023B748
:100E2000073C9737000083B7E73D8127A5C30147FB
:100E300021A005279B971700E3DD07FE021701930A
:100E4000FD47998F938501AB939627003386F60073
:100E5000131736002E971067106610E7BE9613978B
:100E6000360041072E976306E60213972700BA97CC
:100E700013973700938701ABBA979C67986F9737A2
:100E800000009387273B98E39C638280130700024E
:100E900075B78E063387D500146F14E7F9B7411183
:100EA00006E422E02E849735000083B5A5389385AB
:100EB0000503EFF0EFA785452285EFF0FFC9A2609B
:100EC000026441018280411106E4AA872E85B28521
:100ED0009467173700001307E735106314FE10639B
:100EE00003B80601233006051063130606032334F6
:100EF000C80010631306060390EA18633CEB98637E
:100F0000050798E391C17D55EFF01FC5A26041012F
:100F100082801C6D9C6FB86B907FB46314EA907FE5
:100F200090E61467138607036380C60A23B8070494
:100F30001463FD1614E3173700000337A72859EB95
:100F40009877906B946F14EA906B90E61067938695
:100F50008700630ED60623B4070210637D1610E3E4
:100F6000AC6F05473317B700173600001306862904
:100F70000862498F18E2138601AB139725002E975C
:100F80000E073297186798EB0C6B8CEF94E514EB17
:100F9000AC6F13972500B306B7008E06B29694F790
:100FA000946285062E970E073A9614E2B86F97372B
:100FB000000083B72728BC6F63FBE702054597371E
:100FC000000023B5A7228280B46314E785B7906F31
:100FD00010E751B7138781A3146794FF8C6AACE3C1
:100FE00090E590EAB8EB1463850614E3C1B70145B8
:100FF00082809737000083B7E71E1CE19737000017
:1010000083B7C7201CE58280854717370000233F40
:10101000F71C8280630B050E011106EC22E82A847E
:10102000386D9737000083B7E720BC6F6375F70C06
:101030001C799396070263CA06009737000083B7AE
:10104000671FB46F9D47958F1CF914749317270081
:10105000BA978E07138701ABBA97638DF60097375F
:10106000000083B7271DBC6F3CEC0545E26042647D
:101070000561828026E4930484002685EFF02F8E9C
:1010800011ED386C8547B397E70093C7F7FF173723
:101090000000130727171463F58F1CE39737000030
:1010A00083B74719B86F38EC0545B317E500973695
:1010B0000000938626159062D18F9CE2938601AB47
:1010C00093172700BA978E07B6979C671CE8986B12
:1010D00018EC04E784EB306C931726003387C700C5
:1010E0000E07369718F418632A97B2978E07BE96A4
:1010F00098E2A264A5BF58699737000083B78713A9
:10110000BC6F6366F700014595B7014582800545D0
:10111000B1BF55C1011106EC22E82A845C6DFD17B0
:101120005CED346D5869638AE60891C70145E26059
:1011300042640561828026E4930485002685EFF0F1
:101140000F8211ED386C8547B397E70093C7F7FF1F
:10115000173700001307070B1463F58F1CE358685B
:1011600038EC9D47998F1CF80545B317E500973675
:101170000000938626099062D18F9CE2938601AB92
:1011800093172700BA978E07B6979C671CE8986B51
:1011900018EC04E784EB306C931726003387C70004
:1011A0000E07369718F418632A97B2978E07BE96E3
:1011B00098E2A264ADBF0145828001458DBF79C52B
:1011C000011106EC22E826E42A845C6963F3B70087
:1011D000AE87246C6386F400546C05476387E60091
:1011E000E2604264A264056182803CEC1878931648
:1011F000070263C606001D47B307F7401CF81874C2
:1012000093972400A6978E07938601ABB697E319B0
:10121000F7FC4AE0130984004A85EFE05FF409ED2A
:101220008547B397970093C7F7FF17370000130759
:1012300067FD1463F58F1CE3386C8547B397E700AF
:1012400097360000938606FC9062D18F9CE29386CD
:1012500001AB93172700BA978E07B6979C671CE8D7
:10126000986B18EC2334270123B82701306C9317AF
:1012700026003387C7000E07369718F41863050752
:10128000B2978E07BE9698E2026999BF828073700A
:1012900001109737000083B767F691CB173700002E
:1012A000130747F91463BC7E8507BCFE1C6382806C
:1012B0009737000083B787F485C79737000083B757
:1012C00067F7BC7F91CF173700001307A7F61463A9
:1012D000BC7EFD17BCFE1C63BC7F99E373600110EC
:1012E0008280011106EC22E82A84EFF05FFA1737BA
:1012F0000000130727F21C6385071CE397370000E3
:1013000083B747F39DC39737000083B727EF8DEB73
:101310009737000083B707F2B86F3C6C63E2E702CF
:101320009737000023B887F021A89737000023B330
:1013300087F0173700000337E7ED85476305F708A7
:1013400017370000130787E91C6385071CE35CE07F
:10135000386C8547B397E70097360000938686EA96
:101360009062D18F9CE2938601AB93172700BA97C6
:101370008E07B6979C671CE8906B10EC13078400EF
:1013800018E698EB306C931726003387C7000E07DA
:10139000369718F418630507B2978E07BE9698E241
:1013A000EFF01FF19737000083B747E589CB9737F8
:1013B000000083B727E8B86F3C6C6369F700E26010
:1013C000426405618280EFF04FF29DBF93070008F1
:1013D0003EE42800EF109079DDB7411106E4EFF00C
:1013E0000FE919C5EFF0FFEF0545A26041018280CA
:1013F0007D55E5BF011106EC22E802E002E48147D9
:1014000039476361F70217270000130727793E97D2
:1014100003070700938607018A962388E6FE19C30F
:101420008507F9BFC1078A97238807FE0144054550
:1014300063568000E2604264056182809317340045
:1014400017370000130787D8BA970147814613065C
:1014500000208A85170500001305051BEFF0FFF734
:101460008547E319F5FC3E94E1B7411106E4EFF03E
:101470007FF885476309F5009737000083B787CB6E
:10148000A26041018280EF00E06F8547E316F5FE20
:1014900073700110FD5717370000233DF7D28547C1
:1014A00017370000233CF7D49737000023B007D646
:1014B000EF00A074D1B7797106F422F026EC2A84EB
:1014C000EFF0FFDC4DC4930484002685EFE03FC9B4
:1014D0001DE5346C93972600B6978E07138701ABF2
:1014E000BA979C6389EF8547B397D70093C7F7FFF7
:1014F00017370000130707D11463F58F1CE33C680E
:1015000089C713050403EFE09FC5173700001307D1
:10151000E7CC1C6385071CE39737000083B787D1AE
:10152000638C870401479737000083B727CD91C3A9
:1015300031E7173700001307E7CD1C63FD171CE3E5
:10154000EFF00FC3EFF0DFD62285EFF04FC59737EE
:10155000000083B7A7CA99C79737000083B787CD24
:10156000638D8702A2700274E26445618280173441
:101570000000033424CC81BF054775B7A6851385C9
:1015800001A1EFE09FB917370000130727C91C63BB
:1015900085071CE3EFF0DFD15DBF930700083EE451
:1015A0002800EF10B05C7DBF9737000083B707C7F6
:1015B000A9CB411106E422E0EFF07FCD83B781A2F1
:1015C000806F13058400EFE09FB917370000130701
:1015D00067C41C63FD171CE317370000130707C41B
:1015E0001C63FD171CE3EFF0BFCC2285EFF02FBB8F
:1015F0009737000083B787C2E1F3A260026441011C
:1016000082808280411106E4EFF01FFAF5BF0111DC
:1016100006EC22E8EFF0BFC797370000938787BA40
:1016200098637D1798E39C636393071297370000D4
:1016300083B747BE89EB014421AAB46314E735A000
:10164000906F10E799A0814703B781A345CB83B77B
:1016500001A59C6FB86B907FB46314EA907F90E60D
:10166000106793860703E30AD6FC23B807041463C4
:10167000FD1614E39877906B946F14EA906B90E6E4
:10168000106793868700E30DD6FA23B40702106330
:101690007D1610E3AC6F05473317B700173600000F
:1016A000130646B60862498F18E2138601AB1397FA
:1016B00025002E970E073297186798EB0C6B8CEF6E
:1016C00094E514EBAC6F13972500B306B7008E06B4
:1016D000B29694F7946285062E970E073A9614E216
:1016E000B46F173700000337E7B4386FE37ED7F4E1
:1016F00005479736000023BBE6AEB9B799C3EFF0B4
:101700002FA7173400000334E4AE05E417340000BB
:101710000334C4AD15CC9737000083B7A7B1930746
:1017200000083EE42800EF107044054415A07D1425
:1017300011C8EFF0CFD365DD854717370000233799
:10174000F7AAF5B79737000023B607AAC1B7014437
:10175000EFF01FB62285E2604264056182800111CC
:1017600006EC09CD22E82A84EFF02FCE81452285B0
:10177000EFF08FBEEFF0BFE919E94264930700086C
:101780003EE42800EF10903EE260056182804264F2
:10179000E5BF011106EC22E826E42A84AE84EFF0CE
:1017A0001FAF17370000033767A61C643306F740E6
:1017B0009736000083B606A883C6560A85C29737B7
:1017C000000083B727A7A382070A0544EFF05FAEA6
:1017D0002285E2604264A264056182809460FD55C6
:1017E000638DB60208609735000083B5A59F630836
:1017F000B5006366F70023B004000544C1BF63660B
:10180000D60023B004000544D1B7998FB6979CE069
:101810002285EFF00FFE014455BF014445BF173547
:101820000000033525A101C55C6D85075CED828054
:1018300003B701911C6399E785471CE191E71C6F91
:10184000886382808147D5BF01458280411106E4CB
:101850000CE508F16362B602158E1C796366F6002A
:101860000545A260410182809305850003B5819002
:10187000EFE01F8C0145F5B76374D60063FAD5001D
:101880009305850003B50191EFE09F8A0145D1BF23
:101890000545C1BF011106EC22E826E44AE02A848E
:1018A000AE84328931A01C78BE943C602285829738
:1018B0000C78A6864A86A6952285EFF03FF965F555
:1018C000E2604264A264026905618280011106EC53
:1018D00022E826E44AE0AA842E8983B701919C6F0E
:1018E000806F13058400EFE09F878347040513F79B
:1018F000470009EFF99B2308F4043C602285829796
:10190000E2604264A2640269056182804A86A6851B
:101910002285EFF03FF8D5B783B7019198630DC7E3
:10192000411106E49C6FFD558863EFF03FFA83B7E1
:101930000191986365FB13878190146323B8D1905C
:101940001CE3A2604101828013878190146323B855
:10195000D1901CE38280011106EC22E826E4AA84DF
:10196000EFF0AFAF2A849737000083B7278D636EFF
:10197000F50023B004009737000023B1878C22853F
:10198000E2604264A26405618280EFF0FFF885475F
:101990009CE0D5B7797106F422F04AE82A892E84B2
:1019A000EFF0AFAA2800EFF01FFBA267A5E326EC3B
:1019B000AA840DEC637425032286B305994017357C
:1019C00000000335A588EFE0FFF3EFF05FC41DC50D
:1019D000E264A2700274426945618280EFF03FC305
:1019E000A6854A85EFF09FEEE264E5B703B78190E4
:1019F000186319E30544C9B73E847DBF9307000807
:101A00003EE00A85EF109016E264E1B7EFF03FC0C8
:101A1000C9B75D7186E4A2E026FC02E802EC02F0A0
:101A200002F401460C081735000003352582EFE06B
:101A30003FC369C9C26763CE0702C267E3C307FE3B
:101A4000027465D01C7489C713058400EFE02FF180
:101A50002800EFF05FF0AA84C2672547E363F7FC34
:101A60008A07172700001307E713BA979C43BA9712
:101A70008287A2550275E2678297C1B78347040542
:101A800093E717002308F404E2660C782A86B695DB
:101A90002285EFF0BFDB51D58347040513F74700DC
:101AA00001EBF99B2308F4043C602285829795BFE3
:101AB0001C782686E265BE952285EFF0BFDDEDB786
:101AC00083470405F99B2308F404A1BF8347040559
:101AD00093E717002308F404E2650CF8AA862A8627
:101AE000AA952285EFF09FD62DBF8347040513F7F3
:101AF000270009C7F99B2308F40425B72285EF00C6
:101B0000602B05B7A6600664E274616182800111F2
:101B100006EC2800EFF0DFD1A265EFF0BFE7EFF0B1
:101B20005FEFC5BF411106E4EFF06FF697270000A5
:101B300083B7C77191C7EFF0AFF7A2604101828010
:101B4000138501BFEFE0CFDB138581BCEFE04FDBF6
:101B5000938701BF23B8F190938781BC23B4F190A0
:101B60000146930500021945EFE0BF889727000062
:101B700023BEA76C69D19725000093852505EFE06A
:101B8000BFD255BF411106E4EFF0DFF997270000FF
:101B900083B7C76B95C7972700009387A76A194734
:101BA00081461306E006972500009385A5021705D8
:101BB0000000130505F6EFF05F82A260410182800C
:101BC0000145E5BF732710C09387819198E388632F
:101BD0008280411106E4EFF0FFFE89679387077169
:101BE0003E95EF108077A26041018280411106E4AA
:101BF000EF102077A26041018280411106E4EFF0EE
:101C00005FFD9307000273A04710736041109307B4
:101C1000002073A04710EF10B05E0145A2604101A3
:101C200082807370011001A017770000130787945A
:101C30009377F700A9C79776000093869694C19A88
:101C4000D16793870788958FBA9736879776000074
:101C50009386469198E223B40600BA97C117C19BB8
:101C600023B0F19423B4070023B00700B386E74004
:101C700014E71CE323B8D19223BCD1928280D167B0
:101C800093870788E1B7977700009387A78D3E87F2
:101C90009C63E3EEA7FE14673306D700630CA6002F
:101CA00014653306D500638CC7001CE16303E500AF
:101CB00008E382801065B29614E73A85D5B703B67B
:101CC00001946389C7009C67BE9614E51C639C63FE
:101CD0001CE1E9BF10E1D9BF011106EC22E826E4BE
:101CE0002A840DC1BD5763EEA70013040501937745
:101CF000F40089CB41471D8FBD1763E787023A94F3
:101D000011A00144EFE07FF483B7019485C3634BD6
:101D1000040859C803B68193636A86089776000061
:101D2000938646849C6201A80144E9BFEFF0DFEF8F
:101D3000F9BFBE86BA87986763748700986375FB9E
:101D400003B701946306F7068462C104986398E2BE
:101D50009867018F9305000263F9E500B38587005A
:101D600098E580E7986298E18CE29867198E23BC29
:101D7000C19283B601936374D60023B8C192FD5615
:101D8000FE16558F98E723B00700138781921C63D6
:101D900085071CE3EFF0BF872685E2604264A264FA
:101DA000056182808144FDB78144EDB78144DDB790
:101DB0008144CDB729CD011106EC22E826E42A841E
:101DC000930405FF833785FF63C70700E260426421
:101DD000A26405618280033705FF6DFB7D57058393
:101DE000F98F233CF5FEEFE05FE6833684FF13872F
:101DF00081931C63B6971CE32685EFF0DFE8138719
:101E000001921C6385071CE3EFF07F80C1B78280DD
:101E1000797106F422F02A8463430504014437D71C
:101E2000CCCC1307D7CC93170702BA97B337F50278
:101E300013D7370093162700369706073307E54078
:101E40001B070703930604028A9605242384E6FEF3
:101E50002A8713D53700A547E3E3E7FC15A0130550
:101E6000D002EF10203B330580404DBF9B07F4FFAD
:101E70003E84938707028A97038587FEEF10803997
:101E8000E34680FEA270027445618280011106EC77
:101E900022E826E42A8401A8930414000305040020
:101EA000EF10403726848307040081CB2947E39550
:101EB000E7FE3545EF100036C5B7E2604264A26424
:101EC00005618280011106EC22E826E4AA84172528
:101ED00000001305A5D0EFF07FFB1304C0030147FA
:101EE00021A817270000130767D5BA9703850700B5
:101EF000EF1040320547713463490400B3D78400C2
:101F0000BD8BE5F379FF65F8E9BFE2604264A26446
:101F100005618280411106E4EF10602EA26041014C
:101F20008280597106F422F026EC2A842EFCB2E05D
:101F3000B6E4BAE8BEECC2F0C6F43C183EE419A818
:101F400029476383E7069304140003050400EF1098
:101F5000602C268483070400CDCF13075002E39141
:101F6000E7FE9304240083071400130750026386DE
:101F7000E70863CAE708130780076346F7081307F3
:101F8000300663C2E7089B87D7F993F6F70F5547EA
:101F9000636BD7069397260017270000130747C4E3
:101FA000BA979C43BA9782873545EF10A02661BF48
:101FB000A267138787003AE48863EFF0BFF02684B6
:101FC00051BFA267138787003AE48843EFF05FE4CC
:101FD000268449B7A267138787003AE48863EFF045
:101FE000FFEA268485BFA267138787003AE403854A
:101FF0000700EF1020222684B1BF13055002EF1016
:102000006021268481BF1305F003EF10A0202684F1
:1020100091B7A2700274E264656182802A870145EB
:1020200011A00525931705028193BA9783870700AE
:10203000EDFB8280814701A81397070201932A973D
:10204000230007008527E3E9B7FE82803717005990
:1020500006078357270093960703C19293F7F70368
:102060008E07BA97C8C38CC70F0030038526C216E7
:10207000C1922311D7000F00300382802396019470
:10208000930700042395F194814729A8939617009C
:1020900017A70100130707DE36972310F7008527DF
:1020A000C217C1931B8707009306F003E3F0E6FE17
:1020B000828021A085272396F194B717802C8A0768
:1020C00083D6270083D7C1941B8707006387E60464
:1020D00093F6F7038E063717802C0A073697584376
:1020E000421741931B0607009306F003E3E4C6FC86
:1020F00083D6A1949B8506001306F003E36CB6FA21
:102100001B8616002395C194860617A601001306A8
:1021100066D6B2962390E60071BF82801B07050049
:102120009307F00363E6E70283D7A1949B86070039
:102130001307F003636ED7001B8717002395E19404
:10214000860717A701001307E7D2BA972390A700C5
:1021500082809727000083B7E7FE63F2A702B7E704
:10216000F4FFCD17B2073E95A167637CF500937726
:10217000F51F91EB25812390A500014582807D55B7
:1021800082807D5582807D55828054469DCD63E45A
:10219000B6009B86F5FF9307401E63F4D7009306B5
:1021A000401E014721A8931707028193B305F5004C
:1021B000B297838787012380F5000527E365D7FE63
:1021C000821681923695230005008280AA873D47BA
:1021D0006378B70E0347C5000345D5002205336871
:1021E000A7002D456370050F1B070800410863ED2C
:1021F000050D9B0547FF1307401E6374B700930549
:10220000401E03C7070003C517002205498F03C5F9
:1022100027004205598D03C737006207498F18C24E
:1022200003C7470003C557002205498F03C5670050
:102230004205598D03C777006207498F58C203C70B
:10224000070103C517012205498F03C52701420570
:10225000598D03C737016207498F18C603C7470165
:1022600003C557012205498F03C567014205598DF2
:1022700003C777016207498F18CA03C7870103C5DF
:1022800097012205498F03C5A7014205598D03C750
:10229000B7016207498F58CA4CC68DCAF1078146FB
:1022A00021A81397060201933385E7000345050033
:1022B0003297230CA7008526E3E5B6FE0145828010
:1022C0007D5582807D5582807D55828036858280D5
:1022D00071058280797106F422F026EC4AE84EE41A
:1022E0002A84AE8932892E85EFF05FD39B040500E6
:1022F000FD4763F39700FD44930500202285EFF02E
:102300007FD39377F90F034704002300F4009B5712
:10231000890093F7F70F03471400A300F4009B57BD
:10232000090193F7F70F034724002301F4009B579B
:10233000890103473400A301F40083474400930755
:1023400050032302F40083475400A3020400834790
:1023500064002303040083477400A303040083473D
:1023600084002304040083479400A30404008347EB
:10237000A400230504008347B400A3050400834799
:10238000E400230704008347F400A3070400834705
:10239000C400930780022306F4008347D400A306F9
:1023A0000400014721A8931707028193B386F9001F
:1023B00083860600A2972388D7000527E36597FE4A
:1023C00082148190A294238804009377F90F034725
:1023D00004032308F4029B57890093F7F70F034780
:1023E0001403A308F4029B57090193F7F70F03475F
:1023F00024032309F4021B59890183473403A309E9
:10240000240383474403230A040283475403A30A93
:10241000040283476403230B040283477403A30B62
:102420000402A2700274E2644269A269456182807A
:102430005D7186E4A2E026FC4AF84EF452F056ECB8
:102440005AE85EE42A84AE8B328BB68A3A8ABE8919
:102450004289C6849307401E63F417019304401E0B
:10246000930500202285EFF0FFBC93F7FB0F034795
:1024700004002300F4009BD78B0093F7F70F03476A
:102480001400A300F4009BD70B0193F7F70F034749
:1024900024002301F4009BDB8B0183473400A3015C
:1024A00074019377FB0F034744002302F4009B570A
:1024B0008B0093F7F70F03475400A302F4009B57D8
:1024C0000B0193F7F70F034764002303F4001B5B32
:1024D0008B0183477400A3036401834784002304B2
:1024E000040083479400A30404008347A400230549
:1024F00004008347B400A30504008347E4002307D6
:1025000004008347F400A30704009B87C4001397CB
:102510000703419393F7F70F8346C4002306F400A3
:10252000935787000347D400A306F40093F7FA0FEC
:10253000034704012308F4009BD78A0093F7F70FA1
:1025400003471401A308F4009BD70A0193F7F70F80
:10255000034724012309F4009BDA8A0183473401ED
:10256000A30954019377FA0F03474401230AF400A7
:102570009B578A0093F7F70F03475401A30AF4000F
:102580009B570A0193F7F70F03476401230BF400ED
:102590001B5A8A0183477401A30B440193F7F90F77
:1025A00003478401230CF4009BD7890093F7F70FAE
:1025B00003479401A30CF4009BD7090193F7F70F8D
:1025C0000347A401230DF4009BD989018347B4017B
:1025D000A30D34017104014721A8931707028193C9
:1025E000B306F900A29783C606002380D70005270B
:1025F000E36597FEA6600664E2744279A279027AE6
:10260000E26A426BA26B61618280411106E401467D
:10261000930500212145EFD0DFDD23B8A1940545C6
:10262000EFD0DFF823BCA19423940194EFF01FA511
:10263000014729A893164700979701009387877B46
:10264000B69723A0070023B4070005279D47E3D3CF
:10265000E7FE83B501959DC183B7819585C31307B7
:10266000401E930600202146A145171500001305C2
:10267000E560EFF01F8BA2604101828003B6819577
:10268000171500001305055DEFF0BF89EDB7C9C947
:10269000814711A085271D47634CF7029396470099
:1026A00017970100130707753697186765D71797AF
:1026B00001001307277436971843E31DA7FC1797EB
:1026C000010013072773B307D7008CE70145828009
:1026D00081471D476347F70293964700179701000C
:1026E000130747713697186719C38527DDB7179702
:1026F000010013072770B307D70088C38CE7014593
:102700008280411106E4931505028191171500009E
:102710001305C55AEFF0FF807D55A260410182800C
:102720007D558280130101DC233C11222338812254
:102730002334912223302123233C012083B70195A8
:1027400085C793079005E60798430127B75741517E
:10275000938707D5631AF70093079005E607DC43D4
:10276000812709476380E7028330812303340123F3
:102770008334812203390122130101248280052739
:102780002394E194B7872C009507AA0783D72700E5
:1027900003D781949B0607006386F610B7872C0049
:1027A0009376F70386069507AA07B69783D747005F
:1027B00013990703135909039306F003E3E1F6FCA9
:1027C0009317490037270B0005073207BA9783C6CE
:1027D000870003C797002207D98E03C7A7004207C7
:1027E000558F03C4B7006204598C012413070020DD
:1027F000637487001304002083C6070003C7170013
:102800002207D98E03C727004207558F83C637009A
:10281000E206D98E03C747000217558F83C65700BB
:10282000A216D98E03C767004217558F83C477005D
:10283000E214D98C0F00300313878194835707006B
:1028400085272310F70081463008A2852685EFF002
:10285000FF97634D05022314210122C626E8814615
:10286000300C2C0003B50195EFD05FD68547E30B04
:10287000F5F0836581021715000013052549EFF077
:102880004FEAA2854A85EFF06FFCEDBDA2851715D2
:1028900000001305A545EFF0CFE8A2854A85EFF0CB
:1028A000EFFACDB583378121E38007ECEFE08FD5D8
:1028B00065BD011106EC22E826E403B481956307A7
:1028C0000414AA8493079005E60798430127B75795
:1028D0004151938707D56318F71293079005E607D0
:1028E000DC43812709476392E712FD552285EFD02B
:1028F000FFE785476312F512EFF0AFFBB7872C00B7
:10290000B507AA0783D52700C215C19183D7A19423
:10291000F9C7FD37C217C1932395F194860717971E
:10292000010013072755BA9703D407002604B727D9
:102930000B00B507B2073E94930500202285EFF007
:102940006FEF83470400230004008347140085478A
:10295000A300F400034724002301F400834734005C
:10296000A301040093F7F40F034744002302F4008B
:102970009BD7840093F7F70F03475400A302F4009A
:102980009BD7040193F7F70F034764002303F40078
:102990001BD5840183477400A303A40083478400EC
:1029A0002304040083479400A30404008347A40085
:1029B000230504008347B400A30504008347E40013
:1029C000230704008347F400A30704008347C400DF
:1029D000230604008347D400A306040005A8B71704
:1029E000802C8A0703D6270017150000130505352C
:1029F000EFF02FD381460146814503B58195EFD095
:102A0000FFA6014421A0014411A001442285E260F7
:102A10004264A264056182800144CDBF797106F4ED
:102A200022F026ECB7872C00B507AA0783D427002D
:102A3000630B05182A84C214C1909305E100EFF0DE
:102A40004FF1634505148347C4000347D4002207B0
:102A50005D8F41279B0607009307002063E8D7148A
:102A60008357E1009207B7260B008D06B206B69792
:102A70001376F40F83C507002380C7001356840024
:102A80001376F60F83C51700A380C7001356040101
:102A90001376F60F83C527002381C7001B568401D8
:102AA00083C53700A381C700135604021376F60FBF
:102AB00083C547002382C700135684021376F60F9E
:102AC00083C55700A382C700135604031376F60F7D
:102AD00083C567002383C700619003C67700A38383
:102AE00087000356E10093174600B6979376F70FD9
:102AF00083C587002384D7009B56870093F6F60F83
:102B000083C59700A384D7009B560701858A83C598
:102B1000A7002385D7001B5787010217019383C69F
:102B2000B700A385E70003C7C7002386070003C7D4
:102B3000D700A386070003C7E7002387070003C762
:102B4000F700A3870700B7872C00B507AA0713F77C
:102B5000F40306073E972312C7000F0030038524B5
:102B6000C214C190239197000F0030030945EF0074
:102B7000806881460146814503B58195EFD01F8F5E
:102B80000145A2700274E26445618280A285171536
:102B900000001305A51EEFF0CFB881460146814520
:102BA00003B58195EFD09F8C7D55E1BF0355E100C2
:102BB000EFF0CFD681460146814503B58195EFD030
:102BC000FF8A7D557DBF7D556DBF011106EC22E862
:102BD00026E44AE0AA842E8913055003EFF07FCD46
:102BE00019CD2A844A86A685EFF0CFEE2285EFF034
:102BF000FFE2E2604264A264026905618280A68508
:102C0000171500001305851AEFF0AFB1DDB74111BC
:102C100006E422E01305007DEFE07FB441649305F4
:102C20000410171500001305651AEFF01FFA93053D
:102C30000420171500001305651AEFF01FF993051E
:102C40000430171500001305651AEFF01FF89305FF
:102C50000440171500001305651AEFF01FF7014532
:102C6000EFE07F85A260026441018280130101DEF2
:102C7000233C1120ADA8931707028193B306F500FA
:102C800083C60600938707218A97238CD7E0052700
:102C9000F247E362F7FE814711A085271D4763498C
:102CA000F70293964700179701001307A71436976A
:102CB0001467E5D61396470017970100130787138B
:102CC000329710435247E31AE6FC0808829619A887
:102CD0000366010283654101171500001305851382
:102CE000EFF02FA4924503550100EFF02FB67D566B
:102CF0008A8503B50195EFD0BF968547E319F5FEA8
:102D00002265EFF0EFDC014761B7130101DF2334E7
:102D1000112023308120A6FF2A842A869305501E85
:102D20002800EFF08FC60840EFF0BFB839C1AA8481
:102D30001715000013058513EFF04FAE9B08050033
:102D400017180000130888128147184814441040CF
:102D5000C165938505102685EFF08FED2685EFF090
:102D6000FFCB8330812003340120FE741301012145
:102D70008280171500001305650DEFF08F9AD5B707
:102D8000130101DF2334112023308120A6FFCAFB69
:102D9000AA840329C5002A869305501E2800EFF057
:102DA000CFBE8840EFF0FFB0630B05102A84930775
:102DB000401E63F427011309401E9305002022855D
:102DC000EFF04FA7230004008947A300F4008547D4
:102DD0002301F400A30104009C402302F4001BD74C
:102DE0008700A302E4001BD707012303E4009BD75D
:102DF0008701A303F40023040400A30404002305B3
:102E00000400A305040023070400A30704001B0714
:102E1000C90093170703C1932306E400A183A30607
:102E2000F4009C4413F7F70F834604012308E400E1
:102E30001BD787001377F70F83461401A308E4001C
:102E40001BD707011377F70F834624012309E400FA
:102E50009BD7870103473401A309F4009C4813F76B
:102E6000F70F83464401230AE4001BD7870013773A
:102E7000F70F83465401A30AE4001BD70701137719
:102E8000F70F83466401230BE4009BD787010347B8
:102E90007401A30BF40083478401230C04008347CF
:102EA0009401A30C04008347A401230D040083476D
:102EB000B401A30D04009305C401814739A8171577
:102EC0000000130525FCEFF0CF8535A89396070287
:102ED0008192AE962380E600852763F3270313973C
:102EE000070201932697034787019B06F7F993F69C
:102EF000F60F6546E36CD6FC01371377F70FF9B789
:102F00002285EFF0BFB18330812003340120FE74AD
:102F10005E79130101218280797106F422F026EC9A
:102F20004AE84EE42A898329C500F32410C0930798
:102F3000401D63F437019309401D03250900EFF09C
:102F40005F972A846306051093050020EFF08F8EAB
:102F5000230004008D47A300F40085472301F400FB
:102F6000A3010400832709002302F4001BD7870074
:102F7000A302E4001BD707012303E4009BD78701CA
:102F8000A303F40023040400A304040023050400A5
:102F9000A305040023070400A30704001B87C9013D
:102FA00093170703C1932306E400A183A306F4004B
:102FB0008327890013F7F70F834604012308E400F1
:102FC0001BD787001377F70F83461401A308E4008B
:102FD0001BD707011377F70F834624012309E40069
:102FE0009BD7870103473401A309F4008327090114
:102FF00013F7F70F83464401230AE4001BD7870029
:103000001377F70F83465401A30AE4001BD7070187
:103010001377F70F83466401230BE4009BD78701E6
:1030200003477401A30BF40083478401230C0400BD
:1030300083479401A30C04008347A401230D0400DB
:103040008347B401A30D04009305C401014735A0D3
:1030500017150000130505E5EFE0BFEC9DA09316E2
:1030600007028192CA969B07070182178193AE9748
:1030700083C686012380D7000527E36237FF7325C7
:1030800010C001470DA89B17370033D6F4009316E4
:1030900007028192AE961376F60F2380C600B357CF
:1030A000F5009B06870082168192AE9693F7F70F84
:1030B0002380F60005279D47E3F7E7FC2285EFF024
:1030C000FF95A2700274E2644269A2694561828040
:1030D000797106F44C45930700026394F50081472B
:1030E0003DA08366050103668500171500001305E2
:1030F00065DDEFE01FE335A8139707020193B306E0
:10310000E5000A9783C686012300D70085277D47FF
:10311000E374F7FED2486268C2473247A2460366AC
:1031200085008365410017150000130525DDEFE0DC
:103130005FDFA27045618280797106F422F026EC8F
:10314000EF00201C0DC52A8402E4B1476306F50296
:10315000B5476304F504AA8517150000130505E1BA
:10316000EFE03FDC2285EF00801AA267A9EFA27092
:103170000274E26445618280EF00A00CE34405FE26
:1031800083B70196F5DBA303A100814630009305C8
:1031900071003E85EFD08FC3C5B7EF00A0049B043C
:1031A0000500EF00A0048547638CF40093950402AA
:1031B0008191171500001305E5D8EFE09FD65DB7A4
:1031C000EFF04FD645B7EFD0FFC355B7411106E436
:1031D00085453545EF00C0133545EF008010A260EE
:1031E00041018280B747001088478280B7470010AE
:1031F000054798C78280B7470010C8C38280B727A9
:103200000010A38007000D47A381E7001D4723811D
:10321000E7008280B727001083C7570093F70702A3
:10322000F5DB1375F50FB72700102380A700828008
:10323000B727001003C7170013671700A380E70024
:103240008280B727001083C75700858B91C7B727A7
:10325000001003C5070082807D558280731005151C
:1032600073901515828073100515732510158280D3
:10327000411106E422E005443314A4001305000CB8
:10328000EFF07FFEB36585001305000CEFF01FFD26
:10329000A260026441018280931725003707000D68
:1032A0003E97994614C33737000DBA9737071C006D
:1032B000498F98C3B727000D23AEA7EC8280411138
:1032C00006E4814513052007EFF05FF985451305F6
:1032D0000007EFF0BFF83145EFF01FFCA26041019D
:1032E0008280635FA000411106E422E02A84EFF0AF
:1032F000BFFA2285EFF0DFF7A2600264410182800D
:1033000082807315C01541811375F57F828082809C
:103310006343A0008280411106E4EFF0FFF7A26052
:10332000410182800145828082808280AA8729A013
:103330002380B70085073A861307F6FF75FA828067
:10334000AA8701A883C605002380D70085058507C5
:103350003A861307F6FF7DF68280814873000000ED
:10336000828001458D48730000008280914873007F
:1033700000008280411106E417150000130585C086
:10338000EFE03FBA81471547814605661306068080
:1033900097150000938505C01705000013056511FA
:1033A000EFE0AF838147154781461306002097154C
:1033B0000000938525BF170500001305658BEFE01E
:1033C000CF818147114781461306002097150000E1
:1033D0009385C5BE170500001305A583EFD0FFFF39
:1033E00081471147814613060020971500009385F9
:1033F000E5BD1705000013058501EFD01FFE01454F
:10340000EFE06F8BA26041018280397106FC22F8E7
:1034100026F40965130585B5EFE06FB4854439A836
:10342000939504028191171500001305A5BBEFE0E9
:103430005FAF056513058538EFE06FB29307006055
:103440003EC026C285473EC4930700083EC602E838
:1034500002EC13050011EFF0CFC52A8471D1930857
:1034600000020A8881472687930600601306001130
:10347000C16593850540EFE0BFFB2285EFF00FDAD1
:1034800009ED32469395040281911715000013054A
:10349000E5B7EFE01FA9852469BF939504028191E8
:1034A00017150000130505B9EFE0BFA759B70111C3
:1034B00006EC7D569305F10003B50196EFD04F9AC7
:1034C0008547E318F5FE0306F1009375F60F17150F
:1034D00000001305A5B8EFE0DFA4E1BF411106E449
:1034E000EFE05FA317150000130545B8EFE07FA3D9
:1034F000EFF0FFDC3145EFF0DFDEEFF03FCDEFF036
:10350000CF909705000093858580416513050510D0
:10351000EFF0EF9735ED970500009385A58641659F
:1035200013050520EFF0AF963DE997050000938560
:10353000E59E416513050530EFF06F9525E9970588
:103540000000938525B9416513050540EFF02F94E0
:103550002DE50146854513050004EFC09FE923B022
:10356000A196EFF0FFCC814711478146130600106A
:1035700097150000938505BB170500001305C5DFEF
:10358000EFD0BFE5EFD07FEE0145A2604101828020
:1035900017150000130505AFEFE0BF98ADBF171575
:1035A00000001305A5B0EFE0DF9741B71715000045
:1035B000130545B2EFE0FF9659B717150000130544
:1035C000E5B3EFE01F9671B70000000000000000B7
:1035D00000000000000000000000000000000000EB
:1035E00000000000000000000000000000000000DB
:1035F00000000000000000000000000000000000CB
:10360000417106E416E81AEC1EF022F426F82AFCB2
:10361000AEE0B2E4B6E8BAECBEF0C2F4C6F8CAFC5A
:103620004EE152E556E95AED5EF162F566F96AFD42
:10363000EEE1F2E5F6E9FAEDFEF1F322001096F57F
:10364000F3230010996233F353006312530482B9D9
:1036500086BD0AA20EA612AA16AE1AB21EB622BACB
:1036600026BEAAA2AEA6B2AAB6AEBAB2BEB6C2BABA
:10367000C6BE4AA34EA752AB56AF5AB35EB762BBA3
:1036800066BFEAA3EEA7F2ABF6AFFAB3FEB791625C
:1036900073A00210896273B00210F322101416E0B6
:1036A0009712000083B202B923B0220073252014C0
:1036B000F32510141356F50331CA2EE08542FE128D
:1036C00013831200631B650017110000033101A76B
:1036D000EFE0CFD1EFD00FF391A81103631E650087
:1036E00017110000033181A5EFE0AFCEEFD02FD846
:1036F00015CDEFD02FF11DA81103631B6500171125
:1037000000000331A1A3EFF03FA30DA091052EE02F
:1037100073252014F3251014732630140A8717110B
:1037200000000331A1A1EF00A00D09A017130000B4
:10373000033343B003310300826273901214F32306
:103740000010AE7273900210996233F3530063124B
:1037500053044E30EE301221B2215222F2221233A3
:10376000B2335234F2341625B6255626F6261637CD
:10377000B6375638F6381A29BA295A2AFA2A1A3B7D
:10378000BA3B5A3CFA3C1E2DBE2D5E2EFE2E1E3F2D
:10379000BE3FA260C262626382732274C2746275A9
:1037A00086652666C666666786772678C6786679F1
:1037B0008A692A6ACA6A6A6B8A7B2A7CCA7C6A7DA1
:1037C0008E6D2E6ECE6E6E6F8E7F7D6173002010BB
:1037D000130000001300000013000000130000009D
:1037E000130000001300000013000000130000008D
:1037F000130000001300000013000000130000007D
:103800006F00000013000000130000001300000010
:10381000130000001300000013000000130000005C
:10382000130000001300000013000000130000004C
:10383000130000001300000013000000130000003C
:10384000130000001300000013000000130000002C
:10385000130000001300000013000000130000001C
:10386000130000001300000013000000130000000C
:1038700013000000130000001300000013000000FC
:1038800013000000130000001300000013000000EC
:1038900013000000130000001300000013000000DC
:1038A00013000000130000001300000013000000CC
:1038B00013000000130000001300000013000000BC
:1038C00013000000130000001300000013000000AC
:1038D000130000001300000013000000130000009C
:1038E000130000001300000013000000130000008C
:1038F000130000001300000013000000130000007C
:103900006FF09F83828013000000130000001300FB
:10391000000013000000130000001300000013005B
:10392000000013000000130000001300000013004B
:10393000000013000000130000001300000013003B
:10394000000013000000130000001300000013002B
:10395000000013000000130000001300000013001B
:10396000000013000000130000001300000013000B
:1039700000001300000013000000130000001300FB
:1039800000001300000013000000130000001300EB
:1039900000001300000013000000130000001300DB
:1039A00000001300000013000000130000001300CB
:1039B00000001300000013000000130000001300BB
:1039C00000001300000013000000130000001300AB
:1039D000000013000000130000001300000013009B
:1039E000000013000000130000001300000013008B
:1039F000000013000000130000001300000001008D
:103A00009702000083B202777390521017110000E2
:103A100003314182026182604E30EE301221B221C8
:103A20005222F2221233B2335234F2341625B62522
:103A30005626F6261637B6375638F6381A29BA29D2
:103A40005A2AFA2A1A3BBA3B5A3CFA3C1E2DBE2D82
:103A50005E2EFE2E1E3FBE3F626382732274C274CE
:103A6000627586652666C666666786772678C67836
:103A700066798A692A6ACA6A6A6B8A7B2A7CCA7CE6
:103A80006A7D8E6D2E6ECE6E6E6F8E7FAE7293E2FD
:103A9000220073900210C2627D61828013000000D8
:103AA00013000000130000001300000013000000CA
:103AB00013000000130000001300000013000000BA
:103AC00013000000130000001300000013000000AA
:103AD000130000001300000013000000130000009A
:103AE000130000001300000013000000130000008A
:103AF000130000001300000013000000130000007A
:103B0000F3220010170300000333C3648323030070
:103B1000B3E2720083234300B3F2720093F2D2FF48
:103B200013030012B3E26200130505F061152330A0
:103B30005500130505F510E1130505FD970200007A
:103B400083B242662330550061150CE18280FF9FED
:103B5000FFFF002000000000000000000000000047
:103B60000000000000000000000000000000000055
:103B70000000000000000000000000000000000045
:103B80000000000000000000000000000000000035
:043B90000000000031
:103B980049444C450000000082DEFFFFDCDEFFFFE9
:103BA800DCDEFFFF20DFFFFF2CDFFFFF4ADFFFFF28
:103BB800DCDEFFFFDCDEFFFF20DFFFFF2CDFFFFF87
:103BC800546D725100000000546D722053766300EA
:103BD800307800000AE4FFFFE6E3FFFF2AE4FFFF76
:103BE8002AE4FFFF2AE4FFFF2AE4FFFF2AE4FFFF9D
:103BF8002AE4FFFF2AE4FFFF2AE4FFFF2AE4FFFF8D
:103C08002AE4FFFF2AE4FFFFD4E3FFFF2AE4FFFFD3
:103C18002AE4FFFFF8E3FFFF2AE4FFFF2AE4FFFF9F
:103C28002AE4FFFF2AE4FFFFD4E3FFFF00000000BF
:103C3800303132333435363738396162636465661A
:103C4800000000000000000072706D736720696E4C
:103C58006974206661696C65643A2071756575657B
:103C68003D2570206D757465783D25700A0000004B
:103C780072706D736720696E69743A207175657525
:103C8800652064657074683D25642068616E646CA5
:103C98006572733D2564206275663D2564207061F8
:103CA800796C6F61643D25640A0000000000000023
:103CB80072706D73672072656769737465722066C8
:103CC80061696C65643A207461626C652066756C24
:103CD8006C2065703D25780A000000000000000097
:103CE80072706D7367206973723A20626164206232
:103CF8007566666572206C656E3D25640A00000075
:103D080072706D7367206973723A206469737061A9
:103D18007463682071756575652066756C6C2C20F8
:103D280064726F7020636F6F6B69653D25780A0058
:103D380072706D7367206C6F616E206661696C6567
:103D4800643A20746F5F7876362066726565206CF9
:103D580069737420656D70747920617661696C3D52
:103D6800256420757365643D25640A000000000021
:103D780072706D73672073656E64206661696C6527
:103D8800643A206D73673D2570206F75747369649C
:103D98006520746F5F78763620706F6F6C0A00004C
:103DA80072706D7367206E733A206C6F616E206657
:103DB80061696C656420666F722025730A000000D3
:103DC80072706D73672D6563686F000000000000F6
:103DD8007175617264616D702D727063000000000E
:103DE8007175617264616D702D62656E6368000043
:103DF8007175617264616D702D616363656C2D63AB
:103E08006C69656E7400000072706D736720646978
:103E18007370617463683A206E6F2068616E646CB9
:103E2800657220666F72206473743D257820636F15
:103E38006F6B69653D25780A0000000000000000EE
:103E480072706D7367206563686F3A206C6F616E7E
:103E5800206661696C65640A0000000000000000CB
:103E680072746F732D3E7876362072706D7367208A
:103E780061636B000000000072706D7367207570DD
:103E88007065723A206C6F616E206661696C65645A
:103E98000A0000000000000072706D736720626500
:103EA8006E63683A206C6F616E206661696C656448
:103EB8000A00000000000000616363656C20636C09
:103EC80069656E743A2062616420726573706F6E02
:103ED8007365206C656E3D256420636D643D2578AF
:103EE80020636F6F6B69653D25780A00000000004C
:103EF800616363656C20636C69656E743A206A6FF0
:103F0800623D257820636D643D2578207374617463
:103F1800653D2564207374617475733D2564206C58
:103F2800656E3D2564207469636B733D257820694F
:103F380072713D25640A00006D61696C626F7820BA
:103F48006972712072656365697665642C20726593
:103F580061736F6E3D25780A0000000000000000C4
:103F6800706C69633A20756E6B6E6F776E2069723C
:103F7800712025640A000000765461736B437265F2
:103F88006174650A000000007655617274527854B5
:103F980061736B00000000007649636344697370C5
:103FA800617463685461736B0000000000000000D6
:103FB800764963634E735461736B00000000000020
:103FC80076416363656C436C69656E745461736BA9
:103FD8000000000000000000616363656C20636CF2
:103FE80069656E743A206C6F616E206661696C65F4
:103FF80064206A6F623D25780A0000000000000016
:10400800616363656C20636C69656E743A207375CF
:10401800626D6974206A6F623D2578206C656E3D1B
:1040280025640A0000000000616363656C20636C0E
:1040380069656E743A2073656E64206661696C65A3
:1040480064206A6F623D25780A00000000000000C5
:1040580072783A20257820272563270A0000000077
:1040680048656C6C6F204672656552544F53210A3F
:1040780000000000000000006963633A2072656771
:104088006973746572206563686F2068616E646C1B
:104098006572206661696C65640A000000000000B2
:1040A8006963633A20726567697374657220757015
:1040B8007065722068616E646C6572206661696CF7
:1040C80065640A00000000006963633A207265674E
:1040D80069737465722062656E63682068616E64D6
:1040E8006C6572206661696C65640A0000000000F6
:1040F8006963633A207265676973746572206163E6
:1041080063656C2068616E646C6572206661696CB9
:1041180065640A00000000007461736B20637265B7
:1041280061740000000000000600000000000000AC
:10413800608500B000000000FFCF00B20000000062
:1041480000000000000000004E3B00B0000000002E
:10415800484900B000000000F0BE01B000000000B7
:104168002A3300B000000000003600B00000000054
:10417800000040B000000000B84100B0000000009E
:10418800484100B000000000B84100B00000000045
:10419800484100B000000000221C00B000000000F0
:1041A800FFFFFFFFFFFFFFFF00000000000000000F
:04000005B000000047
:00000001FF
