:02000004B0004A
:100000009741000083B101899D45631EB508735077
:10001000401073504014996273B00210896273A04B
:100020000210B702040073A0021017410000033150
:10003000618873100114174500000335A5899745A1
:10004000000083B52588174600000336268863FA2A
:10005000C5008332050023B055002105A105E3EA60
:10006000C5FE17450000033565859745000083B53B
:10007000E5826377B500233005002105E36DB5FE09
:100080001745000003350582EF20504BEF20504B01
:10009000014581450146EF20F05773005010F5BF30
:0C00A00073005010F5BF73005010F5BF46
:10010000930705011CE57D5718E91CED1CF1233010
:10011000050082802330050282801C659CE5986B77
:1001200098E90CE78CEB88F11C6185071CE1828063
:100130009061FD576303F60293070501BE869C6735
:100140009863E37DE6FE9C669CE58CEB94E98CE687
:1001500088F11C6185071CE182801471EDB71C7168
:100160001465186998EA146514E798676308A7008E
:100170002330050288637D1588E38280186998E73B
:10018000C5BFAA87286509C5BC739C631D451D8D25
:100190008280411106E422E02A84EF00107F387843
:1001A0003C7C630AF7000144EF00D07F2285A26007
:1001B0000264410182800544C5BF411106E422E08A
:1001C0002A84EF00907C3C7889EB0544EF00907D19
:1001D0002285A2600264410182800144C5BF0111F1
:1001E00006EC22E826E44AE02A84B28403390507B3
:1001F00050611DE21C6199CB0145930719003CF841
:10020000E2604264A2640269056182800869EF00CD
:10021000106123380400D5B799EC0865EF20D0337E
:100220001C645860BA971CE4186863EFE7021C600E
:100230001CE42685D9B7086DEF2010321C6C58607D
:10024000B306E040998F1CEC186063F5E7001C686A
:10025000B6971CEC89476384F400014579BF6307B6
:1002600009007D19014551BF268541BF014571B780
:10027000AA87506115C2411106E42E85986F329706
:1002800098EF946B6364D700986398EF8C6FEF20BE
:10029000B02CA260410182808280011106EC22E82C
:1002A00026E4AA84EF00706E03C494081B14840132
:1002B0001B54844131A07D341B1484011B548441A0
:1002C000635C8000BC6489CB13858404EF00B03884
:1002D0007DD1EF003046C5B7FD57A384F408EF0089
:1002E000706CEF00906A03C484081B1484011B54D3
:1002F000844131A07D341B1484011B548441635C10
:1003000080009C7089CB13850402EF00D0347DD12E
:10031000EF005042C5B7FD572384F408EF00906802
:10032000E2604264A2640561828049C5797106F485
:1003300022F026EC2A84AE843C7DBDCF5461014777
:10034000B3B7D70281E709C7014585A80547E5BFCF
:10035000EF00B0631C60347C58603386E6023E9642
:1003600010E8233804061CE4FD163307D702BA97B9
:100370001CECFD572304F408A304F4089DE01C7052
:1003800089E7EF00306205450DA813050402EF0070
:10039000902C65D9930700083EE42800EF20901EBA
:1003A000CDB713050402EFF0BFD513058404EFF0B9
:1003B0003FD5C1BF014582800145A2700274E2644D
:1003C00045618280011106EC22E826E4B6843A8475
:1003D00099ED18E028FC4CE085452285EFF0FFF40C
:1003E000230C9408E2604264A2640561828010E3F9
:1003F000D5B7797106F44EE431C522F026EC4AE80F
:100400002A84AE84328981473337B50215EBA9E3DC
:10041000330594029307F0F563E1A7041305050A79
:10042000EF10006AAA891DCD2A87CA861306050A1D
:10043000A6852285EFF01FF90274E264426921A0CB
:100440008547F1B781494E85A270A26945618280D6
:1004500081490274E2644269FDB781490274E26431
:100460004269D5B70274E2644269F1BF1D7186EC3E
:10047000A2E8A6E4CAE04EFC2A84AE8932E4B6843F
:10048000014995A82686CE852285EFF05FD53C648C
:1004900081EF1DE5EF0010510545E6604664A66456
:1004A0000669E2792561828013058404EF00B01AA1
:1004B00075D1930700083EEC2808EF20B00CD9BF97
:1004C000930700083EEC2808EF20D00BE1B7EF00BF
:1004D000704D0145D9B70810EF00F02405490DA86B
:1004E00023040408A9A0A304040899A82285EFF016
:1004F000DFDAEF005079EF00504938783C7CE36355
:10050000F7F88947E380F4F8A267F1D3E30509FC23
:10051000EF005049EF00E06DEF003047834784085B
:100520009B9787019BD787417D57E38BE7FA8347EA
:1005300094089B9787019BD787417D57E385E7FA0E
:10054000EF0050462C000810EF1060061DE52285D4
:10055000EFF03FC441DDA26513050402EF00F0088F
:100560002285EFF09FD3EF00107251F5930700083A
:100570003EEC2808EF201001BDBF2285EFF0FFD12F
:10058000EF007070014511BF0DC1411106E4233821
:10059000050023300500233C0500814601468145C6
:1005A000EFF0DFECA260410182808280411106E41D
:1005B00022E02A8681450545EFF0BFE32A84EFF06B
:1005C000BFFC2285A260026441018280011106EC19
:1005D00022E84AE02A843289368638793C7D636B8A
:1005E000F70089476388F6000145E26042640269CA
:1005F0000561828026E4834494089B9484019BD403
:1006000084413C782285EFF09FBDFD576393F4024F
:100610003C6481E70545A264C9BF13058404EF006B
:10062000900315C56308090205452330A900A2649B
:100630006DBFEF00205D63F2A40285249B948401CA
:100640009BD48441A30494080545A26479BF054561
:10065000A26461BF0545A26449BF0545A26471B7A4
:100660001D7186ECA2E8A6E4CAE04EFC2A84AE899D
:1006700032E40149ADA8CE852285EFF07FBFFD149D
:1006800024F81C7099EBEF00F0310545E6604664F4
:10069000A6640669E2792561828013050402EF00F1
:1006A000807B75D1930700083EEC2808EF20806D11
:1006B000D9BFEF00302F0145D1BF0810EF00B006C1
:1006C000054935A82304040891A8A304040885A0BB
:1006D0002285EFF09FBCEF00105B11A82285EFF0A0
:1006E000DFBBEF00505A2285EFF03FAD35EDEF0054
:1006F000D0292478C9F0A267CDDFE30009FCEF0020
:10070000702AEF00004FEF005028834784089B9722
:1007100087019BD787417D57E386E7FA8347940893
:100720009B9787019BD787417D57E380E7FAEF00CE
:1007300070272C000810EF0090674DF12285EFF034
:10074000DFA759D5A26513058404EF00006A22854E
:10075000EFF0BFB4EF00305359F9930700083EECB7
:100760002808EF20206261B701450DB75D7186E46E
:10077000A2E026FC4AF82A842EE40149814479A0AB
:10078000FD173CF81C6081CF1C7091EFEF009021A9
:100790000545A6600664E274427961618280EF00DB
:1007A000D06808E8D5B713050402EF00C06A79DD08
:1007B000930700083EEC2808EF20C05CC1BFEF00A3
:1007C000701E0145F9B70810EF00E0758544B1A02F
:1007D0002304040895A0A304040885A8EF00F01AD8
:1007E0000868EF00A0752A89EF00D01BA5A8228514
:1007F000EFF0BFAAEF00304911A82285EFF0FFA962
:10080000EF0070482285EFF05F9B3DEDEF00F017A1
:100810003C78BDF7A267C5D7DDD4EF00B018EF0074
:10082000403DEF009016834784089B9787019BD734
:1008300087417D57E38EE7F8834794089B978701AC
:100840009BD787417D57E388E7F8EF00B0152C0070
:100850000810EF00D05555F12285EFF01F9641D9D1
:100860001C60ADDFA26513058404EF0000582285EB
:10087000EFF0BFA2EF00304151F9930700083EECC2
:100880002808EF20205059B763140900014511B71B
:10089000EF00B00F2285EFF0DF8EAA850868EF0029
:1008A0005002EF003010DDB781C50146814739A005
:1008B00082801386019636961DA885071D476367BB
:1008C000F702939647001387019636971867E3025D
:1008D000A7FE65F69396470013870196369718632F
:1008E00069FF138701963386E600C1BF19C20CE287
:1008F00008E68280011106EC22E826E44AE02A8418
:10090000AE843289EF007008834784089B97870183
:100910009BD787417D576388E702834794089B975D
:1009200087019BD787417D576382E702EF009007DD
:100930003C7885C32285EFF05F96E2604264A26452
:1009400002690561828023040408C1BFA30404086E
:10095000F1BF4A86A68513058404EF00404BD9BF3A
:1009600083B7818D9C6389E7FD5723B0F18882802E
:1009700083B7818D9C6F9C6323B0F1888280411185
:1009800006E422E02A842871EF1040212285EF102E
:10099000E020A260026441018280397106FC22F8E5
:1009A00026F44AF04EEC52E856E45AE0AA8AAE84A5
:1009B000368B3A893E8A4284931936004E869305D7
:1009C000500A03350806EF20E0373C70E119BE9964
:1009D00093F909FF9DC081483D48636E1801338833
:1009E00014010308080033031401230403076304FC
:1009F00008008508D5B7A30B0406994763F32701C0
:100A00003E89233C24052338240913058400EFF094
:100A10006FF013050403EFF0EFEF00F09D47B3878D
:100A200027411CF820E45A86D6854E85EF20501DBC
:100A300008E063040A0023308A00E2704274A27462
:100A40000279E269426AA26A026B216182805D7169
:100A500086E4A2E026FC4AF84EF452F056EC5AE83E
:100A60005EE4AA892E8A3289B68A3A8BBE8B131528
:100A70003600EF10E004AA8439C51305800AEF1090
:100A800020042A840DCD1306800A8145EF20802B97
:100A900024F081482288DE875A87D6864A86D28506
:100AA0004E85EFF09FEF2285A6600664E2744279DE
:100AB000A279027AE26A426BA26B6161828026852A
:100AC000EF10C00DCDB72A84F9BF411106E422E032
:100AD000014421A893172400A29713973700138588
:100AE00081AA3A95EFF0CFE105049947E3F487FE38
:100AF000138501A8EFF0CFE0138581A5EFF04FE05B
:100B0000138501A3EFF0CFDF138581A0EFF04FDF56
:100B10001385019EEFF0CFDE938701A823BCF18CF3
:100B2000938781A523B8F18CA26002644101828081
:100B3000797106F422F026EC4AE84EE452E02A8469
:100B4000AE8403B9818B83B9818D03BA018D9387FC
:100B5000018E9863A302070A88632105EFF02FE056
:100B600011ED83B7018EB86F8547B397E70093C740
:100B7000F7FF9386018B9862F98F9CE2FD5763061D
:100B8000F4024A9483B7018E80E76377240583B526
:100B9000018EA1055285EFF0AFD9A2700274E26414
:100BA0004269A269026A45618280E1DC1387019E85
:100BB00014679387018E906314EA90638C6A0CEE3D
:100BC0009063210690E59063210690EA9C6398F774
:100BD0001C6385071CE3D1B783B5018EA1054E8543
:100BE000EFF00FD583B70188E379F4FA23B0818859
:100BF0006DB7138701871C6385071CE3828003B5EB
:100C0000818B828003B5018C828083B701876392D8
:100C10000714411106E422E09387818B8063050469
:100C200080E315CC83B70188637BF404014583B767
:100C3000018EB86F93172700BA97139737009387E1
:100C400081AABA979863854763F3E7003E8583B727
:100C5000818963970710A260026441018280138733
:100C6000818D14639387018D906310E394E3138760
:100C700001891C6385071CE3EFF09FCE65B7014532
:100C8000BDA8FD5723B0F1885DB723B0E18845B713
:100C9000946F14E759A823B807041463FD1614E3EE
:100CA000B46F05473317D7001386018B033806004E
:100CB0003367070118E2138781AA13962600369638
:100CC00093163600BA96946694EB906A90EF0CE611
:100CD0008CEAAC6F939625003388B6001316380063
:100CE0003A9690F710620506931538002E9710E398
:100CF000B86F83B7018EBC6F63F3E700054583B718
:100D0000818D9C63BDDF83B7818D9C6F9C6F9867DD
:100D1000E36DE4F69877906B946F14EA906B90E62D
:100D2000146793858700E385B6F623B4070214633E
:100D3000FD1614E3B86B2DD7907FB46314EA907F4F
:100D400090E6106793860703E317D6F4B46314E7BD
:100D500099B71387018A1C6385071CE301458280CC
:100D60000545D5BD83B7018789C7854723BCF18871
:100D7000828023BC018883B7018B8127B1CF0147D3
:100D800021A005279B971700E3DD07FE02170193BB
:100D9000FD47998F938581AA939627003386F600A5
:100DA000131736002E971067106610E7BE9613973C
:100DB000360041072E976304E60213972700BA977F
:100DC00013973700938781AABA979C67986F938788
:100DD000018E98E39C6382801307000245BF8E0654
:100DE0003387D500146F14E7C9BF411106E422E030
:100DF0002E8483B5018E93850503EFF06FB385458F
:100E00002285EFF0FFD2A26002644101828041118D
:100E100006E4AA872E85B28594671387018E106336
:100E200014FE106303B80601233006051063130691
:100E300006032334C80010631306060390EA186300
:100E40003CEB9863050798E391C17D55EFF05FCEC9
:100E5000A260410182801C6D9C6FB86B907FB4636F
:100E600014EA907F90E61467138607036388C60828
:100E700023B807041463FD1614E303B7018749E799
:100E80009877906B946F14EA906B90E61067938656
:100E900087006308D60623B4070210637D1610E3AB
:100EA000AC6F05473317B7001386018B0862498F73
:100EB00018E2138681AA139725002E970E07329702
:100EC000186798EB0C6B8CEF94E514EBAC6F1397F1
:100ED0002500B306B7008E06B29694F79462850695
:100EE0002E970E073A9614E2B86F83B7018EBC6F47
:100EF00063F9E702054523BCA1888280B46314E747
:100F000085BF906F10E741BF138701A3146794FF5B
:100F10008C6AACE390E590EAB8EB1463850614E3C1
:100F2000E1B70145828083B701891CE183B7818BDA
:100F30001CE58280854723BCF1888280630D050C07
:100F4000011106EC22E82A84386D83B7018EBC6F4C
:100F5000637BF70A1C799396070263C8060083B780
:100F6000018EB46F9D47958F1CF914749317270059
:100F7000BA978E07138781AABA97638BF60083B757
:100F8000018EBC6F3CEC0545E260426405618280E5
:100F900026E4930484002685EFF06F9C01ED386C05
:100FA0008547B397E70093C7F7FF1387018B146357
:100FB000F58F1CE383B7018EB86F38EC0545B31786
:100FC000E5009386018B9062D18F9CE2938681AA83
:100FD00093172700BA978E07B6979C671CE8986B03
:100FE00018EC04E784EB306C931726003387C700B6
:100FF0000E07369718F418632A97B2978E07BE9695
:1010000098E2A26451B7586983B7018EBC6F6366DA
:10101000F700014595BF014582800545B5B751CD23
:10102000011106EC22E82A845C6DFD175CED346D3D
:1010300058696386E60891C70145E260426405612C
:10104000828026E4930485002685EFF04F9101ED20
:10105000386C8547B397E70093C7F7FF1387018B79
:101060001463F58F1CE3586838EC9D47998F1CF882
:101070000545B317E5009386018B9062D18F9CE202
:10108000938681AA93172700BA978E07B6979C6715
:101090001CE8986B18EC04E784EB306C931726007F
:1010A0003387C7000E07369718F418632A97B2974C
:1010B0008E07BE9698E2A26449B701458280014539
:1010C000ADBF79C1011106EC22E826E42A845C69EF
:1010D00063F3B700AE87246C6386F400546C054755
:1010E0006387E600E2604264A264056182803CECB2
:1010F00018789316070263C606001D47B307F7402A
:101100001CF8187493972400A6978E07938681AADB
:10111000B697E319F7FC4AE0130984004A85EFF01B
:101120000F8419E98547B397970093C7F7FF138793
:10113000018B1463F58F1CE3386C8547B397E70088
:101140009386018B9062D18F9CE2938681AA93173C
:101150002700BA978E07B6979C671CE8986B18EC27
:101160002334270123B82701306C931726003387D7
:10117000C7000E07369718F418630507B2978E0755
:10118000BE9698E20269B9BF82807370011083B77E
:10119000818A81CB1387018E1463BC7E8507BCFED8
:1011A0001C63828083B7818A85C383B7018EBC7F2D
:1011B00081CF1387018E1463BC7EFD17BCFE1C63B8
:1011C000BC7F99E3736001108280011106EC22E874
:1011D0002A84EFF09FFB1387018C1C6385071CE3B7
:1011E00083B7018E89CF83B7818A8DE383B7018E60
:1011F000B86F3C6C63ECE70023B0818E01A823B08C
:10120000818E03B7018C8547630DF70613878188AC
:101210001C6385071CE35CE0386C8547B397E700E7
:101220009386018B9062D18F9CE2938681AA93175B
:101230002700BA978E07B6979C671CE8906B10EC56
:101240001307840018E698EB306C93172600338759
:10125000C7000E07369718F418630507B2978E0774
:10126000BE9698E2EFF01FF483B7818A99C783B7DF
:10127000018EB86F3C6C6369F700E26042640561FF
:101280008280EFF09F8459B7930700083EE428005E
:10129000EF10502FDDB7411106E4EFF04FFB19C5F9
:1012A000EFF0BFF20545A260410182807D55E5BFA8
:1012B000011106EC22E802E002E48147394763614C
:1012C000F702172700001307671D3E970307070063
:1012D000938607018A962388E6FE19C38507F9BF1E
:1012E000C1078A97238807FE01440545635680009D
:1012F000E26042640561828093173400138781871E
:10130000BA9701478146130600208A851705000019
:1013100013050517EFF03FF88547E31BF5FC3E94F6
:10132000F1B7411106E4EFF0BFF885476309F50016
:101330009727000083B70754A26041018280EF0025
:1013400060638547E316F5FE73700110FD5723B007
:10135000F188854723B4F18A23BC018AEF006068D5
:10136000C1BF797106F422F026EC2A84EFF0FFE188
:1013700059C4930484002685EFE07FDE0DE5346CCC
:1013800093972600B6978E07138781AABA979C6316
:1013900099EB8547B397D70093C7F7FF1387018B66
:1013A0001463F58F1CE33C6889C713050403EFE061
:1013B0001FDB138781881C6385071CE383B7018EBD
:1013C00063828704014783B7818A91C315EF13872E
:1013D000018C1C63FD171CE3EFF08FD8EFF09FDC4E
:1013E0002285EFF0CFD983B7818A89C783B7018E71
:1013F00063898702A2700274E2644561828003B44B
:10140000018E85BF0547C1B7A685138581A0EFE092
:10141000DFD01387818C1C6385071CE3EFF09FD816
:10142000D9B7930700083EE42800EF10B015D9B7EC
:1014300083B7818CB9C3411106E422E0EFF0FFD4F9
:1014400083B701A2806F13058400EFE05FD113879B
:10145000018C1C63FD171CE31387818C1C63FD1733
:101460001CE3EFF03FD42285EFF06FD183B7818C7E
:10147000F1F7A2600264410182808280411106E49A
:10148000EFF01FFBF5BF011106EC22E8EFF0FFCFF4
:101490009387018798637D1798E39C636391071096
:1014A00083B7018C89EB0144E5A8B46314E735A048
:1014B000906F10E799A0814703B701A355C383B785
:1014C00081A49C6FB86B907FB46314EA907F90E620
:1014D000106793860703E30AD6FC23B80704146356
:1014E000FD1614E39877906B946F14EA906B90E676
:1014F000106793868700E30DD6FA23B407021063C2
:101500007D1610E3AC6F05473317B7001386018BC8
:101510000862498F18E2138681AA139725002E9737
:101520000E073297186798EB0C6B8CEF94E514EB71
:10153000AC6F13972500B306B7008E06B29694F7EA
:10154000946285062E970E073A9614E2B46F03B79D
:10155000018E386FE372D7F6054723BCE188A9BF37
:1015600099C3EFF0EFBF03B4018A05E003B48189AA
:1015700005C883B7018E930700083EE42800EF10EA
:101580007000054431A87D1401C8EFF00FE865DD57
:10159000854723BCF188C5BF23B0018AC1BF014480
:1015A000EFF05FC02285E260426405618280011134
:1015B00006EC22E826E42A84AE84EFF01FBD03B7D0
:1015C000818B1C643306F74083B6018E83C6560AAE
:1015D00091CE83B7018EA382070A0544EFF09FBC2A
:1015E0002285E2604264A264056182809460FD55B8
:1015F000638BB602086083B501896308B500636632
:10160000F70023B004000544D1BF6366D60023B0C1
:1016100004000544E1B7998FB6979CE02285EFF06E
:101620009F90014465BF014455BF03B5018E01C5BC
:101630005C6D85075CED828003B781901C6399E740
:1016400085471CE191E71C6F886382808147D5BF85
:1016500001458280411106E40CE508F16362B6029F
:10166000158E1C796366F6000545A26041018280F3
:101670009305850003B50190EFE09FAB0145F5B7F9
:101680006374D60063FAD5009305850003B5819095
:10169000EFE01FAA0145D1BF0545C1BF011106EC0E
:1016A00022E826E44AE02A84AE84328931A01C78FC
:1016B000BE943C60228582970C78A6864A86A695C1
:1016C0002285EFF03FF965F5E2604264A2640269A9
:1016D00005618280011106EC22E826E44AE0AA8432
:1016E0002E8983B781909C6F806F13058400EFE093
:1016F0001FA78347040513F7470009EFF99B230849
:10170000F4043C6022858297E2604264A26402692C
:10171000056182804A86A6852285EFF03FF8D5B71D
:1017200083B7819098630DC7411106E49C6FFD5506
:101730008863EFF03FFA83B78190986365FB138766
:101740000190146323B4D1901CE3A2604101828014
:1017500013870190146323B4D1901CE3828001119C
:1017600006EC22E826E4AA84EFF06FC92A8483B746
:10177000818E636CF50023B0040023B4818E228532
:10178000E2604264A26405618280EFF07FF98547E0
:101790009CE0E5B7797106F422F04AE82A892E84A4
:1017A000EFF02FC52800EFF09FFBA267B1EF26EC0A
:1017B000AA841DE8637225032286B305994003B508
:1017C000818FEFF02F93EFF01FCC1DC5E264A27064
:1017D0000274426945618280EFF0FFCAA6854A859E
:1017E000EFF05FEFE264E5B703B70190186319E328
:1017F0000544D9B73E84C9B7930700083EE00A857F
:10180000EF104058E264E1B7EFF0FFC7C9B75D7170
:1018100086E4A2E026FC02E802EC02F002F40146B3
:101820000C0803B5818FEFE0BFE369C9C26763CEDF
:101830000702C267E3C507FE027475D01C7489C72E
:1018400013058400EFE0BF912800EFF05FF1AA8458
:10185000C2672547E365F7FC8A07172700001307CF
:10186000A7F7BA979C43BA978287A2550275E26799
:101870008297C1B78347040593E717002308F40450
:10188000E2660C782A86B6952285EFF0BFDC41D956
:101890008347040513F7470001EBF99B2308F40481
:1018A0003C6022858297A5BF1C782686E265BE959E
:1018B0002285EFF0BFDEEDB783470405F99B2308CF
:1018C000F404B1BF8347040593E717002308F40429
:1018D000E2650CF8AA862A86AA952285EFF09FD7A2
:1018E0003DBF8347040513F7270009C7F99B230869
:1018F000F40435B72285EF00602A15B7A6600664A8
:10190000E27461618280011106EC2800EFF0DFD201
:10191000A265EFF03FE8EFF09FEFC5BF411106E48D
:10192000EFF0BF8683B7818F91C7EFF0BF87A260CA
:1019300041018280138581BEEFE08FFC138501BCDD
:10194000EFE00FFC938781BE23B4F190938701BC35
:1019500023B0F1900146930500021945EFE07FA9FD
:1019600023BCA18E79D1972500009385A5B3EFE024
:10197000BFF365BF411106E4EFF05FFA83B7818FD3
:1019800085C79387018F194781461306E00697257F
:1019900000009385A5B117050000130505F7EFF0CA
:1019A0009F8FA260410182800145E5BF732710C06F
:1019B0009387019198E388638280411106E4EFF0F8
:1019C000FFFE8967938707713E95EF10803AA2600A
:1019D00041018280411106E4EF10203AA2604101EA
:1019E0008280411106E4EFF05FFD9307000273A0CF
:1019F0004710736041109307002073A04710EF1049
:101A000030100145A260410182807370011001A075
:101A100017670000130707299377F700A9C7976690
:101A2000000093861629C19AD16793870788958FFE
:101A3000BA973687976600009386C62598E223B446
:101A40000600BA97C117C19B23BCF19223B40700CB
:101A500023B00700B386E74014E71CE323B4D19218
:101A600023B8D1928280D16793870788E1B79767BF
:101A70000000938727223E879C63E3EEA7FE14674E
:101A80003306D700630CA60014653306D500638CBB
:101A9000C7001CE16303E50008E382801065B2968D
:101AA00014E73A85D5B703B681936389C7009C676D
:101AB000BE9614E51C639C631CE1E9BF10E1D9BF2D
:101AC000011106EC22E826E42A840DC1BD5763EE1D
:101AD000A700130405019377F40089CB41471D8FBC
:101AE000BD1763E787023A9411A00144EFF06F90AD
:101AF00083B7819385C3634B040859C803B6019328
:101B0000636A8608976600009386C6189C6201A8DF
:101B10000144E9BFEFF0DFEFF9BFBE86BA879867EF
:101B200063748700986375FB03B781936306F706B8
:101B30008462C104986398E29867018F930500025C
:101B400063F9E500B385870098E580E7986298E13E
:101B50008CE29867198E23B8C19283B68192637420
:101B6000D60023B4C192FD56FE16558F98E723B0D8
:101B70000700138701921C6385071CE3EFF0BF90F9
:101B80002685E2604264A264056182808144FDB7DB
:101B90008144EDB78144DDB78144CDB729CD011132
:101BA00006EC22E826E42A84930405FF833785FFA8
:101BB00063C70700E2604264A26405618280033764
:101BC00005FF6DFB7D570583F98F233CF5FEEFF094
:101BD0004F82833684FF138701931C63B6971CE3FF
:101BE0002685EFF0DFE8138781911C6385071CE3EE
:101BF000EFF07F89C1B78280797106F422F02A84E0
:101C000063430504014437D7CCCC1307D7CC9317D3
:101C10000702BA97B337F50213D737009316270098
:101C2000369706073307E5401B07070393060402B0
:101C30008A9605242384E6FE2A8713D53700A54714
:101C4000E3E3E7FC15A01305D002EF10C003330552
:101C500080404DBF9B07F4FF3E84938707028A971D
:101C6000038587FEEF102002E34680FEA270027417
:101C700045618280011106EC22E826E42A8401A84D
:101C80009304140003050400EF00F07F268483070B
:101C9000040081CB2947E395E7FE3545EF00B07E90
:101CA000C5B7E2604264A26405618280011106EC5E
:101CB00022E826E4AA84171500001305A57FEFF09B
:101CC0007FFB1304C003014721A817270000130757
:101CD000E7B8BA9703850700EF00F07A054771343B
:101CE00063490400B3D78400BD8BE5F379FF65F841
:101CF000E9BFE2604264A26405618280411106E4AA
:101D0000EF001077A26041018280597106F422F041
:101D100026EC2A842EFCB2E0B6E4BAE8BEECC2F0AF
:101D2000C6F43C183EE419A829476383E7069304E8
:101D3000140003050400EF001075268483070400D7
:101D4000CDCF13075002E391E7FE930424008307ED
:101D50001400130750026386E70863CAE7081307F5
:101D600080076346F7081307300663C2E7089B87BE
:101D7000D7F993F6F70F5547636BD706939726006D
:101D8000172700001307C7A7BA979C43BA97828703
:101D90003545EF00506F61BFA267138787003AE4B3
:101DA0008863EFF0BFF0268451BFA26713878700D6
:101DB0003AE48843EFF05FE4268449B7A2671387CB
:101DC00087003AE48863EFF0FFEA268485BFA267C4
:101DD000138787003AE403850700EF00D06A268462
:101DE000B1BF13055002EF00106A268481BF1305AE
:101DF000F003EF005069268491B7A2700274E26488
:101E0000656182802A87014511A005259317050287
:101E10008193BA9783870700EDFB8280014721A851
:101E2000931707028193B386F500AA9783C606002D
:101E30002380D7000527E365C7FE8280814701A87C
:101E40001397070201932A97230007008527E3E9E8
:101E5000B7FE8280544695CD63E4B6009B86F5FFBD
:101E60009307401E63F3D700BE86014721A893174E
:101E700007028193B305F500B2978387870123801A
:101E8000F5000527E365D7FE82168192369523007B
:101E900005008280BD4763F8B70E8346C5008347BF
:101EA000D500A20733E7D700AD4663F0E60E9B07E7
:101EB0000700410763EDE50C9B8547FF9307401E34
:101EC00063F3B700BE850347050083471500A207EB
:101ED000D98F0347250042075D8F83473500E2070E
:101EE000D98F1CC20347450083475500A207D98FED
:101EF0000347650042075D8F83477500E207D98F6E
:101F00005CC20347050183471501A207D98F034728
:101F1000250142075D8F83473501E207D98F1CC633
:101F20000347450183475501A207D98F0347650140
:101F300042075D8F83477501E207D98F1CCA0347AB
:101F4000850183479501A207D98F0347A501420761
:101F50005D8F8347B501E207D98F5CCA4CC6014744
:101F600039A89B07C70082178193AA978386070128
:101F7000931707028193B297238CD7000527E3625A
:101F8000B7FE014582807D5582807D5582807D55DA
:101F900082805D7186E4A2E026FC4AF84EF452F09D
:101FA00056EC5AE85EE42A84AE8B328BB68A3A8AC3
:101FB000BE894289C6849307401E63F31701BE841D
:101FC000930500202285EFF07FE793F7FB0F03478F
:101FD00004002300F4009BD78B0093F7F70F03470F
:101FE0001400A300F4009BD70B0193F7F70F0347EE
:101FF00024002301F4009BDB8B0183473400A30101
:1020000074019377FB0F034744002302F4009B57AE
:102010008B0093F7F70F03475400A302F4009B577C
:102020000B0193F7F70F034764002303F4001B5BD6
:102030008B0183477400A303640183478400230456
:10204000040083479400A30404008347A4002305ED
:1020500004008347B400A30504008347E40023077A
:1020600004008347F400A30704009B87C400139770
:102070000703419393F7F70F8346C4002306F40048
:10208000935787000347D400A306F40093F7FA0F91
:10209000034704012308F4009BD78A0093F7F70F46
:1020A00003471401A308F4009BD70A0193F7F70F25
:1020B000034724012309F4009BDA8A018347340192
:1020C000A30954019377FA0F03474401230AF4004C
:1020D0009B578A0093F7F70F03475401A30AF400B4
:1020E0009B570A0193F7F70F03476401230BF40092
:1020F0001B5A8A0183477401A30B440193F7F90F1C
:1021000003478401230CF4009BD7890093F7F70F52
:1021100003479401A30CF4009BD7090193F7F70F31
:102120000347A401230DF4009BD989018347B4011F
:10213000A30D3401014729A8931707028193B30621
:10214000F900F107A29783C606002380D700052770
:10215000E36497FEA6600664E2744279A279027A8B
:10216000E26A426BA26B61618280411106E4014622
:102170009305C01F2145EFE0CFA723B8A1940545E3
:10218000EFE0CFC223B4A19423900194014729A882
:1021900093164700979701009387C738B69723A0F7
:1021A000070023B4070005279D47E3D3E7FE83B567
:1021B00001958DC105C11307401E930600202146DD
:1021C000B285171500001305E531EFF01FB4A260CA
:1021D000410182802A86171500001305252EEFF095
:1021E000DFB2F5B7C9C9814711A085271D47634CE8
:1021F000F70293964700179701001307A732369707
:10220000186765D7179701001307C731369718432A
:10221000E31DA7FC179701001307C730B307D700CA
:102220008CE70145828081471D476347F7029396FB
:102230004700179701001307E72E3697186719C351
:102240008527DDB7179701001307C72DB307D70000
:1022500088C38CE701458280411106E4931505028D
:102260008191171500001305E52BEFF01FAA7D558E
:10227000A260410182807D558280130101BC233C14
:1022800011422334014083B70195638E071A9307E7
:102290009005E60798430127B7574151938707D523
:1022A0006313F71A93079005E607DC438127094774
:1022B000639BE71823388142233491422330214322
:1022C000233C314121A005272390E194B7872C00BE
:1022D0009507AA0783D7270003D701949B06070019
:1022E0006388F614B7872C009507AA079376F7033F
:1022F0008606B69783D747009399070393D90903B6
:102300009306F003E3E1F6FC13944900B7270B00B2
:102310008507B2073E940347840083479400A207D1
:102320005D8F8347A400C207D98F8344B400E204C1
:10233000DD8C81249307002063F39700BE8403475C
:10234000040083471400A2075D8F83472400C2075F
:10235000D98F0347340062075D8F8347440082179B
:10236000D98F0347540022175D8F83476400C2173B
:10237000D98F83457400E215DD8D0F0030031309FA
:10238000812026864A85EFF07FA9B7160059860678
:1023900083D72600139607034192812993F7F70309
:1023A0008E07B69723A23701034784008345940024
:1023B000A2054D8F8345A400C205D98D0347B40003
:1023C00062074D8F012798C70F0030039B07160047
:1023D000C217C1932391F6000F00300313870194B5
:1023E0008357070085272310F7003000A6854A850C
:1023F000EFF05FAA634605028146130681402C0078
:1024000003B50195EFE08F9C8547E301F5EC83650B
:102410008101171500001305E515EFF01F8F7DB53D
:10242000A685171500001305E512EFF01F8E79BD84
:102430008337814091EF0334014383348142033970
:1024400001428339814183308143130101448280F9
:10245000EFE05F9103340143833481420339014249
:1024600083398141CDB7011106EC22E803B4819490
:102470006307041426E4AA8493079005E6079843AB
:102480000127B7574151938707D56315F712930773
:102490009005E607DC43812709476390E712FD5565
:1024A0002285EFE0AFAC85476310F512B7872C00AB
:1024B000B507AA0783D7270093950703C19137175C
:1024C000802C0A0703572700131607034192999F90
:1024D000C217C1931307F003636EF70A13F4F503F1
:1024E0002604B7270B00B507B2073E9493050020DA
:1024F0002285EFF0BF948347040023000400834744
:1025000014008547A300F400034724002301F400CE
:1025100083473400A301040093F7F40F03474400FA
:102520002302F4009BD7840093F7F70F034754006E
:10253000A302F4009BD7040193F7F70F034764004D
:102540002303F4001BD5840183477400A303A40074
:10255000834784002304040083479400A3040400F9
:102560008347A400230504008347B400A3050400A7
:102570008347E400230704008347F400A307040013
:102580008347C400230604008347D400A306040045
:10259000A26435A0171500001305C500EFF0EFF693
:1025A00081460146814503B58194EFD03FEC01445B
:1025B000A26431A00144A26419A00144A26422854E
:1025C000E2604264056182800144A264CDBFB787A6
:1025D0002C00B507AA0783D627009395060393F628
:1025E000F60313969600B7270B00B507B2073E9681
:1025F00063050516411106E4C1916317A6128347CE
:10260000C5000347D50022075D8F412793070020AF
:1026100063ECE7129397460037260B000D0632064F
:10262000B2971376F50F03C807002380C70013562F
:1026300085001376F60F03C81700A380C700135652
:1026400005011376F60F03C827002381C7001B5628
:10265000850103C83700A381C7001356050213760E
:10266000F60F03C847002382C7001356850213766E
:10267000F60F03C85700A382C7001356050313764D
:10268000F60F03C867002383C700619103C6770074
:10269000A383A7001376F70F03C587002384C70021
:1026A0001B5687001376F60F03C59700A384C70057
:1026B0001356070103C5A7002385C7001B578701D1
:1026C00003C6B700A385E70003C7C700238607003A
:1026D00003C7D700A386070003C7E70023870700C7
:1026E00003C7F700A3870700B7872C00B507AA0721
:1026F000139716003E972312D7000F00300385254D
:10270000C215C1912391B7000F0030030945EF00B6
:10271000A05581460146814503B58194EFD01FD570
:102720000145A26041018280AA85171500001305AA
:10273000E5EAEFF08FDD81460146814503B58194DE
:10274000EFD0DFD27D55F1BF81460146814503B50B
:102750008194EFD0BFD17D55E9B77D5582801301BB
:1027600001DF233411203DA885271D47634AF70266
:1027700093964700179701001307C7DA3697146737
:10278000E5D613964700179701001307A7D932978C
:1027900010431247E31AE6FC0A858296854711A08A
:1027A000814781CF7D568A8503B50195EFD05FEBD8
:1027B0008547E319F5FE81474DBF03660101836537
:1027C0004100171500001305E5E3EFF00FD4D9BF62
:1027D000130101DE233C1120233881202A842A861C
:1027E0009305501E2800EFF0EFE60840EFF0BFC75A
:1027F00025C12334912023302121CEFFAA8403292F
:10280000040083298400004817150000130505E51E
:10281000EFF04FDFAA8817180000130828E481475B
:102820002287CE864A86C165938505102685EFF0FE
:102830004FF62685EFF0BFD983348120033901207C
:10284000FE7983308121033401211301012282802A
:1028500017150000130585DEEFF02FCBDDB7130150
:1028600001DF23341120A6FFCAFBAA840329C50077
:102870002A869305501E2800EFF0CFDD8840EFF048
:102880009FBE630A0510233081202A849307401ECF
:1028900063F327013E89930500202285EFF00FDACC
:1028A000230004008947A300F40085472301F400B6
:1028B000A30104009C402302F4001BD78700A3025D
:1028C000E4001BD707012303E4009BD78701A30380
:1028D000F40023040400A304040023050400A3055A
:1028E000040023070400A30704001B07C900931773
:1028F0000703C1932306E400A183A306F4009C44CC
:1029000013F7F70F834604012308E4001BD7870061
:102910001377F70F83461401A308E4001BD70701C0
:102920001377F70F834624012309E4009BD787011F
:1029300003473401A309F4009C4813F7F70F8346BB
:102940004401230AE4001BD787001377F70F83465F
:102950005401A30AE4001BD707011377F70F83463E
:102960006401230BE4009BD7870103477401A30B89
:10297000F40083478401230C040083479401A30CD3
:1029800004008347A401230D04008347B401A30D71
:102990000400014705A0171500001305A5CDEFF0B1
:1029A000CFB689A0931707028193F107A2972380DE
:1029B000D700052763732703931707028193A69710
:1029C00083C687019B87F6F993F7F70F6546E36B9C
:1029D000F6FC813693F6F60FF1B72285EFF03FBF94
:1029E0000334012083308120FE745E7913010121BC
:1029F0008280797106F422F026EC4AE84EE42A89B6
:102A00008329C500F32410C09307401D63F33701E9
:102A1000BE8903250900EFF01FA52A84630605106F
:102A200093050020EFF08FC1230004008D47A30021
:102A3000F40085472301F400A30104008327090063
:102A40002302F4001BD78700A302E4001BD7070171
:102A50002303E4009BD78701A303F40023040400AD
:102A6000A304040023050400A305040023070400B5
:102A7000A30704001B87C90193170703C19323060B
:102A8000E400A183A306F4008327890013F7F70F5E
:102A9000834604012308E4001BD787001377F70F50
:102AA00083461401A308E4001BD707011377F70F2F
:102AB000834624012309E4009BD78701034734019F
:102AC000A309F4008327090113F7F70F8346440194
:102AD000230AE4001BD787001377F70F83465401BE
:102AE000A30AE4001BD707011377F70F834664019D
:102AF000230BE4009BD7870103477401A30BF40069
:102B000083478401230C040083479401A30C040031
:102B10008347A401230D04008347B401A30D0400DF
:102B20009305C401014735A017150000130585B6AC
:102B3000EFF0AF9D9DA0931607028192CA969B0766
:102B4000070182178193AE9783C686012380D70041
:102B50000527E36237FF732510C001470DA89B17B7
:102B6000370033D6F400931607028192AE9613769F
:102B7000F60F2380C600B357F5009B068700821628
:102B80008192AE9693F7F70F2380F60005279D47B5
:102B9000E3F7E7FC2285EFF09FA3A2700274E264E2
:102BA0004269A26945618280797106F4EF00E016FE
:102BB0001DC522F02A8402E4B1476305F502B5473A
:102BC0006303F504AA8517150000130525B1EFF07E
:102BD000CF932285EF00E014A267B1EF0274A270D8
:102BE00045618280EF00000DE34505FE83B78195C6
:102BF000F5DBA303A10081463000930571003E85FB
:102C0000EFD0DF9CC5B726ECEF00E004AA84EF000C
:102C100000058547638DF400939504028191171593
:102C20000000130525A9EFF04F8EE2645DB7EFF0C9
:102C3000CFE4E26479BFEFE0EF9202744DB7411147
:102C400006E485453545EF00800E3545EF00C00AA6
:102C5000A26041018280B747001088478280B74751
:102C60000010054798C78280B7470010C8C382800C
:102C7000B7270010A38007000D47A381E7001D4779
:102C80002381E7008280B727001083C7570093F79E
:102C90000702F5DB1375F50FB72700102380A70097
:102CA0008280B727001003C7170013671700A3809F
:102CB000E7008280B727001083C75700858B91C734
:102CC000B727001003C5070082807D5582806357B7
:102CD000A0000A05B707000C3E950CC18280411187
:102CE00006E4B7F7200C23A0070085453145EFF037
:102CF0001FFEA260410182806350A00293575500DD
:102D00008A073727000C13070778BA978546BB96C2
:102D1000A6009843558F98C38280B7F7200CC8430C
:102D200082806355A000B7F7200CC8C38280411190
:102D300006E4EFF0DFF9A260410182800145828064
:102D400082808280AA8729A02380B70085073A86DF
:102D50001307F6FF75FA8280AA8701A883C60500CB
:102D60002380D700850585073A861307F6FF7DF691
:102D70008280814873000000828001458D48730085
:102D8000000082809148730000008280411106E4B7
:102D90001715000013050596EFE03FF7814715472B
:102DA0008146056613060680971500009385859574
:102DB0001705000013056503EFE0EFCD81471547C8
:102DC000814613060020971500009385A5941705EA
:102DD000000013050599EFE00FCC0145EFE06FD837
:102DE000A26041018280011106EC7D569305F1003D
:102DF00003B58195EFD0DF868547E318F5FE03061E
:102E0000F1009375F60F1715000013052592EFE0FA
:102E1000DFEFE1BF411106E4EFE05FEE17150000C0
:102E20001305C591EFE07FEEEFF07FEB3145EFF05A
:102E3000BFECEFF0DFE0EFF04FB3970500009385B4
:102E40006599416513050510EFF0CFB925E59705A4
:102E50000000938505A1416513050520EFF08FB8AB
:102E60002DE197050000938505B9416513050530EF
:102E7000EFF04FB731ED0146854513050004EFD063
:102E80004FD723BCA194EFF0DFE181471147814682
:102E90001306001097150000938545931705000051
:102EA000130505EFEFE02FBFEFE0AFC70145A260CC
:102EB00041018280171500001305C589EFE0FFE48A
:102EC00079B7171500001305658BEFE01FE451BFBC
:102ED000171500001305058DEFE03FE369BF000003
:102EE00000000000000000000000000000000000E2
:102EF00000000000000000000000000000000000D2
:102F0000417106E416E81AEC1EF022F426F82AFCB9
:102F1000AEE0B2E4B6E8BAECBEF0C2F4C6F8CAFC61
:102F20004EE152E556E95AED5EF162F566F96AFD49
:102F3000EEE1F2E5F6E9FAEDFEF1F322001096F586
:102F4000F3230010996233F353006312530482B9E0
:102F500086BD0AA20EA612AA16AE1AB21EB622BAD2
:102F600026BEAAA2AEA6B2AAB6AEBAB2BEB6C2BAC1
:102F7000C6BE4AA34EA752AB56AF5AB35EB762BBAA
:102F800066BFEAA3EEA7F2ABF6AFFAB3FEB7916263
:102F900073A00210896273B00210F322101416E0BD
:102FA00083B2018E23B0220073252014F325101460
:102FB0001356F50331CA2EE08542FE121383120028
:102FC000631B6500171100000331418BEFE09FA0E8
:102FD000EFD05FD991A81103631E6500171100009F
:102FE0000331C189EFE07F9DEFD03FC215CDEFD017
:102FF0007FD71DA81103631B650017110000033163
:10300000E187EFF07FBA0DA091052EE07325201423
:10301000F3251014732630140A87171100000331AA
:10302000E185EF00E00D09A003B3018E0331030039
:10303000826273901214F3230010AE727390021028
:10304000996233F35300631253044E30EE30122171
:10305000B2215222F2221233B2335234F234162504
:10306000B6255626F6261637B6375638F6381A29B4
:10307000BA295A2AFA2A1A3BBA3B5A3CFA3C1E2D64
:10308000BE2D5E2EFE2E1E3FBE3FA260C262626358
:1030900082732274C274627586652666C666666728
:1030A00086772678C67866798A692A6ACA6A6A6BD8
:1030B0008A7B2A7CCA7C6A7D8E6D2E6ECE6E6E6F88
:1030C0008E7F7D617300201013000000130000004C
:1030D00013000000130000001300000013000000A4
:1030E0001300000013000000130000001300000094
:1030F0001300000013000000130000001300000084
:103100006F00000013000000130000001300000017
:103110001300000013000000130000001300000063
:103120001300000013000000130000001300000053
:103130001300000013000000130000001300000043
:103140001300000013000000130000001300000033
:103150001300000013000000130000001300000023
:103160001300000013000000130000001300000013
:103170001300000013000000130000001300000003
:1031800013000000130000001300000013000000F3
:1031900013000000130000001300000013000000E3
:1031A00013000000130000001300000013000000D3
:1031B00013000000130000001300000013000000C3
:1031C00013000000130000001300000013000000B3
:1031D00013000000130000001300000013000000A3
:1031E0001300000013000000130000001300000093
:1031F0001300000013000000130000001300000083
:103200006FF09F9A828013000000130000001300EB
:103210000000130000001300000013000000130062
:103220000000130000001300000013000000130052
:103230000000130000001300000013000000130042
:103240000000130000001300000013000000130032
:103250000000130000001300000013000000130022
:103260000000130000001300000013000000130012
:103270000000130000001300000013000000130002
:1032800000001300000013000000130000001300F2
:1032900000001300000013000000130000001300E2
:1032A00000001300000013000000130000001300D2
:1032B00000001300000013000000130000001300C2
:1032C00000001300000013000000130000001300B2
:1032D00000001300000013000000130000001300A2
:1032E0000000130000001300000013000000130092
:1032F0000000130000001300000013000000010094
:103300009702000083B2825A7390521003B1018E6B
:10331000026182604E30EE301221B2215222F2223E
:103320001233B2335234F2341625B6255626F62619
:103330001637B6375638F6381A29BA295A2AFA2AC9
:103340001A3BBA3B5A3CFA3C1E2DBE2D5E2EFE2E79
:103350001E3FBE3F626382732274C27462758665CB
:103360002666C666666786772678C67866798A692D
:103370002A6ACA6A6A6B8A7B2A7CCA7C6A7D8E6DDD
:103380002E6ECE6E6E6F8E7FAE7293E222007390C1
:103390000210C2627D6182801300000013000000F1
:1033A00013000000130000001300000013000000D1
:1033B00013000000130000001300000013000000C1
:1033C00013000000130000001300000013000000B1
:1033D00013000000130000001300000013000000A1
:1033E0001300000013000000130000001300000091
:1033F0001300000013000000130000001300000081
:10340000F322001017030000033343488323030013
:10341000B3E2720083234300B3F2720093F2D2FF4F
:1034200013030012B3E26200130505F061152330A7
:103430005500130505F510E1130505FD9702000081
:1034400083B2C2492330550061150CE18280FF9F91
:10345000FFFF00200000000000000000000000004E
:10346000000000000000000000000000000000005C
:10347000000000000000000000000000000000004C
:10348000000000000000000000000000000000003C
:043490000000000038
:1034980049444C4500000000546D72510000000082
:1034A800546D7220537663003078000000000000ED
:1034B80072706D736720696E6974206661696C65E6
:1034C800643A2071756575653D2570206D75746564
:1034D800783D25700A00000072706D736720696E70
:1034E80069743A2071756575652064657074683D06
:1034F80025642068616E646C6572733D2564206282
:1035080075663D2564207061796C6F61643D256442
:103518000A0000000000000072706D736720726579
:10352800676973746572206661696C65643A2074B2
:1035380061626C652066756C6C2065703D25780A43
:10354800000000000000000072706D73672069734E
:10355800723A2062616420627566666572206C65E5
:103568006E3D25640A00000072706D7367206973F0
:10357800723A206469737061746368207175657547
:10358800652066756C6C2C2064726F7020636F6F99
:103598006B69653D25780A0072706D7367206C6FE2
:1035A800616E206661696C65643A20746F5F787635
:1035B800362066756C6C20617661696C3D256420E7
:1035C800757365643D25640A000000000000000072
:1035D80072706D73672073656E64206661696C65CF
:1035E800643A206D73673D25702065787065637453
:1035F80065643D25700A000072706D736720646908
:103608007370617463683A206E6F2068616E646CD1
:10361800657220666F72206473743D257820636F2D
:103628006F6B69653D25780A000000000000000006
:1036380072706D7367206563686F3A206C6F616E96
:10364800206661696C65640A0000000000000000E3
:1036580072746F732D3E7876362072706D736720A2
:1036680061636B000000000072706D7367207570F5
:103678007065723A206C6F616E206661696C656472
:103688000A0000000000000072706D736720626518
:103698006E63683A206C6F616E206661696C656460
:1036A8000A000000000000006D61696C626F7820FC
:1036B8006972712072656365697665642C2072652C
:1036C80061736F6E3D25780A00000000000000005D
:1036D800706C69633A20756E6B6E6F776E206972D5
:1036E800712025640A000000765461736B4372658B
:1036F8006174650A0000000076556172745278544E
:1037080061736B000000000076496363446973705D
:10371800617463685461736B00000000000000006E
:1037280072783A20257820272563270A00000000B0
:1037380048656C6C6F204672656552544F53210A78
:1037480000000000000000006963633A20726567AA
:103758006973746572206563686F2068616E646C54
:103768006572206661696C65640A000000000000EB
:103778006963633A2072656769737465722075704E
:103788007065722068616E646C6572206661696C30
:1037980065640A00000000006963633A2072656787
:1037A80069737465722062656E63682068616E640F
:1037B8006C6572206661696C65640A00000000002F
:1037C8007461736B20637265617400004AE0FFFFE7
:1037D800A0E0FFFFA0E0FFFFE4E0FFFFF0E0FFFF55
:1037E8000EE1FFFFA0E0FFFFA0E0FFFFE4E0FFFF26
:1037F800F0E0FFFFD2E5FFFFAEE5FFFFF2E5FFFFD8
:10380800F2E5FFFFF2E5FFFFF2E5FFFFF2E5FFFF5C
:10381800F2E5FFFFF2E5FFFFF2E5FFFFF2E5FFFF4C
:10382800F2E5FFFFF2E5FFFF9CE5FFFFF2E5FFFF92
:10383800F2E5FFFFC0E5FFFFF2E5FFFFF2E5FFFF5E
:10384800F2E5FFFFF2E5FFFF9CE5FFFF0000000047
:1038580030313233343536373839616263646566FE
:10386800000000000000000006000000000000004A
:08387800907C00B0000000008C
:1038800000000000000000004E3400B00000000006
:10389000804000B000000000A0B501B000000000B2
:1038A000422D00B000000000002F00B0000000001A
:1038B000000040B000000000F03800B00000000040
:1038C000803800B000000000F03800B000000000B8
:1038D000803800B0000000000A1A00B000000000AC
:1038E000FFFFFFFFFFFFFFFF0000000000000000E0
:04000005B000000047
:00000001FF
