:02000004B0004A
:100000009741000083B181C39D45631EB5087350BD
:10001000401073504014996273B00210896273A04B
:100020000210B702040073A0021017410000033150
:10003000E1C27310011417450000033525C497452C
:10004000000083B5A5C2174600000336A6C263FAB6
:10005000C5008332050023B055002105A105E3EA60
:10006000C5FE174500000335E5BF9745000083B581
:1000700065BD6377B500233005002105E36DB5FE4E
:1000800017450000033585BCEF20B05DEF20B05D63
:10009000014581450146EF20F07B73005010F5BF0C
:0C00A00073005010F5BF73005010F5BF46
:10010000930705011CE57D5718E91CED1CF1233010
:10011000050082802330050282801C659CE5986B77
:1001200098E90CE78CEB88F11C6185071CE1828063
:100130009061FD576303F60293070501BE869C6735
:100140009863E37DE6FE9C669CE58CEB94E98CE687
:1001500088F11C6185071CE182801471EDB71C7168
:100160001465186998EA146514E798676308A7008E
:100170002330050288637D1588E38280186998E73B
:10018000C5BFAA87286509C5BC739C631D451D8D25
:100190008280411106E422E02A84EF00107F387843
:1001A0003C7C630AF7000144EF00D07F2285A26007
:1001B0000264410182800544C5BF411106E422E08A
:1001C0002A84EF00907C3C7889EB0544EF00907D19
:1001D0002285A2600264410182800144C5BF0111F1
:1001E00006EC22E826E44AE02A84B28403390507B3
:1001F00050611DE21C6199CB0145930719003CF841
:10020000E2604264A2640269056182800869EF00CD
:10021000106123380400D5B799EC0865EF2030460B
:100220001C645860BA971CE4186863EFE7021C600E
:100230001CE42685D9B7086DEF2070441C6C58600B
:10024000B306E040998F1CEC186063F5E7001C686A
:10025000B6971CEC89476384F400014579BF6307B6
:1002600009007D19014551BF268541BF014571B780
:10027000AA87506115C2411106E42E85986F329706
:1002800098EF946B6364D700986398EF8C6FEF20BE
:10029000103FA260410182808280011106EC22E8B9
:1002A00026E4AA84EF00706E03C494081B14840132
:1002B0001B54844131A07D341B1484011B548441A0
:1002C000635C8000BC6489CB13858404EF00B03884
:1002D0007DD1EF003046C5B7FD57A384F408EF0089
:1002E000706CEF00906A03C484081B1484011B54D3
:1002F000844131A07D341B1484011B548441635C10
:1003000080009C7089CB13850402EF00D0347DD12E
:10031000EF005042C5B7FD572384F408EF00906802
:10032000E2604264A2640561828049C5797106F485
:1003300022F026EC2A84AE843C7DBDCF5461014777
:10034000B3B7D70281E709C7014585A80547E5BFCF
:10035000EF00B0631C60347C58603386E6023E9642
:1003600010E8233804061CE4FD163307D702BA97B9
:100370001CECFD572304F408A304F4089DE01C7052
:1003800089E7EF00306205450DA813050402EF0070
:10039000902C65D9930700083EE42800EF20F03048
:1003A000CDB713050402EFF0BFD513058404EFF0B9
:1003B0003FD5C1BF014582800145A2700274E2644D
:1003C00045618280011106EC22E826E4B6843A8475
:1003D00099ED18E028FC4CE085452285EFF0FFF40C
:1003E000230C9408E2604264A2640561828010E3F9
:1003F000D5B7797106F44EE431C522F026EC4AE80F
:100400002A84AE84328981473337B50215EBA9E3DC
:10041000330594029307F0F563E1A7041305050A79
:10042000EF10406DAA891DCD2A87CA861306050ADA
:10043000A6852285EFF01FF90274E264426921A0CB
:100440008547F1B781494E85A270A26945618280D6
:1004500081490274E2644269FDB781490274E26431
:100460004269D5B70274E2644269F1BF1D7186EC3E
:10047000A2E8A6E4CAE04EFC2A84AE8932E4B6843F
:10048000014995A82686CE852285EFF05FD53C648C
:1004900081EF1DE5EF0010510545E6604664A66456
:1004A0000669E2792561828013058404EF00B01AA1
:1004B00075D1930700083EEC2808EF20101FD9BF24
:1004C000930700083EEC2808EF20301EE1B7EF004C
:1004D000704D0145D9B70810EF00F02405490DA86B
:1004E00023040408A9A0A304040899A82285EFF016
:1004F000DFDAEF005079EF00504938783C7CE36355
:10050000F7F88947E380F4F8A267F1D3E30509FC23
:10051000EF005049EF00E06DEF003047834784085B
:100520009B9787019BD787417D57E38BE7FA8347EA
:1005300094089B9787019BD787417D57E385E7FA0E
:10054000EF0050462C000810EF10A0091DE5228591
:10055000EFF03FC441DDA26513050402EF00F0088F
:100560002285EFF09FD3EF00107251F5930700083A
:100570003EEC2808EF207013BDBF2285EFF0FFD1BD
:10058000EF007070014511BF0DC1411106E4233821
:10059000050023300500233C0500814601468145C6
:1005A000EFF0DFECA260410182808280411106E41D
:1005B00022E02A8681450545EFF0BFE32A84EFF06B
:1005C000BFFC2285A260026441018280011106EC19
:1005D00022E84AE02A843289368638793C7D636B8A
:1005E000F70089476388F6000145E26042640269CA
:1005F0000561828026E4834494089B9484019BD403
:1006000084413C782285EFF09FBDFD576393F4024F
:100610003C6481E70545A264C9BF13058404EF006B
:10062000900315C56308090205452330A900A2649B
:100630006DBFEF00205D63F2A40285249B948401CA
:100640009BD48441A30494080545A26479BF054561
:10065000A26461BF0545A26449BF0545A26471B7A4
:100660001D7186ECA2E8A6E4CAE04EFC2A84AE899D
:1006700032E40149ADA8CE852285EFF07FBFFD149D
:1006800024F81C7099EBEF00F0310545E6604664F4
:10069000A6640669E2792561828013050402EF00F1
:1006A000807B75D1930700083EEC2808EF20E07F9F
:1006B000D9BFEF00302F0145D1BF0810EF00B006C1
:1006C000054935A82304040891A8A304040885A0BB
:1006D0002285EFF09FBCEF00105B11A82285EFF0A0
:1006E000DFBBEF00505A2285EFF03FAD35EDEF0054
:1006F000D0292478C9F0A267CDDFE30009FCEF0020
:10070000702AEF00004FEF005028834784089B9722
:1007100087019BD787417D57E386E7FA8347940893
:100720009B9787019BD787417D57E380E7FAEF00CE
:1007300070272C000810EF00D06A4DF12285EFF0F1
:10074000DFA759D5A26513058404EF00006A22854E
:10075000EFF0BFB4EF00305359F9930700083EECB7
:100760002808EF20807461B701450DB75D7186E4FC
:10077000A2E026FC4AF82A842EE40149814479A0AB
:10078000FD173CF81C6081CF1C7091EFEF009021A9
:100790000545A6600664E274427961618280EF00DB
:1007A000106C08E8D5B713050402EF00C06A79DDC4
:1007B000930700083EEC2808EF20206FC1BFEF0030
:1007C000701E0145F9B70810EF00E0758544B1A02F
:1007D0002304040895A0A304040885A8EF00F01AD8
:1007E0000868EF00A0752A89EF00D01BA5A8228514
:1007F000EFF0BFAAEF00304911A82285EFF0FFA962
:10080000EF0070482285EFF05F9B3DEDEF00F017A1
:100810003C78BDF7A267C5D7DDD4EF00B018EF0074
:10082000403DEF009016834784089B9787019BD734
:1008300087417D57E38EE7F8834794089B978701AC
:100840009BD787417D57E388E7F8EF00B0152C0070
:100850000810EF00105955F12285EFF01F9641D98D
:100860001C60ADDFA26513058404EF0000582285EB
:10087000EFF0BFA2EF00304151F9930700083EECC2
:100880002808EF20806259B763140900014511B7A9
:10089000EF00B00F2285EFF0DF8EAA850868EF0029
:1008A0005002EF003010DDB781C50146814739A005
:1008B00082801386819636961DA885071D4763673B
:1008C000F702939647001387819636971867E302DD
:1008D000A7FE65F6939647001387819636971863AF
:1008E00069FF138781963386E600C1BF19C20CE207
:1008F00008E68280011106EC22E826E44AE02A8418
:10090000AE843289EF007008834784089B97870183
:100910009BD787417D576388E702834794089B975D
:1009200087019BD787417D576382E702EF009007DD
:100930003C7885C32285EFF05F96E2604264A26452
:1009400002690561828023040408C1BFA30404086E
:10095000F1BF4A86A68513058404EF00404BD9BF3A
:1009600083B7018E9C6389E7FD5723B4F1888280A9
:1009700083B7018E9C6F9C6323B4F1888280411100
:1009800006E422E02A842871EF1080242285EF10EB
:100990002024A260026441018280397106FC22F8A1
:1009A00026F44AF04EEC52E856E45AE0AA8AAE84A5
:1009B000368B3A893E8A4284931936004E869305D7
:1009C000500A03350806EF20404A3C70E119BE99F1
:1009D00093F909FF9DC081483D48636E1801338833
:1009E00014010308080033031401230403076304FC
:1009F00008008508D5B7A30B0406994763F32701C0
:100A00003E89233C24052338240913058400EFF094
:100A10006FF013050403EFF0EFEF00F09D47B3878D
:100A200027411CF820E45A86D6854E85EF20503D9C
:100A300008E063040A0023308A00E2704274A27462
:100A40000279E269426AA26A026B216182805D7169
:100A500086E4A2E026FC4AF84EF452F056EC5AE83E
:100A60005EE4AA892E8A3289B68A3A8BBE8B131528
:100A70003600EF102008AA8439C51305800AEF104C
:100A800060072A840DCD1306800A8145EF20E03DE2
:100A900024F081482288DE875A87D6864A86D28506
:100AA0004E85EFF09FEF2285A6600664E2744279DE
:100AB000A279027AE26A426BA26B6161828026852A
:100AC000EF100011CDB72A84F9BF411106E422E0EE
:100AD000014421A893172400A29713973700138588
:100AE00001AB3A95EFF0CFE105049947E3F487FEB7
:100AF000138581A8EFF0CFE0138501A6EFF04FE05A
:100B0000138581A3EFF0CFDF138501A1EFF04FDF55
:100B10001385819EEFF0CFDE938781A823B0F18EFD
:100B2000938701A623BCF18CA260026441018280FC
:100B3000797106F422F026EC4AE84EE452E02A8469
:100B4000AE8403B9018C83B9018E03BA818D93877A
:100B5000818E9863A302070A88632105EFF02FE0D6
:100B600011ED83B7818EB86F8547B397E70093C7C0
:100B7000F7FF9386818B9862F98F9CE2FD5763069D
:100B8000F4024A9483B7818E80E76377240583B5A6
:100B9000818EA1055285EFF0AFD9A2700274E26494
:100BA0004269A269026A45618280E1DC1387819E05
:100BB00014679387818E906314EA90638C6A0CEEBD
:100BC0009063210690E59063210690EA9C6398F774
:100BD0001C6385071CE3D1B783B5818EA1054E85C3
:100BE000EFF00FD583B78188E379F4FA23B48188D5
:100BF0006DB7138781871C6385071CE3828003B56B
:100C0000018C828003B5818C828083B78187639257
:100C10000714411106E422E09387018C80630504E8
:100C200080E315CC83B78188637BF404014583B7E7
:100C3000818EB86F93172700BA9713973700938761
:100C400001ABBA979863854763F3E7003E8583B7A6
:100C5000018A63970710A2600264410182801387B2
:100C6000018E14639387818D906310E394E313875F
:100C700081891C6385071CE3EFF09FCE65B70145B2
:100C8000BDA8FD5723B4F1885DB723B4E18845B70B
:100C9000946F14E759A823B807041463FD1614E3EE
:100CA000B46F05473317D7001386818B03380600CE
:100CB0003367070118E2138701AB139626003696B7
:100CC00093163600BA96946694EB906A90EF0CE611
:100CD0008CEAAC6F939625003388B6001316380063
:100CE0003A9690F710620506931538002E9710E398
:100CF000B86F83B7818EBC6F63F3E700054583B798
:100D0000018E9C63BDDF83B7018E9C6F9C6F9867DB
:100D1000E36DE4F69877906B946F14EA906B90E62D
:100D2000146793858700E385B6F623B4070214633E
:100D3000FD1614E3B86B2DD7907FB46314EA907F4F
:100D400090E6106793860703E317D6F4B46314E7BD
:100D500099B71387818A1C6385071CE3014582804C
:100D60000545D5BD83B7818789C7854723B0F18AFB
:100D7000828023B0018A83B7818B8127B1CF01475D
:100D800021A005279B971700E3DD07FE02170193BB
:100D9000FD47998F938501AB939627003386F60024
:100DA000131736002E971067106610E7BE9613973C
:100DB000360041072E976304E60213972700BA977F
:100DC00013973700938701ABBA979C67986F938707
:100DD000818E98E39C6382801307000245BF8E06D4
:100DE0003387D500146F14E7C9BF411106E422E030
:100DF0002E8483B5818E93850503EFF06FB385450F
:100E00002285EFF0FFD2A26002644101828041118D
:100E100006E4AA872E85B28594671387818E1063B6
:100E200014FE106303B80601233006051063130691
:100E300006032334C80010631306060390EA186300
:100E40003CEB9863050798E391C17D55EFF05FCEC9
:100E5000A260410182801C6D9C6FB86B907FB4636F
:100E600014EA907F90E61467138607036388C60828
:100E700023B807041463FD1614E303B7818749E719
:100E80009877906B946F14EA906B90E61067938656
:100E900087006308D60623B4070210637D1610E3AB
:100EA000AC6F05473317B7001386818B0862498FF3
:100EB00018E2138601AB139725002E970E07329781
:100EC000186798EB0C6B8CEF94E514EBAC6F1397F1
:100ED0002500B306B7008E06B29694F79462850695
:100EE0002E970E073A9614E2B86F83B7818EBC6FC7
:100EF00063F9E702054523B0A18A8280B46314E751
:100F000085BF906F10E741BF138781A3146794FFDB
:100F10008C6AACE390E590EAB8EB1463850614E3C1
:100F2000E1B70145828083B781891CE183B7018CD9
:100F30001CE58280854723B0F18A8280630D050C11
:100F4000011106EC22E82A84386D83B7818EBC6FCC
:100F5000637BF70A1C799396070263C8060083B780
:100F6000818EB46F9D47958F1CF9147493172700D9
:100F7000BA978E07138701ABBA97638BF60083B7D6
:100F8000818EBC6F3CEC0545E26042640561828065
:100F900026E4930484002685EFF06F9C01ED386C05
:100FA0008547B397E70093C7F7FF1387818B1463D7
:100FB000F58F1CE383B7818EB86F38EC0545B31706
:100FC000E5009386818B9062D18F9CE2938601AB82
:100FD00093172700BA978E07B6979C671CE8986B03
:100FE00018EC04E784EB306C931726003387C700B6
:100FF0000E07369718F418632A97B2978E07BE9695
:1010000098E2A26451B7586983B7818EBC6F63665A
:10101000F700014595BF014582800545B5B751CD23
:10102000011106EC22E82A845C6DFD175CED346D3D
:1010300058696386E60891C70145E260426405612C
:10104000828026E4930485002685EFF04F9101ED20
:10105000386C8547B397E70093C7F7FF1387818BF9
:101060001463F58F1CE3586838EC9D47998F1CF882
:101070000545B317E5009386818B9062D18F9CE282
:10108000938601AB93172700BA978E07B6979C6794
:101090001CE8986B18EC04E784EB306C931726007F
:1010A0003387C7000E07369718F418632A97B2974C
:1010B0008E07BE9698E2A26449B701458280014539
:1010C000ADBF79C1011106EC22E826E42A845C69EF
:1010D00063F3B700AE87246C6386F400546C054755
:1010E0006387E600E2604264A264056182803CECB2
:1010F00018789316070263C606001D47B307F7402A
:101100001CF8187493972400A6978E07938601AB5A
:10111000B697E319F7FC4AE0130984004A85EFF01B
:101120000F8419E98547B397970093C7F7FF138793
:10113000818B1463F58F1CE3386C8547B397E70008
:101140009386818B9062D18F9CE2938601AB93173B
:101150002700BA978E07B6979C671CE8986B18EC27
:101160002334270123B82701306C931726003387D7
:10117000C7000E07369718F418630507B2978E0755
:10118000BE9698E20269B9BF82807370011083B77E
:10119000018B81CB1387818E1463BC7E8507BCFED7
:1011A0001C63828083B7018B85C383B7818EBC7F2C
:1011B00081CF1387818E1463BC7EFD17BCFE1C6338
:1011C000BC7F99E3736001108280011106EC22E874
:1011D0002A84EFF09FFB1387818C1C6385071CE337
:1011E00083B7818E89CF83B7018B8DE383B7818EDF
:1011F000B86F3C6C63ECE70023B4818E01A823B484
:10120000818E03B7818C8547630DF70613870189AB
:101210001C6385071CE35CE0386C8547B397E700E7
:101220009386818B9062D18F9CE2938601AB93175A
:101230002700BA978E07B6979C671CE8906B10EC56
:101240001307840018E698EB306C93172600338759
:10125000C7000E07369718F418630507B2978E0774
:10126000BE9698E2EFF01FF483B7018B99C783B75E
:10127000818EB86F3C6C6369F700E260426405617F
:101280008280EFF09F8459B7930700083EE428005E
:10129000EF10B041DDB7411106E4EFF04FFB19C587
:1012A000EFF0BFF20545A260410182807D55E5BFA8
:1012B000011106EC22E802E002E48147394763614C
:1012C000F702172700001307673D3E970307070043
:1012D000938607018A962388E6FE19C38507F9BF1E
:1012E000C1078A97238807FE01440545635680009D
:1012F000E26042640561828093173400138701889D
:10130000BA9701478146130600208A851705000019
:1013100013050517EFF03FF88547E31BF5FC3E94F6
:10132000F1B7411106E4EFF0BFF885476309F50016
:101330009737000083B7878EA26041018280EF005B
:10134000A0668547E316F5FE73700110FD5723B4C0
:10135000F188854723B8F18A23B0018CEF00A06B98
:10136000C1BF797106F422F026EC2A84EFF0FFE188
:1013700059C4930484002685EFE07FDE0DE5346CCC
:1013800093972600B6978E07138701ABBA979C6395
:1013900099EB8547B397D70093C7F7FF1387818BE6
:1013A0001463F58F1CE33C6889C713050403EFE061
:1013B0001FDB138701891C6385071CE383B7818EBC
:1013C00063828704014783B7018B91C315EF1387AD
:1013D000818C1C63FD171CE3EFF08FD8EFF09FDCCE
:1013E0002285EFF0CFD983B7018B89C783B7818E70
:1013F00063898702A2700274E2644561828003B44B
:10140000818E85BF0547C1B7A685138501A1EFE091
:10141000DFD01387018D1C6385071CE3EFF09FD895
:10142000D9B7930700083EE42800EF101028D9B779
:1014300083B7018DB9C3411106E422E0EFF0FFD478
:1014400083B781A2806F13058400EFE05FD113871B
:10145000818C1C63FD171CE31387018D1C63FD1732
:101460001CE3EFF03FD42285EFF06FD183B7018DFD
:10147000F1F7A2600264410182808280411106E49A
:10148000EFF01FFBF5BF011106EC22E8EFF0FFCFF4
:101490009387818798637D1798E39C636391071016
:1014A00083B7818C89EB0144E5A8B46314E735A0C8
:1014B000906F10E799A0814703B781A355C383B705
:1014C00001A59C6FB86B907FB46314EA907F90E69F
:1014D000106793860703E30AD6FC23B80704146356
:1014E000FD1614E39877906B946F14EA906B90E676
:1014F000106793868700E30DD6FA23B407021063C2
:101500007D1610E3AC6F05473317B7001386818B48
:101510000862498F18E2138601AB139725002E97B6
:101520000E073297186798EB0C6B8CEF94E514EB71
:10153000AC6F13972500B306B7008E06B29694F7EA
:10154000946285062E970E073A9614E2B46F03B79D
:10155000818E386FE372D7F6054723B0E18AA9BFC1
:1015600099C3EFF0EFBF03B4818A05E003B4018AA9
:1015700005C883B7818E930700083EE42800EF106A
:10158000D012054431A87D1401C8EFF00FE865DDE5
:10159000854723B0F18AC5BF23B4018AC1BF014486
:1015A000EFF05FC02285E260426405618280011134
:1015B00006EC09CD22E82A84EFF0AFE381452285CD
:1015C000EFF00FD7EFF03FEC19E942649307000802
:1015D0003EE42800EF10700DE260056182804264F5
:1015E000E5BF011106EC22E826E42A84AE84EFF080
:1015F000DFB903B7018C1C643306F74083B6818ED4
:1016000083C6560A91CE83B7818EA382070A05440A
:10161000EFF05FB92285E2604264A26405618280D6
:101620009460FD55638BB602086083B581896308B9
:10163000B5006366F70023B004000544D1BF6366BC
:10164000D60023B004000544E1B7998FB6979CE01B
:101650002285EFF05F8D014465BF014455BF03B59E
:10166000818E01C55C6D85075CED828003B70191B9
:101670001C6399E785471CE191E71C6F88638280B2
:101680008147D5BF01458280411106E40CE508F190
:101690006362B602158E1C796366F6000545A2608A
:1016A000410182809305850003B58190EFE05FA83A
:1016B0000145F5B76374D60063FAD500930585003C
:1016C00003B50191EFE0DFA60145D1BF0545C1BFDC
:1016D000011106EC22E826E44AE02A84AE8432892D
:1016E00031A01C78BE943C60228582970C78A68637
:1016F0004A86A6952285EFF03FF965F5E2604264DF
:10170000A264026905618280011106EC22E826E4E8
:101710004AE0AA842E8983B701919C6F806F1305DC
:101720008400EFE0DFA38347040513F7470009EFC8
:10173000F99B2308F4043C6022858297E2604264AE
:10174000A2640269056182804A86A6852285EFF03F
:101750003FF8D5B783B7019198630DC7411106E4EF
:101760009C6FFD558863EFF03FFA83B70191986352
:1017700065FB13878190146323B8D1901CE3A260AA
:101780004101828013878190146323B8D1901CE3B8
:101790008280011106EC22E826E4AA84EFF02FC62D
:1017A0002A8483B7018F636CF50023B0040023B84B
:1017B000818E2285E2604264A26405618280EFF03E
:1017C0007FF985479CE0E5B7797106F422F04AE895
:1017D0002A892E84EFF0EFC12800EFF09FFBA2676B
:1017E000B1EF26ECAA841DE8637225032286B305B7
:1017F000994003B50190EFF0EF8FEFF0DFC81DC502
:10180000E264A2700274426945618280EFF0BFC752
:10181000A6854A85EFF05FEFE264E5B703B78190F4
:10182000186319E30544D9B73E84C9B79307000884
:101830003EE00A85EF106067E264E1B7EFF0BFC4F5
:10184000C9B75D7186E4A2E026FC02E802EC02F072
:1018500002F401460C0803B50190EFE07FE069C98E
:10186000C26763CE0702C267E3C507FE027475D084
:101870001C7489C713058400EFE07F8E2800EFF009
:101880005FF1AA84C2672547E365F7FC8A0717273B
:1018900000001307E72EBA979C43BA978287A25598
:1018A0000275E2678297C1B78347040593E7170083
:1018B0002308F404E2660C782A86B6952285EFF0B8
:1018C000BFDC41D98347040513F7470001EBF99BBF
:1018D0002308F4043C6022858297A5BF1C782686E5
:1018E000E265BE952285EFF0BFDEEDB783470405C4
:1018F000F99B2308F404B1BF8347040593E717005D
:101900002308F404E2650CF8AA862A86AA952285A3
:10191000EFF09FD73DBF8347040513F7270009C7A2
:10192000F99B2308F40435B72285EF00602A15B728
:10193000A6600664E27461618280011106EC2800F1
:10194000EFF0DFD2A265EFF03FE8EFF09FEFC5BF09
:10195000411106E4EFF07F8383B7019091C7EFF068
:101960007F84A26041018280138501BFEFE04FF9BF
:10197000138581BCEFE0CFF8938701BF23B8F190C6
:10198000938781BC23B4F190014693050002194569
:10199000EFE03FA623B0A19079D197250000938571
:1019A00065D0EFE07FF065BF411106E4EFF05FFA2C
:1019B00083B7019085C79387818F194781461306A6
:1019C000E00697250000938565CE170500001305F6
:1019D00005F7EFF05F8CA260410182800145E5BF11
:1019E000732710C09387819198E3886382804111A7
:1019F00006E4EFF0FFFE8967938707713E95EF10CD
:101A0000A049A26041018280411106E4EF104049E3
:101A1000A26041018280411106E4EFF05FFD93076F
:101A2000000273A04710736041109307002073A059
:101A30004710EF10F02C0145A260410182807370C5
:101A4000011001A0176700001307C7609377F70024
:101A5000A9C7976600009386D660C19AD16793871D
:101A60000788958FBA973687976600009386865DBC
:101A700098E223B40600BA97C117C19B23B0F19432
:101A800023B4070023B00700B386E74014E71CE344
:101A900023B8D19223BCD1928280D16793870788E3
:101AA000E1B7976700009387E7593E879C63E3EEB1
:101AB000A7FE14673306D700630CA600146533062F
:101AC000D500638CC7001CE16303E50008E3828056
:101AD0001065B29614E73A85D5B703B601946389C9
:101AE000C7009C67BE9614E51C639C631CE1E9BFBC
:101AF00010E1D9BF011106EC22E826E42A840DC1C9
:101B0000BD5763EEA700130405019377F40089CB5A
:101B100041471D8FBD1763E787023A9411A0014426
:101B2000EFF02F8D83B7019485C3634B040859C828
:101B300003B68193636A8608976600009386865091
:101B40009C6201A80144E9BFEFF0DFEFF9BFBE8658
:101B5000BA87986763748700986375FB03B701942D
:101B60006306F7068462C104986398E29867018F60
:101B70009305000263F9E500B385870098E580E7E7
:101B8000986298E18CE29867198E23BCC19283B663
:101B900001936374D60023B8C192FD56FE16558F8B
:101BA00098E723B00700138781921C6385071CE325
:101BB000EFF07F8D2685E2604264A2640561828039
:101BC0008144FDB78144EDB78144DDB78144CDB791
:101BD00029CD011106EC22E826E42A84930405FFAE
:101BE000833785FF63C70700E2604264A264056132
:101BF0008280033705FF6DFB7D570583F98F233CFA
:101C0000F5FEEFE01FFF833684FF138781931C638B
:101C1000B6971CE32685EFF0DFE8138701921C637B
:101C200085071CE3EFF03F86C1B78280797106F427
:101C300022F02A8463430504014437D7CCCC130730
:101C4000D7CC93170702BA97B337F50213D73700EB
:101C500093162700369706073307E5401B0707034F
:101C6000930604028A9605242384E6FE2A8713D568
:101C70003700A547E3E3E7FC15A01305D002EF10FA
:101C8000E012330580404DBF9B07F4FF3E849387ED
:101C900007028A97038587FEEF104011E34680FE16
:101CA000A270027445618280011106EC22E826E4EC
:101CB0002A8401A89304140003050400EF10000F08
:101CC00026848307040081CB2947E395E7FE354549
:101CD000EF10C00DC5B7E2604264A2640561828066
:101CE000011106EC22E826E4AA841725000013055A
:101CF000659CEFF07FFB1304C003014721A8172761
:101D00000000130727F0BA9703850700EF10000AB9
:101D10000547713463490400B3D78400BD8BE5F3F4
:101D200079FF65F8E9BFE2604264A26405618280E0
:101D3000411106E4EF102006A26041018280597132
:101D400006F422F026EC2A842EFCB2E0B6E4BAE8CF
:101D5000BEECC2F0C6F43C183EE419A829476383E0
:101D6000E7069304140003050400EF102004268402
:101D700083070400CDCF13075002E391E7FE9304DD
:101D8000240083071400130750026386E70863CA20
:101D9000E708130780076346F7081307300663C296
:101DA000E7089B87D7F993F6F70F5547636BD7067C
:101DB0009397260017270000130707DFBA979C4365
:101DC000BA9782873545EF00707E61BFA26713879F
:101DD00087003AE48863EFF0BFF0268451BFA26722
:101DE000138787003AE48843EFF05FE4268449B71D
:101DF000A267138787003AE48863EFF0FFEA26843E
:101E000085BFA267138787003AE403850700EF00C8
:101E1000F0792684B1BF13055002EF003079268493
:101E200081BF1305F003EF007078268491B7A2708C
:101E30000274E264656182802A87014511A005254C
:101E4000931705028193BA9783870700EDFB828081
:101E5000014721A8931707028193B386F500AA973B
:101E600083C606002380D7000527E365C7FE82806E
:101E7000814701A81397070201932A9723000700BF
:101E80008527E3E9B7FE8280544695CD63E4B6002A
:101E90009B86F5FF9307401E63F3D700BE8601477C
:101EA00021A8931707028193B305F500B2978387A2
:101EB00087012380F5000527E365D7FE821681920E
:101EC0003695230005008280BD4763F8B70E834630
:101ED000C5008347D500A20733E7D700AD4663F0BE
:101EE000E60E9B070700410763EDE50C9B8547FF66
:101EF0009307401E63F3B700BE8503470500834781
:101F00001500A207D98F0347250042075D8F83473D
:101F10003500E207D98F1CC20347450083475500AF
:101F2000A207D98F0347650042075D8F834775007D
:101F3000E207D98F5CC20347050183471501A20759
:101F4000D98F0347250142075D8F83473501E2079B
:101F5000D98F1CC60347450183475501A207D98F76
:101F60000347650142075D8F83477501E207D98FFB
:101F70001CCA0347850183479501A207D98F0347F0
:101F8000A50142075D8F8347B501E207D98F5CCA7F
:101F90004CC6014739A89B07C70082178193AA97AF
:101FA00083860701931707028193B297238CD7008A
:101FB0000527E362B7FE014582807D5582807D550D
:101FC00082807D558280797106F422F026EC4AE801
:101FD0004EE42A84AE8932892E85EFF0FFE5AA848B
:101FE000FD4763F3A700BE84930500202285EFF030
:101FF0003FE89377F90F034704002300F4009B5751
:10200000890093F7F70F03471400A300F4009B57D0
:10201000090193F7F70F034724002301F4009B57AE
:10202000890103473400A301F40083474400930768
:1020300050032302F40083475400A30204008347A3
:1020400064002303040083477400A3030400834750
:1020500084002304040083479400A30404008347FE
:10206000A400230504008347B400A30504008347AC
:10207000E400230704008347F400A3070400834718
:10208000C400930780022306F4008347D400A3060C
:102090000400014721A8931707028193B386F90032
:1020A00083860600A2972388D7000527E36597FE5D
:1020B00082148190A294238804009377F90F034738
:1020C00004032308F4029B57890093F7F70F034793
:1020D0001403A308F4029B57090193F7F70F034772
:1020E00024032309F4021B59890183473403A309FC
:1020F000240383474403230A040283475403A30AA7
:10210000040283476403230B040283477403A30B75
:102110000402A2700274E2644269A269456182808D
:102120005D7186E4A2E026FC4AF84EF452F056ECCB
:102130005AE85EE42A84AE8B328BB68A3A8ABE892C
:102140004289C6849307401E63F31701BE8493053A
:1021500000202285EFF0DFD193F7FB0F0347040047
:102160002300F4009BD78B0093F7F70F034714006D
:10217000A300F4009BD70B0193F7F70F034724004C
:102180002301F4009BDB8B0183473400A30174011E
:102190009377FB0F034744002302F4009B578B0007
:1021A00093F7F70F03475400A302F4009B570B016A
:1021B00093F7F70F034764002303F4001B5B8B01C5
:1021C00083477400A303640183478400230404004D
:1021D00083479400A30404008347A400230504005C
:1021E0008347B400A30504008347E40023070400E9
:1021F0008347F400A30704009B87C40013970703D9
:10220000419393F7F70F8346C4002306F4009357D6
:1022100087000347D400A306F40093F7FA0F03479F
:1022200004012308F4009BD78A0093F7F70F0347B4
:102230001401A308F4009BD70A0193F7F70F034793
:1022400024012309F4009BDA8A0183473401A3099E
:1022500054019377FA0F03474401230AF4009B5774
:102260008A0093F7F70F03475401A30AF4009B5722
:102270000A0193F7F70F03476401230BF4001B5A7D
:102280008A0183477401A30B440193F7F90F0347B5
:102290008401230CF4009BD7890093F7F70F0347C1
:1022A0009401A30CF4009BD7090193F7F70F0347A0
:1022B000A401230DF4009BD989018347B401A30D28
:1022C0003401014729A8931707028193B306F90047
:1022D000F107A29783C606002380D7000527E36491
:1022E00097FEA6600664E2744279A279027AE26AF5
:1022F000426BA26B61618280411106E40146930545
:10230000C01F2145EFE0EF8E23BCA1940545EFE00F
:10231000EFA923B8A19423940194014729A8931607
:102320004700979701009387E75AB69723A00700C5
:1023300023B4070005279D47E3D3E7FE83B58195C6
:102340008DC105C11307401E930600202146B285AA
:102350001715000013050539EFF07F9EA2604101BB
:1023600082802A861715000013054535EFF03F9D42
:10237000F5B7CDC1814711A085271D47634CF702F2
:1023800093964700179701001307C75436971867AD
:1023900065D7179701001307E75336971843E31DD6
:1023A000A7FC179701001307E752B307D7008CE784
:1023B00001458280411106E401469D4763CFC70273
:1023C00013174600979701009387C750BA979C67E9
:1023D00099C30526DDB7979701009387A74FBA9752
:1023E00088C38CE79315050281911715000013052A
:1023F0006533EFF0DF94014519A89315050281912B
:102400001715000013050534EFF07F937D55A2608A
:10241000410182807D558280130101BC233C114221
:102420002334014083B78195638E071A9307900583
:10243000E60798430127B7574151938707D56313A0
:10244000F71A93079005E607DC4381270947639B4A
:10245000E718233881422334914223302143233C1F
:10246000314121A005272394E194B7872C009507DB
:10247000AA0783D7270003D781949B0607006388A8
:10248000F614B7872C009507AA079376F7038606FC
:10249000B69783D747009399070393D90903930607
:1024A000F003E3E1F6FC13944900B7270B0085071E
:1024B000B2073E940347840083479400A2075D8FD0
:1024C0008347A400C207D98F8344B400E204DD8CA3
:1024D00081249307002063F39700BE840347040020
:1024E00083471400A2075D8F83472400C207D98F5A
:1024F0000347340062075D8F834744008217D98FFA
:102500000347540022175D8F83476400C217D98F99
:1025100083457400E215DD8D0F003003130981201F
:1025200026864A85EFF0DF92B7160059860683D7D4
:102530002600139607034192812993F7F7038E072C
:10254000B69723A237010347840083459400A20570
:102550004D8F8345A400C205D98D0347B40062079F
:102560004D8F012798C70F0030039B071600C21735
:10257000C1932391F6000F00300313878194835792
:10258000070085272310F7003000A6854A85EFF065
:10259000BF93634605028146130681402C0003B5B4
:1025A0008195EFE0AF828547E301F5EC836581011A
:1025B000171500001305051EEFF06FF87DB5A68511
:1025C000171500001305051BEFF06FF779BD833772
:1025D000814091EF03340143833481420339014246
:1025E0008339814183308143130101448280EFE0CC
:1025F0006FF7033401438334814203390142833945
:102600008141CDB7011106EC22E803B401956307BF
:10261000041426E4AA8493079005E607984301274B
:10262000B7574151938707D56315F7129307900564
:10263000E607DC43812709476390E712FD552285B1
:10264000EFE0CF9285476310F512B7872C00B507EE
:10265000AA0783D7270093950703C1913717802CCA
:102660000A0703572700131607034192999FC217C1
:10267000C1931307F003636EF70A13F4F5032604FE
:10268000B7270B00B507B2073E94930500202285BB
:10269000EFF00FFE8347040023000400834714007B
:1026A0008547A300F400034724002301F400834777
:1026B0003400A301040093F7F40F034744002302FE
:1026C000F4009BD7840093F7F70F03475400A3024D
:1026D000F4009BD7040193F7F70F0347640023032B
:1026E000F4001BD5840183477400A303A40083472F
:1026F00084002304040083479400A3040400834758
:10270000A400230504008347B400A3050400834705
:10271000E400230704008347F400A3070400834771
:10272000C400230604008347D400A3060400A26467
:1027300035A0171500001305E508EFF04FE08146BE
:102740000146814503B50195EFD05FD20144A264F3
:1027500031A00144A26419A00144A2642285E26070
:102760004264056182800144A264CDBFB7872C001A
:10277000B507AA0783D627009395060393F6F603B9
:1027800013969600B7270B00B507B2073E96630570
:102790000516411106E4C1916317A6128347C500CF
:1027A0000347D50022075D8F41279307002063EC84
:1027B000E7129397460037260B000D063206B297B4
:1027C0001376F50F03C807002380C7001356850052
:1027D0001376F60F03C81700A380C7001356050130
:1027E0001376F60F03C827002381C7001B56850107
:1027F00003C83700A381C700135605021376F60FEE
:1028000003C847002382C700135685021376F60FCC
:1028100003C85700A382C700135605031376F60FAB
:1028200003C867002383C700619103C67700A383B1
:10283000A7001376F70F03C587002384C7001B5634
:1028400087001376F60F03C59700A384C7001356BD
:10285000070103C5A7002385C7001B57870103C6CF
:10286000B700A385E70003C7C7002386070003C797
:10287000D700A386070003C7E7002387070003C725
:10288000F700A3870700B7872C00B507AA0713979F
:1028900016003E972312D7000F0030038525C2157E
:1028A000C1912391B7000F0030030945EF00204E7E
:1028B00081460146814503B50195EFD03FBB0145F7
:1028C000A26041018280AA8517150000130505F357
:1028D000EFF0EFC681460146814503B50195EFD083
:1028E000FFB87D55F1BF81460146814503B501958D
:1028F000EFD0DFB77D55E9B77D558280011106EC39
:1029000026E44AE0AA842E8913055003EFF09FCFF6
:1029100005C122E82A844A86A685EFF0CFEA2285FF
:10292000EFF0DFE44264E260A26402690561828044
:10293000A685171500001305E5EEEFF04FC0E5B7CB
:10294000130101DF233411203DA885271D47634A69
:10295000F70293964700179701001307A7F73697DA
:102960001467E5D61396470017970100130787F6FB
:10297000329710431247E31AE6FC0A858296854790
:1029800011A0814781CF7D568A8503B58195EFD00F
:102990003FCD8547E319F5FE81474DBF0366010131
:1029A00083654100171500001305C5E9EFF02FB945
:1029B000D9BF130101DE233C1120233881202334A9
:1029C00091202A8424002A869305501E2685EFF044
:1029D000AFCBA687036704018366840003664400C7
:1029E0008365040017150000130545E9EFF02FB5C6
:1029F0000840EFF03FC131CD23302121CEFFAA8422
:102A000003290400832984000048171500001305DA
:102A1000E5ECEFF06FC2AA8817180000130808EC65
:102A200081472287CE864A86C16593850510268513
:102A3000EFF00FEF2685EFF07FD303390120FE7909
:102A40008330812103340121833481201301012249
:102A5000828017150000130565E6EFF04FAECDB785
:102A6000130101DF2334112023308120A6FFCAFB8C
:102A7000AA840329C50020002A869305501E2285BA
:102A8000EFF08FC0A28703E7040183E6840003E62A
:102A9000440083E50400171500001305A5E5EFF0D9
:102AA0000FAA8840EFF01FB6630805102A84930729
:102AB000401E63F327013E89930500202285EFF035
:102AC0002FBB230004008947A300F400854723019E
:102AD000F400A30104009C402302F4001BD78700EC
:102AE000A302E4001BD707012303E4009BD787015F
:102AF000A303F40023040400A3040400230504003A
:102B0000A305040023070400A30704001B07C90052
:102B100093170703C1932306E400A183A306F400DF
:102B20009C4413F7F70F834604012308E4001BD7E6
:102B300087001377F70F83461401A308E4001BD71F
:102B400007011377F70F834624012309E4009BD77D
:102B5000870103473401A309F4009C4813F7F70FDA
:102B600083464401230AE4001BD787001377F70F3D
:102B700083465401A30AE4001BD707011377F70F1C
:102B800083466401230BE4009BD78701034774014C
:102B9000A30BF40083478401230C040083479401B2
:102BA000A30C04008347A401230D04008347B40150
:102BB000A30D0400014705A017150000130585D7D4
:102BC000EFF0EF9781A0931707028193F107A29787
:102BD0002380D70005276373270393170702819388
:102BE000A69783C687019B87F6F993F7F70F65468B
:102BF000E36BF6FC813693F6F60FF1B72285EFF022
:102C0000FFB611C98330812003340120FE745E7940
:102C100013010121828083E50401171500001305CB
:102C200065D3EFF0CF91F9BF411106E409651305B3
:102C30008532EFE0DF97C165938505101715000019
:102C40001305C5D3EFF09FCBC165938505201715FC
:102C500000001305A5D3EFF07FCA13050010EFF0B5
:102C60007F9A21CD22E02A8417150000130505D58F
:102C7000EFF08F9CAA8817180000130828D481470A
:102C8000116705079306002013060010C165B29571
:102C90002285EFF0EFC89165850517150000130533
:102CA00065D3EFF0CF892285EFF05FAC0145EFE00F
:102CB0004FEB0264A26041018280171500001305EA
:102CC000E5CDEFF0CF870145EFE0AFE9E5B77971EA
:102CD00006F4EF00E0161DC522F02A8402E4B14795
:102CE0006305F502B5476303F504AA8517150000CF
:102CF000130545D3EFF0AF842285EF00E014A267FF
:102D0000B1EF0274A27045618280EF00000DE345CF
:102D100005FE83B70196F5DBA303A10081463000D1
:102D2000930571003E85EFD07F8AC5B726ECEF0092
:102D3000E004AA84EF000005939504028191171521
:102D400000001305A5CBEFE09FFF85476384F400E7
:102D5000E2645DB7EFF04FECE26479BFEFE08F80A3
:102D600002744DB7411106E485453545EF00800EEC
:102D70003545EF00C00AA26041018280B7470010CC
:102D800088478280B7470010054798C78280B747B9
:102D90000010C8C38280B7270010A38007000D472A
:102DA000A381E7001D472381E7008280B727001039
:102DB00083C7570093F70702F5DB1375F50FB727A5
:102DC00000102380A7008280B727001003C71700D8
:102DD00013671700A380E7008280B727001083C71E
:102DE0005700858B91C7B727001003C50700828065
:102DF0007D5582806357A0000A05B707000C3E95F9
:102E00000CC18280411106E4B7F7200C23A0070013
:102E100085453145EFF01FFEA2604101828063507D
:102E2000A002935755008A073727000C130707782D
:102E3000BA978546BB96A6009843558F98C3828063
:102E4000B7F7200CC84382806355A000B7F7200C69
:102E5000C8C38280411106E4EFF0DFF9A2604101AE
:102E600082800145828082808280AA8729A0238077
:102E7000B70085073A861307F6FF75FA8280AA879E
:102E800001A883C605002380D700850585073A86FB
:102E90001307F6FF7DF68280814873000000828070
:102EA00001458D4873000000828091487300000046
:102EB0008280411106E417150000130525B8EFE0E4
:102EC0001FE881471147814605661306068097155E
:102ED00000009385A5B7170500001305650DEFE009
:102EE0008FBB8147114781460566130606809715FB
:102EF0000000938525B61705000013052509EFE0AE
:102F00008FB98147154781460566130606809715D8
:102F100000009385A5B41705000013050511EFE027
:102F20008FB781471547814613060020971500008B
:102F30009385C5B3170500001305C5A0EFE0AFB535
:102F4000814711478146130600209715000093859D
:102F500065B317050000130565CDEFE0CFB38147DA
:102F6000114781461306002097150000938585B20E
:102F70001705000013050506EFE0EFB10145EFE08E
:102F80004FBEA26041018280411106E422E08145EA
:102F90001B84150017150000130545B1EFE03FDA5B
:102FA0001305803EEFE0AFE0A285DDB7411106E4F6
:102FB00022E081451B84150017150000130505B09C
:102FC000EFE0FFD71305803EEFE06FDEA285DDB7AF
:102FD000411106E4056513058538EFE04FDDA9656D
:102FE0009385A55517150000130545AEEFE03FD5B5
:102FF00029651305A555EFF09FD91305007DEFE076
:103000000FDB9305B00217150000130525ACEFE0A8
:103010001FD31305B002EFF09FD70145EFE06FB467
:10302000A26041018280011106EC7D569305F100FA
:1030300003B50196EFD0CFE28547E318F5FE03060E
:10304000F1009375F60F17150000130525ABEFE09F
:103050001FCFE1BF411106E4EFE09FCD171500003F
:103060001305C5AAEFE0BFCDEFF0DFD93145EFF092
:103070001FDBEFF03FCFEFF02FA8970500009385FF
:103080008593416513050510EFF0AFAE31E9970563
:1030900000009385259D416513050520EFF06FAD78
:1030A00039E50146854513050004EFD08FB423B000
:1030B000A196EFF07FD1814711478146130600109A
:1030C00097150000938505AB170500001305A5DED5
:1030D000EFE06F9CEFE0EFA40145A2604101828028
:1030E00017150000130505A4EFE07FC54DB71715B0
:1030F00000001305A5A5EFE09FC465B70000000020
:10310000417106E416E81AEC1EF022F426F82AFCB7
:10311000AEE0B2E4B6E8BAECBEF0C2F4C6F8CAFC5F
:103120004EE152E556E95AED5EF162F566F96AFD47
:10313000EEE1F2E5F6E9FAEDFEF1F322001096F584
:10314000F3230010996233F353006312530482B9DE
:1031500086BD0AA20EA612AA16AE1AB21EB622BAD0
:1031600026BEAAA2AEA6B2AAB6AEBAB2BEB6C2BABF
:10317000C6BE4AA34EA752AB56AF5AB35EB762BBA8
:1031800066BFEAA3EEA7F2ABF6AFFAB3FEB7916261
:1031900073A00210896273B00210F322101416E0BB
:1031A00083B2818E23B0220073252014F3251014DE
:1031B0001356F50331CA2EE08542FE121383120026
:1031C000631B6500171100000331C1A5EFE0DF8329
:1031D000EFD05FB991A81103631E650017110000BD
:1031E000033141A4EFE0BF80EFD03FA215CDEFD077
:1031F0007FB71DA81103631B650017110000033181
:1032000061A2EFF0DFAC0DA091052EE07325201434
:10321000F3251014732630140A87171100000331A8
:1032200061A0EF00E00D09A003B3818E033103001C
:10323000826273901214F3230010AE727390021026
:10324000996233F35300631253044E30EE3012216F
:10325000B2215222F2221233B2335234F234162502
:10326000B6255626F6261637B6375638F6381A29B2
:10327000BA295A2AFA2A1A3BBA3B5A3CFA3C1E2D62
:10328000BE2D5E2EFE2E1E3FBE3FA260C262626356
:1032900082732274C274627586652666C666666726
:1032A00086772678C67866798A692A6ACA6A6A6BD6
:1032B0008A7B2A7CCA7C6A7D8E6D2E6ECE6E6E6F86
:1032C0008E7F7D617300201013000000130000004A
:1032D00013000000130000001300000013000000A2
:1032E0001300000013000000130000001300000092
:1032F0001300000013000000130000001300000082
:103300006F00000013000000130000001300000015
:103310001300000013000000130000001300000061
:103320001300000013000000130000001300000051
:103330001300000013000000130000001300000041
:103340001300000013000000130000001300000031
:103350001300000013000000130000001300000021
:103360001300000013000000130000001300000011
:103370001300000013000000130000001300000001
:1033800013000000130000001300000013000000F1
:1033900013000000130000001300000013000000E1
:1033A00013000000130000001300000013000000D1
:1033B00013000000130000001300000013000000C1
:1033C00013000000130000001300000013000000B1
:1033D00013000000130000001300000013000000A1
:1033E0001300000013000000130000001300000091
:1033F0001300000013000000130000001300000081
:103400006FF0FF8C82801300000013000000130097
:103410000000130000001300000013000000130060
:103420000000130000001300000013000000130050
:103430000000130000001300000013000000130040
:103440000000130000001300000013000000130030
:103450000000130000001300000013000000130020
:103460000000130000001300000013000000130010
:103470000000130000001300000013000000130000
:1034800000001300000013000000130000001300F0
:1034900000001300000013000000130000001300E0
:1034A00000001300000013000000130000001300D0
:1034B00000001300000013000000130000001300C0
:1034C00000001300000013000000130000001300B0
:1034D00000001300000013000000130000001300A0
:1034E0000000130000001300000013000000130090
:1034F0000000130000001300000013000000010092
:103500009702000083B202757390521003B1818E4E
:10351000026182604E30EE301221B2215222F2223C
:103520001233B2335234F2341625B6255626F62617
:103530001637B6375638F6381A29BA295A2AFA2AC7
:103540001A3BBA3B5A3CFA3C1E2DBE2D5E2EFE2E77
:103550001E3FBE3F626382732274C27462758665C9
:103560002666C666666786772678C67866798A692B
:103570002A6ACA6A6A6B8A7B2A7CCA7C6A7D8E6DDB
:103580002E6ECE6E6E6F8E7FAE7293E222007390BF
:103590000210C2627D6182801300000013000000EF
:1035A00013000000130000001300000013000000CF
:1035B00013000000130000001300000013000000BF
:1035C00013000000130000001300000013000000AF
:1035D000130000001300000013000000130000009F
:1035E000130000001300000013000000130000008F
:1035F000130000001300000013000000130000007F
:10360000F3220010170300000333C3628323030077
:10361000B3E2720083234300B3F2720093F2D2FF4D
:1036200013030012B3E26200130505F061152330A5
:103630005500130505F510E1130505FD970200007F
:1036400083B242642330550061150CE18280FF9FF4
:10365000FFFF00200000000000000000000000004C
:10366000000000000000000000000000000000005A
:10367000000000000000000000000000000000004A
:10368000000000000000000000000000000000003A
:043690000000000036
:1036980049444C4500000000546D72510000000080
:1036A800546D7220537663003078000000000000EB
:1036B80072706D736720696E6974206661696C65E4
:1036C800643A2071756575653D2570206D75746562
:1036D800783D25700A00000072706D736720696E6E
:1036E80069743A2071756575652064657074683D04
:1036F80025642068616E646C6572733D2564206280
:1037080075663D2564207061796C6F61643D256440
:103718000A0000000000000072706D736720726577
:103728006769737465723A2065703D257820736CFB
:103738006F743D25640A000072706D7367207265AE
:10374800676973746572206661696C65643A207490
:1037580061626C652066756C6C2065703D25780A21
:10376800000000000000000072706D73672069732C
:10377800723A2062616420627566666572206C65C3
:103788006E3D25640A00000072706D7367206973CE
:10379800723A206469737061746368207175657525
:1037A800652066756C6C2C2064726F7020636F6F77
:1037B8006B69653D25780A0072706D7367206C6FC0
:1037C800616E206661696C65643A20746F5F787613
:1037D800362066756C6C20617661696C3D256420C5
:1037E800757365643D25640A000000000000000050
:1037F80072706D73672073656E64206661696C65AD
:10380800643A206D73673D25702065787065637430
:1038180065643D25700A000072706D7367206E73D1
:103828003A206C6F616E206661696C656420666F12
:10383800722025730A00000072706D736720646936
:103848007370617463683A206E6F2068616E646C8F
:10385800657220666F72206473743D257820636FEB
:103868006F6B69653D25780A0000000000000000C4
:1038780072706D7367206563686F3A207278207381
:1038880072633D2578206473743D257820636D64E8
:103898003D257820636F6F6B69653D2578207061E1
:1038A800796C6F61643D25730A0000000000000018
:1038B80072706D7367206563686F3A206C6F616E14
:1038C800206661696C65640A000000000000000061
:1038D80072746F732D3E7876362072706D73672020
:1038E80061636B000000000072706D736720757073
:1038F8007065723A207278207372633D257820646F
:1039080073743D257820636D643D257820636F6F5F
:103918006B69653D2578207061796C6F61643D2520
:10392800730A00000000000072706D7367207570E4
:103938007065723A206C6F616E206661696C6564AF
:103948000A0000000000000072706D736720757037
:103958007065723A207265706C792073656E742098
:10396800636F6F6B69653D25780A000000000000F1
:1039780072706D73672D6563686F0000000000004A
:103988007175617264616D702D7270630000000062
:1039980072706D736720746573743A206C6F616E12
:1039A800206661696C65640A000000000000000080
:1039B80072746F732D3E7876362072706D7367203F
:1039C80068656C6C6F00000072706D7367207465B9
:1039D80073743A2073656E6420746F20787636208D
:1039E800636F6F6B69653D25780A00000000000071
:1039F8006D61696C626F78206972712072656365A8
:103A0800697665642C20726561736F6E3D25780A4E
:103A18000000000000000000706C69633A20756EB9
:103A28006B6E6F776E206972712025640A00000042
:103A3800765461736B4372656174650A0000000017
:103A48007461736B310000007461736B32000000A5
:103A5800765561727452785461736B0000000000EF
:103A68007649636344697370617463685461736B06
:103A78000000000000000000764963635465737419
:103A88005461736B00000000764D61696C626F7859
:103A9800546573745461736B0000000000000000EB
:103AA8007461736B322025780A0000000000000062
:103AB8007461736B312025780A0000000000000053
:103AC8006D61696C626F78746573743A2072696E9F
:103AD8006720646F6F7262656C6C20746F207876F3
:103AE800362C20726561736F6E3D25780A000000E0
:103AF80072783A20257820272563270A00000000DD
:103B080048656C6C6F204672656552544F53210AA4
:103B180000000000000000006963633A20726567D6
:103B28006973746572206563686F2068616E646C80
:103B38006572206661696C65640A00000000000017
:103B48006963633A2072656769737465722075707A
:103B58007065722068616E646C6572206661696C5C
:103B680065640A00000000007461736B206372656D
:103B780061740000D6DCFFFF2CDDFFFF2CDDFFFFAA
:103B880070DDFFFF7CDDFFFF9ADDFFFF2CDDFFFF0F
:103B98002CDDFFFF70DDFFFF7CDDFFFF5EE2FFFF36
:103BA8003AE2FFFF7EE2FFFF7EE2FFFF7EE2FFFFD9
:103BB8007EE2FFFF7EE2FFFF7EE2FFFF7EE2FFFF85
:103BC8007EE2FFFF7EE2FFFF7EE2FFFF7EE2FFFF75
:103BD80028E2FFFF7EE2FFFF7EE2FFFF4CE2FFFFED
:103BE8007EE2FFFF7EE2FFFF7EE2FFFF7EE2FFFF55
:103BF80028E2FFFF00000000303132333435363719
:103C080038396162636465660000000000000000E6
:103C18000600000000000000408000B00000000026
:103C280000000000000000004E3600B00000000058
:103C3800284400B00000000050B901B000000000A6
:103C4800682E00B000000000003100B00000000045
:103C5800000040B000000000983C00B000000000E8
:103C6800283C00B000000000983C00B000000000B4
:103C7800283C00B0000000003E1A00B00000000020
:103C8800FFFFFFFFFFFFFFFF000000000000000034
:04000005B000000047
:00000001FF
