:02000004B0004A
:100000009731000083B1011E9D45631EB5087350F2
:10001000401073504014996273B00210896273A04B
:100020000210B702040073A0021017310000033160
:10003000611D73100114173500000335A51E973597
:10004000000083B5251D173600000336261D63FA10
:10005000C5008332050023B055002105A105E3EA60
:10006000C5FE173500000335651A9735000083B5C6
:10007000E5176377B500233005002105E36DB5FE74
:100080001735000003350517EF200047EF20004724
:10009000014581450146EF20406573005010F5BFD2
:0C00A00073005010F5BF73005010F5BF46
:10010000930705011CE57D5718E91CED1CF1233010
:10011000050082802330050282801C659CE5986B77
:1001200098E90CE78CEB88F11C6185071CE1828063
:100130009061FD576303F60293070501BE869C6735
:100140009863E37DE6FE9C669CE58CEB94E98CE687
:1001500088F11C6185071CE182801471EDB71C7168
:100160001465186998EA146514E798676308A7008E
:100170002330050288637D1588E38280186998E73B
:10018000C5BFAA87286509C5BC739C631D451D8D25
:100190008280411106E422E02A84EF00107F387843
:1001A0003C7C630AF7000144EF00D07F2285A26007
:1001B0000264410182800544C5BF411106E422E08A
:1001C0002A84EF00907C3C7889EB0544EF00907D19
:1001D0002285A2600264410182800144C5BF0111F1
:1001E00006EC22E826E44AE02A84B28403390507B3
:1001F00050611DE21C6199CB0145930719003CF841
:10020000E2604264A2640269056182800869EF00CD
:10021000106123380400D5B799EC0865EF20802FD2
:100220001C645860BA971CE4186863EFE7021C600E
:100230001CE42685D9B7086DEF20C02D1C6C5860D2
:10024000B306E040998F1CEC186063F5E7001C686A
:10025000B6971CEC89476384F400014579BF6307B6
:1002600009007D19014551BF268541BF014571B780
:10027000AA87506115C2411106E42E85986F329706
:1002800098EF946B6364D700986398EF8C6FEF20BE
:100290006028A260410182808280011106EC22E880
:1002A00026E4AA84EF00706E03C494081B14840132
:1002B0001B54844131A07D341B1484011B548441A0
:1002C000635C8000BC6489CB13858404EF00B03884
:1002D0007DD1EF003046C5B7FD57A384F408EF0089
:1002E000706CEF00906A03C484081B1484011B54D3
:1002F000844131A07D341B1484011B548441635C10
:1003000080009C7089CB13850402EF00D0347DD12E
:10031000EF005042C5B7FD572384F408EF00906802
:10032000E2604264A2640561828049C5797106F485
:1003300022F026EC2A84AE843C7DBDCF5461014777
:10034000B3B7D70281E709C7014585A80547E5BFCF
:10035000EF00B0631C60347C58603386E6023E9642
:1003600010E8233804061CE4FD163307D702BA97B9
:100370001CECFD572304F408A304F4089DE01C7052
:1003800089E7EF00306205450DA813050402EF0070
:10039000902C65D9930700083EE42800EF20401A0E
:1003A000CDB713050402EFF0BFD513058404EFF0B9
:1003B0003FD5C1BF014582800145A2700274E2644D
:1003C00045618280011106EC22E826E4B6843A8475
:1003D00099ED18E028FC4CE085452285EFF0FFF40C
:1003E000230C9408E2604264A2640561828010E3F9
:1003F000D5B7797106F44EE431C522F026EC4AE80F
:100400002A84AE84328981473337B50215EBA9E3DC
:10041000330594029307F0F563E1A7041305050A79
:10042000EF10406DAA891DCD2A87CA861306050ADA
:10043000A6852285EFF01FF90274E264426921A0CB
:100440008547F1B781494E85A270A26945618280D6
:1004500081490274E2644269FDB781490274E26431
:100460004269D5B70274E2644269F1BF1D7186EC3E
:10047000A2E8A6E4CAE04EFC2A84AE8932E4B6843F
:10048000014995A82686CE852285EFF05FD53C648C
:1004900081EF1DE5EF0010510545E6604664A66456
:1004A0000669E2792561828013058404EF00B01AA1
:1004B00075D1930700083EEC2808EF206008D9BFEB
:1004C000930700083EEC2808EF208007E1B7EF0013
:1004D000704D0145D9B70810EF00F02405490DA86B
:1004E00023040408A9A0A304040899A82285EFF016
:1004F000DFDAEF005079EF00504938783C7CE36355
:10050000F7F88947E380F4F8A267F1D3E30509FC23
:10051000EF005049EF00E06DEF003047834784085B
:100520009B9787019BD787417D57E38BE7FA8347EA
:1005300094089B9787019BD787417D57E385E7FA0E
:10054000EF0050462C000810EF10A0091DE5228591
:10055000EFF03FC441DDA26513050402EF00F0088F
:100560002285EFF09FD3EF00107251F5930700083A
:100570003EEC2808EF10D07CBDBF2285EFF0FFD104
:10058000EF007070014511BF0DC1411106E4233821
:10059000050023300500233C0500814601468145C6
:1005A000EFF0DFECA260410182808280411106E41D
:1005B00022E02A8681450545EFF0BFE32A84EFF06B
:1005C000BFFC2285A260026441018280011106EC19
:1005D00022E84AE02A843289368638793C7D636B8A
:1005E000F70089476388F6000145E26042640269CA
:1005F0000561828026E4834494089B9484019BD403
:1006000084413C782285EFF09FBDFD576393F4024F
:100610003C6481E70545A264C9BF13058404EF006B
:10062000900315C56308090205452330A900A2649B
:100630006DBFEF00205D63F2A40285249B948401CA
:100640009BD48441A30494080545A26479BF054561
:10065000A26461BF0545A26449BF0545A26471B7A4
:100660001D7186ECA2E8A6E4CAE04EFC2A84AE899D
:1006700032E40149ADA8CE852285EFF07FBFFD149D
:1006800024F81C7099EBEF00F0310545E6604664F4
:10069000A6640669E2792561828013050402EF00F1
:1006A000807B75D1930700083EEC2808EF10506955
:1006B000D9BFEF00302F0145D1BF0810EF00B006C1
:1006C000054935A82304040891A8A304040885A0BB
:1006D0002285EFF09FBCEF00105B11A82285EFF0A0
:1006E000DFBBEF00505A2285EFF03FAD35EDEF0054
:1006F000D0292478C9F0A267CDDFE30009FCEF0020
:10070000702AEF00004FEF005028834784089B9722
:1007100087019BD787417D57E386E7FA8347940893
:100720009B9787019BD787417D57E380E7FAEF00CE
:1007300070272C000810EF00D06A4DF12285EFF0F1
:10074000DFA759D5A26513058404EF00006A22854E
:10075000EFF0BFB4EF00305359F9930700083EECB7
:100760002808EF10F05D61B701450DB75D7186E4B3
:10077000A2E026FC4AF82A842EE40149814479A0AB
:10078000FD173CF81C6081CF1C7091EFEF009021A9
:100790000545A6600664E274427961618280EF00DB
:1007A000106C08E8D5B713050402EF00C06A79DDC4
:1007B000930700083EEC2808EF109058C1BFEF00E7
:1007C000701E0145F9B70810EF00E0758544B1A02F
:1007D0002304040895A0A304040885A8EF00F01AD8
:1007E0000868EF00A0752A89EF00D01BA5A8228514
:1007F000EFF0BFAAEF00304911A82285EFF0FFA962
:10080000EF0070482285EFF05F9B3DEDEF00F017A1
:100810003C78BDF7A267C5D7DDD4EF00B018EF0074
:10082000403DEF009016834784089B9787019BD734
:1008300087417D57E38EE7F8834794089B978701AC
:100840009BD787417D57E388E7F8EF00B0152C0070
:100850000810EF00105955F12285EFF01F9641D98D
:100860001C60ADDFA26513058404EF0000582285EB
:10087000EFF0BFA2EF00304151F9930700083EECC2
:100880002808EF10F04B59B763140900014511B760
:10089000EF00B00F2285EFF0DF8EAA850868EF0029
:1008A0005002EF003010DDB781C50146814739A005
:1008B00082801386819536961DA885071D4763673C
:1008C000F702939647001387819536971867E302DE
:1008D000A7FE65F6939647001387819536971863B0
:1008E00069FF138781953386E600C1BF19C20CE208
:1008F00008E68280011106EC22E826E44AE02A8418
:10090000AE843289EF007008834784089B97870183
:100910009BD787417D576388E702834794089B975D
:1009200087019BD787417D576382E702EF009007DD
:100930003C7885C32285EFF05F96E2604264A26452
:1009400002690561828023040408C1BFA30404086E
:10095000F1BF4A86A68513058404EF00404BD9BF3A
:1009600083B7818D9C6389E7FD5723B0F18882802E
:1009700083B7818D9C6F9C6323B0F1888280411185
:1009800006E422E02A842871EF1080242285EF10EB
:100990002024A260026441018280397106FC22F8A1
:1009A00026F44AF04EEC52E856E45AE0AA8AAE84A5
:1009B000368B3A893E8A4284931936004E869305D7
:1009C000500A03350806EF10B0333C70E119BE99A8
:1009D00093F909FF9DC081483D48636E1801338833
:1009E00014010308080033031401230403076304FC
:1009F00008008508D5B7A30B0406994763F32701C0
:100A00003E89233C24052338240913058400EFF094
:100A10006FF013050403EFF0EFEF00F09D47B3878D
:100A200027411CF820E45A86D6854E85EF20402DBC
:100A300008E063040A0023308A00E2704274A27462
:100A40000279E269426AA26A026B216182805D7169
:100A500086E4A2E026FC4AF84EF452F056EC5AE83E
:100A60005EE4AA892E8A3289B68A3A8BBE8B131528
:100A70003600EF102008AA8439C51305800AEF104C
:100A800060072A840DCD1306800A8145EF10502798
:100A900024F081482288DE875A87D6864A86D28506
:100AA0004E85EFF09FEF2285A6600664E2744279DE
:100AB000A279027AE26A426BA26B6161828026852A
:100AC000EF100011CDB72A84F9BF411106E422E0EE
:100AD000014421A893172400A29713973700138588
:100AE00001AA3A95EFF0CFE105049947E3F487FEB8
:100AF000138581A7EFF0CFE0138501A5EFF04FE05C
:100B0000138581A2EFF0CFDF138501A0EFF04FDF57
:100B10001385819DEFF0CFDE938781A723BCF18CF5
:100B2000938701A523B8F18CA26002644101828001
:100B3000797106F422F026EC4AE84EE452E02A8469
:100B4000AE8403B9818B83B9818D03BA018D9387FC
:100B5000018E9863A302070A88632105EFF02FE056
:100B600011ED83B7018EB86F8547B397E70093C740
:100B7000F7FF9386018B9862F98F9CE2FD5763061D
:100B8000F4024A9483B7018E80E76377240583B526
:100B9000018EA1055285EFF0AFD9A2700274E26414
:100BA0004269A269026A45618280E1DC1387819D06
:100BB00014679387018E906314EA90638C6A0CEE3D
:100BC0009063210690E59063210690EA9C6398F774
:100BD0001C6385071CE3D1B783B5018EA1054E8543
:100BE000EFF00FD583B70188E379F4FA23B0818859
:100BF0006DB7138701871C6385071CE3828003B5EB
:100C0000818B828003B5018C828083B701876392D8
:100C10000714411106E422E09387818B8063050469
:100C200080E315CC83B70188637BF404014583B767
:100C3000018EB86F93172700BA97139737009387E1
:100C400001AABA979863854763F3E7003E8583B7A7
:100C5000818963970710A260026441018280138733
:100C6000818D14639387018D906310E394E3138760
:100C700001891C6385071CE3EFF09FCE65B7014532
:100C8000BDA8FD5723B0F1885DB723B0E18845B713
:100C9000946F14E759A823B807041463FD1614E3EE
:100CA000B46F05473317D7001386018B033806004E
:100CB0003367070118E2138701AA139626003696B8
:100CC00093163600BA96946694EB906A90EF0CE611
:100CD0008CEAAC6F939625003388B6001316380063
:100CE0003A9690F710620506931538002E9710E398
:100CF000B86F83B7018EBC6F63F3E700054583B718
:100D0000818D9C63BDDF83B7818D9C6F9C6F9867DD
:100D1000E36DE4F69877906B946F14EA906B90E62D
:100D2000146793858700E385B6F623B4070214633E
:100D3000FD1614E3B86B2DD7907FB46314EA907F4F
:100D400090E6106793860703E317D6F4B46314E7BD
:100D500099B71387018A1C6385071CE301458280CC
:100D60000545D5BD83B7018789C7854723BCF18871
:100D7000828023BC018883B7018B8127B1CF0147D3
:100D800021A005279B971700E3DD07FE02170193BB
:100D9000FD47998F938501AA939627003386F60025
:100DA000131736002E971067106610E7BE9613973C
:100DB000360041072E976304E60213972700BA977F
:100DC00013973700938701AABA979C67986F938708
:100DD000018E98E39C6382801307000245BF8E0654
:100DE0003387D500146F14E7C9BF411106E422E030
:100DF0002E8483B5018E93850503EFF06FB385458F
:100E00002285EFF0FFD2A26002644101828041118D
:100E100006E4AA872E85B28594671387018E106336
:100E200014FE106303B80601233006051063130691
:100E300006032334C80010631306060390EA186300
:100E40003CEB9863050798E391C17D55EFF05FCEC9
:100E5000A260410182801C6D9C6FB86B907FB4636F
:100E600014EA907F90E61467138607036388C60828
:100E700023B807041463FD1614E303B7018749E799
:100E80009877906B946F14EA906B90E61067938656
:100E900087006308D60623B4070210637D1610E3AB
:100EA000AC6F05473317B7001386018B0862498F73
:100EB00018E2138601AA139725002E970E07329782
:100EC000186798EB0C6B8CEF94E514EBAC6F1397F1
:100ED0002500B306B7008E06B29694F79462850695
:100EE0002E970E073A9614E2B86F83B7018EBC6F47
:100EF00063F9E702054523BCA1888280B46314E747
:100F000085BF906F10E741BF138781A2146794FFDC
:100F10008C6AACE390E590EAB8EB1463850614E3C1
:100F2000E1B70145828083B701891CE183B7818BDA
:100F30001CE58280854723BCF1888280630D050C07
:100F4000011106EC22E82A84386D83B7018EBC6F4C
:100F5000637BF70A1C799396070263C8060083B780
:100F6000018EB46F9D47958F1CF914749317270059
:100F7000BA978E07138701AABA97638BF60083B7D7
:100F8000018EBC6F3CEC0545E260426405618280E5
:100F900026E4930484002685EFF06F9C01ED386C05
:100FA0008547B397E70093C7F7FF1387018B146357
:100FB000F58F1CE383B7018EB86F38EC0545B31786
:100FC000E5009386018B9062D18F9CE2938601AA03
:100FD00093172700BA978E07B6979C671CE8986B03
:100FE00018EC04E784EB306C931726003387C700B6
:100FF0000E07369718F418632A97B2978E07BE9695
:1010000098E2A26451B7586983B7018EBC6F6366DA
:10101000F700014595BF014582800545B5B751CD23
:10102000011106EC22E82A845C6DFD175CED346D3D
:1010300058696386E60891C70145E260426405612C
:10104000828026E4930485002685EFF04F9101ED20
:10105000386C8547B397E70093C7F7FF1387018B79
:101060001463F58F1CE3586838EC9D47998F1CF882
:101070000545B317E5009386018B9062D18F9CE202
:10108000938601AA93172700BA978E07B6979C6795
:101090001CE8986B18EC04E784EB306C931726007F
:1010A0003387C7000E07369718F418632A97B2974C
:1010B0008E07BE9698E2A26449B701458280014539
:1010C000ADBF79C1011106EC22E826E42A845C69EF
:1010D00063F3B700AE87246C6386F400546C054755
:1010E0006387E600E2604264A264056182803CECB2
:1010F00018789316070263C606001D47B307F7402A
:101100001CF8187493972400A6978E07938601AA5B
:10111000B697E319F7FC4AE0130984004A85EFF01B
:101120000F8419E98547B397970093C7F7FF138793
:10113000018B1463F58F1CE3386C8547B397E70088
:101140009386018B9062D18F9CE2938601AA9317BC
:101150002700BA978E07B6979C671CE8986B18EC27
:101160002334270123B82701306C931726003387D7
:10117000C7000E07369718F418630507B2978E0755
:10118000BE9698E20269B9BF82807370011083B77E
:10119000818A81CB1387018E1463BC7E8507BCFED8
:1011A0001C63828083B7818A85C383B7018EBC7F2D
:1011B00081CF1387018E1463BC7EFD17BCFE1C63B8
:1011C000BC7F99E3736001108280011106EC22E874
:1011D0002A84EFF09FFB1387018C1C6385071CE3B7
:1011E00083B7018E89CF83B7818A8DE383B7018E60
:1011F000B86F3C6C63ECE70023B0818E01A823B08C
:10120000818E03B7018C8547630DF70613878188AC
:101210001C6385071CE35CE0386C8547B397E700E7
:101220009386018B9062D18F9CE2938601AA9317DB
:101230002700BA978E07B6979C671CE8906B10EC56
:101240001307840018E698EB306C93172600338759
:10125000C7000E07369718F418630507B2978E0774
:10126000BE9698E2EFF01FF483B7818A99C783B7DF
:10127000018EB86F3C6C6369F700E26042640561FF
:101280008280EFF09F8459B7930700083EE428005E
:10129000EF10002BDDB7411106E4EFF04FFB19C54D
:1012A000EFF0BFF20545A260410182807D55E5BFA8
:1012B000011106EC22E802E002E48147394763614C
:1012C000F70217270000130767AD3E9703070700D3
:1012D000938607018A962388E6FE19C38507F9BF1E
:1012E000C1078A97238807FE01440545635680009D
:1012F000E26042640561828093173400138781871E
:10130000BA9701478146130600208A851705000019
:1013100013050517EFF03FF88547E31BF5FC3E94F6
:10132000F1B7411106E4EFF0BFF885476309F50016
:101330009727000083B707E9A26041018280EF0090
:10134000A0668547E316F5FE73700110FD5723B0C4
:10135000F188854723B4F18A23BC018AEF00A06B92
:10136000C1BF797106F422F026EC2A84EFF0FFE188
:1013700059C4930484002685EFE07FDE0DE5346CCC
:1013800093972600B6978E07138701AABA979C6396
:1013900099EB8547B397D70093C7F7FF1387018B66
:1013A0001463F58F1CE33C6889C713050403EFE061
:1013B0001FDB138781881C6385071CE383B7018EBD
:1013C00063828704014783B7818A91C315EF13872E
:1013D000018C1C63FD171CE3EFF08FD8EFF09FDC4E
:1013E0002285EFF0CFD983B7818A89C783B7018E71
:1013F00063898702A2700274E2644561828003B44B
:10140000018E85BF0547C1B7A685138501A0EFE012
:10141000DFD01387818C1C6385071CE3EFF09FD816
:10142000D9B7930700083EE42800EF106011D9B740
:1014300083B7818CB9C3411106E422E0EFF0FFD4F9
:1014400083B781A1806F13058400EFE05FD113871C
:10145000018C1C63FD171CE31387818C1C63FD1733
:101460001CE3EFF03FD42285EFF06FD183B7818C7E
:10147000F1F7A2600264410182808280411106E49A
:10148000EFF01FFBF5BF011106EC22E8EFF0FFCFF4
:101490009387018798637D1798E39C636391071096
:1014A00083B7018C89EB0144E5A8B46314E735A048
:1014B000906F10E799A0814703B781A255C383B706
:1014C00001A49C6FB86B907FB46314EA907F90E6A0
:1014D000106793860703E30AD6FC23B80704146356
:1014E000FD1614E39877906B946F14EA906B90E676
:1014F000106793868700E30DD6FA23B407021063C2
:101500007D1610E3AC6F05473317B7001386018BC8
:101510000862498F18E2138601AA139725002E97B7
:101520000E073297186798EB0C6B8CEF94E514EB71
:10153000AC6F13972500B306B7008E06B29694F7EA
:10154000946285062E970E073A9614E2B46F03B79D
:10155000018E386FE372D7F6054723BCE188A9BF37
:1015600099C3EFF0EFBF03B4018A05E003B48189AA
:1015700005C883B7018E930700083EE42800EF00FA
:10158000307C054431A87D1401C8EFF00FE865DD1B
:10159000854723BCF188C5BF23B0018AC1BF014480
:1015A000EFF05FC02285E260426405618280011134
:1015B00006EC09CD22E82A84EFF0AFE381452285CD
:1015C000EFF00FD7EFF03FEC19E942649307000802
:1015D0003EE42800EF00D076E2600561828042643C
:1015E000E5BF011106EC22E826E42A84AE84EFF080
:1015F000DFB903B7818B1C643306F74083B6018ED5
:1016000083C6560A91CE83B7018EA382070A05448A
:10161000EFF05FB92285E2604264A26405618280D6
:101620009460FD55638BB602086083B50189630839
:10163000B5006366F70023B004000544D1BF6366BC
:10164000D60023B004000544E1B7998FB6979CE01B
:101650002285EFF05F8D014465BF014455BF03B59E
:10166000018E01C55C6D85075CED828003B78190BA
:101670001C6399E785471CE191E71C6F88638280B2
:101680008147D5BF01458280411106E40CE508F190
:101690006362B602158E1C796366F6000545A2608A
:1016A000410182809305850003B50190EFE05FA8BA
:1016B0000145F5B76374D60063FAD500930585003C
:1016C00003B58190EFE0DFA60145D1BF0545C1BF5D
:1016D000011106EC22E826E44AE02A84AE8432892D
:1016E00031A01C78BE943C60228582970C78A68637
:1016F0004A86A6952285EFF03FF965F5E2604264DF
:10170000A264026905618280011106EC22E826E4E8
:101710004AE0AA842E8983B781909C6F806F13055D
:101720008400EFE0DFA38347040513F7470009EFC8
:10173000F99B2308F4043C6022858297E2604264AE
:10174000A2640269056182804A86A6852285EFF03F
:101750003FF8D5B783B7819098630DC7411106E470
:101760009C6FFD558863EFF03FFA83B781909863D3
:1017700065FB13870190146323B4D1901CE3A2602E
:101780004101828013870190146323B4D1901CE33C
:101790008280011106EC22E826E4AA84EFF02FC62D
:1017A0002A8483B7818E636CF50023B0040023B4D0
:1017B000818E2285E2604264A26405618280EFF03E
:1017C0007FF985479CE0E5B7797106F422F04AE895
:1017D0002A892E84EFF0EFC12800EFF09FFBA2676B
:1017E000B1EF26ECAA841DE8637225032286B305B7
:1017F000994003B5818FEFF0EF8FEFF0DFC81DC583
:10180000E264A2700274426945618280EFF0BFC752
:10181000A6854A85EFF05FEFE264E5B703B7019074
:10182000186319E30544D9B73E84C9B79307000884
:101830003EE00A85EF00D050E264E1B7EFF0BFC4AC
:10184000C9B75D7186E4A2E026FC02E802EC02F072
:1018500002F401460C0803B5818FEFE07FE069C90F
:10186000C26763CE0702C267E3C507FE027475D084
:101870001C7489C713058400EFE07F8E2800EFF009
:101880005FF1AA84C2672547E365F7FC8A0717273B
:10189000000013076789BA979C43BA978287A255BD
:1018A0000275E2678297C1B78347040593E7170083
:1018B0002308F404E2660C782A86B6952285EFF0B8
:1018C000BFDC41D98347040513F7470001EBF99BBF
:1018D0002308F4043C6022858297A5BF1C782686E5
:1018E000E265BE952285EFF0BFDEEDB783470405C4
:1018F000F99B2308F404B1BF8347040593E717005D
:101900002308F404E2650CF8AA862A86AA952285A3
:10191000EFF09FD73DBF8347040513F7270009C7A2
:10192000F99B2308F40435B72285EF00602A15B728
:10193000A6600664E27461618280011106EC2800F1
:10194000EFF0DFD2A265EFF03FE8EFF09FEFC5BF09
:10195000411106E4EFF07F8383B7818F91C7EFF0E9
:101960007F84A26041018280138501BEEFE04FF9C0
:10197000138581BBEFE0CFF8938701BE23B4F190CC
:10198000938781BB23B0F19001469305000219456E
:10199000EFE03FA623BCA18E79D197150000938577
:1019A0006540EFE07FF065BF411106E4EFF05FFABC
:1019B00083B7818F85C79387018F194781461306A7
:1019C000E006971500009385653E17050000130596
:1019D00005F7EFF05F8CA260410182800145E5BF11
:1019E000732710C09387019198E388638280411127
:1019F00006E4EFF0FFFE8967938707713E95EF00DD
:101A00001033A26041018280411106E4EF00B03240
:101A1000A26041018280411106E4EFF05FFD93076F
:101A2000000273A04710736041109307002073A059
:101A30004710EF10E01C0145A260410182807370E5
:101A4000011001A0176700001307C7BA9377F700CA
:101A5000A9C7976600009386D6BAC19AD1679387C3
:101A60000788958FBA97368797660000938686B762
:101A700098E223B40600BA97C117C19B23BCF19228
:101A800023B4070023B00700B386E74014E71CE344
:101A900023B4D19223B8D1928280D16793870788EB
:101AA000E1B7976700009387E7B33E879C63E3EE57
:101AB000A7FE14673306D700630CA600146533062F
:101AC000D500638CC7001CE16303E50008E3828056
:101AD0001065B29614E73A85D5B703B6819363894A
:101AE000C7009C67BE9614E51C639C631CE1E9BFBC
:101AF00010E1D9BF011106EC22E826E42A840DC1C9
:101B0000BD5763EEA700130405019377F40089CB5A
:101B100041471D8FBD1763E787023A9411A0014426
:101B2000EFF02F8D83B7819385C3634B040859C8A9
:101B300003B60193636A860897660000938686AAB7
:101B40009C6201A80144E9BFEFF0DFEFF9BFBE8658
:101B5000BA87986763748700986375FB03B78193AE
:101B60006306F7068462C104986398E29867018F60
:101B70009305000263F9E500B385870098E580E7E7
:101B8000986298E18CE29867198E23B8C19283B667
:101B900081926374D60023B4C192FD56FE16558F10
:101BA00098E723B00700138701921C6385071CE3A5
:101BB000EFF07F8D2685E2604264A2640561828039
:101BC0008144FDB78144EDB78144DDB78144CDB791
:101BD00029CD011106EC22E826E42A84930405FFAE
:101BE000833785FF63C70700E2604264A264056132
:101BF0008280033705FF6DFB7D570583F98F233CFA
:101C0000F5FEEFE01FFF833684FF138701931C630B
:101C1000B6971CE32685EFF0DFE8138781911C63FC
:101C200085071CE3EFF03F86C1B78280797106F427
:101C300022F02A8463430504014437D7CCCC130730
:101C4000D7CC93170702BA97B337F50213D73700EB
:101C500093162700369706073307E5401B0707034F
:101C6000930604028A9605242384E6FE2A8713D568
:101C70003700A547E3E3E7FC15A01305D002EF000A
:101C8000407C330580404DBF9B07F4FF3E84938723
:101C900007028A97038587FEEF00A07AE34680FE5D
:101CA000A270027445618280011106EC22E826E4EC
:101CB0002A8401A89304140003050400EF0060784F
:101CC00026848307040081CB2947E395E7FE354549
:101CD000EF002077C5B7E2604264A26405618280AC
:101CE000011106EC22E826E4AA841715000013056A
:101CF000650CEFF07FFB1304C003014721A8171701
:101D000000001307A74ABA9703850700EF00607326
:101D10000547713463490400B3D78400BD8BE5F3F4
:101D200079FF65F8E9BFE2604264A26405618280E0
:101D3000411106E4EF00806FA26041018280597179
:101D400006F422F026EC2A842EFCB2E0B6E4BAE8CF
:101D5000BEECC2F0C6F43C183EE419A829476383E0
:101D6000E7069304140003050400EF00806D268449
:101D700083070400CDCF13075002E391E7FE9304DD
:101D8000240083071400130750026386E70863CA20
:101D9000E708130780076346F7081307300663C296
:101DA000E7089B87D7F993F6F70F5547636BD7067C
:101DB000939726001717000013078739BA979C439B
:101DC000BA9782873545EF00C06761BFA267138766
:101DD00087003AE48863EFF0BFF0268451BFA26722
:101DE000138787003AE48843EFF05FE4268449B71D
:101DF000A267138787003AE48863EFF0FFEA26843E
:101E000085BFA267138787003AE403850700EF00C8
:101E100040632684B1BF13055002EF008062268420
:101E200081BF1305F003EF00C061268491B7A27053
:101E30000274E264656182802A87014511A005254C
:101E4000931705028193BA9783870700EDFB828081
:101E5000014721A8931707028193B386F500AA973B
:101E600083C606002380D70005279307F003E3F31A
:101E7000E7FE8280814701A81397070201932A9702
:101E80002300070085271307F003E377F7FE82801E
:101E9000011106EC22E826E42A84AE842E85EFF0B8
:101EA000BFF99307800263F3A7003E8548C401474A
:101EB00021A8931707028193B386F4008386060056
:101EC000A297238CD7000527E365A7FEE260426452
:101ED000A264056182800328C6006364B8001B8881
:101EE000F5FF9307800263F307013E88014721A8AD
:101EF000931707028193B306F500B2978387870192
:101F00002380F6000527E36507FF0218135808022F
:101F10004295230005008280411106E401469305A5
:101F200000042145EFE0EFCC23B4A1940545EFE098
:101F3000EFE723B0A194014729A89316470097978C
:101F40000100938727F3B69723A0070023B4070067
:101F500005279D47E3D3E7FE83B5819489CD01CD65
:101F60002146B285171500001305C5E7EFF03FDDE8
:101F7000A260410182802A8617150000130505E43E
:101F8000EFF0FFDBF5B7CDC1814711A085271D47D5
:101F9000634CF7029396470017970100130787EDEC
:101FA0003697186765D7179701001307A7EC369780
:101FB0001843E31DA7FC179701001307A7EBB3070E
:101FC000D7008CE701458280411106E401469D4718
:101FD00063CFC7021317460097970100938787E9DD
:101FE000BA979C6799C30526DDB797970100938739
:101FF00067E8BA9788C38CE7931505028191171596
:1020000000001305A5E0EFF09FD3014519A8931533
:102010000502819117150000130545E1EFF03FD24D
:102020007D55A260410182807D558280597186F480
:1020300082E483B78194C1CF93079005E607984364
:102040000127B7574151938707D56312F7089307C4
:102050009005E607DC4381270547639AE706A2F06F
:10206000A6EC09A88365810117150000130585DE1C
:10207000EFF0FFCC93079005E60780470124DC478B
:1020800081276302F4049375F4030F0030039A056B
:10209000B7270B008507B2072400BE952685EFF011
:1020A0003FDB0F003003052493079005E60780C748
:1020B0008146B000A68503B58194EFE02FD1854716
:1020C000E30AF5FA45B7A66791E70674E664A670D9
:1020D00065618280EFE01FC90674E664CDBF01111F
:1020E00006EC22E803B4019455C426E4AA849307BD
:1020F0009005E60798430127B7574151938707D5C5
:102100006315F70893079005E607DC438127054729
:102110006390E708FD552285EFE04FE585476310A2
:10212000F50893079005E607984B9B050700DC4BE5
:102130001B860700999F1307F0036368F702137467
:10214000F6031A04B717005986073E942285EFF06C
:102150007FD2C167938707101CC044C0930700203B
:102160001CC4232A0400A26435A01715000013051F
:1021700065D1EFF0DFBC81460146814503B501948E
:10218000EFE0CFAE0144A26431A00144A26419A0E3
:102190000144A2642285E2604264056182800144B8
:1021A000A264CDBF93079005E607D04B1B0706003E
:1021B0001376F6031A06B717005986073E9631C9FB
:1021C000411106E46317A6020F00300305279307A9
:1021D0009005E607D8CB0145EF00C02481460146B3
:1021E000814503B50194EFE06FA80145A26041016C
:1021F0008280AA85171500001305C5CBEFF03FB408
:1022000081460146814503B50194EFE02FA67D5537
:10221000F1BF7D5582805D7186E43DA885271D470D
:10222000634AF7029396470017970100130787C484
:1022300036971467E5D613964700179701001307E2
:1022400067C3329710431247E31AE6FC0A85829669
:10225000854711A0814781CF7D568A8503B581943A
:10226000EFE00FC08547E319F5FE81474DBF0366D8
:1022700001018365410017150000130525C6EFF025
:102280001FACD9BF5D7186E4A2E026FC2A842A86B1
:10229000930590020A85EFF01FC48A870367040143
:1022A00083668400036644008365040017150000FC
:1022B0001305C5C5EFF0BFA80840EFF05FE215C5F4
:1022C000AA841C441CC51C481CC9232A0500971558
:1022D00000009385A5C8EFF0BFBB2685EFF09FEC0B
:1022E000A6600664E2746161828017150000130520
:1022F00065C5EFF0DFA4EDB7411106E409651305EC
:102300008532EFF0CFAA13050010EFF05FDD39C181
:1023100022E02A84930700201CC5916785071CC909
:10232000232A050097150000938545C6EFF05FB698
:1023300083650401171500001305C5C6EFF03FA023
:102340002285EFF03FE60145EFF0AF810264A26025
:1023500041018280171500001305C5C1EFF03F9EB3
:102360000145EFF00F80E5B7797106F4EF00A01694
:102370001DC522F02A8402E4B1476305F502B54782
:102380006303F504AA85171500001305A5C6EFF031
:102390001F9B2285EF00A014A267A1EF0274A27018
:1023A00045618280EF00C00CE34505FE83B70195CF
:1023B000F5DBA303A10081463000930571003E8543
:1023C000EFE0CFA0C5B726ECEF00A004AA84EF0091
:1023D000C00493950402819117150000130505BFF1
:1023E000EFF0FF9599C0E2646DB7EFF03FC4E2648F
:1023F0004DB7EFE03F9702745DB7411106E48545A4
:102400003545EF00800E3545EF00C00AA26041015E
:102410008280B747001088478280B7470010054781
:1024200098C78280B7470010C8C38280B7270010C2
:10243000A38007000D47A381E7001D472381E70024
:102440008280B727001083C7570093F70702F5DB98
:102450001375F50FB72700102380A7008280B727D8
:10246000001003C7170013671700A380E7008280DE
:10247000B727001083C75700858B91C7B727001077
:1024800003C5070082807D5582806357A0000A053E
:10249000B707000C3E950CC18280411106E4B7F7E6
:1024A000200C23A0070085453145EFF01FFEA260F8
:1024B000410182806350A002935755008A07372755
:1024C000000C13070778BA978546BB96A600984379
:1024D000558F98C38280B7F7200CC843828063551C
:1024E000A000B7F7200CC8C38280411106E4EFF0CA
:1024F000DFF9A26041018280014582808280828072
:10250000AA8729A02380B70085073A861307F6FF1C
:1025100075FA8280AA8701A883C605002380D700A8
:10252000850585073A861307F6FF7DF68280814888
:1025300073000000828001458D4873000000828096
:102540009148730000008280411106E417150000D5
:102550001305C5ABEFF0AFFE814711478146056615
:102560001306068097150000938545AB17050000FC
:102570001305650DEFE03FD281471147814605669F
:1025800013060680971500009385C5A9170500005E
:1025900013052509EFE03FD08147154781460566C1
:1025A0001306068097150000938545A817050000BF
:1025B00013050511EFE03FCE81471547814613060D
:1025C000002097150000938565A7170500001305E7
:1025D000C5C4EFE05FCC8147114781461306002058
:1025E00097150000938505A717050000130505D171
:1025F000EFE07FCA814711478146130600209715F7
:102600000000938525A61705000013050506EFE0D9
:102610009FC80145EFE0FFD4A260410182804111D3
:1026200006E422E081451B84150017150000130500
:10263000E5A4EFF0CFF01305803EEFE05FF7A28551
:10264000DDB7411106E422E081451B841500171512
:1026500000001305A5A3EFF08FEE1305803EEFE019
:102660001FF5A285DDB7411106E405651305853820
:10267000EFE0FFF3A9659385A55517150000130535
:10268000E5A1EFF0CFEB29651305A555EFF09FD934
:102690001305007DEFE0BFF19305B00217150000B0
:1026A0001305C59FEFF0AFE91305B002EFF09FD718
:1026B0000145EFE01FCBA26041018280011106ECD1
:1026C0007D569305F10003B50195EFD07FF985475D
:1026D000E318F5FE0306F1009375F60F17150000D9
:1026E0001305C59EEFF0AFE5E1BF411106E4EFF041
:1026F0002FE4171500001305659EEFF04FE4EFF08F
:10270000DFD93145EFF01FDBEFF03FCFEFF0DF8097
:1027100097050000938545B7416513050510EFF057
:102720009F8621E10146854513050004EFD07FCC4B
:1027300023B8A194EFF0BFD2814711478146130619
:102740000010971500009385659D1705000013057F
:10275000E5DFEFE05FB4EFE0DFBC0145A2604101DF
:102760008280171500001305E598EFF04FDD5DBF7F
:102770000000000000000000000000000000000059
:102780000000000000000000000000000000000049
:102790000000000000000000000000000000000039
:1027A0000000000000000000000000000000000029
:1027B0000000000000000000000000000000000019
:1027C0000000000000000000000000000000000009
:1027D00000000000000000000000000000000000F9
:1027E00000000000000000000000000000000000E9
:1027F00000000000000000000000000000000000D9
:10280000417106E416E81AEC1EF022F426F82AFCC0
:10281000AEE0B2E4B6E8BAECBEF0C2F4C6F8CAFC68
:102820004EE152E556E95AED5EF162F566F96AFD50
:10283000EEE1F2E5F6E9FAEDFEF1F322001096F58D
:10284000F3230010996233F353006312530482B9E7
:1028500086BD0AA20EA612AA16AE1AB21EB622BAD9
:1028600026BEAAA2AEA6B2AAB6AEBAB2BEB6C2BAC8
:10287000C6BE4AA34EA752AB56AF5AB35EB762BBB1
:1028800066BFEAA3EEA7F2ABF6AFFAB3FEB791626A
:1028900073A00210896273B00210F322101416E0C4
:1028A00083B2018E23B0220073252014F325101467
:1028B0001356F50331CA2EE08542FE12138312002F
:1028C000631B65001711000003314190EFF0CF93B7
:1028D000EFE04FC991A81103631E650017110000B6
:1028E0000331C18EEFF0AF90EFE02FB215CDEFE0E6
:1028F0006FC71DA81103631B65001711000003318A
:10290000E18CEFF07FA60DA091052EE07325201439
:10291000F3251014732630140A87171100000331B1
:10292000E18AEF00E00D09A003B3018E033103003B
:10293000826273901214F3230010AE72739002102F
:10294000996233F35300631253044E30EE30122178
:10295000B2215222F2221233B2335234F23416250B
:10296000B6255626F6261637B6375638F6381A29BB
:10297000BA295A2AFA2A1A3BBA3B5A3CFA3C1E2D6B
:10298000BE2D5E2EFE2E1E3FBE3FA260C26262635F
:1029900082732274C274627586652666C66666672F
:1029A00086772678C67866798A692A6ACA6A6A6BDF
:1029B0008A7B2A7CCA7C6A7D8E6D2E6ECE6E6E6F8F
:1029C0008E7F7D6173002010130000001300000053
:1029D00013000000130000001300000013000000AB
:1029E000130000001300000013000000130000009B
:1029F000130000001300000013000000130000008B
:102A00006F0000001300000013000000130000001E
:102A1000130000001300000013000000130000006A
:102A2000130000001300000013000000130000005A
:102A3000130000001300000013000000130000004A
:102A4000130000001300000013000000130000003A
:102A5000130000001300000013000000130000002A
:102A6000130000001300000013000000130000001A
:102A7000130000001300000013000000130000000A
:102A800013000000130000001300000013000000FA
:102A900013000000130000001300000013000000EA
:102AA00013000000130000001300000013000000DA
:102AB00013000000130000001300000013000000CA
:102AC00013000000130000001300000013000000BA
:102AD00013000000130000001300000013000000AA
:102AE000130000001300000013000000130000009A
:102AF000130000001300000013000000130000008A
:102B00006FF09F8682801300000013000000130006
:102B10000000130000001300000013000000130069
:102B20000000130000001300000013000000130059
:102B30000000130000001300000013000000130049
:102B40000000130000001300000013000000130039
:102B50000000130000001300000013000000130029
:102B60000000130000001300000013000000130019
:102B70000000130000001300000013000000130009
:102B800000001300000013000000130000001300F9
:102B900000001300000013000000130000001300E9
:102BA00000001300000013000000130000001300D9
:102BB00000001300000013000000130000001300C9
:102BC00000001300000013000000130000001300B9
:102BD00000001300000013000000130000001300A9
:102BE0000000130000001300000013000000130099
:102BF000000013000000130000001300000001009B
:102C00009702000083B2825F7390521003B1018E6D
:102C1000026182604E30EE301221B2215222F22245
:102C20001233B2335234F2341625B6255626F62620
:102C30001637B6375638F6381A29BA295A2AFA2AD0
:102C40001A3BBA3B5A3CFA3C1E2DBE2D5E2EFE2E80
:102C50001E3FBE3F626382732274C27462758665D2
:102C60002666C666666786772678C67866798A6934
:102C70002A6ACA6A6A6B8A7B2A7CCA7C6A7D8E6DE4
:102C80002E6ECE6E6E6F8E7FAE7293E222007390C8
:102C90000210C2627D6182801300000013000000F8
:102CA00013000000130000001300000013000000D8
:102CB00013000000130000001300000013000000C8
:102CC00013000000130000001300000013000000B8
:102CD00013000000130000001300000013000000A8
:102CE0001300000013000000130000001300000098
:102CF0001300000013000000130000001300000088
:102D0000F3220010170300000333434D8323030015
:102D1000B3E2720083234300B3F2720093F2D2FF56
:102D200013030012B3E26200130505F061152330AE
:102D30005500130505F510E1130505FD9702000088
:102D400083B2C24E2330550061150CE18280FF9F93
:102D5000FFFF002000000000000000000000000055
:102D60000000000000000000000000000000000063
:102D70000000000000000000000000000000000053
:102D80000000000000000000000000000000000043
:042D9000000000003F
:102D980049444C4500000000546D72510000000089
:102DA800546D7220537663003078000000000000F4
:102DB80069636320696E6974206661696C65643A49
:102DC8002071756575653D2570206D757465783D54
:102DD80025700A000000000069636320696E697449
:102DE8003A2071756575652064657074683D256461
:102DF8002068616E646C6572733D25640A0000008A
:102E08006963632072656769737465723A206570D7
:102E18003D257820736C6F743D25640A000000001E
:102E28006963632072656769737465722066616996
:102E38006C65643A207461626C652066756C6C2000
:102E480065703D25780A0000696363206973723AEA
:102E58002064697370617463682071756575652095
:102E680066756C6C2C2064726F7020636F6F6B6971
:102E7800653D25780A000000696363206C6F616E08
:102E8800206661696C65643A20746F5F78763620D5
:102E980066756C6C20686561643D256420746169A1
:102EA8006C3D25640A0000006963632073656E64E5
:102EB800206661696C65643A206D73673D257020F2
:102EC80065787065637465643D25700A00000000CC
:102ED8006963632064697370617463683A206E6F14
:102EE8002068616E646C657220666F72206473740A
:102EF8003D257820636F6F6B69653D25780A000072
:102F0800696363206563686F3A207278207372631F
:102F18003D2578206473743D257820636D643D25D4
:102F28007820636F6F6B69653D2578207061796CD7
:102F38006F61643D25730A00696363206563686F88
:102F48003A206C6F616E206661696C65640A0000E6
:102F580072746F732D3E78763620706861736535AC
:102F68002061636B000000006963632074657374FB
:102F78003A206C6F616E206661696C65640A0000B6
:102F880072746F732D3E787636207068617365357C
:102F98002068656C6C6F00006963632074657374E6
:102FA8003A2073656E6420746F2078763620636FDC
:102FB8006F6B69653D25780A00000000000000007D
:102FC8006D61696C626F78206972712072656365E2
:102FD800697665642C20726561736F6E3D25780A89
:102FE8000000000000000000706C69633A20756EF4
:102FF8006B6E6F776E206972712025640A0000007D
:10300800765461736B4372656174650A0000000051
:103018007461736B310000007461736B32000000DF
:10302800765561727452785461736B000000000029
:103038007649636344697370617463685461736B40
:103048000000000000000000764963635465737453
:103058005461736B00000000764D61696C626F7893
:10306800546573745461736B000000000000000025
:103078007461736B322025780A000000000000009C
:103088007461736B312025780A000000000000008D
:103098006D61696C626F78746573743A2072696ED9
:1030A8006720646F6F7262656C6C20746F2078762D
:1030B800362C20726561736F6E3D25780A0000001A
:1030C80072783A20257820272563270A0000000017
:1030D80048656C6C6F204672656552544F53210ADF
:1030E80000000000000000006963633A2072656711
:1030F8006973746572206563686F2068616E646CBB
:103108006572206661696C65640A00000000000051
:103118007461736B20637265617400002EE7FFFFB2
:1031280084E7FFFF84E7FFFFC8E7FFFFD4E7FFFF5F
:10313800F2E7FFFF84E7FFFF84E7FFFFC8E7FFFF31
:10314800D4E7FFFFB6ECFFFF92ECFFFFD6ECFFFFE2
:10315800D6ECFFFFD6ECFFFFD6ECFFFFD6ECFFFF67
:10316800D6ECFFFFD6ECFFFFD6ECFFFFD6ECFFFF57
:10317800D6ECFFFFD6ECFFFF80ECFFFFD6ECFFFF9D
:10318800D6ECFFFFA4ECFFFFD6ECFFFFD6ECFFFF69
:10319800D6ECFFFFD6ECFFFF80ECFFFF000000003D
:1031A80030313233343536373839616263646566B5
:1031B8000000000000000000060000000000000001
:0831C800E07500B000000000FA
:1031D00000000000000000004E2D00B000000000C4
:1031E000D03900B000000000F0AE01B000000000D7
:1031F000FE2400B000000000002800B00000000025
:10320000000040B000000000403200B000000000AC
:10321000D03100B000000000403200B000000000DB
:10322000D03100B0000000003E1A00B000000000E5
:10323000FFFFFFFFFFFFFFFF000000000000000096
:04000005B000000047
:00000001FF
