:02000004B0004A
:100000009731000083B181389D45631EB508735058
:10001000401073504014996273B00210896273A04B
:100020000210B702040073A0021017310000033160
:10003000E137731001141735000003352539973562
:10004000000083B5A537173600000336A63763FADC
:10005000C5008332050023B055002105A105E3EA60
:10006000C5FE173500000335E5349735000083B52C
:1000700065326377B500233005002105E36DB5FED9
:100080001735000003358531EF20A054EF20A05430
:10009000014581450146EF20E07273005010F5BF25
:0C00A00073005010F5BF73005010F5BF46
:10010000930705011CE57D5718E91CED1CF1233010
:10011000050082802330050282801C659CE5986B77
:1001200098E90CE78CEB88F11C6185071CE1828063
:100130009061FD576303F60293070501BE869C6735
:100140009863E37DE6FE9C669CE58CEB94E98CE687
:1001500088F11C6185071CE182801471EDB71C7168
:100160001465186998EA146514E798676308A7008E
:100170002330050288637D1588E38280186998E73B
:10018000C5BFAA87286509C5BC739C631D451D8D25
:100190008280411106E422E02A84EF00107F387843
:1001A0003C7C630AF7000144EF00D07F2285A26007
:1001B0000264410182800544C5BF411106E422E08A
:1001C0002A84EF00907C3C7889EB0544EF00907D19
:1001D0002285A2600264410182800144C5BF0111F1
:1001E00006EC22E826E44AE02A84B28403390507B3
:1001F00050611DE21C6199CB0145930719003CF841
:10020000E2604264A2640269056182800869EF00CD
:10021000106123380400D5B799EC0865EF20203D24
:100220001C645860BA971CE4186863EFE7021C600E
:100230001CE42685D9B7086DEF20603B1C6C586024
:10024000B306E040998F1CEC186063F5E7001C686A
:10025000B6971CEC89476384F400014579BF6307B6
:1002600009007D19014551BF268541BF014571B780
:10027000AA87506115C2411106E42E85986F329706
:1002800098EF946B6364D700986398EF8C6FEF20BE
:100290000036A260410182808280011106EC22E8D2
:1002A00026E4AA84EF00706E03C494081B14840132
:1002B0001B54844131A07D341B1484011B548441A0
:1002C000635C8000BC6489CB13858404EF00B03884
:1002D0007DD1EF003046C5B7FD57A384F408EF0089
:1002E000706CEF00906A03C484081B1484011B54D3
:1002F000844131A07D341B1484011B548441635C10
:1003000080009C7089CB13850402EF00D0347DD12E
:10031000EF005042C5B7FD572384F408EF00906802
:10032000E2604264A2640561828049C5797106F485
:1003300022F026EC2A84AE843C7DBDCF5461014777
:10034000B3B7D70281E709C7014585A80547E5BFCF
:10035000EF00B0631C60347C58603386E6023E9642
:1003600010E8233804061CE4FD163307D702BA97B9
:100370001CECFD572304F408A304F4089DE01C7052
:1003800089E7EF00306205450DA813050402EF0070
:10039000902C65D9930700083EE42800EF20E02761
:1003A000CDB713050402EFF0BFD513058404EFF0B9
:1003B0003FD5C1BF014582800145A2700274E2644D
:1003C00045618280011106EC22E826E4B6843A8475
:1003D00099ED18E028FC4CE085452285EFF0FFF40C
:1003E000230C9408E2604264A2640561828010E3F9
:1003F000D5B7797106F44EE431C522F026EC4AE80F
:100400002A84AE84328981473337B50215EBA9E3DC
:10041000330594029307F0F563E1A7041305050A79
:10042000EF10406DAA891DCD2A87CA861306050ADA
:10043000A6852285EFF01FF90274E264426921A0CB
:100440008547F1B781494E85A270A26945618280D6
:1004500081490274E2644269FDB781490274E26431
:100460004269D5B70274E2644269F1BF1D7186EC3E
:10047000A2E8A6E4CAE04EFC2A84AE8932E4B6843F
:10048000014995A82686CE852285EFF05FD53C648C
:1004900081EF1DE5EF0010510545E6604664A66456
:1004A0000669E2792561828013058404EF00B01AA1
:1004B00075D1930700083EEC2808EF200016D9BF3D
:1004C000930700083EEC2808EF202015E1B7EF0065
:1004D000704D0145D9B70810EF00F02405490DA86B
:1004E00023040408A9A0A304040899A82285EFF016
:1004F000DFDAEF005079EF00504938783C7CE36355
:10050000F7F88947E380F4F8A267F1D3E30509FC23
:10051000EF005049EF00E06DEF003047834784085B
:100520009B9787019BD787417D57E38BE7FA8347EA
:1005300094089B9787019BD787417D57E385E7FA0E
:10054000EF0050462C000810EF10A0091DE5228591
:10055000EFF03FC441DDA26513050402EF00F0088F
:100560002285EFF09FD3EF00107251F5930700083A
:100570003EEC2808EF20600ABDBF2285EFF0FFD1D6
:10058000EF007070014511BF0DC1411106E4233821
:10059000050023300500233C0500814601468145C6
:1005A000EFF0DFECA260410182808280411106E41D
:1005B00022E02A8681450545EFF0BFE32A84EFF06B
:1005C000BFFC2285A260026441018280011106EC19
:1005D00022E84AE02A843289368638793C7D636B8A
:1005E000F70089476388F6000145E26042640269CA
:1005F0000561828026E4834494089B9484019BD403
:1006000084413C782285EFF09FBDFD576393F4024F
:100610003C6481E70545A264C9BF13058404EF006B
:10062000900315C56308090205452330A900A2649B
:100630006DBFEF00205D63F2A40285249B948401CA
:100640009BD48441A30494080545A26479BF054561
:10065000A26461BF0545A26449BF0545A26471B7A4
:100660001D7186ECA2E8A6E4CAE04EFC2A84AE899D
:1006700032E40149ADA8CE852285EFF07FBFFD149D
:1006800024F81C7099EBEF00F0310545E6604664F4
:10069000A6640669E2792561828013050402EF00F1
:1006A000807B75D1930700083EEC2808EF10F076A8
:1006B000D9BFEF00302F0145D1BF0810EF00B006C1
:1006C000054935A82304040891A8A304040885A0BB
:1006D0002285EFF09FBCEF00105B11A82285EFF0A0
:1006E000DFBBEF00505A2285EFF03FAD35EDEF0054
:1006F000D0292478C9F0A267CDDFE30009FCEF0020
:10070000702AEF00004FEF005028834784089B9722
:1007100087019BD787417D57E386E7FA8347940893
:100720009B9787019BD787417D57E380E7FAEF00CE
:1007300070272C000810EF00D06A4DF12285EFF0F1
:10074000DFA759D5A26513058404EF00006A22854E
:10075000EFF0BFB4EF00305359F9930700083EECB7
:100760002808EF10906B61B701450DB75D7186E405
:10077000A2E026FC4AF82A842EE40149814479A0AB
:10078000FD173CF81C6081CF1C7091EFEF009021A9
:100790000545A6600664E274427961618280EF00DB
:1007A000106C08E8D5B713050402EF00C06A79DDC4
:1007B000930700083EEC2808EF103066C1BFEF0039
:1007C000701E0145F9B70810EF00E0758544B1A02F
:1007D0002304040895A0A304040885A8EF00F01AD8
:1007E0000868EF00A0752A89EF00D01BA5A8228514
:1007F000EFF0BFAAEF00304911A82285EFF0FFA962
:10080000EF0070482285EFF05F9B3DEDEF00F017A1
:100810003C78BDF7A267C5D7DDD4EF00B018EF0074
:10082000403DEF009016834784089B9787019BD734
:1008300087417D57E38EE7F8834794089B978701AC
:100840009BD787417D57E388E7F8EF00B0152C0070
:100850000810EF00105955F12285EFF01F9641D98D
:100860001C60ADDFA26513058404EF0000582285EB
:10087000EFF0BFA2EF00304151F9930700083EECC2
:100880002808EF10905959B763140900014511B7B2
:10089000EF00B00F2285EFF0DF8EAA850868EF0029
:1008A0005002EF003010DDB781C50146814739A005
:1008B00082801386019636961DA885071D476367BB
:1008C000F702939647001387019636971867E3025D
:1008D000A7FE65F69396470013870196369718632F
:1008E00069FF138701963386E600C1BF19C20CE287
:1008F00008E68280011106EC22E826E44AE02A8418
:10090000AE843289EF007008834784089B97870183
:100910009BD787417D576388E702834794089B975D
:1009200087019BD787417D576382E702EF009007DD
:100930003C7885C32285EFF05F96E2604264A26452
:1009400002690561828023040408C1BFA30404086E
:10095000F1BF4A86A68513058404EF00404BD9BF3A
:1009600083B7018E9C6389E7FD5723B4F1888280A9
:1009700083B7018E9C6F9C6323B4F1888280411100
:1009800006E422E02A842871EF1080242285EF10EB
:100990002024A260026441018280397106FC22F8A1
:1009A00026F44AF04EEC52E856E45AE0AA8AAE84A5
:1009B000368B3A893E8A4284931936004E869305D7
:1009C000500A03350806EF1050413C70E119BE99FA
:1009D00093F909FF9DC081483D48636E1801338833
:1009E00014010308080033031401230403076304FC
:1009F00008008508D5B7A30B0406994763F32701C0
:100A00003E89233C24052338240913058400EFF094
:100A10006FF013050403EFF0EFEF00F09D47B3878D
:100A200027411CF820E45A86D6854E85EF20403DAC
:100A300008E063040A0023308A00E2704274A27462
:100A40000279E269426AA26A026B216182805D7169
:100A500086E4A2E026FC4AF84EF452F056EC5AE83E
:100A60005EE4AA892E8A3289B68A3A8BBE8B131528
:100A70003600EF102008AA8439C51305800AEF104C
:100A800060072A840DCD1306800A8145EF10F034EB
:100A900024F081482288DE875A87D6864A86D28506
:100AA0004E85EFF09FEF2285A6600664E2744279DE
:100AB000A279027AE26A426BA26B6161828026852A
:100AC000EF100011CDB72A84F9BF411106E422E0EE
:100AD000014421A893172400A29713973700138588
:100AE00081AA3A95EFF0CFE105049947E3F487FE38
:100AF000138501A8EFF0CFE0138581A5EFF04FE05B
:100B0000138501A3EFF0CFDF138581A0EFF04FDF56
:100B10001385019EEFF0CFDE938701A823B0F18EFD
:100B2000938781A523BCF18CA2600264410182807D
:100B3000797106F422F026EC4AE84EE452E02A8469
:100B4000AE8403B9018C83B9018E03BA818D93877A
:100B5000818E9863A302070A88632105EFF02FE0D6
:100B600011ED83B7818EB86F8547B397E70093C7C0
:100B7000F7FF9386818B9862F98F9CE2FD5763069D
:100B8000F4024A9483B7818E80E76377240583B5A6
:100B9000818EA1055285EFF0AFD9A2700274E26494
:100BA0004269A269026A45618280E1DC1387019E85
:100BB00014679387818E906314EA90638C6A0CEEBD
:100BC0009063210690E59063210690EA9C6398F774
:100BD0001C6385071CE3D1B783B5818EA1054E85C3
:100BE000EFF00FD583B78188E379F4FA23B48188D5
:100BF0006DB7138781871C6385071CE3828003B56B
:100C0000018C828003B5818C828083B78187639257
:100C10000714411106E422E09387018C80630504E8
:100C200080E315CC83B78188637BF404014583B7E7
:100C3000818EB86F93172700BA9713973700938761
:100C400081AABA979863854763F3E7003E8583B727
:100C5000018A63970710A2600264410182801387B2
:100C6000018E14639387818D906310E394E313875F
:100C700081891C6385071CE3EFF09FCE65B70145B2
:100C8000BDA8FD5723B4F1885DB723B4E18845B70B
:100C9000946F14E759A823B807041463FD1614E3EE
:100CA000B46F05473317D7001386818B03380600CE
:100CB0003367070118E2138781AA13962600369638
:100CC00093163600BA96946694EB906A90EF0CE611
:100CD0008CEAAC6F939625003388B6001316380063
:100CE0003A9690F710620506931538002E9710E398
:100CF000B86F83B7818EBC6F63F3E700054583B798
:100D0000018E9C63BDDF83B7018E9C6F9C6F9867DB
:100D1000E36DE4F69877906B946F14EA906B90E62D
:100D2000146793858700E385B6F623B4070214633E
:100D3000FD1614E3B86B2DD7907FB46314EA907F4F
:100D400090E6106793860703E317D6F4B46314E7BD
:100D500099B71387818A1C6385071CE3014582804C
:100D60000545D5BD83B7818789C7854723B0F18AFB
:100D7000828023B0018A83B7818B8127B1CF01475D
:100D800021A005279B971700E3DD07FE02170193BB
:100D9000FD47998F938581AA939627003386F600A5
:100DA000131736002E971067106610E7BE9613973C
:100DB000360041072E976304E60213972700BA977F
:100DC00013973700938781AABA979C67986F938788
:100DD000818E98E39C6382801307000245BF8E06D4
:100DE0003387D500146F14E7C9BF411106E422E030
:100DF0002E8483B5818E93850503EFF06FB385450F
:100E00002285EFF0FFD2A26002644101828041118D
:100E100006E4AA872E85B28594671387818E1063B6
:100E200014FE106303B80601233006051063130691
:100E300006032334C80010631306060390EA186300
:100E40003CEB9863050798E391C17D55EFF05FCEC9
:100E5000A260410182801C6D9C6FB86B907FB4636F
:100E600014EA907F90E61467138607036388C60828
:100E700023B807041463FD1614E303B7818749E719
:100E80009877906B946F14EA906B90E61067938656
:100E900087006308D60623B4070210637D1610E3AB
:100EA000AC6F05473317B7001386818B0862498FF3
:100EB00018E2138681AA139725002E970E07329702
:100EC000186798EB0C6B8CEF94E514EBAC6F1397F1
:100ED0002500B306B7008E06B29694F79462850695
:100EE0002E970E073A9614E2B86F83B7818EBC6FC7
:100EF00063F9E702054523B0A18A8280B46314E751
:100F000085BF906F10E741BF138701A3146794FF5B
:100F10008C6AACE390E590EAB8EB1463850614E3C1
:100F2000E1B70145828083B781891CE183B7018CD9
:100F30001CE58280854723B0F18A8280630D050C11
:100F4000011106EC22E82A84386D83B7818EBC6FCC
:100F5000637BF70A1C799396070263C8060083B780
:100F6000818EB46F9D47958F1CF9147493172700D9
:100F7000BA978E07138781AABA97638BF60083B757
:100F8000818EBC6F3CEC0545E26042640561828065
:100F900026E4930484002685EFF06F9C01ED386C05
:100FA0008547B397E70093C7F7FF1387818B1463D7
:100FB000F58F1CE383B7818EB86F38EC0545B31706
:100FC000E5009386818B9062D18F9CE2938681AA03
:100FD00093172700BA978E07B6979C671CE8986B03
:100FE00018EC04E784EB306C931726003387C700B6
:100FF0000E07369718F418632A97B2978E07BE9695
:1010000098E2A26451B7586983B7818EBC6F63665A
:10101000F700014595BF014582800545B5B751CD23
:10102000011106EC22E82A845C6DFD175CED346D3D
:1010300058696386E60891C70145E260426405612C
:10104000828026E4930485002685EFF04F9101ED20
:10105000386C8547B397E70093C7F7FF1387818BF9
:101060001463F58F1CE3586838EC9D47998F1CF882
:101070000545B317E5009386818B9062D18F9CE282
:10108000938681AA93172700BA978E07B6979C6715
:101090001CE8986B18EC04E784EB306C931726007F
:1010A0003387C7000E07369718F418632A97B2974C
:1010B0008E07BE9698E2A26449B701458280014539
:1010C000ADBF79C1011106EC22E826E42A845C69EF
:1010D00063F3B700AE87246C6386F400546C054755
:1010E0006387E600E2604264A264056182803CECB2
:1010F00018789316070263C606001D47B307F7402A
:101100001CF8187493972400A6978E07938681AADB
:10111000B697E319F7FC4AE0130984004A85EFF01B
:101120000F8419E98547B397970093C7F7FF138793
:10113000818B1463F58F1CE3386C8547B397E70008
:101140009386818B9062D18F9CE2938681AA9317BC
:101150002700BA978E07B6979C671CE8986B18EC27
:101160002334270123B82701306C931726003387D7
:10117000C7000E07369718F418630507B2978E0755
:10118000BE9698E20269B9BF82807370011083B77E
:10119000018B81CB1387818E1463BC7E8507BCFED7
:1011A0001C63828083B7018B85C383B7818EBC7F2C
:1011B00081CF1387818E1463BC7EFD17BCFE1C6338
:1011C000BC7F99E3736001108280011106EC22E874
:1011D0002A84EFF09FFB1387818C1C6385071CE337
:1011E00083B7818E89CF83B7018B8DE383B7818EDF
:1011F000B86F3C6C63ECE70023B4818E01A823B484
:10120000818E03B7818C8547630DF70613870189AB
:101210001C6385071CE35CE0386C8547B397E700E7
:101220009386818B9062D18F9CE2938681AA9317DB
:101230002700BA978E07B6979C671CE8906B10EC56
:101240001307840018E698EB306C93172600338759
:10125000C7000E07369718F418630507B2978E0774
:10126000BE9698E2EFF01FF483B7018B99C783B75E
:10127000818EB86F3C6C6369F700E260426405617F
:101280008280EFF09F8459B7930700083EE428005E
:10129000EF10A038DDB7411106E4EFF04FFB19C5A0
:1012A000EFF0BFF20545A260410182807D55E5BFA8
:1012B000011106EC22E802E002E48147394763614C
:1012C000F70217270000130767BD3E9703070700C3
:1012D000938607018A962388E6FE19C38507F9BF1E
:1012E000C1078A97238807FE01440545635680009D
:1012F000E26042640561828093173400138701889D
:10130000BA9701478146130600208A851705000019
:1013100013050517EFF03FF88547E31BF5FC3E94F6
:10132000F1B7411106E4EFF0BFF885476309F50016
:101330009727000083B78703A26041018280EF00F6
:10134000A0668547E316F5FE73700110FD5723B4C0
:10135000F188854723B8F18A23B0018CEF00A06B98
:10136000C1BF797106F422F026EC2A84EFF0FFE188
:1013700059C4930484002685EFE07FDE0DE5346CCC
:1013800093972600B6978E07138781AABA979C6316
:1013900099EB8547B397D70093C7F7FF1387818BE6
:1013A0001463F58F1CE33C6889C713050403EFE061
:1013B0001FDB138701891C6385071CE383B7818EBC
:1013C00063828704014783B7018B91C315EF1387AD
:1013D000818C1C63FD171CE3EFF08FD8EFF09FDCCE
:1013E0002285EFF0CFD983B7018B89C783B7818E70
:1013F00063898702A2700274E2644561828003B44B
:10140000818E85BF0547C1B7A685138581A0EFE012
:10141000DFD01387018D1C6385071CE3EFF09FD895
:10142000D9B7930700083EE42800EF10001FD9B792
:1014300083B7018DB9C3411106E422E0EFF0FFD478
:1014400083B701A2806F13058400EFE05FD113879B
:10145000818C1C63FD171CE31387018D1C63FD1732
:101460001CE3EFF03FD42285EFF06FD183B7018DFD
:10147000F1F7A2600264410182808280411106E49A
:10148000EFF01FFBF5BF011106EC22E8EFF0FFCFF4
:101490009387818798637D1798E39C636391071016
:1014A00083B7818C89EB0144E5A8B46314E735A0C8
:1014B000906F10E799A0814703B701A355C383B785
:1014C00081A49C6FB86B907FB46314EA907F90E620
:1014D000106793860703E30AD6FC23B80704146356
:1014E000FD1614E39877906B946F14EA906B90E676
:1014F000106793868700E30DD6FA23B407021063C2
:101500007D1610E3AC6F05473317B7001386818B48
:101510000862498F18E2138681AA139725002E9737
:101520000E073297186798EB0C6B8CEF94E514EB71
:10153000AC6F13972500B306B7008E06B29694F7EA
:10154000946285062E970E073A9614E2B46F03B79D
:10155000818E386FE372D7F6054723B0E18AA9BFC1
:1015600099C3EFF0EFBF03B4818A05E003B4018AA9
:1015700005C883B7818E930700083EE42800EF106A
:10158000C009054431A87D1401C8EFF00FE865DDFE
:10159000854723B0F18AC5BF23B4018AC1BF014486
:1015A000EFF05FC02285E260426405618280011134
:1015B00006EC09CD22E82A84EFF0AFE381452285CD
:1015C000EFF00FD7EFF03FEC19E942649307000802
:1015D0003EE42800EF106004E2600561828042640E
:1015E000E5BF011106EC22E826E42A84AE84EFF080
:1015F000DFB903B7018C1C643306F74083B6818ED4
:1016000083C6560A91CE83B7818EA382070A05440A
:10161000EFF05FB92285E2604264A26405618280D6
:101620009460FD55638BB602086083B581896308B9
:10163000B5006366F70023B004000544D1BF6366BC
:10164000D60023B004000544E1B7998FB6979CE01B
:101650002285EFF05F8D014465BF014455BF03B59E
:10166000818E01C55C6D85075CED828003B70191B9
:101670001C6399E785471CE191E71C6F88638280B2
:101680008147D5BF01458280411106E40CE508F190
:101690006362B602158E1C796366F6000545A2608A
:1016A000410182809305850003B58190EFE05FA83A
:1016B0000145F5B76374D60063FAD500930585003C
:1016C00003B50191EFE0DFA60145D1BF0545C1BFDC
:1016D000011106EC22E826E44AE02A84AE8432892D
:1016E00031A01C78BE943C60228582970C78A68637
:1016F0004A86A6952285EFF03FF965F5E2604264DF
:10170000A264026905618280011106EC22E826E4E8
:101710004AE0AA842E8983B701919C6F806F1305DC
:101720008400EFE0DFA38347040513F7470009EFC8
:10173000F99B2308F4043C6022858297E2604264AE
:10174000A2640269056182804A86A6852285EFF03F
:101750003FF8D5B783B7019198630DC7411106E4EF
:101760009C6FFD558863EFF03FFA83B70191986352
:1017700065FB13878190146323B8D1901CE3A260AA
:101780004101828013878190146323B8D1901CE3B8
:101790008280011106EC22E826E4AA84EFF02FC62D
:1017A0002A8483B7018F636CF50023B0040023B84B
:1017B000818E2285E2604264A26405618280EFF03E
:1017C0007FF985479CE0E5B7797106F422F04AE895
:1017D0002A892E84EFF0EFC12800EFF09FFBA2676B
:1017E000B1EF26ECAA841DE8637225032286B305B7
:1017F000994003B50190EFF0EF8FEFF0DFC81DC502
:10180000E264A2700274426945618280EFF0BFC752
:10181000A6854A85EFF05FEFE264E5B703B78190F4
:10182000186319E30544D9B73E84C9B79307000884
:101830003EE00A85EF00705EE264E1B7EFF0BFC4FE
:10184000C9B75D7186E4A2E026FC02E802EC02F072
:1018500002F401460C0803B50190EFE07FE069C98E
:10186000C26763CE0702C267E3C507FE027475D084
:101870001C7489C713058400EFE07F8E2800EFF009
:101880005FF1AA84C2672547E365F7FC8A0717273B
:1018900000001307E7A3BA979C43BA978287A25523
:1018A0000275E2678297C1B78347040593E7170083
:1018B0002308F404E2660C782A86B6952285EFF0B8
:1018C000BFDC41D98347040513F7470001EBF99BBF
:1018D0002308F4043C6022858297A5BF1C782686E5
:1018E000E265BE952285EFF0BFDEEDB783470405C4
:1018F000F99B2308F404B1BF8347040593E717005D
:101900002308F404E2650CF8AA862A86AA952285A3
:10191000EFF09FD73DBF8347040513F7270009C7A2
:10192000F99B2308F40435B72285EF00602A15B728
:10193000A6600664E27461618280011106EC2800F1
:10194000EFF0DFD2A265EFF03FE8EFF09FEFC5BF09
:10195000411106E4EFF07F8383B7019091C7EFF068
:101960007F84A26041018280138581BEEFE04FF940
:10197000138501BCEFE0CFF8938781BE23B8F190C7
:10198000938701BC23B4F1900146930500021945E9
:10199000EFE03FA623B0A19079D197150000938581
:1019A0006550EFE07FF065BF411106E4EFF05FFAAC
:1019B00083B7019085C79387818F194781461306A6
:1019C000E006971500009385654E17050000130586
:1019D00005F7EFF05F8CA260410182800145E5BF11
:1019E000732710C09387819198E3886382804111A7
:1019F00006E4EFF0FFFE8967938707713E95EF00DD
:101A0000B040A26041018280411106E4EF005040E5
:101A1000A26041018280411106E4EFF05FFD93076F
:101A2000000273A04710736041109307002073A059
:101A30004710EF10E02C0145A260410182807370D5
:101A4000011001A0176700001307C7D59377F700AF
:101A5000A9C7976600009386D6D5C19AD1679387A8
:101A60000788958FBA97368797660000938686D247
:101A700098E223B40600BA97C117C19B23B0F19432
:101A800023B4070023B00700B386E74014E71CE344
:101A900023B8D19223BCD1928280D16793870788E3
:101AA000E1B7976700009387E7CE3E879C63E3EE3C
:101AB000A7FE14673306D700630CA600146533062F
:101AC000D500638CC7001CE16303E50008E3828056
:101AD0001065B29614E73A85D5B703B601946389C9
:101AE000C7009C67BE9614E51C639C631CE1E9BFBC
:101AF00010E1D9BF011106EC22E826E42A840DC1C9
:101B0000BD5763EEA700130405019377F40089CB5A
:101B100041471D8FBD1763E787023A9411A0014426
:101B2000EFF02F8D83B7019485C3634B040859C828
:101B300003B68193636A860897660000938686C51C
:101B40009C6201A80144E9BFEFF0DFEFF9BFBE8658
:101B5000BA87986763748700986375FB03B701942D
:101B60006306F7068462C104986398E29867018F60
:101B70009305000263F9E500B385870098E580E7E7
:101B8000986298E18CE29867198E23BCC19283B663
:101B900001936374D60023B8C192FD56FE16558F8B
:101BA00098E723B00700138781921C6385071CE325
:101BB000EFF07F8D2685E2604264A2640561828039
:101BC0008144FDB78144EDB78144DDB78144CDB791
:101BD00029CD011106EC22E826E42A84930405FFAE
:101BE000833785FF63C70700E2604264A264056132
:101BF0008280033705FF6DFB7D570583F98F233CFA
:101C0000F5FEEFE01FFF833684FF138781931C638B
:101C1000B6971CE32685EFF0DFE8138701921C637B
:101C200085071CE3EFF03F86C1B78280797106F427
:101C300022F02A8463430504014437D7CCCC130730
:101C4000D7CC93170702BA97B337F50213D73700EB
:101C500093162700369706073307E5401B0707034F
:101C6000930604028A9605242384E6FE2A8713D568
:101C70003700A547E3E3E7FC15A01305D002EF000A
:101C8000F009330580404DBF9B07F4FF3E849387E6
:101C900007028A97038587FEEF005008E34680FE1F
:101CA000A270027445618280011106EC22E826E4EC
:101CB0002A8401A89304140003050400EF00100611
:101CC00026848307040081CB2947E395E7FE354549
:101CD000EF00D004C5B7E2604264A264056182806F
:101CE000011106EC22E826E4AA841715000013056A
:101CF000651CEFF07FFB1304C003014721A81717F1
:101D0000000013072765BA9703850700EF0010014D
:101D10000547713463490400B3D78400BD8BE5F3F4
:101D200079FF65F8E9BFE2604264A26405618280E0
:101D3000411106E4EF00207DA260410182805971CB
:101D400006F422F026EC2A842EFCB2E0B6E4BAE8CF
:101D5000BEECC2F0C6F43C183EE419A829476383E0
:101D6000E7069304140003050400EF00207B26849B
:101D700083070400CDCF13075002E391E7FE9304DD
:101D8000240083071400130750026386E70863CA20
:101D9000E708130780076346F7081307300663C296
:101DA000E7089B87D7F993F6F70F5547636BD7067C
:101DB000939726001717000013070754BA979C4300
:101DC000BA9782873545EF00607561BFA2671387B8
:101DD00087003AE48863EFF0BFF0268451BFA26722
:101DE000138787003AE48843EFF05FE4268449B71D
:101DF000A267138787003AE48863EFF0FFEA26843E
:101E000085BFA267138787003AE403850700EF00C8
:101E1000E0702684B1BF13055002EF0020702684C5
:101E200081BF1305F003EF00606F268491B7A270A5
:101E30000274E264656182802A87014511A005254C
:101E4000931705028193BA9783870700EDFB828081
:101E5000014721A8931707028193B386F500AA973B
:101E600083C606002380D70005279307F003E3F31A
:101E7000E7FE8280814701A81397070201932A9702
:101E80002300070085271307F003E377F7FE82801E
:101E9000011106EC22E826E42A84AE842E85EFF0B8
:101EA000BFF99307800263F3A7003E8548C401474A
:101EB00021A8931707028193B386F4008386060056
:101EC000A297238CD7000527E365A7FEE260426452
:101ED000A264056182800328C6006364B8001B8881
:101EE000F5FF9307800263F307013E88014721A8AD
:101EF000931707028193B306F500B2978387870192
:101F00002380F6000527E36507FF0218135808022F
:101F10004295230005008280411106E401469305A5
:101F200000042145EFE0EFCC23B8A1940545EFE094
:101F3000EFE723B4A194014729A893164700979788
:101F400001009387270EB69723A0070023B407004C
:101F500005279D47E3D3E7FE83B5019589CD01CDE4
:101F60002146B285171500001305C5F7EFF03FDDD8
:101F7000A260410182802A8617150000130505F42E
:101F8000EFF0FFDBF5B7CDC1814711A085271D47D5
:101F9000634CF702939647001797010013078708D1
:101FA0003697186765D7179701001307A707369765
:101FB0001843E31DA7FC179701001307A706B307F3
:101FC000D7008CE701458280411106E401469D4718
:101FD00063CFC702131746009797010093878704C2
:101FE000BA979C6799C30526DDB797970100938739
:101FF0006703BA9788C38CE793150502819117157B
:1020000000001305A5F0EFF09FD3014519A8931523
:102010000502819117150000130545F1EFF03FD23D
:102020007D55A260410182807D558280597186F480
:1020300082E483B70195C1CF93079005E6079843E3
:102040000127B7574151938707D56312F7089307C4
:102050009005E607DC4381270547639AE706A2F06F
:10206000A6EC09A88365810117150000130585EE0C
:10207000EFF0FFCC93079005E60780470124DC478B
:1020800081276302F4049375F4030F0030039A056B
:10209000B7270B008507B2072400BE952685EFF011
:1020A0003FDB0F003003052493079005E60780C748
:1020B0008146B000A68503B50195EFE02FD1854795
:1020C000E30AF5FA45B7A66791E70674E664A670D9
:1020D00065618280EFE01FC90674E664CDBF01111F
:1020E00006EC22E803B4819455C426E4AA8493073D
:1020F0009005E60798430127B7574151938707D5C5
:102100006315F70893079005E607DC438127054729
:102110006390E708FD552285EFE04FE585476310A2
:10212000F50893079005E607984B9B050700DC4BE5
:102130001B860700999F1307F0036368F702137467
:10214000F6031A04B717005986073E942285EFF06C
:102150007FD2C167938707101CC044C0930700203B
:102160001CC4232A0400A26435A01715000013051F
:1021700065E1EFF0DFBC81460146814503B58194FE
:10218000EFE0CFAE0144A26431A00144A26419A0E3
:102190000144A2642285E2604264056182800144B8
:1021A000A264CDBF93079005E607D04B1B0706003E
:1021B0001376F6031A06B717005986073E9631C9FB
:1021C000411106E46317A6020F00300305279307A9
:1021D0009005E607D8CB0145EF0060328146014605
:1021E000814503B58194EFE06FA80145A2604101EC
:1021F0008280AA85171500001305C5DBEFF03FB4F8
:1022000081460146814503B58194EFE02FA67D55B7
:10221000F1BF7D5582805D7186E43DA885271D470D
:10222000634AF7029396470017970100130787DF69
:1022300036971467E5D613964700179701001307E2
:1022400067DE329710431247E31AE6FC0A8582964E
:10225000854711A0814781CF7D568A8503B50195B9
:10226000EFE00FC08547E319F5FE81474DBF0366D8
:1022700001018365410017150000130525D6EFF015
:102280001FACD9BF5D7186E4A2E026FC2A842A86B1
:10229000930590020A85EFF01FC48A870367040143
:1022A00083668400036644008365040017150000FC
:1022B0001305C5D5EFF0BFA80840EFF05FE215C9E0
:1022C000AA841C441CC51C481CC9232A0500C167DC
:1022D000938707101CC197150000938525D8EFF050
:1022E0003FBB2685EFF01FECA6600664E2746161D7
:1022F0008280171500001305E5D4EFF05FA4EDB759
:102300005D7186E4A2E026FC4AF82A8444452A86C8
:10231000930590020A85EFF01FBC8A8703670401CA
:10232000836684000366440083650400171500007B
:10233000130545D4EFF0BFA00840EFF05FDA01C904
:102340009307800263F39700BE84814739A817156D
:102350000000130525D6EFF09F9E89A893960702EB
:102360008192AA96238CE600852763F39702139740
:10237000070201932297034787019B06F7F993F61B
:10238000F60F6546E36CD6FC01371377F70FF9B704
:10239000C167938707201CC11C441CC51C481CC96D
:1023A000232A050044C5EFF0FFDF19C5A6600664C7
:1023B000E27442796161828083650401171500002F
:1023C0001305C5D0EFF0BF97D5B7411106E40965F5
:1023D00013058532EFF0AF9D13050010EFF03FD0ED
:1023E00039C522E02A84930700201CC59167850720
:1023F0001CC9232A0500C167938707101CC19715C4
:1024000000009385A5D0EFF0BFA8836504011715E0
:102410000000130525D1EFF09F922285EFF09FD8A1
:102420000145EFE01FF40264A260410182801715AC
:102430000000130525CCEFF09F900145EFE07FF2FF
:10244000E5B7797106F4EF00A0161DC522F02A84C5
:1024500002E4B1476305F502B5476303F504AA85B5
:1024600017150000130505D1EFF07F8D2285EF00D1
:10247000A014A267A1EF0274A27045618280EF00F0
:10248000C00CE34505FE83B78195F5DBA303A100EE
:1024900081463000930571003E85EFE02F93C5B76C
:1024A00026ECEF00A004AA84EF00C0049395040278
:1024B000819117150000130565C9EFF05F8899C079
:1024C000E2646DB7EFF09FB6E2644DB7EFE09F892D
:1024D00002745DB7411106E485453545EF00800E75
:1024E0003545EF00C00AA26041018280B747001065
:1024F00088478280B7470010054798C78280B74752
:102500000010C8C38280B7270010A38007000D47C2
:10251000A381E7001D472381E7008280B7270010D1
:1025200083C7570093F70702F5DB1375F50FB7273D
:1025300000102380A7008280B727001003C7170070
:1025400013671700A380E7008280B727001083C7B6
:102550005700858B91C7B727001003C507008280FD
:102560007D5582806357A0000A05B707000C3E9591
:102570000CC18280411106E4B7F7200C23A00700AC
:1025800085453145EFF01FFEA26041018280635016
:10259000A002935755008A073727000C13070778C6
:1025A000BA978546BB96A6009843558F98C38280FC
:1025B000B7F7200CC84382806355A000B7F7200C02
:1025C000C8C38280411106E4EFF0DFF9A260410147
:1025D00082800145828082808280AA8729A0238010
:1025E000B70085073A861307F6FF75FA8280AA8737
:1025F00001A883C605002380D700850585073A8694
:102600001307F6FF7DF68280814873000000828008
:1026100001458D48730000008280914873000000DE
:102620008280411106E417150000130525B6EFF06E
:102630000FF18147114781460566130606809715FD
:1026400000009385A5B5170500001305650DEFE0A3
:102650009FC481471147814605661306068097157A
:102660000000938525B41705000013052509EFE048
:102670009FC2814715478146056613060680971558
:1026800000009385A5B21705000013050511EFE0C2
:102690009FC081471547814613060020971500000B
:1026A0009385C5B117050000130525B7EFE0BFBE40
:1026B0008147114781461306002097150000938536
:1026C00065B117050000130585D0EFE0DFBC814739
:1026D000114781461306002097150000938585B0A9
:1026E0001705000013050506EFE0FFBA0145EFE00E
:1026F0005FC7A26041018280411106E422E081456A
:102700001B84150017150000130545AFEFF02FE3EC
:102710001305803EEFE0BFE9A285DDB7411106E475
:1027200022E081451B84150017150000130505AE36
:10273000EFF0EFE01305803EEFE07FE7A285DDB725
:10274000411106E4056513058538EFE05FE6A965EC
:102750009385A55517150000130545ACEFF02FDE46
:1027600029651305A555EFF09FD91305007DEFE00E
:102770001FE49305B00217150000130525AAEFF01A
:102780000FDC1305B002EFF09FD70145EFE07FBDEE
:10279000A26041018280011106EC7D569305F10093
:1027A00003B58195EFD0DFEB8547E318F5FE03060F
:1027B000F1009375F60F17150000130525A9EFF02A
:1027C0000FD8E1BF411106E4EFF08FD617150000D6
:1027D0001305C5A8EFF0AFD6EFF0DFD93145EFF024
:1027E0001FDBEFF03FCFEFF02FF39705000093854D
:1027F000A5A9416513050510EFF0EFF831E997053C
:102800000000938525B0416513050520EFF0AFF773
:1028100039E50146854513050004EFD09FBD23BC73
:10282000A194EFF07FD18147114781461306001034
:1028300097150000938505A9170500001305A5DE6F
:10284000EFE07FA5EFE0FFAD0145A260410182808E
:1028500017150000130505A2EFF06FCE4DB7171541
:1028600000001305A5A3EFF08FCD65B700000000B1
:102870000000000000000000000000000000000058
:102880000000000000000000000000000000000048
:102890000000000000000000000000000000000038
:1028A0000000000000000000000000000000000028
:1028B0000000000000000000000000000000000018
:1028C0000000000000000000000000000000000008
:1028D00000000000000000000000000000000000F8
:1028E00000000000000000000000000000000000E8
:1028F00000000000000000000000000000000000D8
:10290000417106E416E81AEC1EF022F426F82AFCBF
:10291000AEE0B2E4B6E8BAECBEF0C2F4C6F8CAFC67
:102920004EE152E556E95AED5EF162F566F96AFD4F
:10293000EEE1F2E5F6E9FAEDFEF1F322001096F58C
:10294000F3230010996233F353006312530482B9E6
:1029500086BD0AA20EA612AA16AE1AB21EB622BAD8
:1029600026BEAAA2AEA6B2AAB6AEBAB2BEB6C2BAC7
:10297000C6BE4AA34EA752AB56AF5AB35EB762BBB0
:1029800066BFEAA3EEA7F2ABF6AFFAB3FEB7916269
:1029900073A00210896273B00210F322101416E0C3
:1029A00083B2818E23B0220073252014F3251014E6
:1029B0001356F50331CA2EE08542FE12138312002E
:1029C000631B6500171100000331C19AEFF0CF833C
:1029D000EFE04FB991A81103631E650017110000C5
:1029E00003314199EFF0AF80EFE02FA215CDEFE07A
:1029F0006FB71DA81103631B650017110000033199
:102A00006197EFF01FA40DA091052EE0732520140F
:102A1000F3251014732630140A87171100000331B0
:102A20006195EF00E00D09A003B3818E033103002F
:102A3000826273901214F3230010AE72739002102E
:102A4000996233F35300631253044E30EE30122177
:102A5000B2215222F2221233B2335234F23416250A
:102A6000B6255626F6261637B6375638F6381A29BA
:102A7000BA295A2AFA2A1A3BBA3B5A3CFA3C1E2D6A
:102A8000BE2D5E2EFE2E1E3FBE3FA260C26262635E
:102A900082732274C274627586652666C66666672E
:102AA00086772678C67866798A692A6ACA6A6A6BDE
:102AB0008A7B2A7CCA7C6A7D8E6D2E6ECE6E6E6F8E
:102AC0008E7F7D6173002010130000001300000052
:102AD00013000000130000001300000013000000AA
:102AE000130000001300000013000000130000009A
:102AF000130000001300000013000000130000008A
:102B00006F0000001300000013000000130000001D
:102B10001300000013000000130000001300000069
:102B20001300000013000000130000001300000059
:102B30001300000013000000130000001300000049
:102B40001300000013000000130000001300000039
:102B50001300000013000000130000001300000029
:102B60001300000013000000130000001300000019
:102B70001300000013000000130000001300000009
:102B800013000000130000001300000013000000F9
:102B900013000000130000001300000013000000E9
:102BA00013000000130000001300000013000000D9
:102BB00013000000130000001300000013000000C9
:102BC00013000000130000001300000013000000B9
:102BD00013000000130000001300000013000000A9
:102BE0001300000013000000130000001300000099
:102BF0001300000013000000130000001300000089
:102C00006FF03F8482801300000013000000130067
:102C10000000130000001300000013000000130068
:102C20000000130000001300000013000000130058
:102C30000000130000001300000013000000130048
:102C40000000130000001300000013000000130038
:102C50000000130000001300000013000000130028
:102C60000000130000001300000013000000130018
:102C70000000130000001300000013000000130008
:102C800000001300000013000000130000001300F8
:102C900000001300000013000000130000001300E8
:102CA00000001300000013000000130000001300D8
:102CB00000001300000013000000130000001300C8
:102CC00000001300000013000000130000001300B8
:102CD00000001300000013000000130000001300A8
:102CE0000000130000001300000013000000130098
:102CF000000013000000130000001300000001009A
:102D00009702000083B2026A7390521003B1818E61
:102D1000026182604E30EE301221B2215222F22244
:102D20001233B2335234F2341625B6255626F6261F
:102D30001637B6375638F6381A29BA295A2AFA2ACF
:102D40001A3BBA3B5A3CFA3C1E2DBE2D5E2EFE2E7F
:102D50001E3FBE3F626382732274C27462758665D1
:102D60002666C666666786772678C67866798A6933
:102D70002A6ACA6A6A6B8A7B2A7CCA7C6A7D8E6DE3
:102D80002E6ECE6E6E6F8E7FAE7293E222007390C7
:102D90000210C2627D6182801300000013000000F7
:102DA00013000000130000001300000013000000D7
:102DB00013000000130000001300000013000000C7
:102DC00013000000130000001300000013000000B7
:102DD00013000000130000001300000013000000A7
:102DE0001300000013000000130000001300000097
:102DF0001300000013000000130000001300000087
:102E0000F3220010170300000333C357832303008A
:102E1000B3E2720083234300B3F2720093F2D2FF55
:102E200013030012B3E26200130505F061152330AD
:102E30005500130505F510E1130505FD9702000087
:102E400083B242592330550061150CE18280FF9F07
:102E5000FFFF002000000000000000000000000054
:102E60000000000000000000000000000000000062
:102E70000000000000000000000000000000000052
:102E80000000000000000000000000000000000042
:042E9000000000003E
:102E980049444C4500000000546D72510000000088
:102EA800546D7220537663003078000000000000F3
:102EB80069636320696E6974206661696C65643A48
:102EC8002071756575653D2570206D757465783D53
:102ED80025700A000000000069636320696E697448
:102EE8003A2071756575652064657074683D256460
:102EF8002068616E646C6572733D25640A00000089
:102F08006963632072656769737465723A206570D6
:102F18003D257820736C6F743D25640A000000001D
:102F28006963632072656769737465722066616995
:102F38006C65643A207461626C652066756C6C20FF
:102F480065703D25780A0000696363206973723AE9
:102F58002064697370617463682071756575652094
:102F680066756C6C2C2064726F7020636F6F6B6970
:102F7800653D25780A000000696363206C6F616E07
:102F8800206661696C65643A20746F5F78763620D4
:102F980066756C6C20686561643D256420746169A0
:102FA8006C3D25640A0000006963632073656E64E4
:102FB800206661696C65643A206D73673D257020F1
:102FC80065787065637465643D25700A00000000CB
:102FD8006963632064697370617463683A206E6F13
:102FE8002068616E646C657220666F722064737409
:102FF8003D257820636F6F6B69653D25780A000071
:10300800696363206563686F3A207278207372631E
:103018003D2578206473743D257820636D643D25D3
:103028007820636F6F6B69653D2578207061796CD6
:103038006F61643D25730A00696363206563686F87
:103048003A206C6F616E206661696C65640A0000E5
:1030580072746F732D3E78763620706861736536AA
:103068002061636B00000000696363207570706500
:10307800723A207278207372633D257820647374E5
:103088003D257820636D643D257820636F6F6B69FB
:10309800653D2578207061796C6F61643D25730A00
:1030A800000000000000000069636320757070650F
:1030B800723A206C6F616E206661696C65640A0003
:1030C8006963632075707065723A207265706C79F7
:1030D8002073656E7420636F6F6B69653D25780A90
:1030E80000000000000000006963632074657374C9
:1030F8003A206C6F616E206661696C65640A000035
:1031080072746F732D3E78763620706861736536F9
:103118002068656C6C6F0000696363207465737464
:103128003A2073656E6420746F2078763620636F5A
:103138006F6B69653D25780A0000000000000000FB
:103148006D61696C626F7820697271207265636560
:10315800697665642C20726561736F6E3D25780A07
:103168000000000000000000706C69633A20756E72
:103178006B6E6F776E206972712025640A000000FB
:10318800765461736B4372656174650A00000000D0
:103198007461736B310000007461736B320000005E
:1031A800765561727452785461736B0000000000A8
:1031B8007649636344697370617463685461736BBF
:1031C80000000000000000007649636354657374D2
:1031D8005461736B00000000764D61696C626F7812
:1031E800546573745461736B0000000000000000A4
:1031F8007461736B322025780A000000000000001B
:103208007461736B312025780A000000000000000B
:103218006D61696C626F78746573743A2072696E57
:103228006720646F6F7262656C6C20746F207876AB
:10323800362C20726561736F6E3D25780A00000098
:1032480072783A20257820272563270A0000000095
:1032580048656C6C6F204672656552544F53210A5D
:1032680000000000000000006963633A207265678F
:103278006973746572206563686F2068616E646C39
:103288006572206661696C65640A000000000000D0
:103298006963633A20726567697374657220757033
:1032A8007065722068616E646C6572206661696C15
:1032B80065640A00000000007461736B2063726526
:1032C8006174000086E5FFFFDCE5FFFFDCE5FFFF3A
:1032D80020E6FFFF2CE6FFFF4AE6FFFFDCE5FFFFE5
:1032E800DCE5FFFF20E6FFFF2CE6FFFF0EEBFFFF0C
:1032F800EAEAFFFF2EEBFFFF2EEBFFFF2EEBFFFFAF
:103308002EEBFFFF2EEBFFFF2EEBFFFF2EEBFFFF59
:103318002EEBFFFF2EEBFFFF2EEBFFFF2EEBFFFF49
:10332800D8EAFFFF2EEBFFFF2EEBFFFFFCEAFFFFC3
:103338002EEBFFFF2EEBFFFF2EEBFFFF2EEBFFFF29
:10334800D8EAFFFF00000000303132333435363719
:10335800383961626364656600000000000000009F
:103368000600000000000000907700B00000000098
:1033780000000000000000004E2E00B00000000019
:10338800783B00B000000000A0B001B000000000D1
:10339800D82500B000000000002900B0000000009F
:1033A800000040B000000000E83300B0000000005A
:1033B800783300B000000000E83300B000000000DF
:1033C800783300B0000000003E1A00B00000000092
:1033D800FFFFFFFFFFFFFFFF0000000000000000ED
:04000005B000000047
:00000001FF
