:02000004B0004A
:100000009731000083B1819A9D45631EB5087350F6
:10001000401073504014996273B00210896273A04B
:100020000210B702040073A0021017310000033160
:10003000E19973100114173500000335259B97359E
:10004000000083B5A599173600000336A69963FA18
:10005000C5008332050023B055002105A105E3EA60
:10006000C5FE173500000335E5969735000083B5CA
:1000700065946377B500233005002105E36DB5FE77
:100080001735000003358593EF10F05AEF10F05A42
:10009000014581450146EF10707573005010F5BFA2
:0C00A00073005010F5BF73005010F5BF46
:10010000930705011CE57D5718E91CED1CF1233010
:10011000050082802330050282801C659CE5986B77
:1001200098E90CE78CEB88F11C6185071CE1828063
:100130009061FD576303F60293070501BE869C6735
:100140009863E37DE6FE9C669CE58CEB94E98CE687
:1001500088F11C6185071CE182801471EDB71C7168
:100160001465186998EA146514E798676308A7008E
:100170002330050288637D1588E38280186998E73B
:10018000C5BF411106E422E02A84EF0030383C78F4
:1001900089EB0544EF0030392285A26002644101F9
:1001A00082800144C5BF011106EC22E826E44AE042
:1001B0002A84B2840339050750611DE21C6199CB82
:1001C0000145930719003CF8E2604264A2640269A9
:1001D000056182800869EF00302923380400D5B713
:1001E00099EC0865EF10F0461C645860BA971CE45F
:1001F000186863EFE7021C601CE42685D9B7086D18
:10020000EF1030451C6C5860B306E040998F1CEC31
:10021000186063F5E7001C68B6971CEC8947638497
:10022000F400014579BF630709007D19014551BFFD
:10023000268541BF014571B7AA87506115C241119A
:1002400006E42E85986F329798EF946B6364D7001D
:10025000986398EF8C6FEF10D03FA26041018280CD
:100260008280011106EC22E826E4AA84EF00102A1D
:1002700003C494081B1484011B54844131A07D34B1
:100280001B1484011B548441635C8000BC6489CBD3
:1002900013858404EF00F00E7DD1EF00701CC5B70C
:1002A000FD57A384F408EF001028EF00302603C4A4
:1002B00084081B1484011B54844131A07D341B1419
:1002C00084011B548441635C80009C7089CB13853E
:1002D0000402EF00100B7DD1EF009018C5B7FD5759
:1002E0002384F408EF003024E2604264A2640561D4
:1002F000828049C5797106F422F026EC2A84AE8406
:100300003C7DBDCF54610147B3B7D70281E709C730
:10031000014585A80547E5BFEF00501F1C60347CF0
:1003200058603386E6023E9610E8233804061CE443
:10033000FD163307D702BA971CECFD572304F408C7
:10034000A304F4089DE01C7089E7EF00D01D05456B
:100350000DA813050402EF00D00265D99307000829
:100360003EE42800EF10B031CDB713050402EFF0E2
:100370003FD913058404EFF0BFD8C1BF0145828087
:100380000145A2700274E26445618280011106ECAD
:1003900022E826E4B6843A8499ED18E028FC4CE083
:1003A00085452285EFF0FFF4230C9408E260426457
:1003B000A2640561828010E3D5B7797106F44EE43A
:1003C00031C522F026EC4AE82A84AE84328981477E
:1003D0003337B50215EBA9E3330594029307F0F523
:1003E00063E1A7041305050AEF100028AA891DCDB3
:1003F0002A87CA861306050AA6852285EFF01FF90B
:100400000274E264426921A08547F1B781494E85B3
:10041000A270A2694561828081490274E2644269E6
:10042000FDB781490274E2644269D5B70274E2649F
:100430004269F1BF011106EC22E84AE02A843289C0
:10044000368638793C7D636BF70089476388F60010
:100450000145E260426402690561828026E48344CA
:1004600094089B9484019BD484413C782285EFF0CE
:100470009FD3FD576393F4023C6481E70545A26472
:10048000C9BF13058404EF00C06F15C563080902D6
:1004900005452330A900A2646DBFEF00604963F2F7
:1004A000A40285249B9484019BD48441A3049408D2
:1004B0000545A26479BF0545A26461BF0545A264F4
:1004C00049BF0545A26471B71D7186ECA2E8A6E498
:1004D000CAE04EFC2A84AE8932E40149ADA8CE853B
:1004E0002285EFF07FD5FD1424F81C7099EBEF0006
:1004F00090030545E6604664A6640669E2792561D5
:10050000828013050402EF00C06775D193070008CD
:100510003EEC2808EF10B016D9BFEF00D00001451F
:10052000D1BF0810EF00E072054935A82304040884
:1005300091A8A304040885A02285EFF09FD2EF00C4
:10054000B02C11A82285EFF0DFD1EF00F02B22852F
:10055000EFF03FC335EDEF00607B2478C9F0A26770
:10056000CDDFE30009FCEF00007CEF00403BEF0033
:10057000E079834784089B9787019BD787417D5704
:10058000E386E7FA834794089B9787019BD78741C7
:100590007D57E380E7FAEF0000792C000810EF00A8
:1005A000703C4DF12285EFF0DFBD59D5A2651305F2
:1005B0008404EF0040562285EFF0BFCAEF00D0243C
:1005C00059F9930700083EEC2808EF10500B61B76B
:1005D00001450DB781C50146814739A08280138648
:1005E000019536961DA885071D476367F702939608
:1005F00047001387019536971867E302A7FE65F653
:1006000093964700138701953697186369FF138700
:1006100001953386E600C1BF19C20CE208E682806C
:10062000011106EC22E826E44AE02A84AE843289ED
:10063000EF00C06D834784089B9787019BD7874154
:100640007D576388E702834794089B9787019BD770
:1006500087417D576382E702EF00E06C3C7885C3F9
:100660002285EFF01FC0E2604264A2640269056166
:10067000828023040408C1BFA3040408F1BF4A8692
:10068000A68513058404EF00404BD9BF83B7018EC4
:100690009C6389E7FD5723B4F188828083B7018E7C
:1006A0009C6F9C6323B4F1888280411106E422E0B0
:1006B0002A842871EF1000092285EF10A008A2609B
:1006C000026441018280397106FC22F826F44AF066
:1006D0004EEC52E856E45AE0AA8AAE84368B3A8948
:1006E0003E8A4284931936004E869305500A03359C
:1006F0000806EF10C0743C70E119BE9993F909FF28
:100700009DC081483D48636E180133881401030879
:100710000800330314012304030763040800850859
:10072000D5B7A30B0406994763F327013E89233C01
:1007300024052338240913058400EFF0BF9D130519
:100740000403EFF03F9D00F09D47B38727411CF85D
:1007500020E45A86D6854E85EF10906A08E063043F
:100760000A0023308A00E2704274A2740279E269BE
:10077000426AA26A026B216182805D7186E4A2E016
:1007800026FC4AF84EF452F056EC5AE85EE4AA8988
:100790002E8A3289B68A3A8BBE8B13153600EF004B
:1007A000B06CAA8439C51305800AEF00F06B2A8467
:1007B0000DCD1306800A8145EF10606824F0814852
:1007C0002288DE875A87D6864A86D2854E85EFF004
:1007D0009FEF2285A6600664E2744279A279027ACC
:1007E000E26A426BA26B616182802685EF009075A0
:1007F000CDB72A84F9BF411106E422E0014421A8C3
:1008000093172400A29713973700138581A93A956F
:10081000EFF01F8F05049947E3F487FE138501A7C6
:10082000EFF01F8E138581A4EFF09F8D138501A239
:10083000EFF01F8D1385819FEFF09F8C1385019D35
:10084000EFF01F8C938701A723B0F18E938781A4CB
:1008500023BCF18CA260026441018280797106F4AC
:1008600022F026EC4AE84EE452E02A84AE8403B932
:10087000018C83B9018E03BA818D9387818E986331
:10088000A302070A88632105EFF07F8D11ED83B77E
:10089000818EB86F8547B397E70093C7F7FF9386BC
:1008A000818B9862F98F9CE2FD576306F4024A94AB
:1008B00083B7818E80E76377240583B5818EA10598
:1008C0005285EFF0FF86A2700274E2644269A26969
:1008D000026A45618280E1DC1387019D146793877A
:1008E000818E906314EA90638C6A0CEE906321060B
:1008F00090E59063210690EA9C6398F71C63850756
:100900001CE3D1B783B5818EA1054E85EFF05F82E0
:1009100083B78188E379F4FA23B481886DB71387AC
:1009200081871C6385071CE3828003B5018C82806C
:1009300003B5818C828083B781876392071441114C
:1009400006E422E09387018C8063050480E315CCE4
:1009500083B78188637BF404014583B7818EB86FC8
:1009600093172700BA9713973700938781A9BA97EF
:100970009863854763F3E7003E8583B7018A6397F1
:100980000710A2600264410182801387018E146304
:100990009387818D906310E394E3138781891C63AF
:1009A00085071CE3EFF09FCE65B70145BDA8FD5755
:1009B00023B4F1885DB723B4E18845B7946F14E799
:1009C00059A823B807041463FD1614E3B46F054750
:1009D0003317D7001386818B03380600336707016E
:1009E00018E2138781A913962600369693163600CF
:1009F000BA96946694EB906A90EF0CE68CEAAC6F32
:100A0000939625003388B600131638003A9690F76F
:100A100010620506931538002E9710E3B86F83B760
:100A2000818EBC6F63F3E700054583B7018E9C633D
:100A3000BDDF83B7018E9C6F9C6F9867E36DE4F612
:100A40009877906B946F14EA906B90E61467938597
:100A50008700E385B6F623B407021463FD1614E39A
:100A6000B86B2DD7907FB46314EA907F90E610673F
:100A700093860703E317D6F4B46314E799B7138793
:100A8000818A1C6385071CE3014582800545D5BD2D
:100A900083B7818789C7854723B0F18A828023B0D5
:100AA000018A83B7818B8127B1CF014721A0052718
:100AB0009B971700E3DD07FE02170193FD47998F0F
:100AC000938581A9939627003386F6001317360085
:100AD0002E971067106610E7BE96139736004107F1
:100AE0002E976304E60213972700BA9713973700EF
:100AF000938781A9BA979C67986F9387818E98E3B3
:100B00009C6382801307000245BF8E063387D500A1
:100B1000146F14E7C9BF411106E422E02E8483B5A7
:100B2000818E93850503EFF0AFE085452285EFF0D8
:100B3000FFD2A260026441018280411106E4AA87CB
:100B40002E85B28594671387818E106314FE10631F
:100B500003B8060123300605106313060603233489
:100B6000C80010631306060390EA18633CEB986311
:100B7000050798E391C17D55EFF05FCEA26041017A
:100B800082801C6D9C6FB86B907FB46314EA907F79
:100B900090E61467138607036388C60823B8070422
:100BA0001463FD1614E303B7818749E79877906BC8
:100BB000946F14EA906B90E6106793868700630841
:100BC000D60623B4070210637D1610E3AC6F054709
:100BD0003317B7001386818B0862498F18E213869A
:100BE00081A9139725002E970E073297186798EB67
:100BF0000C6B8CEF94E514EBAC6F13972500B306E8
:100C0000B7008E06B29694F7946285062E970E076B
:100C10003A9614E2B86F83B7818EBC6F63F9E7022E
:100C2000054523B0A18A8280B46314E785BF906F25
:100C300010E741BF138701A2146794FF8C6AACE3ED
:100C400090E590EAB8EB1463850614E3E1B701453B
:100C5000828083B781891CE183B7018C1CE5828087
:100C6000854723B0F18A828051CD011106EC22E83C
:100C70002A845C6DFD175CED346D58696386E60867
:100C800091C70145E26042640561828026E49304D5
:100C900085002685EFF0AFCC01ED386C8547B39722
:100CA000E70093C7F7FF1387818B1463F58F1CE36D
:100CB000586838EC9D47998F1CF80545B317E50037
:100CC0009386818B9062D18F9CE2938681A9931742
:100CD0002700BA978E07B6979C671CE8986B18ECAC
:100CE00004E784EB306C931726003387C7000E07A8
:100CF000369718F418632A97B2978E07BE9698E233
:100D0000A26449B7014582800145ADBF73700110EF
:100D100083B7018B81CB1387818E1463BC7E8507DB
:100D2000BCFE1C63828083B7018B85C383B7818E31
:100D3000BC7F81CF1387818E1463BC7EFD17BCFE00
:100D40001C63BC7F99E3736001108280011106EC83
:100D500022E82A84EFF09FFB1387818C1C638507B0
:100D60001CE383B7818E89CF83B7018B8DE383B773
:100D7000818EB86F3C6C63ECE70023B4818E01A8D0
:100D800023B4818E03B7818C8547630DF7061387E3
:100D900001891C6385071CE35CE0386C8547B397C9
:100DA000E7009386818B9062D18F9CE2938681A924
:100DB00093172700BA978E07B6979C671CE8906B2D
:100DC00010EC1307840018E698EB306C931726009C
:100DD0003387C7000E07369718F418630507B297D4
:100DE0008E07BE9698E2EFF01FF483B7018B99C788
:100DF00083B7818EB86F3C6C6369F700E260426430
:100E000005618280EFF03F9F59B7930700083EE4E9
:100E10002800EF10C006DDB7411106E4EFF0FF95A2
:100E200019C5EFF0BFF20545A260410182807D55F2
:100E3000E5BF011106EC22E802E002E481473947F0
:100E40006361F70217270000130747853E970307E2
:100E50000700938607018A962388E6FE19C3850753
:100E6000F9BFC1078A97238807FE014405456356E9
:100E70008000E2604264056182809317340013872A
:100E80000188BA9701478146130600208A85170515
:100E9000000013050517EFF03FF88547E31BF5FC4D
:100EA0003E94F1B7411106E4EFF0BFF885476309BE
:100EB000F5009727000083B767ADA26041018280EB
:100EC000EF00C0658547E316F5FE73700110FD570E
:100ED00023B4F188854723B8F18A23B0018CEF0051
:100EE000C06AC1BF797106F422F026EC2A84EFF0C3
:100EF000FFE159C4930484002685EFF04FA60DE569
:100F0000346C93972600B6978E07138781A9BA97FA
:100F10009C6399EB8547B397D70093C7F7FF138777
:100F2000818B1463F58F1CE33C6889C713050403A8
:100F3000EFF0EFA2138701891C6385071CE383B7D9
:100F4000818E63828704014783B7018B91C315EFBC
:100F50001387818C1C63FD171CE3EFF02FF3EFF078
:100F60009FDC2285EFF06FF483B7018B89C783B7CD
:100F7000818E63898702A2700274E2644561828077
:100F800003B4818E85BF0547C1B7A6851385819FB0
:100F9000EFF0AF981387018D1C6385071CE3EFF01A
:100FA0009FD8D9B7930700083EE42800EF00306DC2
:100FB000D9B783B7018DB9C3411106E422E0EFF040
:100FC000FFD483B701A1806F13058400EFF02F9940
:100FD0001387818C1C63FD171CE31387018D1C6331
:100FE000FD171CE3EFF03FD42285EFF00FEC83B741
:100FF000018DF1F7A260026441018280828041117B
:1010000006E4EFF01FFBF5BF011106EC22E8EFF05C
:10101000FFCF9387818798637D1798E39C636391E3
:10102000071083B7818C89EB0144E5A8B46314E70A
:1010300035A0906F10E799A0814703B701A255C36F
:1010400083B781A39C6FB86B907FB46314EA907FE1
:1010500090E6106793860703E30AD6FC23B80704DB
:101060001463FD1614E39877906B946F14EA906BF9
:1010700090E6106793868700E30DD6FA23B4070243
:1010800010637D1610E3AC6F05473317B700138666
:10109000818B0862498F18E2138681A91397250076
:1010A0002E970E073297186798EB0C6B8CEF94E530
:1010B00014EBAC6F13972500B306B7008E06B296FB
:1010C00094F7946285062E970E073A9614E2B46F51
:1010D00003B7818E386FE372D7F6054723B0E18AF4
:1010E000A9BF99C3EFF08FDA03B4818A05E003B496
:1010F000018A05C883B7818E930700083EE4280063
:10110000EF00F057054431A87D1401C8EFF0BF820D
:1011100065DD854723B0F18AC5BF23B4018AC1BF0D
:101120000144EFF05FC02285E26042640561828085
:10113000011106EC09CD22E82A84EFF04FFE81452B
:101140002285EFF0AFF1EFF03FEC19E9426493072D
:1011500000083EE42800EF009052E26005618280C2
:101160004264E5BF011106EC22E826E42A84AE843D
:10117000EFF0DFB903B7018C1C643306F74083B688
:10118000818E83C6560A91CE83B7818EA382070AC9
:101190000544EFF05FB92285E2604264A264056114
:1011A00082809460FD55638BB602086083B58189A7
:1011B0006308B5006366F70023B004000544D1BF9F
:1011C0006366D60023B004000544E1B7998FB69753
:1011D0009CE02285EFF0FFA7014465BF014455BFA5
:1011E00003B701911C6399E785471CE191E71C6FE8
:1011F000886382808147D5BF01458280411106E422
:101200000CE508F16362B602158E1C796366F60080
:101210000545A260410182809305850003B5819058
:10122000EFE01FF10145F5B76374D60063FAD5000E
:101230009305850003B50191EFE09FEF0145D1BF14
:101240000545C1BF011106EC22E826E44AE02A84E4
:10125000AE84328931A01C78BE943C60228582978E
:101260000C78A6864A86A6952285EFF03FF965F5AB
:10127000E2604264A264026905618280011106ECA9
:1012800022E826E44AE0AA842E8983B701919C6F64
:10129000806F13058400EFE09FEC8347040513F78C
:1012A000470009EFF99B2308F4043C6022858297EC
:1012B000E2604264A2640269056182804A86A68572
:1012C0002285EFF03FF8D5B783B7019198630DC73A
:1012D000411106E49C6FFD558863EFF03FFA83B738
:1012E0000191986365FB13878190146323B8D190B3
:1012F0001CE3A2604101828013878190146323B8AC
:10130000D1901CE38280011106EC22E826E4AA8435
:10131000EFF0AFE12A8483B7018F636CF50023B04F
:10132000040023B8818E2285E2604264A2640561D4
:101330008280EFF07FF985479CE0E5B7797106F48C
:1013400022F04AE82A892E84EFF06FDD2800EFF0C2
:101350009FFBA267B1EF26ECAA841DE86372250308
:101360002286B305994003B50190EFF06FABEFF023
:10137000BFC91DC5E264A2700274426945618280E2
:10138000EFF09FC8A6854A85EFF05FEFE264E5B70E
:1013900003B78190186319E30544D9B73E84C9B7F0
:1013A000930700083EE00A85EF00702DE264E1B784
:1013B000EFF09FC5C9B75D7186E4A2E026FC02E8A4
:1013C00002EC02F002F401460C0803B50190EFF0C4
:1013D000AF8F69C9C26763CE0702C267E3C507FE64
:1013E000027475D01C7489C713058400EFE03FD7E1
:1013F0002800EFF05FF1AA84C2672547E365F7FC98
:101400008A07171700001307A74EBA979C43BA978D
:101410008287A2550275E2678297C1B783470405A8
:1014200093E717002308F404E2660C782A86B69541
:101430002285EFF0BFDC41D98347040513F747004D
:1014400001EBF99B2308F4043C6022858297A5BF39
:101450001C782686E265BE952285EFF0BFDEEDB7EB
:1014600083470405F99B2308F404B1BF83470405AF
:1014700093E717002308F404E2650CF8AA862A868D
:10148000AA952285EFF09FD73DBF8347040513F748
:10149000270009C7F99B2308F40435B72285EF001C
:1014A000602A15B7A6600664E2746161828001114A
:1014B00006EC2800EFF0DFD2A265EFF03FE8EFF096
:1014C0009FEFC5BF411106E4EFF05F8483B7019041
:1014D00091C7EFF05F85A26041018280138581BDD5
:1014E000EFE01FC2138501BBEFE09FC1938781BD71
:1014F00023B8F190938701BB23B4F1900146930583
:1015000000021945EFE07FEB23B0A19079D1971548
:10151000000093852519EFF0EF8B65BF411106E4BC
:10152000EFF05FFA83B7019085C79387818F1947E2
:1015300081461306E00697150000938525171705C9
:101540000000130505F7EFF03F8DA2604101828096
:101550000145E5BF732710C09387819198E38863A5
:101560008280411106E4EFF0FFFE896793870771DF
:101570003E95EF00B00FA26041018280411106E468
:10158000EF00500FA26041018280411106E4EFF0AC
:101590005FFD9307000273A047107360411093072B
:1015A000002073A04710EF00B0750145A260410113
:1015B00082807370011001A0175700001307877F06
:1015C0009377F700A9C7975600009386967FC19A34
:1015D000C167938747BF958FBA97368797560000A4
:1015E0009386467C98E223B40600BA97C117C19B44
:1015F00023B0F19423B4070023B00700B386E7407B
:1016000014E71CE323B8D19223BCD1928280C16736
:10161000938747BFE1B7975700009387A7783E8726
:101620009C63E3EEA7FE14673306D700630CA600A5
:1016300014653306D500638CC7001CE16303E50025
:1016400008E382801065B29614E73A85D5B703B6F1
:1016500001946389C7009C67BE9614E51C639C6374
:101660001CE1E9BF10E1D9BF011106EC22E826E434
:101670002A840DC1BD5763EEA700130405019377BB
:10168000F40089CB41471D8FBD1763E787023A9469
:1016900011A00144EFF0AFA883B7019485C3634B59
:1016A000040859C803B68193636A860897560000F8
:1016B0009386466F9C6201A80144E9BFEFF0DFEF1B
:1016C000F9BFBE86BA87986763748700986375FB15
:1016D00003B701946306F7068462C104986398E235
:1016E0009867018F9305000263F9E500B3858700D1
:1016F00098E580E7986298E18CE29867198E23BCA0
:10170000C19283B601936374D60023B8C192FD568B
:10171000FE16558F98E723B00700138781921C634C
:1017200085071CE3EFF05F8E2685E2604264A264C9
:10173000056182808144FDB78144EDB78144DDB706
:101740008144CDB729CD011106EC22E826E42A8494
:10175000930405FF833785FF63C70700E260426497
:10176000A26405618280033705FF6DFB7D57058309
:10177000F98F233CF5FEEFF08F9A833684FF1387B1
:1017800081931C63B6971CE32685EFF0DFE813878F
:1017900001921C6385071CE3EFF01F87C1B78280AD
:1017A000797106F422F02A8463430504014437D793
:1017B000CCCC1307D7CC93170702BA97B337F502EF
:1017C00013D7370093162700369706073307E540EF
:1017D0001B070703930604028A9605242384E6FE6A
:1017E0002A8713D53700A547E3E3E7FC15A01305C7
:1017F000D002EF004029330580404DBF9B07F4FF26
:101800003E84938707028A97038587FEEF00A0270F
:10181000E34680FEA270027445618280011106ECED
:1018200022E826E42A8401A8930414000305040096
:10183000EF00602526848307040081CB2947E395C8
:10184000E7FE3545EF002024C5B7E2604264A2649C
:1018500005618280011106EC22E826E4AA841715AE
:101860000000130525E5EFF07FFB1304C0030147DB
:1018700021A8171700001307E70FBA970385070081
:10188000EF0060200547713463490400B3D784003A
:10189000BD8BE5F379FF65F8E9BFE2604264A264BD
:1018A00005618280411106E4EF00801CA2604101C5
:1018B0008280597106F422F026EC2A842EFCB2E0D4
:1018C000B6E4BAE8BEECC2F0C6F43C183EE419A88F
:1018D00029476383E7069304140003050400EF001F
:1018E000801A268483070400CDCF13075002E391AA
:1018F000E7FE930424008307140013075002638655
:10190000E70863CAE708130780076346F708130769
:10191000300663C2E7089B87D7F993F6F70F554760
:10192000636BD70693972600171700001307C7FEAF
:10193000BA979C43BA9782873545EF00C01461BFC0
:10194000A267138787003AE48863EFF0BFF026842C
:1019500051BFA267138787003AE48843EFF05FE442
:10196000268449B7A267138787003AE48863EFF0BB
:10197000FFEA268485BFA267138787003AE40385C0
:101980000700EF0040102684B1BF13055002EF009E
:10199000800F268481BF1305F003EF00C00E26845C
:1019A00091B7A2700274E26465618280797106F475
:1019B000EF00A0161DC522F02A8402E4B14763059A
:1019C000F502B5476303F504AA8517150000130552
:1019D00065D1EFF01FEE2285EF00A014A267A1EF02
:1019E0000274A27045618280EF00C00CE34505FEE1
:1019F00083B78194F5DBA303A100814630009305F2
:101A000071003E85EFE01FA3C5B726ECEF00A004F0
:101A1000AA84EF00C0049395040281911715000079
:101A20001305C5C9EFF0FFE899C0E2646DB7EF0098
:101A30008030E2644DB7EFF0AF8502745DB74111BD
:101A400006E485453545EF00800E3545EF00C00AB8
:101A5000A26041018280B747001088478280B74763
:101A60000010054798C78280B7470010C8C382801E
:101A7000B7270010A38007000D47A381E7001D478B
:101A80002381E7008280B727001083C7570093F7B0
:101A90000702F5DB1375F50FB72700102380A700A9
:101AA0008280B727001003C7170013671700A380B1
:101AB000E7008280B727001083C75700858B91C746
:101AC000B727001003C5070082807D5582806357C9
:101AD000A0000A05B707000C3E950CC18280411199
:101AE00006E4B7F7200C23A0070085453145EFF049
:101AF0001FFEA260410182806350A00293575500EF
:101B00008A073727000C13070778BA978546BB96D4
:101B1000A6009843558F98C38280B7F7200CC8431E
:101B200082806355A000B7F7200CC8C382804111A2
:101B300006E4EFF0DFF9A260410182801305900511
:101B40006605828037250B00050532058280371532
:101B5000005906058280014721A893170702819347
:101B6000B386F500AA9783C606002380D700052711
:101B70009307F003E3F3E7FE8280814701A8139700
:101B8000070201932A972300070085271307F00314
:101B9000E377F7FE82802A87014511A00525931778
:101BA00005028193BA9783870700EDFB82800111BC
:101BB00006EC22E826E42A84AE842E85EFF0BFFDF1
:101BC0005C446397A702014711A005276370A70231
:101BD000931707028193B306F40083868601A697C4
:101BE00083870700E383F6FE014521A0054511A088
:101BF0000145E2604264A264056182800328C60058
:101C00006364B8001B88F5FF9307800263F3070144
:101C10003E88014721A8931707028193B306F50078
:101C2000B297838787012380F6000527E36507FFC6
:101C300002181358080242952300050082801D7186
:101C400086ECA2E8CAE04EFC52F856F4AA89EFF0FE
:101C5000FFEE2A8AEFF0BFEF2A84971700009387E0
:101C6000E7AF9463986736E43AE8984B3ACC83C779
:101C70004701230EF100832A0A01812A03294A0120
:101C800001292800EFF03FF13B0759419307F0038A
:101C900063EEE702A6E4AA84937AF90393976A00B5
:101CA0003E942285EFF07FEDC167938707101CC03B
:101CB00083A709005CC083A789001CC444C483A710
:101CC00009011CC8232A0400014705A84A86D685B5
:101CD00017150000130585A2EFF0BFBD7D55A1A02B
:101CE0009317070281939386070233862600030623
:101CF00086FEA297238CC7000527E36397FE0F009B
:101D000030039B061900232ADA0003E60901D68571
:101D100017150000130585A1EFF0BFB90145EFF0DD
:101D2000BFD40145A664E66046640669E279427A5A
:101D3000A27A25618280717106F54AE9EFF01FE011
:101D40002A89EFF03FE0032709000127B7574151E7
:101D5000938707D5631BF7004EE5AA8983274900BF
:101D6000812705476383E702AA69832509000326C3
:101D7000490082158191171500001305A5A0EFF009
:101D80005FB3AA704A694D61828022F126ED52E16B
:101D900005A8971500009385659E2EE40C082EE09B
:101DA000D285171500001305E5A1EFF09FB00F00D5
:101DB00030030524232489008800EFF05FE835E133
:101DC0000324890001248327C90081276300F406C6
:101DD0000F003003137AF40393156A008400CE9544
:101DE0002685EFF05FD72686930590020808EFF06E
:101DF000FFE0971500009385659B2685EFF03FDB9C
:101E0000036601048366410403678104B6470368DF
:101E100001058368410535DD97150000938585959B
:101E2000ADBF0A74EA64AA690A6AA1BF0A74EA64C7
:101E3000AA690A6AB9B70145828082808280AA872E
:101E400029A02380B70085073A861307F6FF75FAA5
:101E50008280AA8701A883C605002380D700850554
:101E600085073A861307F6FF7DF682808148730066
:101E70000000828001458D487300000082809148F7
:101E8000730000008280411106E41715000013055D
:101E90006599EFF01FA28147114781460566130639
:101EA0000680971500009385E59817050000130537
:101EB000A509EFE07FF681471147814605661306C5
:101EC0000680971500009385659717050000130598
:101ED0006505EFE07FF481471547814605661306E7
:101EE0000680971500009385E595170500001305FA
:101EF000450DEFE07FF28147114781461306002030
:101F00009715000093850595170500001305050634
:101F1000EFE09FF00145EFE0FFFCA260410182800D
:101F2000411106E422E081451B84150017150000CD
:101F30001305C593EFF0FF971305803EEFF04F9F19
:101F4000A285DDB7411106E422E081451B8415001E
:101F50001715000013058592EFF0BF951305803E1D
:101F6000EFF00F9DA285DDB7411106E4056513056D
:101F70008538EFF0EF9BA9659385A55517150000EF
:101F80001305C590EFF0FF9229651305A555EFF0F5
:101F9000BFAD1305007DEFF0AF999305B0021715A3
:101FA00000001305A58EEFF0DF901305B002EFF0EF
:101FB000BFAB0145EFE01FF3A26041018280011138
:101FC00006EC7D569305F10003B58194EFE0CFCF89
:101FD0008547E318F5FE0306F1009375F60F171514
:101FE00000001305A58DEFF0DF8CE1BF411106E481
:101FF000EFF05F8B171500001305458DEFF07F8B19
:10200000EFF0FFAD3145EFF03FAFEFF05FA30146DA
:10201000854513050004EFE04FBA23B4A194EFF017
:102020005FA88147114781461306001097150000ED
:102030009385458B17050000130525E5EFE0DFDDEF
:10204000EFE05FE60145A2604101828000000000F0
:102050000000000000000000000000000000000080
:102060000000000000000000000000000000000070
:102070000000000000000000000000000000000060
:102080000000000000000000000000000000000050
:102090000000000000000000000000000000000040
:1020A0000000000000000000000000000000000030
:1020B0000000000000000000000000000000000020
:1020C0000000000000000000000000000000000010
:1020D0000000000000000000000000000000000000
:1020E00000000000000000000000000000000000F0
:1020F00000000000000000000000000000000000E0
:10210000417106E416E81AEC1EF022F426F82AFCC7
:10211000AEE0B2E4B6E8BAECBEF0C2F4C6F8CAFC6F
:102120004EE152E556E95AED5EF162F566F96AFD57
:10213000EEE1F2E5F6E9FAEDFEF1F322001096F594
:10214000F3230010996233F353006312530482B9EE
:1021500086BD0AA20EA612AA16AE1AB21EB622BAE0
:1021600026BEAAA2AEA6B2AAB6AEBAB2BEB6C2BACF
:10217000C6BE4AA34EA752AB56AF5AB35EB762BBB8
:1021800066BFEAA3EEA7F2ABF6AFFAB3FEB7916271
:1021900073A00210896273B00210F322101416E0CB
:1021A00083B2818E23B0220073252014F3251014EE
:1021B0001356F50331CA2EE08542FE121383120036
:1021C000631B6500170100000331C17CEFF00FBBFA
:1021D000EFE01F8C91A81103631E6500170100003A
:1021E0000331417BEFF0EFB7EFE0EFF415CDEFE017
:1021F0003F8A1DA81103631B65001701000003310E
:102200006179EFF0AFFA0DA091052EE0732520144F
:10221000F3251014732630140A87170100000331C8
:102220006177EF00E00D09A003B3818E0331030055
:10223000826273901214F3230010AE727390021036
:10224000996233F35300631253044E30EE3012217F
:10225000B2215222F2221233B2335234F234162512
:10226000B6255626F6261637B6375638F6381A29C2
:10227000BA295A2AFA2A1A3BBA3B5A3CFA3C1E2D72
:10228000BE2D5E2EFE2E1E3FBE3FA260C262626366
:1022900082732274C274627586652666C666666736
:1022A00086772678C67866798A692A6ACA6A6A6BE6
:1022B0008A7B2A7CCA7C6A7D8E6D2E6ECE6E6E6F96
:1022C0008E7F7D617300201013000000130000005A
:1022D00013000000130000001300000013000000B2
:1022E00013000000130000001300000013000000A2
:1022F0001300000013000000130000001300000092
:102300006F00000013000000130000001300000025
:102310001300000013000000130000001300000071
:102320001300000013000000130000001300000061
:102330001300000013000000130000001300000051
:102340001300000013000000130000001300000041
:102350001300000013000000130000001300000031
:102360001300000013000000130000001300000021
:102370001300000013000000130000001300000011
:102380001300000013000000130000001300000001
:1023900013000000130000001300000013000000F1
:1023A00013000000130000001300000013000000E1
:1023B00013000000130000001300000013000000D1
:1023C00013000000130000001300000013000000C1
:1023D00013000000130000001300000013000000B1
:1023E00013000000130000001300000013000000A1
:1023F0001300000013000000130000001300000091
:102400006FF0CFDA82801300000013000000130089
:102410000000130000001300000013000000130070
:102420000000130000001300000013000000130060
:102430000000130000001300000013000000130050
:102440000000130000001300000013000000130040
:102450000000130000001300000013000000130030
:102460000000130000001300000013000000130020
:102470000000130000001300000013000000130010
:102480000000130000001300000013000000130000
:1024900000001300000013000000130000001300F0
:1024A00000001300000013000000130000001300E0
:1024B00000001300000013000000130000001300D0
:1024C00000001300000013000000130000001300C0
:1024D00000001300000013000000130000001300B0
:1024E00000001300000013000000130000001300A0
:1024F00000001300000013000000130000000100A2
:102500009702000083B2024C7390521003B1818E87
:10251000026182604E30EE301221B2215222F2224C
:102520001233B2335234F2341625B6255626F62627
:102530001637B6375638F6381A29BA295A2AFA2AD7
:102540001A3BBA3B5A3CFA3C1E2DBE2D5E2EFE2E87
:102550001E3FBE3F626382732274C27462758665D9
:102560002666C666666786772678C67866798A693B
:102570002A6ACA6A6A6B8A7B2A7CCA7C6A7D8E6DEB
:102580002E6ECE6E6E6F8E7FAE7293E222007390CF
:102590000210C2627D6182801300000013000000FF
:1025A00013000000130000001300000013000000DF
:1025B00013000000130000001300000013000000CF
:1025C00013000000130000001300000013000000BF
:1025D00013000000130000001300000013000000AF
:1025E000130000001300000013000000130000009F
:1025F000130000001300000013000000130000008F
:10260000F3220010170300000333C33983230300B0
:10261000B3E2720083234300B3F2720093F2D2FF5D
:1026200013030012B3E26200130505F061152330B5
:102630005500130505F510E1130505FD970200008F
:1026400083B2423B2330550061150CE18280FF9F2D
:10265000FFFF00200000000000000000000000005C
:10266000000000000000000000000000000000006A
:10267000000000000000000000000000000000005A
:10268000000000000000000000000000000000004A
:042690000000000046
:1026980049444C4500000000546D72510000000090
:1026A800546D7220537663003078000000000000FB
:1026B8006D61696C626F78206972712072656365FB
:1026C800697665642C20726561736F6E3D25780AA2
:1026D8000000000000000000706C69633A20756E0D
:1026E8006B6E6F776E206972712025640A00000096
:1026F80073686D656D3A20746F5F787636207269FD
:102708006E672066756C6C20686561643D25642081
:102718007461696C3D25640A000000000000000037
:1027280073686D656D3A2061636B20746F5F7876AE
:1027380036206964783D256420636F6F6B69653D59
:102748002578207461696C3D25640A00000000004A
:1027580072746F732D3E78763620706861736533B6
:102768002061636B000000006F6B00000000000038
:102778004641494C0000000073686D656D3A206E53
:102788006F74207265616479206D616769633D25A6
:10279800782076657273696F6E3D25640A000000C3
:1027A8007876362D3E72746F732070686173653366
:1027B8002068656C6C6F000073686D656D3A2072F7
:1027C80065637620746F5F72746F73206964783DF7
:1027D8002564207372633D2578206473743D2578E1
:1027E80020636D643D2578206C656E3D256420630B
:1027F8006F6F6B69653D257820666C6167733D2551
:1028080078207061796C6F61643D257320766572FC
:102818006966793D25730A00765461736B43726566
:102828006174650A000000007461736B3100000078
:102838007461736B3200000076556172745278547B
:1028480061736B0000000000764D61696C626F78FF
:10285800546573745461736B00000000000000003D
:102868007461736B322025780A00000000000000B4
:102878007461736B312025780A00000000000000A5
:102888006D61696C626F78746573743A2072696EF1
:102898006720646F6F7262656C6C20746F20787645
:1028A800362C20726561736F6E3D25780A00000032
:1028B80072783A20257820272563270A000000002F
:1028C80048656C6C6F204672656552544F53210AF7
:1028D80000000000000000007461736B20637265E3
:1028E80061740000DAEAFFFF30EBFFFF30EBFFFF17
:1028F80074EBFFFF80EBFFFF9EEBFFFF30EBFFFF6A
:1029080030EBFFFF74EBFFFF80EBFFFF62F0FFFF90
:102918003EF0FFFF82F0FFFF82F0FFFF82F0FFFF33
:1029280082F0FFFF82F0FFFF82F0FFFF82F0FFFFDF
:1029380082F0FFFF82F0FFFF82F0FFFF82F0FFFFCF
:102948002CF0FFFF82F0FFFF82F0FFFF50F0FFFF47
:1029580082F0FFFF82F0FFFF82F0FFFF82F0FFFFAF
:102968002CF0FFFF000000003031323334353637A9
:102978003839616263646566000000000000000089
:102988000600000000000000A06D00B0000000007C
:1029980000000000000000004E2600B0000000000B
:1029A800983100B000000000A86901B000000000E4
:1029B8003C1E00B000000000002100B00000000034
:1029C800000040B000000000082A00B0000000002D
:1029D800982900B000000000082A00B0000000009C
:1029E800982900B000000000B21500B000000000F7
:1029F800FFFFFFFFFFFFFFFF0000000000000000D7
:04000005B000000047
:00000001FF
